                                      1 ;--------------------------------------------------------
                                      2 ; File Created by SDCC : free open source ANSI-C Compiler
                                      3 ; Version 4.0.0 #11528 (MINGW64)
                                      4 ;--------------------------------------------------------
                                      5 	.module CH549_TCS34725
                                      6 	.optsdcc -mmcs51 --model-large
                                      7 	
                                      8 ;--------------------------------------------------------
                                      9 ; Public variables in this module
                                     10 ;--------------------------------------------------------
                                     11 	.globl _TCS34725_Write
                                     12 	.globl _IIC_Read_Byte
                                     13 	.globl _IIC_Send_Byte
                                     14 	.globl _IIC_Wait_Ack
                                     15 	.globl _IIC_Stop
                                     16 	.globl _IIC_Start
                                     17 	.globl _IIC_Init
                                     18 	.globl _UIF_BUS_RST
                                     19 	.globl _UIF_DETECT
                                     20 	.globl _UIF_TRANSFER
                                     21 	.globl _UIF_SUSPEND
                                     22 	.globl _UIF_HST_SOF
                                     23 	.globl _UIF_FIFO_OV
                                     24 	.globl _U_SIE_FREE
                                     25 	.globl _U_TOG_OK
                                     26 	.globl _U_IS_NAK
                                     27 	.globl _S0_R_FIFO
                                     28 	.globl _S0_T_FIFO
                                     29 	.globl _S0_FREE
                                     30 	.globl _S0_IF_BYTE
                                     31 	.globl _S0_IF_FIRST
                                     32 	.globl _S0_IF_OV
                                     33 	.globl _S0_FST_ACT
                                     34 	.globl _CP_RL2
                                     35 	.globl _C_T2
                                     36 	.globl _TR2
                                     37 	.globl _EXEN2
                                     38 	.globl _TCLK
                                     39 	.globl _RCLK
                                     40 	.globl _EXF2
                                     41 	.globl _CAP1F
                                     42 	.globl _TF2
                                     43 	.globl _RI
                                     44 	.globl _TI
                                     45 	.globl _RB8
                                     46 	.globl _TB8
                                     47 	.globl _REN
                                     48 	.globl _SM2
                                     49 	.globl _SM1
                                     50 	.globl _SM0
                                     51 	.globl _IT0
                                     52 	.globl _IE0
                                     53 	.globl _IT1
                                     54 	.globl _IE1
                                     55 	.globl _TR0
                                     56 	.globl _TF0
                                     57 	.globl _TR1
                                     58 	.globl _TF1
                                     59 	.globl _XI
                                     60 	.globl _XO
                                     61 	.globl _P4_0
                                     62 	.globl _P4_1
                                     63 	.globl _P4_2
                                     64 	.globl _P4_3
                                     65 	.globl _P4_4
                                     66 	.globl _P4_5
                                     67 	.globl _P4_6
                                     68 	.globl _RXD
                                     69 	.globl _TXD
                                     70 	.globl _INT0
                                     71 	.globl _INT1
                                     72 	.globl _T0
                                     73 	.globl _T1
                                     74 	.globl _CAP0
                                     75 	.globl _INT3
                                     76 	.globl _P3_0
                                     77 	.globl _P3_1
                                     78 	.globl _P3_2
                                     79 	.globl _P3_3
                                     80 	.globl _P3_4
                                     81 	.globl _P3_5
                                     82 	.globl _P3_6
                                     83 	.globl _P3_7
                                     84 	.globl _PWM5
                                     85 	.globl _PWM4
                                     86 	.globl _INT0_
                                     87 	.globl _PWM3
                                     88 	.globl _PWM2
                                     89 	.globl _CAP1_
                                     90 	.globl _T2_
                                     91 	.globl _PWM1
                                     92 	.globl _CAP2_
                                     93 	.globl _T2EX_
                                     94 	.globl _PWM0
                                     95 	.globl _RXD1
                                     96 	.globl _PWM6
                                     97 	.globl _TXD1
                                     98 	.globl _PWM7
                                     99 	.globl _P2_0
                                    100 	.globl _P2_1
                                    101 	.globl _P2_2
                                    102 	.globl _P2_3
                                    103 	.globl _P2_4
                                    104 	.globl _P2_5
                                    105 	.globl _P2_6
                                    106 	.globl _P2_7
                                    107 	.globl _AIN0
                                    108 	.globl _CAP1
                                    109 	.globl _T2
                                    110 	.globl _AIN1
                                    111 	.globl _CAP2
                                    112 	.globl _T2EX
                                    113 	.globl _AIN2
                                    114 	.globl _AIN3
                                    115 	.globl _AIN4
                                    116 	.globl _UCC1
                                    117 	.globl _SCS
                                    118 	.globl _AIN5
                                    119 	.globl _UCC2
                                    120 	.globl _PWM0_
                                    121 	.globl _MOSI
                                    122 	.globl _AIN6
                                    123 	.globl _VBUS
                                    124 	.globl _RXD1_
                                    125 	.globl _MISO
                                    126 	.globl _AIN7
                                    127 	.globl _TXD1_
                                    128 	.globl _SCK
                                    129 	.globl _P1_0
                                    130 	.globl _P1_1
                                    131 	.globl _P1_2
                                    132 	.globl _P1_3
                                    133 	.globl _P1_4
                                    134 	.globl _P1_5
                                    135 	.globl _P1_6
                                    136 	.globl _P1_7
                                    137 	.globl _AIN8
                                    138 	.globl _AIN9
                                    139 	.globl _AIN10
                                    140 	.globl _RXD_
                                    141 	.globl _AIN11
                                    142 	.globl _TXD_
                                    143 	.globl _AIN12
                                    144 	.globl _RXD2
                                    145 	.globl _AIN13
                                    146 	.globl _TXD2
                                    147 	.globl _AIN14
                                    148 	.globl _RXD3
                                    149 	.globl _AIN15
                                    150 	.globl _TXD3
                                    151 	.globl _P0_0
                                    152 	.globl _P0_1
                                    153 	.globl _P0_2
                                    154 	.globl _P0_3
                                    155 	.globl _P0_4
                                    156 	.globl _P0_5
                                    157 	.globl _P0_6
                                    158 	.globl _P0_7
                                    159 	.globl _IE_SPI0
                                    160 	.globl _IE_INT3
                                    161 	.globl _IE_USB
                                    162 	.globl _IE_UART2
                                    163 	.globl _IE_ADC
                                    164 	.globl _IE_UART1
                                    165 	.globl _IE_UART3
                                    166 	.globl _IE_PWMX
                                    167 	.globl _IE_GPIO
                                    168 	.globl _IE_WDOG
                                    169 	.globl _PX0
                                    170 	.globl _PT0
                                    171 	.globl _PX1
                                    172 	.globl _PT1
                                    173 	.globl _PS
                                    174 	.globl _PT2
                                    175 	.globl _PL_FLAG
                                    176 	.globl _PH_FLAG
                                    177 	.globl _EX0
                                    178 	.globl _ET0
                                    179 	.globl _EX1
                                    180 	.globl _ET1
                                    181 	.globl _ES
                                    182 	.globl _ET2
                                    183 	.globl _E_DIS
                                    184 	.globl _EA
                                    185 	.globl _P
                                    186 	.globl _F1
                                    187 	.globl _OV
                                    188 	.globl _RS0
                                    189 	.globl _RS1
                                    190 	.globl _F0
                                    191 	.globl _AC
                                    192 	.globl _CY
                                    193 	.globl _UEP1_DMA_H
                                    194 	.globl _UEP1_DMA_L
                                    195 	.globl _UEP1_DMA
                                    196 	.globl _UEP0_DMA_H
                                    197 	.globl _UEP0_DMA_L
                                    198 	.globl _UEP0_DMA
                                    199 	.globl _UEP2_3_MOD
                                    200 	.globl _UEP4_1_MOD
                                    201 	.globl _UEP3_DMA_H
                                    202 	.globl _UEP3_DMA_L
                                    203 	.globl _UEP3_DMA
                                    204 	.globl _UEP2_DMA_H
                                    205 	.globl _UEP2_DMA_L
                                    206 	.globl _UEP2_DMA
                                    207 	.globl _USB_DEV_AD
                                    208 	.globl _USB_CTRL
                                    209 	.globl _USB_INT_EN
                                    210 	.globl _UEP4_T_LEN
                                    211 	.globl _UEP4_CTRL
                                    212 	.globl _UEP0_T_LEN
                                    213 	.globl _UEP0_CTRL
                                    214 	.globl _USB_RX_LEN
                                    215 	.globl _USB_MIS_ST
                                    216 	.globl _USB_INT_ST
                                    217 	.globl _USB_INT_FG
                                    218 	.globl _UEP3_T_LEN
                                    219 	.globl _UEP3_CTRL
                                    220 	.globl _UEP2_T_LEN
                                    221 	.globl _UEP2_CTRL
                                    222 	.globl _UEP1_T_LEN
                                    223 	.globl _UEP1_CTRL
                                    224 	.globl _UDEV_CTRL
                                    225 	.globl _USB_C_CTRL
                                    226 	.globl _ADC_PIN
                                    227 	.globl _ADC_CHAN
                                    228 	.globl _ADC_DAT_H
                                    229 	.globl _ADC_DAT_L
                                    230 	.globl _ADC_DAT
                                    231 	.globl _ADC_CFG
                                    232 	.globl _ADC_CTRL
                                    233 	.globl _TKEY_CTRL
                                    234 	.globl _SIF3
                                    235 	.globl _SBAUD3
                                    236 	.globl _SBUF3
                                    237 	.globl _SCON3
                                    238 	.globl _SIF2
                                    239 	.globl _SBAUD2
                                    240 	.globl _SBUF2
                                    241 	.globl _SCON2
                                    242 	.globl _SIF1
                                    243 	.globl _SBAUD1
                                    244 	.globl _SBUF1
                                    245 	.globl _SCON1
                                    246 	.globl _SPI0_SETUP
                                    247 	.globl _SPI0_CK_SE
                                    248 	.globl _SPI0_CTRL
                                    249 	.globl _SPI0_DATA
                                    250 	.globl _SPI0_STAT
                                    251 	.globl _PWM_DATA7
                                    252 	.globl _PWM_DATA6
                                    253 	.globl _PWM_DATA5
                                    254 	.globl _PWM_DATA4
                                    255 	.globl _PWM_DATA3
                                    256 	.globl _PWM_CTRL2
                                    257 	.globl _PWM_CK_SE
                                    258 	.globl _PWM_CTRL
                                    259 	.globl _PWM_DATA0
                                    260 	.globl _PWM_DATA1
                                    261 	.globl _PWM_DATA2
                                    262 	.globl _T2CAP1H
                                    263 	.globl _T2CAP1L
                                    264 	.globl _T2CAP1
                                    265 	.globl _TH2
                                    266 	.globl _TL2
                                    267 	.globl _T2COUNT
                                    268 	.globl _RCAP2H
                                    269 	.globl _RCAP2L
                                    270 	.globl _RCAP2
                                    271 	.globl _T2MOD
                                    272 	.globl _T2CON
                                    273 	.globl _T2CAP0H
                                    274 	.globl _T2CAP0L
                                    275 	.globl _T2CAP0
                                    276 	.globl _T2CON2
                                    277 	.globl _SBUF
                                    278 	.globl _SCON
                                    279 	.globl _TH1
                                    280 	.globl _TH0
                                    281 	.globl _TL1
                                    282 	.globl _TL0
                                    283 	.globl _TMOD
                                    284 	.globl _TCON
                                    285 	.globl _XBUS_AUX
                                    286 	.globl _PIN_FUNC
                                    287 	.globl _P5
                                    288 	.globl _P4_DIR_PU
                                    289 	.globl _P4_MOD_OC
                                    290 	.globl _P4
                                    291 	.globl _P3_DIR_PU
                                    292 	.globl _P3_MOD_OC
                                    293 	.globl _P3
                                    294 	.globl _P2_DIR_PU
                                    295 	.globl _P2_MOD_OC
                                    296 	.globl _P2
                                    297 	.globl _P1_DIR_PU
                                    298 	.globl _P1_MOD_OC
                                    299 	.globl _P1
                                    300 	.globl _P0_DIR_PU
                                    301 	.globl _P0_MOD_OC
                                    302 	.globl _P0
                                    303 	.globl _ROM_CTRL
                                    304 	.globl _ROM_DATA_HH
                                    305 	.globl _ROM_DATA_HL
                                    306 	.globl _ROM_DATA_HI
                                    307 	.globl _ROM_ADDR_H
                                    308 	.globl _ROM_ADDR_L
                                    309 	.globl _ROM_ADDR
                                    310 	.globl _GPIO_IE
                                    311 	.globl _INTX
                                    312 	.globl _IP_EX
                                    313 	.globl _IE_EX
                                    314 	.globl _IP
                                    315 	.globl _IE
                                    316 	.globl _WDOG_COUNT
                                    317 	.globl _RESET_KEEP
                                    318 	.globl _WAKE_CTRL
                                    319 	.globl _CLOCK_CFG
                                    320 	.globl _POWER_CFG
                                    321 	.globl _PCON
                                    322 	.globl _GLOBAL_CFG
                                    323 	.globl _SAFE_MOD
                                    324 	.globl _DPH
                                    325 	.globl _DPL
                                    326 	.globl _SP
                                    327 	.globl _A_INV
                                    328 	.globl _B
                                    329 	.globl _ACC
                                    330 	.globl _PSW
                                    331 	.globl _TCS34725_I2C_Write
                                    332 	.globl _TCS34725_I2C_Read
                                    333 	.globl _TCS34725_Read
                                    334 	.globl _TCS34725_SetIntegrationTime
                                    335 	.globl _TCS34725_SetGain
                                    336 	.globl _TCS34725_Enable
                                    337 	.globl _TCS34725_Disable
                                    338 	.globl _TCS34725_Init
                                    339 	.globl _TCS34725_GetChannelData
                                    340 	.globl _TCS34725_GetRawData
                                    341 	.globl _RGBtoHSL
                                    342 ;--------------------------------------------------------
                                    343 ; special function registers
                                    344 ;--------------------------------------------------------
                                    345 	.area RSEG    (ABS,DATA)
      000000                        346 	.org 0x0000
                           0000D0   347 _PSW	=	0x00d0
                           0000E0   348 _ACC	=	0x00e0
                           0000F0   349 _B	=	0x00f0
                           0000FD   350 _A_INV	=	0x00fd
                           000081   351 _SP	=	0x0081
                           000082   352 _DPL	=	0x0082
                           000083   353 _DPH	=	0x0083
                           0000A1   354 _SAFE_MOD	=	0x00a1
                           0000B1   355 _GLOBAL_CFG	=	0x00b1
                           000087   356 _PCON	=	0x0087
                           0000BA   357 _POWER_CFG	=	0x00ba
                           0000B9   358 _CLOCK_CFG	=	0x00b9
                           0000A9   359 _WAKE_CTRL	=	0x00a9
                           0000FE   360 _RESET_KEEP	=	0x00fe
                           0000FF   361 _WDOG_COUNT	=	0x00ff
                           0000A8   362 _IE	=	0x00a8
                           0000B8   363 _IP	=	0x00b8
                           0000E8   364 _IE_EX	=	0x00e8
                           0000E9   365 _IP_EX	=	0x00e9
                           0000B3   366 _INTX	=	0x00b3
                           0000B2   367 _GPIO_IE	=	0x00b2
                           008584   368 _ROM_ADDR	=	0x8584
                           000084   369 _ROM_ADDR_L	=	0x0084
                           000085   370 _ROM_ADDR_H	=	0x0085
                           008F8E   371 _ROM_DATA_HI	=	0x8f8e
                           00008E   372 _ROM_DATA_HL	=	0x008e
                           00008F   373 _ROM_DATA_HH	=	0x008f
                           000086   374 _ROM_CTRL	=	0x0086
                           000080   375 _P0	=	0x0080
                           0000C4   376 _P0_MOD_OC	=	0x00c4
                           0000C5   377 _P0_DIR_PU	=	0x00c5
                           000090   378 _P1	=	0x0090
                           000092   379 _P1_MOD_OC	=	0x0092
                           000093   380 _P1_DIR_PU	=	0x0093
                           0000A0   381 _P2	=	0x00a0
                           000094   382 _P2_MOD_OC	=	0x0094
                           000095   383 _P2_DIR_PU	=	0x0095
                           0000B0   384 _P3	=	0x00b0
                           000096   385 _P3_MOD_OC	=	0x0096
                           000097   386 _P3_DIR_PU	=	0x0097
                           0000C0   387 _P4	=	0x00c0
                           0000C2   388 _P4_MOD_OC	=	0x00c2
                           0000C3   389 _P4_DIR_PU	=	0x00c3
                           0000AB   390 _P5	=	0x00ab
                           0000AA   391 _PIN_FUNC	=	0x00aa
                           0000A2   392 _XBUS_AUX	=	0x00a2
                           000088   393 _TCON	=	0x0088
                           000089   394 _TMOD	=	0x0089
                           00008A   395 _TL0	=	0x008a
                           00008B   396 _TL1	=	0x008b
                           00008C   397 _TH0	=	0x008c
                           00008D   398 _TH1	=	0x008d
                           000098   399 _SCON	=	0x0098
                           000099   400 _SBUF	=	0x0099
                           0000C1   401 _T2CON2	=	0x00c1
                           00C7C6   402 _T2CAP0	=	0xc7c6
                           0000C6   403 _T2CAP0L	=	0x00c6
                           0000C7   404 _T2CAP0H	=	0x00c7
                           0000C8   405 _T2CON	=	0x00c8
                           0000C9   406 _T2MOD	=	0x00c9
                           00CBCA   407 _RCAP2	=	0xcbca
                           0000CA   408 _RCAP2L	=	0x00ca
                           0000CB   409 _RCAP2H	=	0x00cb
                           00CDCC   410 _T2COUNT	=	0xcdcc
                           0000CC   411 _TL2	=	0x00cc
                           0000CD   412 _TH2	=	0x00cd
                           00CFCE   413 _T2CAP1	=	0xcfce
                           0000CE   414 _T2CAP1L	=	0x00ce
                           0000CF   415 _T2CAP1H	=	0x00cf
                           00009A   416 _PWM_DATA2	=	0x009a
                           00009B   417 _PWM_DATA1	=	0x009b
                           00009C   418 _PWM_DATA0	=	0x009c
                           00009D   419 _PWM_CTRL	=	0x009d
                           00009E   420 _PWM_CK_SE	=	0x009e
                           00009F   421 _PWM_CTRL2	=	0x009f
                           0000A3   422 _PWM_DATA3	=	0x00a3
                           0000A4   423 _PWM_DATA4	=	0x00a4
                           0000A5   424 _PWM_DATA5	=	0x00a5
                           0000A6   425 _PWM_DATA6	=	0x00a6
                           0000A7   426 _PWM_DATA7	=	0x00a7
                           0000F8   427 _SPI0_STAT	=	0x00f8
                           0000F9   428 _SPI0_DATA	=	0x00f9
                           0000FA   429 _SPI0_CTRL	=	0x00fa
                           0000FB   430 _SPI0_CK_SE	=	0x00fb
                           0000FC   431 _SPI0_SETUP	=	0x00fc
                           0000BC   432 _SCON1	=	0x00bc
                           0000BD   433 _SBUF1	=	0x00bd
                           0000BE   434 _SBAUD1	=	0x00be
                           0000BF   435 _SIF1	=	0x00bf
                           0000B4   436 _SCON2	=	0x00b4
                           0000B5   437 _SBUF2	=	0x00b5
                           0000B6   438 _SBAUD2	=	0x00b6
                           0000B7   439 _SIF2	=	0x00b7
                           0000AC   440 _SCON3	=	0x00ac
                           0000AD   441 _SBUF3	=	0x00ad
                           0000AE   442 _SBAUD3	=	0x00ae
                           0000AF   443 _SIF3	=	0x00af
                           0000F1   444 _TKEY_CTRL	=	0x00f1
                           0000F2   445 _ADC_CTRL	=	0x00f2
                           0000F3   446 _ADC_CFG	=	0x00f3
                           00F5F4   447 _ADC_DAT	=	0xf5f4
                           0000F4   448 _ADC_DAT_L	=	0x00f4
                           0000F5   449 _ADC_DAT_H	=	0x00f5
                           0000F6   450 _ADC_CHAN	=	0x00f6
                           0000F7   451 _ADC_PIN	=	0x00f7
                           000091   452 _USB_C_CTRL	=	0x0091
                           0000D1   453 _UDEV_CTRL	=	0x00d1
                           0000D2   454 _UEP1_CTRL	=	0x00d2
                           0000D3   455 _UEP1_T_LEN	=	0x00d3
                           0000D4   456 _UEP2_CTRL	=	0x00d4
                           0000D5   457 _UEP2_T_LEN	=	0x00d5
                           0000D6   458 _UEP3_CTRL	=	0x00d6
                           0000D7   459 _UEP3_T_LEN	=	0x00d7
                           0000D8   460 _USB_INT_FG	=	0x00d8
                           0000D9   461 _USB_INT_ST	=	0x00d9
                           0000DA   462 _USB_MIS_ST	=	0x00da
                           0000DB   463 _USB_RX_LEN	=	0x00db
                           0000DC   464 _UEP0_CTRL	=	0x00dc
                           0000DD   465 _UEP0_T_LEN	=	0x00dd
                           0000DE   466 _UEP4_CTRL	=	0x00de
                           0000DF   467 _UEP4_T_LEN	=	0x00df
                           0000E1   468 _USB_INT_EN	=	0x00e1
                           0000E2   469 _USB_CTRL	=	0x00e2
                           0000E3   470 _USB_DEV_AD	=	0x00e3
                           00E5E4   471 _UEP2_DMA	=	0xe5e4
                           0000E4   472 _UEP2_DMA_L	=	0x00e4
                           0000E5   473 _UEP2_DMA_H	=	0x00e5
                           00E7E6   474 _UEP3_DMA	=	0xe7e6
                           0000E6   475 _UEP3_DMA_L	=	0x00e6
                           0000E7   476 _UEP3_DMA_H	=	0x00e7
                           0000EA   477 _UEP4_1_MOD	=	0x00ea
                           0000EB   478 _UEP2_3_MOD	=	0x00eb
                           00EDEC   479 _UEP0_DMA	=	0xedec
                           0000EC   480 _UEP0_DMA_L	=	0x00ec
                           0000ED   481 _UEP0_DMA_H	=	0x00ed
                           00EFEE   482 _UEP1_DMA	=	0xefee
                           0000EE   483 _UEP1_DMA_L	=	0x00ee
                           0000EF   484 _UEP1_DMA_H	=	0x00ef
                                    485 ;--------------------------------------------------------
                                    486 ; special function bits
                                    487 ;--------------------------------------------------------
                                    488 	.area RSEG    (ABS,DATA)
      000000                        489 	.org 0x0000
                           0000D7   490 _CY	=	0x00d7
                           0000D6   491 _AC	=	0x00d6
                           0000D5   492 _F0	=	0x00d5
                           0000D4   493 _RS1	=	0x00d4
                           0000D3   494 _RS0	=	0x00d3
                           0000D2   495 _OV	=	0x00d2
                           0000D1   496 _F1	=	0x00d1
                           0000D0   497 _P	=	0x00d0
                           0000AF   498 _EA	=	0x00af
                           0000AE   499 _E_DIS	=	0x00ae
                           0000AD   500 _ET2	=	0x00ad
                           0000AC   501 _ES	=	0x00ac
                           0000AB   502 _ET1	=	0x00ab
                           0000AA   503 _EX1	=	0x00aa
                           0000A9   504 _ET0	=	0x00a9
                           0000A8   505 _EX0	=	0x00a8
                           0000BF   506 _PH_FLAG	=	0x00bf
                           0000BE   507 _PL_FLAG	=	0x00be
                           0000BD   508 _PT2	=	0x00bd
                           0000BC   509 _PS	=	0x00bc
                           0000BB   510 _PT1	=	0x00bb
                           0000BA   511 _PX1	=	0x00ba
                           0000B9   512 _PT0	=	0x00b9
                           0000B8   513 _PX0	=	0x00b8
                           0000EF   514 _IE_WDOG	=	0x00ef
                           0000EE   515 _IE_GPIO	=	0x00ee
                           0000ED   516 _IE_PWMX	=	0x00ed
                           0000ED   517 _IE_UART3	=	0x00ed
                           0000EC   518 _IE_UART1	=	0x00ec
                           0000EB   519 _IE_ADC	=	0x00eb
                           0000EB   520 _IE_UART2	=	0x00eb
                           0000EA   521 _IE_USB	=	0x00ea
                           0000E9   522 _IE_INT3	=	0x00e9
                           0000E8   523 _IE_SPI0	=	0x00e8
                           000087   524 _P0_7	=	0x0087
                           000086   525 _P0_6	=	0x0086
                           000085   526 _P0_5	=	0x0085
                           000084   527 _P0_4	=	0x0084
                           000083   528 _P0_3	=	0x0083
                           000082   529 _P0_2	=	0x0082
                           000081   530 _P0_1	=	0x0081
                           000080   531 _P0_0	=	0x0080
                           000087   532 _TXD3	=	0x0087
                           000087   533 _AIN15	=	0x0087
                           000086   534 _RXD3	=	0x0086
                           000086   535 _AIN14	=	0x0086
                           000085   536 _TXD2	=	0x0085
                           000085   537 _AIN13	=	0x0085
                           000084   538 _RXD2	=	0x0084
                           000084   539 _AIN12	=	0x0084
                           000083   540 _TXD_	=	0x0083
                           000083   541 _AIN11	=	0x0083
                           000082   542 _RXD_	=	0x0082
                           000082   543 _AIN10	=	0x0082
                           000081   544 _AIN9	=	0x0081
                           000080   545 _AIN8	=	0x0080
                           000097   546 _P1_7	=	0x0097
                           000096   547 _P1_6	=	0x0096
                           000095   548 _P1_5	=	0x0095
                           000094   549 _P1_4	=	0x0094
                           000093   550 _P1_3	=	0x0093
                           000092   551 _P1_2	=	0x0092
                           000091   552 _P1_1	=	0x0091
                           000090   553 _P1_0	=	0x0090
                           000097   554 _SCK	=	0x0097
                           000097   555 _TXD1_	=	0x0097
                           000097   556 _AIN7	=	0x0097
                           000096   557 _MISO	=	0x0096
                           000096   558 _RXD1_	=	0x0096
                           000096   559 _VBUS	=	0x0096
                           000096   560 _AIN6	=	0x0096
                           000095   561 _MOSI	=	0x0095
                           000095   562 _PWM0_	=	0x0095
                           000095   563 _UCC2	=	0x0095
                           000095   564 _AIN5	=	0x0095
                           000094   565 _SCS	=	0x0094
                           000094   566 _UCC1	=	0x0094
                           000094   567 _AIN4	=	0x0094
                           000093   568 _AIN3	=	0x0093
                           000092   569 _AIN2	=	0x0092
                           000091   570 _T2EX	=	0x0091
                           000091   571 _CAP2	=	0x0091
                           000091   572 _AIN1	=	0x0091
                           000090   573 _T2	=	0x0090
                           000090   574 _CAP1	=	0x0090
                           000090   575 _AIN0	=	0x0090
                           0000A7   576 _P2_7	=	0x00a7
                           0000A6   577 _P2_6	=	0x00a6
                           0000A5   578 _P2_5	=	0x00a5
                           0000A4   579 _P2_4	=	0x00a4
                           0000A3   580 _P2_3	=	0x00a3
                           0000A2   581 _P2_2	=	0x00a2
                           0000A1   582 _P2_1	=	0x00a1
                           0000A0   583 _P2_0	=	0x00a0
                           0000A7   584 _PWM7	=	0x00a7
                           0000A7   585 _TXD1	=	0x00a7
                           0000A6   586 _PWM6	=	0x00a6
                           0000A6   587 _RXD1	=	0x00a6
                           0000A5   588 _PWM0	=	0x00a5
                           0000A5   589 _T2EX_	=	0x00a5
                           0000A5   590 _CAP2_	=	0x00a5
                           0000A4   591 _PWM1	=	0x00a4
                           0000A4   592 _T2_	=	0x00a4
                           0000A4   593 _CAP1_	=	0x00a4
                           0000A3   594 _PWM2	=	0x00a3
                           0000A2   595 _PWM3	=	0x00a2
                           0000A2   596 _INT0_	=	0x00a2
                           0000A1   597 _PWM4	=	0x00a1
                           0000A0   598 _PWM5	=	0x00a0
                           0000B7   599 _P3_7	=	0x00b7
                           0000B6   600 _P3_6	=	0x00b6
                           0000B5   601 _P3_5	=	0x00b5
                           0000B4   602 _P3_4	=	0x00b4
                           0000B3   603 _P3_3	=	0x00b3
                           0000B2   604 _P3_2	=	0x00b2
                           0000B1   605 _P3_1	=	0x00b1
                           0000B0   606 _P3_0	=	0x00b0
                           0000B7   607 _INT3	=	0x00b7
                           0000B6   608 _CAP0	=	0x00b6
                           0000B5   609 _T1	=	0x00b5
                           0000B4   610 _T0	=	0x00b4
                           0000B3   611 _INT1	=	0x00b3
                           0000B2   612 _INT0	=	0x00b2
                           0000B1   613 _TXD	=	0x00b1
                           0000B0   614 _RXD	=	0x00b0
                           0000C6   615 _P4_6	=	0x00c6
                           0000C5   616 _P4_5	=	0x00c5
                           0000C4   617 _P4_4	=	0x00c4
                           0000C3   618 _P4_3	=	0x00c3
                           0000C2   619 _P4_2	=	0x00c2
                           0000C1   620 _P4_1	=	0x00c1
                           0000C0   621 _P4_0	=	0x00c0
                           0000C7   622 _XO	=	0x00c7
                           0000C6   623 _XI	=	0x00c6
                           00008F   624 _TF1	=	0x008f
                           00008E   625 _TR1	=	0x008e
                           00008D   626 _TF0	=	0x008d
                           00008C   627 _TR0	=	0x008c
                           00008B   628 _IE1	=	0x008b
                           00008A   629 _IT1	=	0x008a
                           000089   630 _IE0	=	0x0089
                           000088   631 _IT0	=	0x0088
                           00009F   632 _SM0	=	0x009f
                           00009E   633 _SM1	=	0x009e
                           00009D   634 _SM2	=	0x009d
                           00009C   635 _REN	=	0x009c
                           00009B   636 _TB8	=	0x009b
                           00009A   637 _RB8	=	0x009a
                           000099   638 _TI	=	0x0099
                           000098   639 _RI	=	0x0098
                           0000CF   640 _TF2	=	0x00cf
                           0000CF   641 _CAP1F	=	0x00cf
                           0000CE   642 _EXF2	=	0x00ce
                           0000CD   643 _RCLK	=	0x00cd
                           0000CC   644 _TCLK	=	0x00cc
                           0000CB   645 _EXEN2	=	0x00cb
                           0000CA   646 _TR2	=	0x00ca
                           0000C9   647 _C_T2	=	0x00c9
                           0000C8   648 _CP_RL2	=	0x00c8
                           0000FF   649 _S0_FST_ACT	=	0x00ff
                           0000FE   650 _S0_IF_OV	=	0x00fe
                           0000FD   651 _S0_IF_FIRST	=	0x00fd
                           0000FC   652 _S0_IF_BYTE	=	0x00fc
                           0000FB   653 _S0_FREE	=	0x00fb
                           0000FA   654 _S0_T_FIFO	=	0x00fa
                           0000F8   655 _S0_R_FIFO	=	0x00f8
                           0000DF   656 _U_IS_NAK	=	0x00df
                           0000DE   657 _U_TOG_OK	=	0x00de
                           0000DD   658 _U_SIE_FREE	=	0x00dd
                           0000DC   659 _UIF_FIFO_OV	=	0x00dc
                           0000DB   660 _UIF_HST_SOF	=	0x00db
                           0000DA   661 _UIF_SUSPEND	=	0x00da
                           0000D9   662 _UIF_TRANSFER	=	0x00d9
                           0000D8   663 _UIF_DETECT	=	0x00d8
                           0000D8   664 _UIF_BUS_RST	=	0x00d8
                                    665 ;--------------------------------------------------------
                                    666 ; overlayable register banks
                                    667 ;--------------------------------------------------------
                                    668 	.area REG_BANK_0	(REL,OVR,DATA)
      000000                        669 	.ds 8
                                    670 ;--------------------------------------------------------
                                    671 ; internal ram data
                                    672 ;--------------------------------------------------------
                                    673 	.area DSEG    (DATA)
                                    674 ;--------------------------------------------------------
                                    675 ; overlayable items in internal ram 
                                    676 ;--------------------------------------------------------
                                    677 ;--------------------------------------------------------
                                    678 ; indirectly addressable internal ram data
                                    679 ;--------------------------------------------------------
                                    680 	.area ISEG    (DATA)
                                    681 ;--------------------------------------------------------
                                    682 ; absolute internal ram data
                                    683 ;--------------------------------------------------------
                                    684 	.area IABS    (ABS,DATA)
                                    685 	.area IABS    (ABS,DATA)
                                    686 ;--------------------------------------------------------
                                    687 ; bit data
                                    688 ;--------------------------------------------------------
                                    689 	.area BSEG    (BIT)
                                    690 ;--------------------------------------------------------
                                    691 ; paged external ram data
                                    692 ;--------------------------------------------------------
                                    693 	.area PSEG    (PAG,XDATA)
                                    694 ;--------------------------------------------------------
                                    695 ; external ram data
                                    696 ;--------------------------------------------------------
                                    697 	.area XSEG    (XDATA)
                                    698 ;--------------------------------------------------------
                                    699 ; absolute external ram data
                                    700 ;--------------------------------------------------------
                                    701 	.area XABS    (ABS,XDATA)
                                    702 ;--------------------------------------------------------
                                    703 ; external initialized ram data
                                    704 ;--------------------------------------------------------
                                    705 	.area HOME    (CODE)
                                    706 	.area GSINIT0 (CODE)
                                    707 	.area GSINIT1 (CODE)
                                    708 	.area GSINIT2 (CODE)
                                    709 	.area GSINIT3 (CODE)
                                    710 	.area GSINIT4 (CODE)
                                    711 	.area GSINIT5 (CODE)
                                    712 	.area GSINIT  (CODE)
                                    713 	.area GSFINAL (CODE)
                                    714 	.area CSEG    (CODE)
                                    715 ;--------------------------------------------------------
                                    716 ; global & static initialisations
                                    717 ;--------------------------------------------------------
                                    718 	.area HOME    (CODE)
                                    719 	.area GSINIT  (CODE)
                                    720 	.area GSFINAL (CODE)
                                    721 	.area GSINIT  (CODE)
                                    722 ;--------------------------------------------------------
                                    723 ; Home
                                    724 ;--------------------------------------------------------
                                    725 	.area HOME    (CODE)
                                    726 	.area HOME    (CODE)
                                    727 ;--------------------------------------------------------
                                    728 ; code
                                    729 ;--------------------------------------------------------
                                    730 	.area CSEG    (CODE)
                                    731 ;------------------------------------------------------------
                                    732 ;Allocation info for local variables in function 'TCS34725_I2C_Write'
                                    733 ;------------------------------------------------------------
                                    734 ;dataBuffer                Allocated to stack - _bp -5
                                    735 ;bytesNumber               Allocated to stack - _bp -6
                                    736 ;stopBit                   Allocated to stack - _bp -7
                                    737 ;slaveAddress              Allocated to registers r7 
                                    738 ;i                         Allocated to registers r7 
                                    739 ;------------------------------------------------------------
                                    740 ;	source/CH549_TCS34725.c:22: void TCS34725_I2C_Write(UINT8  slaveAddress, UINT8 * dataBuffer,UINT8  bytesNumber, UINT8  stopBit)
                                    741 ;	-----------------------------------------
                                    742 ;	 function TCS34725_I2C_Write
                                    743 ;	-----------------------------------------
      000000                        744 _TCS34725_I2C_Write:
                           000007   745 	ar7 = 0x07
                           000006   746 	ar6 = 0x06
                           000005   747 	ar5 = 0x05
                           000004   748 	ar4 = 0x04
                           000003   749 	ar3 = 0x03
                           000002   750 	ar2 = 0x02
                           000001   751 	ar1 = 0x01
                           000000   752 	ar0 = 0x00
      000000 C0*00            [24]  753 	push	_bp
      000002 85 81*00         [24]  754 	mov	_bp,sp
      000005 AF 82            [24]  755 	mov	r7,dpl
                                    756 ;	source/CH549_TCS34725.c:26: IIC_Start();
      000007 C0 07            [24]  757 	push	ar7
      000009 12r00r00         [24]  758 	lcall	_IIC_Start
      00000C D0 07            [24]  759 	pop	ar7
                                    760 ;	source/CH549_TCS34725.c:27: IIC_Send_Byte((slaveAddress << 1) | 0x00);	   //发送从机地址写命令
      00000E EF               [12]  761 	mov	a,r7
      00000F 2F               [12]  762 	add	a,r7
      000010 F5 82            [12]  763 	mov	dpl,a
      000012 12r00r00         [24]  764 	lcall	_IIC_Send_Byte
                                    765 ;	source/CH549_TCS34725.c:28: IIC_Wait_Ack();
      000015 12r00r00         [24]  766 	lcall	_IIC_Wait_Ack
                                    767 ;	source/CH549_TCS34725.c:29: for(i = 0; i < bytesNumber; i++)
      000018 7F 00            [12]  768 	mov	r7,#0x00
      00001A                        769 00105$:
      00001A E5*00            [12]  770 	mov	a,_bp
      00001C 24 FA            [12]  771 	add	a,#0xfa
      00001E F8               [12]  772 	mov	r0,a
      00001F C3               [12]  773 	clr	c
      000020 EF               [12]  774 	mov	a,r7
      000021 96               [12]  775 	subb	a,@r0
      000022 50 27            [24]  776 	jnc	00101$
                                    777 ;	source/CH549_TCS34725.c:31: IIC_Send_Byte(*(dataBuffer + i));
      000024 E5*00            [12]  778 	mov	a,_bp
      000026 24 FB            [12]  779 	add	a,#0xfb
      000028 F8               [12]  780 	mov	r0,a
      000029 EF               [12]  781 	mov	a,r7
      00002A 26               [12]  782 	add	a,@r0
      00002B FC               [12]  783 	mov	r4,a
      00002C E4               [12]  784 	clr	a
      00002D 08               [12]  785 	inc	r0
      00002E 36               [12]  786 	addc	a,@r0
      00002F FD               [12]  787 	mov	r5,a
      000030 08               [12]  788 	inc	r0
      000031 86 06            [24]  789 	mov	ar6,@r0
      000033 8C 82            [24]  790 	mov	dpl,r4
      000035 8D 83            [24]  791 	mov	dph,r5
      000037 8E F0            [24]  792 	mov	b,r6
      000039 12r00r00         [24]  793 	lcall	__gptrget
      00003C F5 82            [12]  794 	mov	dpl,a
      00003E C0 07            [24]  795 	push	ar7
      000040 12r00r00         [24]  796 	lcall	_IIC_Send_Byte
                                    797 ;	source/CH549_TCS34725.c:32: IIC_Wait_Ack();
      000043 12r00r00         [24]  798 	lcall	_IIC_Wait_Ack
      000046 D0 07            [24]  799 	pop	ar7
                                    800 ;	source/CH549_TCS34725.c:29: for(i = 0; i < bytesNumber; i++)
      000048 0F               [12]  801 	inc	r7
      000049 80 CF            [24]  802 	sjmp	00105$
      00004B                        803 00101$:
                                    804 ;	source/CH549_TCS34725.c:34: if(stopBit == 1) IIC_Stop();
      00004B E5*00            [12]  805 	mov	a,_bp
      00004D 24 F9            [12]  806 	add	a,#0xf9
      00004F F8               [12]  807 	mov	r0,a
      000050 B6 01 03         [24]  808 	cjne	@r0,#0x01,00107$
      000053 12r00r00         [24]  809 	lcall	_IIC_Stop
      000056                        810 00107$:
                                    811 ;	source/CH549_TCS34725.c:35: }
      000056 D0*00            [24]  812 	pop	_bp
      000058 22               [24]  813 	ret
                                    814 ;------------------------------------------------------------
                                    815 ;Allocation info for local variables in function 'TCS34725_I2C_Read'
                                    816 ;------------------------------------------------------------
                                    817 ;dataBuffer                Allocated to stack - _bp -5
                                    818 ;bytesNumber               Allocated to stack - _bp -6
                                    819 ;stopBit                   Allocated to stack - _bp -7
                                    820 ;slaveAddress              Allocated to registers r7 
                                    821 ;i                         Allocated to registers r7 
                                    822 ;------------------------------------------------------------
                                    823 ;	source/CH549_TCS34725.c:46: void TCS34725_I2C_Read(UINT8  slaveAddress, UINT8 * dataBuffer, UINT8  bytesNumber, UINT8  stopBit)
                                    824 ;	-----------------------------------------
                                    825 ;	 function TCS34725_I2C_Read
                                    826 ;	-----------------------------------------
      000059                        827 _TCS34725_I2C_Read:
      000059 C0*00            [24]  828 	push	_bp
      00005B 85 81*00         [24]  829 	mov	_bp,sp
      00005E AF 82            [24]  830 	mov	r7,dpl
                                    831 ;	source/CH549_TCS34725.c:50: IIC_Start();
      000060 C0 07            [24]  832 	push	ar7
      000062 12r00r00         [24]  833 	lcall	_IIC_Start
      000065 D0 07            [24]  834 	pop	ar7
                                    835 ;	source/CH549_TCS34725.c:51: IIC_Send_Byte((slaveAddress << 1) | 0x01);	   //发送从机地址读命令
      000067 EF               [12]  836 	mov	a,r7
      000068 2F               [12]  837 	add	a,r7
      000069 FF               [12]  838 	mov	r7,a
      00006A 43 07 01         [24]  839 	orl	ar7,#0x01
      00006D 8F 82            [24]  840 	mov	dpl,r7
      00006F 12r00r00         [24]  841 	lcall	_IIC_Send_Byte
                                    842 ;	source/CH549_TCS34725.c:52: IIC_Wait_Ack();
      000072 12r00r00         [24]  843 	lcall	_IIC_Wait_Ack
                                    844 ;	source/CH549_TCS34725.c:53: for(i = 0; i < bytesNumber; i++)
      000075 7F 00            [12]  845 	mov	r7,#0x00
      000077                        846 00108$:
      000077 E5*00            [12]  847 	mov	a,_bp
      000079 24 FA            [12]  848 	add	a,#0xfa
      00007B F8               [12]  849 	mov	r0,a
      00007C C3               [12]  850 	clr	c
      00007D EF               [12]  851 	mov	a,r7
      00007E 96               [12]  852 	subb	a,@r0
      00007F 40 03            [24]  853 	jc	00129$
      000081 02r01r06         [24]  854 	ljmp	00104$
      000084                        855 00129$:
                                    856 ;	source/CH549_TCS34725.c:55: if(i == bytesNumber - 1)
      000084 E5*00            [12]  857 	mov	a,_bp
      000086 24 FA            [12]  858 	add	a,#0xfa
      000088 F8               [12]  859 	mov	r0,a
      000089 86 05            [24]  860 	mov	ar5,@r0
      00008B 7E 00            [12]  861 	mov	r6,#0x00
      00008D 1D               [12]  862 	dec	r5
      00008E BD FF 01         [24]  863 	cjne	r5,#0xff,00130$
      000091 1E               [12]  864 	dec	r6
      000092                        865 00130$:
      000092 8F 03            [24]  866 	mov	ar3,r7
      000094 7C 00            [12]  867 	mov	r4,#0x00
      000096 EB               [12]  868 	mov	a,r3
      000097 B5 05 37         [24]  869 	cjne	a,ar5,00102$
      00009A EC               [12]  870 	mov	a,r4
      00009B B5 06 33         [24]  871 	cjne	a,ar6,00102$
                                    872 ;	source/CH549_TCS34725.c:57: dataBuffer[i] = IIC_Read_Byte(0);//读取的最后一个字节发送NACK
      00009E E5*00            [12]  873 	mov	a,_bp
      0000A0 24 FB            [12]  874 	add	a,#0xfb
      0000A2 F8               [12]  875 	mov	r0,a
      0000A3 EF               [12]  876 	mov	a,r7
      0000A4 26               [12]  877 	add	a,@r0
      0000A5 FC               [12]  878 	mov	r4,a
      0000A6 E4               [12]  879 	clr	a
      0000A7 08               [12]  880 	inc	r0
      0000A8 36               [12]  881 	addc	a,@r0
      0000A9 FD               [12]  882 	mov	r5,a
      0000AA 08               [12]  883 	inc	r0
      0000AB 86 06            [24]  884 	mov	ar6,@r0
      0000AD 75 82 00         [24]  885 	mov	dpl,#0x00
      0000B0 C0 07            [24]  886 	push	ar7
      0000B2 C0 06            [24]  887 	push	ar6
      0000B4 C0 05            [24]  888 	push	ar5
      0000B6 C0 04            [24]  889 	push	ar4
      0000B8 12r00r00         [24]  890 	lcall	_IIC_Read_Byte
      0000BB AB 82            [24]  891 	mov	r3,dpl
      0000BD D0 04            [24]  892 	pop	ar4
      0000BF D0 05            [24]  893 	pop	ar5
      0000C1 D0 06            [24]  894 	pop	ar6
      0000C3 D0 07            [24]  895 	pop	ar7
      0000C5 8C 82            [24]  896 	mov	dpl,r4
      0000C7 8D 83            [24]  897 	mov	dph,r5
      0000C9 8E F0            [24]  898 	mov	b,r6
      0000CB EB               [12]  899 	mov	a,r3
      0000CC 12r00r00         [24]  900 	lcall	__gptrput
      0000CF 80 31            [24]  901 	sjmp	00109$
      0000D1                        902 00102$:
                                    903 ;	source/CH549_TCS34725.c:61: dataBuffer[i] = IIC_Read_Byte(1);
      0000D1 E5*00            [12]  904 	mov	a,_bp
      0000D3 24 FB            [12]  905 	add	a,#0xfb
      0000D5 F8               [12]  906 	mov	r0,a
      0000D6 EF               [12]  907 	mov	a,r7
      0000D7 26               [12]  908 	add	a,@r0
      0000D8 FC               [12]  909 	mov	r4,a
      0000D9 E4               [12]  910 	clr	a
      0000DA 08               [12]  911 	inc	r0
      0000DB 36               [12]  912 	addc	a,@r0
      0000DC FD               [12]  913 	mov	r5,a
      0000DD 08               [12]  914 	inc	r0
      0000DE 86 06            [24]  915 	mov	ar6,@r0
      0000E0 75 82 01         [24]  916 	mov	dpl,#0x01
      0000E3 C0 07            [24]  917 	push	ar7
      0000E5 C0 06            [24]  918 	push	ar6
      0000E7 C0 05            [24]  919 	push	ar5
      0000E9 C0 04            [24]  920 	push	ar4
      0000EB 12r00r00         [24]  921 	lcall	_IIC_Read_Byte
      0000EE AB 82            [24]  922 	mov	r3,dpl
      0000F0 D0 04            [24]  923 	pop	ar4
      0000F2 D0 05            [24]  924 	pop	ar5
      0000F4 D0 06            [24]  925 	pop	ar6
      0000F6 D0 07            [24]  926 	pop	ar7
      0000F8 8C 82            [24]  927 	mov	dpl,r4
      0000FA 8D 83            [24]  928 	mov	dph,r5
      0000FC 8E F0            [24]  929 	mov	b,r6
      0000FE EB               [12]  930 	mov	a,r3
      0000FF 12r00r00         [24]  931 	lcall	__gptrput
      000102                        932 00109$:
                                    933 ;	source/CH549_TCS34725.c:53: for(i = 0; i < bytesNumber; i++)
      000102 0F               [12]  934 	inc	r7
      000103 02r00r77         [24]  935 	ljmp	00108$
      000106                        936 00104$:
                                    937 ;	source/CH549_TCS34725.c:64: if(stopBit == 1) IIC_Stop();
      000106 E5*00            [12]  938 	mov	a,_bp
      000108 24 F9            [12]  939 	add	a,#0xf9
      00010A F8               [12]  940 	mov	r0,a
      00010B B6 01 03         [24]  941 	cjne	@r0,#0x01,00110$
      00010E 12r00r00         [24]  942 	lcall	_IIC_Stop
      000111                        943 00110$:
                                    944 ;	source/CH549_TCS34725.c:65: }
      000111 D0*00            [24]  945 	pop	_bp
      000113 22               [24]  946 	ret
                                    947 ;------------------------------------------------------------
                                    948 ;Allocation info for local variables in function 'TCS34725_Write'
                                    949 ;------------------------------------------------------------
                                    950 ;dataBuffer                Allocated to stack - _bp -5
                                    951 ;bytesNumber               Allocated to stack - _bp -6
                                    952 ;subAddr                   Allocated to registers r7 
                                    953 ;sendBuffer                Allocated to stack - _bp +1
                                    954 ;byte                      Allocated to registers r7 
                                    955 ;------------------------------------------------------------
                                    956 ;	source/CH549_TCS34725.c:76: void TCS34725_Write(UINT8  subAddr, UINT8 * dataBuffer, UINT8  bytesNumber)
                                    957 ;	-----------------------------------------
                                    958 ;	 function TCS34725_Write
                                    959 ;	-----------------------------------------
      000114                        960 _TCS34725_Write:
      000114 C0*00            [24]  961 	push	_bp
      000116 E5 81            [12]  962 	mov	a,sp
      000118 F5*00            [12]  963 	mov	_bp,a
      00011A 24 0A            [12]  964 	add	a,#0x0a
      00011C F5 81            [12]  965 	mov	sp,a
      00011E AF 82            [24]  966 	mov	r7,dpl
                                    967 ;	source/CH549_TCS34725.c:78: UINT8  sendBuffer[10] = {0, };
      000120 A9*00            [24]  968 	mov	r1,_bp
      000122 09               [12]  969 	inc	r1
      000123 77 00            [12]  970 	mov	@r1,#0x00
      000125 E9               [12]  971 	mov	a,r1
      000126 04               [12]  972 	inc	a
      000127 F8               [12]  973 	mov	r0,a
      000128 76 00            [12]  974 	mov	@r0,#0x00
      00012A 74 02            [12]  975 	mov	a,#0x02
      00012C 29               [12]  976 	add	a,r1
      00012D F8               [12]  977 	mov	r0,a
      00012E 76 00            [12]  978 	mov	@r0,#0x00
      000130 74 03            [12]  979 	mov	a,#0x03
      000132 29               [12]  980 	add	a,r1
      000133 F8               [12]  981 	mov	r0,a
      000134 76 00            [12]  982 	mov	@r0,#0x00
      000136 74 04            [12]  983 	mov	a,#0x04
      000138 29               [12]  984 	add	a,r1
      000139 F8               [12]  985 	mov	r0,a
      00013A 76 00            [12]  986 	mov	@r0,#0x00
      00013C 74 05            [12]  987 	mov	a,#0x05
      00013E 29               [12]  988 	add	a,r1
      00013F F8               [12]  989 	mov	r0,a
      000140 76 00            [12]  990 	mov	@r0,#0x00
      000142 74 06            [12]  991 	mov	a,#0x06
      000144 29               [12]  992 	add	a,r1
      000145 F8               [12]  993 	mov	r0,a
      000146 76 00            [12]  994 	mov	@r0,#0x00
      000148 74 07            [12]  995 	mov	a,#0x07
      00014A 29               [12]  996 	add	a,r1
      00014B F8               [12]  997 	mov	r0,a
      00014C 76 00            [12]  998 	mov	@r0,#0x00
      00014E 74 08            [12]  999 	mov	a,#0x08
      000150 29               [12] 1000 	add	a,r1
      000151 F8               [12] 1001 	mov	r0,a
      000152 76 00            [12] 1002 	mov	@r0,#0x00
      000154 74 09            [12] 1003 	mov	a,#0x09
      000156 29               [12] 1004 	add	a,r1
      000157 F8               [12] 1005 	mov	r0,a
      000158 76 00            [12] 1006 	mov	@r0,#0x00
                                   1007 ;	source/CH549_TCS34725.c:81: sendBuffer[0] = subAddr | TCS34725_COMMAND_BIT;
      00015A 74 80            [12] 1008 	mov	a,#0x80
      00015C 4F               [12] 1009 	orl	a,r7
      00015D F7               [12] 1010 	mov	@r1,a
                                   1011 ;	source/CH549_TCS34725.c:82: for(byte = 1; byte <= bytesNumber; byte++)
      00015E 7F 01            [12] 1012 	mov	r7,#0x01
      000160                       1013 00103$:
      000160 E5*00            [12] 1014 	mov	a,_bp
      000162 24 FA            [12] 1015 	add	a,#0xfa
      000164 F8               [12] 1016 	mov	r0,a
      000165 C3               [12] 1017 	clr	c
      000166 E6               [12] 1018 	mov	a,@r0
      000167 9F               [12] 1019 	subb	a,r7
      000168 40 2D            [24] 1020 	jc	00101$
                                   1021 ;	source/CH549_TCS34725.c:84: sendBuffer[byte] = dataBuffer[byte - 1];
      00016A EF               [12] 1022 	mov	a,r7
      00016B 29               [12] 1023 	add	a,r1
      00016C F8               [12] 1024 	mov	r0,a
      00016D 8F 05            [24] 1025 	mov	ar5,r7
      00016F 7E 00            [12] 1026 	mov	r6,#0x00
      000171 1D               [12] 1027 	dec	r5
      000172 BD FF 01         [24] 1028 	cjne	r5,#0xff,00117$
      000175 1E               [12] 1029 	dec	r6
      000176                       1030 00117$:
      000176 C0 00            [24] 1031 	push	ar0
      000178 E5*00            [12] 1032 	mov	a,_bp
      00017A 24 FB            [12] 1033 	add	a,#0xfb
      00017C F8               [12] 1034 	mov	r0,a
      00017D ED               [12] 1035 	mov	a,r5
      00017E 26               [12] 1036 	add	a,@r0
      00017F FD               [12] 1037 	mov	r5,a
      000180 EE               [12] 1038 	mov	a,r6
      000181 08               [12] 1039 	inc	r0
      000182 36               [12] 1040 	addc	a,@r0
      000183 FE               [12] 1041 	mov	r6,a
      000184 08               [12] 1042 	inc	r0
      000185 86 04            [24] 1043 	mov	ar4,@r0
      000187 D0 00            [24] 1044 	pop	ar0
      000189 8D 82            [24] 1045 	mov	dpl,r5
      00018B 8E 83            [24] 1046 	mov	dph,r6
      00018D 8C F0            [24] 1047 	mov	b,r4
      00018F 12r00r00         [24] 1048 	lcall	__gptrget
      000192 FD               [12] 1049 	mov	r5,a
      000193 F6               [12] 1050 	mov	@r0,a
                                   1051 ;	source/CH549_TCS34725.c:82: for(byte = 1; byte <= bytesNumber; byte++)
      000194 0F               [12] 1052 	inc	r7
      000195 80 C9            [24] 1053 	sjmp	00103$
      000197                       1054 00101$:
                                   1055 ;	source/CH549_TCS34725.c:86: TCS34725_I2C_Write(TCS34725_ADDRESS, sendBuffer, bytesNumber + 1, 1);
      000197 E5*00            [12] 1056 	mov	a,_bp
      000199 24 FA            [12] 1057 	add	a,#0xfa
      00019B F8               [12] 1058 	mov	r0,a
      00019C 86 07            [24] 1059 	mov	ar7,@r0
      00019E 0F               [12] 1060 	inc	r7
      00019F 89 06            [24] 1061 	mov	ar6,r1
      0001A1 7D 00            [12] 1062 	mov	r5,#0x00
      0001A3 7C 40            [12] 1063 	mov	r4,#0x40
      0001A5 74 01            [12] 1064 	mov	a,#0x01
      0001A7 C0 E0            [24] 1065 	push	acc
      0001A9 C0 07            [24] 1066 	push	ar7
      0001AB C0 06            [24] 1067 	push	ar6
      0001AD C0 05            [24] 1068 	push	ar5
      0001AF C0 04            [24] 1069 	push	ar4
      0001B1 75 82 29         [24] 1070 	mov	dpl,#0x29
      0001B4 12r00r00         [24] 1071 	lcall	_TCS34725_I2C_Write
      0001B7 E5 81            [12] 1072 	mov	a,sp
      0001B9 24 FB            [12] 1073 	add	a,#0xfb
      0001BB F5 81            [12] 1074 	mov	sp,a
                                   1075 ;	source/CH549_TCS34725.c:87: }
      0001BD 85*00 81         [24] 1076 	mov	sp,_bp
      0001C0 D0*00            [24] 1077 	pop	_bp
      0001C2 22               [24] 1078 	ret
                                   1079 ;------------------------------------------------------------
                                   1080 ;Allocation info for local variables in function 'TCS34725_Read'
                                   1081 ;------------------------------------------------------------
                                   1082 ;dataBuffer                Allocated to stack - _bp -5
                                   1083 ;bytesNumber               Allocated to stack - _bp -6
                                   1084 ;subAddr                   Allocated to stack - _bp +1
                                   1085 ;------------------------------------------------------------
                                   1086 ;	source/CH549_TCS34725.c:98: void TCS34725_Read(UINT8  subAddr, UINT8 * dataBuffer, UINT8  bytesNumber)
                                   1087 ;	-----------------------------------------
                                   1088 ;	 function TCS34725_Read
                                   1089 ;	-----------------------------------------
      0001C3                       1090 _TCS34725_Read:
      0001C3 C0*00            [24] 1091 	push	_bp
      0001C5 85 81*00         [24] 1092 	mov	_bp,sp
      0001C8 C0 82            [24] 1093 	push	dpl
                                   1094 ;	source/CH549_TCS34725.c:100: subAddr |= TCS34725_COMMAND_BIT;
      0001CA A8*00            [24] 1095 	mov	r0,_bp
      0001CC 08               [12] 1096 	inc	r0
      0001CD E6               [12] 1097 	mov	a,@r0
      0001CE 44 80            [12] 1098 	orl	a,#0x80
      0001D0 F6               [12] 1099 	mov	@r0,a
                                   1100 ;	source/CH549_TCS34725.c:102: TCS34725_I2C_Write(TCS34725_ADDRESS, (UINT8 *)&subAddr, 1, 0);
      0001D1 AF*00            [24] 1101 	mov	r7,_bp
      0001D3 0F               [12] 1102 	inc	r7
      0001D4 7E 00            [12] 1103 	mov	r6,#0x00
      0001D6 7D 40            [12] 1104 	mov	r5,#0x40
      0001D8 E4               [12] 1105 	clr	a
      0001D9 C0 E0            [24] 1106 	push	acc
      0001DB 04               [12] 1107 	inc	a
      0001DC C0 E0            [24] 1108 	push	acc
      0001DE C0 07            [24] 1109 	push	ar7
      0001E0 C0 06            [24] 1110 	push	ar6
      0001E2 C0 05            [24] 1111 	push	ar5
      0001E4 75 82 29         [24] 1112 	mov	dpl,#0x29
      0001E7 12r00r00         [24] 1113 	lcall	_TCS34725_I2C_Write
      0001EA E5 81            [12] 1114 	mov	a,sp
      0001EC 24 FB            [12] 1115 	add	a,#0xfb
      0001EE F5 81            [12] 1116 	mov	sp,a
                                   1117 ;	source/CH549_TCS34725.c:103: TCS34725_I2C_Read(TCS34725_ADDRESS, dataBuffer, bytesNumber, 1);
      0001F0 74 01            [12] 1118 	mov	a,#0x01
      0001F2 C0 E0            [24] 1119 	push	acc
      0001F4 E5*00            [12] 1120 	mov	a,_bp
      0001F6 24 FA            [12] 1121 	add	a,#0xfa
      0001F8 F8               [12] 1122 	mov	r0,a
      0001F9 E6               [12] 1123 	mov	a,@r0
      0001FA C0 E0            [24] 1124 	push	acc
      0001FC E5*00            [12] 1125 	mov	a,_bp
      0001FE 24 FB            [12] 1126 	add	a,#0xfb
      000200 F8               [12] 1127 	mov	r0,a
      000201 E6               [12] 1128 	mov	a,@r0
      000202 C0 E0            [24] 1129 	push	acc
      000204 08               [12] 1130 	inc	r0
      000205 E6               [12] 1131 	mov	a,@r0
      000206 C0 E0            [24] 1132 	push	acc
      000208 08               [12] 1133 	inc	r0
      000209 E6               [12] 1134 	mov	a,@r0
      00020A C0 E0            [24] 1135 	push	acc
      00020C 75 82 29         [24] 1136 	mov	dpl,#0x29
      00020F 12r00r59         [24] 1137 	lcall	_TCS34725_I2C_Read
      000212 E5 81            [12] 1138 	mov	a,sp
      000214 24 FB            [12] 1139 	add	a,#0xfb
      000216 F5 81            [12] 1140 	mov	sp,a
                                   1141 ;	source/CH549_TCS34725.c:104: }
      000218 15 81            [12] 1142 	dec	sp
      00021A D0*00            [24] 1143 	pop	_bp
      00021C 22               [24] 1144 	ret
                                   1145 ;------------------------------------------------------------
                                   1146 ;Allocation info for local variables in function 'TCS34725_SetIntegrationTime'
                                   1147 ;------------------------------------------------------------
                                   1148 ;time                      Allocated to stack - _bp +1
                                   1149 ;------------------------------------------------------------
                                   1150 ;	source/CH549_TCS34725.c:110: void TCS34725_SetIntegrationTime(UINT8  time)
                                   1151 ;	-----------------------------------------
                                   1152 ;	 function TCS34725_SetIntegrationTime
                                   1153 ;	-----------------------------------------
      00021D                       1154 _TCS34725_SetIntegrationTime:
      00021D C0*00            [24] 1155 	push	_bp
      00021F 85 81*00         [24] 1156 	mov	_bp,sp
      000222 C0 82            [24] 1157 	push	dpl
                                   1158 ;	source/CH549_TCS34725.c:112: TCS34725_Write(TCS34725_ATIME, &time, 1);
      000224 AF*00            [24] 1159 	mov	r7,_bp
      000226 0F               [12] 1160 	inc	r7
      000227 7E 00            [12] 1161 	mov	r6,#0x00
      000229 7D 40            [12] 1162 	mov	r5,#0x40
      00022B 74 01            [12] 1163 	mov	a,#0x01
      00022D C0 E0            [24] 1164 	push	acc
      00022F C0 07            [24] 1165 	push	ar7
      000231 C0 06            [24] 1166 	push	ar6
      000233 C0 05            [24] 1167 	push	ar5
      000235 75 82 01         [24] 1168 	mov	dpl,#0x01
      000238 12r01r14         [24] 1169 	lcall	_TCS34725_Write
      00023B E5 81            [12] 1170 	mov	a,sp
      00023D 24 FC            [12] 1171 	add	a,#0xfc
      00023F F5 81            [12] 1172 	mov	sp,a
                                   1173 ;	source/CH549_TCS34725.c:113: }
      000241 15 81            [12] 1174 	dec	sp
      000243 D0*00            [24] 1175 	pop	_bp
      000245 22               [24] 1176 	ret
                                   1177 ;------------------------------------------------------------
                                   1178 ;Allocation info for local variables in function 'TCS34725_SetGain'
                                   1179 ;------------------------------------------------------------
                                   1180 ;gain                      Allocated to stack - _bp +1
                                   1181 ;------------------------------------------------------------
                                   1182 ;	source/CH549_TCS34725.c:119: void TCS34725_SetGain(UINT8  gain)
                                   1183 ;	-----------------------------------------
                                   1184 ;	 function TCS34725_SetGain
                                   1185 ;	-----------------------------------------
      000246                       1186 _TCS34725_SetGain:
      000246 C0*00            [24] 1187 	push	_bp
      000248 85 81*00         [24] 1188 	mov	_bp,sp
      00024B C0 82            [24] 1189 	push	dpl
                                   1190 ;	source/CH549_TCS34725.c:121: TCS34725_Write(TCS34725_CONTROL, &gain, 1);
      00024D AF*00            [24] 1191 	mov	r7,_bp
      00024F 0F               [12] 1192 	inc	r7
      000250 7E 00            [12] 1193 	mov	r6,#0x00
      000252 7D 40            [12] 1194 	mov	r5,#0x40
      000254 74 01            [12] 1195 	mov	a,#0x01
      000256 C0 E0            [24] 1196 	push	acc
      000258 C0 07            [24] 1197 	push	ar7
      00025A C0 06            [24] 1198 	push	ar6
      00025C C0 05            [24] 1199 	push	ar5
      00025E 75 82 0F         [24] 1200 	mov	dpl,#0x0f
      000261 12r01r14         [24] 1201 	lcall	_TCS34725_Write
      000264 E5 81            [12] 1202 	mov	a,sp
      000266 24 FC            [12] 1203 	add	a,#0xfc
      000268 F5 81            [12] 1204 	mov	sp,a
                                   1205 ;	source/CH549_TCS34725.c:122: }
      00026A 15 81            [12] 1206 	dec	sp
      00026C D0*00            [24] 1207 	pop	_bp
      00026E 22               [24] 1208 	ret
                                   1209 ;------------------------------------------------------------
                                   1210 ;Allocation info for local variables in function 'TCS34725_Enable'
                                   1211 ;------------------------------------------------------------
                                   1212 ;cmd                       Allocated to stack - _bp +1
                                   1213 ;------------------------------------------------------------
                                   1214 ;	source/CH549_TCS34725.c:128: void TCS34725_Enable(void)
                                   1215 ;	-----------------------------------------
                                   1216 ;	 function TCS34725_Enable
                                   1217 ;	-----------------------------------------
      00026F                       1218 _TCS34725_Enable:
      00026F C0*00            [24] 1219 	push	_bp
      000271 85 81*00         [24] 1220 	mov	_bp,sp
      000274 05 81            [12] 1221 	inc	sp
                                   1222 ;	source/CH549_TCS34725.c:130: UINT8  cmd = TCS34725_ENABLE_PON;
      000276 A8*00            [24] 1223 	mov	r0,_bp
      000278 08               [12] 1224 	inc	r0
      000279 76 01            [12] 1225 	mov	@r0,#0x01
                                   1226 ;	source/CH549_TCS34725.c:132: TCS34725_Write(TCS34725_ENABLE, &cmd, 1);
      00027B AF*00            [24] 1227 	mov	r7,_bp
      00027D 0F               [12] 1228 	inc	r7
      00027E 7E 00            [12] 1229 	mov	r6,#0x00
      000280 7D 40            [12] 1230 	mov	r5,#0x40
      000282 74 01            [12] 1231 	mov	a,#0x01
      000284 C0 E0            [24] 1232 	push	acc
      000286 C0 07            [24] 1233 	push	ar7
      000288 C0 06            [24] 1234 	push	ar6
      00028A C0 05            [24] 1235 	push	ar5
      00028C 75 82 00         [24] 1236 	mov	dpl,#0x00
      00028F 12r01r14         [24] 1237 	lcall	_TCS34725_Write
      000292 E5 81            [12] 1238 	mov	a,sp
      000294 24 FC            [12] 1239 	add	a,#0xfc
      000296 F5 81            [12] 1240 	mov	sp,a
                                   1241 ;	source/CH549_TCS34725.c:133: cmd = TCS34725_ENABLE_PON | TCS34725_ENABLE_AEN;
      000298 A8*00            [24] 1242 	mov	r0,_bp
      00029A 08               [12] 1243 	inc	r0
      00029B 76 03            [12] 1244 	mov	@r0,#0x03
                                   1245 ;	source/CH549_TCS34725.c:134: TCS34725_Write(TCS34725_ENABLE, &cmd, 1);
      00029D AF*00            [24] 1246 	mov	r7,_bp
      00029F 0F               [12] 1247 	inc	r7
      0002A0 7E 00            [12] 1248 	mov	r6,#0x00
      0002A2 7D 40            [12] 1249 	mov	r5,#0x40
      0002A4 74 01            [12] 1250 	mov	a,#0x01
      0002A6 C0 E0            [24] 1251 	push	acc
      0002A8 C0 07            [24] 1252 	push	ar7
      0002AA C0 06            [24] 1253 	push	ar6
      0002AC C0 05            [24] 1254 	push	ar5
      0002AE 75 82 00         [24] 1255 	mov	dpl,#0x00
      0002B1 12r01r14         [24] 1256 	lcall	_TCS34725_Write
      0002B4 E5 81            [12] 1257 	mov	a,sp
      0002B6 24 FC            [12] 1258 	add	a,#0xfc
      0002B8 F5 81            [12] 1259 	mov	sp,a
                                   1260 ;	source/CH549_TCS34725.c:136: }
      0002BA 15 81            [12] 1261 	dec	sp
      0002BC D0*00            [24] 1262 	pop	_bp
      0002BE 22               [24] 1263 	ret
                                   1264 ;------------------------------------------------------------
                                   1265 ;Allocation info for local variables in function 'TCS34725_Disable'
                                   1266 ;------------------------------------------------------------
                                   1267 ;cmd                       Allocated to stack - _bp +1
                                   1268 ;------------------------------------------------------------
                                   1269 ;	source/CH549_TCS34725.c:142: void TCS34725_Disable(void)
                                   1270 ;	-----------------------------------------
                                   1271 ;	 function TCS34725_Disable
                                   1272 ;	-----------------------------------------
      0002BF                       1273 _TCS34725_Disable:
      0002BF C0*00            [24] 1274 	push	_bp
      0002C1 85 81*00         [24] 1275 	mov	_bp,sp
      0002C4 05 81            [12] 1276 	inc	sp
                                   1277 ;	source/CH549_TCS34725.c:144: UINT8  cmd = 0;
      0002C6 A8*00            [24] 1278 	mov	r0,_bp
      0002C8 08               [12] 1279 	inc	r0
      0002C9 76 00            [12] 1280 	mov	@r0,#0x00
                                   1281 ;	source/CH549_TCS34725.c:146: TCS34725_Read(TCS34725_ENABLE, &cmd, 1);
      0002CB AF*00            [24] 1282 	mov	r7,_bp
      0002CD 0F               [12] 1283 	inc	r7
      0002CE 7E 00            [12] 1284 	mov	r6,#0x00
      0002D0 7D 40            [12] 1285 	mov	r5,#0x40
      0002D2 74 01            [12] 1286 	mov	a,#0x01
      0002D4 C0 E0            [24] 1287 	push	acc
      0002D6 C0 07            [24] 1288 	push	ar7
      0002D8 C0 06            [24] 1289 	push	ar6
      0002DA C0 05            [24] 1290 	push	ar5
      0002DC 75 82 00         [24] 1291 	mov	dpl,#0x00
      0002DF 12r01rC3         [24] 1292 	lcall	_TCS34725_Read
      0002E2 E5 81            [12] 1293 	mov	a,sp
      0002E4 24 FC            [12] 1294 	add	a,#0xfc
      0002E6 F5 81            [12] 1295 	mov	sp,a
                                   1296 ;	source/CH549_TCS34725.c:147: cmd = cmd & ~(TCS34725_ENABLE_PON | TCS34725_ENABLE_AEN);
      0002E8 A8*00            [24] 1297 	mov	r0,_bp
      0002EA 08               [12] 1298 	inc	r0
      0002EB E6               [12] 1299 	mov	a,@r0
      0002EC 54 FC            [12] 1300 	anl	a,#0xfc
      0002EE F6               [12] 1301 	mov	@r0,a
                                   1302 ;	source/CH549_TCS34725.c:148: TCS34725_Write(TCS34725_ENABLE, &cmd, 1);
      0002EF AF*00            [24] 1303 	mov	r7,_bp
      0002F1 0F               [12] 1304 	inc	r7
      0002F2 7E 00            [12] 1305 	mov	r6,#0x00
      0002F4 7D 40            [12] 1306 	mov	r5,#0x40
      0002F6 74 01            [12] 1307 	mov	a,#0x01
      0002F8 C0 E0            [24] 1308 	push	acc
      0002FA C0 07            [24] 1309 	push	ar7
      0002FC C0 06            [24] 1310 	push	ar6
      0002FE C0 05            [24] 1311 	push	ar5
      000300 75 82 00         [24] 1312 	mov	dpl,#0x00
      000303 12r01r14         [24] 1313 	lcall	_TCS34725_Write
      000306 E5 81            [12] 1314 	mov	a,sp
      000308 24 FC            [12] 1315 	add	a,#0xfc
      00030A F5 81            [12] 1316 	mov	sp,a
                                   1317 ;	source/CH549_TCS34725.c:149: }
      00030C 15 81            [12] 1318 	dec	sp
      00030E D0*00            [24] 1319 	pop	_bp
      000310 22               [24] 1320 	ret
                                   1321 ;------------------------------------------------------------
                                   1322 ;Allocation info for local variables in function 'TCS34725_Init'
                                   1323 ;------------------------------------------------------------
                                   1324 ;id                        Allocated to stack - _bp +1
                                   1325 ;------------------------------------------------------------
                                   1326 ;	source/CH549_TCS34725.c:155: UINT8  TCS34725_Init(void)
                                   1327 ;	-----------------------------------------
                                   1328 ;	 function TCS34725_Init
                                   1329 ;	-----------------------------------------
      000311                       1330 _TCS34725_Init:
      000311 C0*00            [24] 1331 	push	_bp
      000313 85 81*00         [24] 1332 	mov	_bp,sp
      000316 05 81            [12] 1333 	inc	sp
                                   1334 ;	source/CH549_TCS34725.c:157: UINT8  id=0;
      000318 A8*00            [24] 1335 	mov	r0,_bp
      00031A 08               [12] 1336 	inc	r0
      00031B 76 00            [12] 1337 	mov	@r0,#0x00
                                   1338 ;	source/CH549_TCS34725.c:159: IIC_Init(); 
      00031D 12r00r00         [24] 1339 	lcall	_IIC_Init
                                   1340 ;	source/CH549_TCS34725.c:160: TCS34725_Read(TCS34725_ID, &id, 1);  //TCS34725 的 ID 是 0x44 可以根据这个来判断是否成功连接,0x4D是TCS34727;
      000320 AF*00            [24] 1341 	mov	r7,_bp
      000322 0F               [12] 1342 	inc	r7
      000323 7E 00            [12] 1343 	mov	r6,#0x00
      000325 7D 40            [12] 1344 	mov	r5,#0x40
      000327 74 01            [12] 1345 	mov	a,#0x01
      000329 C0 E0            [24] 1346 	push	acc
      00032B C0 07            [24] 1347 	push	ar7
      00032D C0 06            [24] 1348 	push	ar6
      00032F C0 05            [24] 1349 	push	ar5
      000331 75 82 12         [24] 1350 	mov	dpl,#0x12
      000334 12r01rC3         [24] 1351 	lcall	_TCS34725_Read
      000337 E5 81            [12] 1352 	mov	a,sp
      000339 24 FC            [12] 1353 	add	a,#0xfc
      00033B F5 81            [12] 1354 	mov	sp,a
                                   1355 ;	source/CH549_TCS34725.c:161: if(id==0x4D | id==0x44)
      00033D A8*00            [24] 1356 	mov	r0,_bp
      00033F 08               [12] 1357 	inc	r0
      000340 E4               [12] 1358 	clr	a
      000341 B6 4D 01         [24] 1359 	cjne	@r0,#0x4d,00109$
      000344 04               [12] 1360 	inc	a
      000345                       1361 00109$:
      000345 FF               [12] 1362 	mov	r7,a
      000346 A8*00            [24] 1363 	mov	r0,_bp
      000348 08               [12] 1364 	inc	r0
      000349 E4               [12] 1365 	clr	a
      00034A B6 44 01         [24] 1366 	cjne	@r0,#0x44,00111$
      00034D 04               [12] 1367 	inc	a
      00034E                       1368 00111$:
      00034E 4F               [12] 1369 	orl	a,r7
      00034F 60 14            [24] 1370 	jz	00102$
                                   1371 ;	source/CH549_TCS34725.c:163: TCS34725_SetIntegrationTime(TCS34725_INTEGRATIONTIME_50MS);
      000351 75 82 EB         [24] 1372 	mov	dpl,#0xeb
      000354 12r02r1D         [24] 1373 	lcall	_TCS34725_SetIntegrationTime
                                   1374 ;	source/CH549_TCS34725.c:164: TCS34725_SetGain(TCS34725_GAIN_1X);
      000357 75 82 00         [24] 1375 	mov	dpl,#0x00
      00035A 12r02r46         [24] 1376 	lcall	_TCS34725_SetGain
                                   1377 ;	source/CH549_TCS34725.c:165: TCS34725_Enable();
      00035D 12r02r6F         [24] 1378 	lcall	_TCS34725_Enable
                                   1379 ;	source/CH549_TCS34725.c:166: return 1;
      000360 75 82 01         [24] 1380 	mov	dpl,#0x01
      000363 80 03            [24] 1381 	sjmp	00103$
      000365                       1382 00102$:
                                   1383 ;	source/CH549_TCS34725.c:168: return 0;
      000365 75 82 00         [24] 1384 	mov	dpl,#0x00
      000368                       1385 00103$:
                                   1386 ;	source/CH549_TCS34725.c:169: }
      000368 15 81            [12] 1387 	dec	sp
      00036A D0*00            [24] 1388 	pop	_bp
      00036C 22               [24] 1389 	ret
                                   1390 ;------------------------------------------------------------
                                   1391 ;Allocation info for local variables in function 'TCS34725_GetChannelData'
                                   1392 ;------------------------------------------------------------
                                   1393 ;reg                       Allocated to registers r7 
                                   1394 ;tmp                       Allocated to stack - _bp +1
                                   1395 ;data                      Allocated to registers r7 r6 
                                   1396 ;------------------------------------------------------------
                                   1397 ;	source/CH549_TCS34725.c:175: UINT16 TCS34725_GetChannelData(UINT8  reg)
                                   1398 ;	-----------------------------------------
                                   1399 ;	 function TCS34725_GetChannelData
                                   1400 ;	-----------------------------------------
      00036D                       1401 _TCS34725_GetChannelData:
      00036D C0*00            [24] 1402 	push	_bp
      00036F 85 81*00         [24] 1403 	mov	_bp,sp
      000372 05 81            [12] 1404 	inc	sp
      000374 05 81            [12] 1405 	inc	sp
      000376 AF 82            [24] 1406 	mov	r7,dpl
                                   1407 ;	source/CH549_TCS34725.c:177: UINT8  tmp[2] = {0,0};
      000378 A9*00            [24] 1408 	mov	r1,_bp
      00037A 09               [12] 1409 	inc	r1
      00037B 77 00            [12] 1410 	mov	@r1,#0x00
      00037D E9               [12] 1411 	mov	a,r1
      00037E 04               [12] 1412 	inc	a
      00037F F8               [12] 1413 	mov	r0,a
      000380 76 00            [12] 1414 	mov	@r0,#0x00
                                   1415 ;	source/CH549_TCS34725.c:180: TCS34725_Read(reg, tmp, 2);
      000382 89 06            [24] 1416 	mov	ar6,r1
      000384 7D 00            [12] 1417 	mov	r5,#0x00
      000386 7C 40            [12] 1418 	mov	r4,#0x40
      000388 C0 01            [24] 1419 	push	ar1
      00038A C0 00            [24] 1420 	push	ar0
      00038C 74 02            [12] 1421 	mov	a,#0x02
      00038E C0 E0            [24] 1422 	push	acc
      000390 C0 06            [24] 1423 	push	ar6
      000392 C0 05            [24] 1424 	push	ar5
      000394 C0 04            [24] 1425 	push	ar4
      000396 8F 82            [24] 1426 	mov	dpl,r7
      000398 12r01rC3         [24] 1427 	lcall	_TCS34725_Read
      00039B E5 81            [12] 1428 	mov	a,sp
      00039D 24 FC            [12] 1429 	add	a,#0xfc
      00039F F5 81            [12] 1430 	mov	sp,a
      0003A1 D0 00            [24] 1431 	pop	ar0
      0003A3 D0 01            [24] 1432 	pop	ar1
                                   1433 ;	source/CH549_TCS34725.c:181: data = (tmp[0] << 8) | tmp[1];
      0003A5 87 07            [24] 1434 	mov	ar7,@r1
      0003A7 8F 06            [24] 1435 	mov	ar6,r7
      0003A9 7F 00            [12] 1436 	mov	r7,#0x00
      0003AB 86 05            [24] 1437 	mov	ar5,@r0
      0003AD 7C 00            [12] 1438 	mov	r4,#0x00
      0003AF ED               [12] 1439 	mov	a,r5
      0003B0 42 07            [12] 1440 	orl	ar7,a
      0003B2 EC               [12] 1441 	mov	a,r4
      0003B3 42 06            [12] 1442 	orl	ar6,a
                                   1443 ;	source/CH549_TCS34725.c:183: return data;
      0003B5 8F 82            [24] 1444 	mov	dpl,r7
      0003B7 8E 83            [24] 1445 	mov	dph,r6
                                   1446 ;	source/CH549_TCS34725.c:184: }
      0003B9 85*00 81         [24] 1447 	mov	sp,_bp
      0003BC D0*00            [24] 1448 	pop	_bp
      0003BE 22               [24] 1449 	ret
                                   1450 ;------------------------------------------------------------
                                   1451 ;Allocation info for local variables in function 'TCS34725_GetRawData'
                                   1452 ;------------------------------------------------------------
                                   1453 ;rgbc                      Allocated to stack - _bp +1
                                   1454 ;status                    Allocated to stack - _bp +4
                                   1455 ;------------------------------------------------------------
                                   1456 ;	source/CH549_TCS34725.c:191: UINT8  TCS34725_GetRawData(COLOR_RGBC *rgbc)
                                   1457 ;	-----------------------------------------
                                   1458 ;	 function TCS34725_GetRawData
                                   1459 ;	-----------------------------------------
      0003BF                       1460 _TCS34725_GetRawData:
      0003BF C0*00            [24] 1461 	push	_bp
      0003C1 85 81*00         [24] 1462 	mov	_bp,sp
      0003C4 C0 82            [24] 1463 	push	dpl
      0003C6 C0 83            [24] 1464 	push	dph
      0003C8 C0 F0            [24] 1465 	push	b
      0003CA 05 81            [12] 1466 	inc	sp
                                   1467 ;	source/CH549_TCS34725.c:193: UINT8  status = TCS34725_STATUS_AVALID;
      0003CC E5*00            [12] 1468 	mov	a,_bp
      0003CE 24 04            [12] 1469 	add	a,#0x04
      0003D0 F8               [12] 1470 	mov	r0,a
      0003D1 76 01            [12] 1471 	mov	@r0,#0x01
                                   1472 ;	source/CH549_TCS34725.c:195: TCS34725_Read(TCS34725_STATUS, &status, 1);
      0003D3 E5*00            [12] 1473 	mov	a,_bp
      0003D5 24 04            [12] 1474 	add	a,#0x04
      0003D7 FC               [12] 1475 	mov	r4,a
      0003D8 7B 00            [12] 1476 	mov	r3,#0x00
      0003DA 7A 40            [12] 1477 	mov	r2,#0x40
      0003DC 74 01            [12] 1478 	mov	a,#0x01
      0003DE C0 E0            [24] 1479 	push	acc
      0003E0 C0 04            [24] 1480 	push	ar4
      0003E2 C0 03            [24] 1481 	push	ar3
      0003E4 C0 02            [24] 1482 	push	ar2
      0003E6 75 82 13         [24] 1483 	mov	dpl,#0x13
      0003E9 12r01rC3         [24] 1484 	lcall	_TCS34725_Read
      0003EC E5 81            [12] 1485 	mov	a,sp
      0003EE 24 FC            [12] 1486 	add	a,#0xfc
      0003F0 F5 81            [12] 1487 	mov	sp,a
                                   1488 ;	source/CH549_TCS34725.c:197: if(status & TCS34725_STATUS_AVALID)
      0003F2 E5*00            [12] 1489 	mov	a,_bp
      0003F4 24 04            [12] 1490 	add	a,#0x04
      0003F6 F8               [12] 1491 	mov	r0,a
      0003F7 E6               [12] 1492 	mov	a,@r0
      0003F8 20 E0 03         [24] 1493 	jb	acc.0,00109$
      0003FB 02r04rBA         [24] 1494 	ljmp	00102$
      0003FE                       1495 00109$:
                                   1496 ;	source/CH549_TCS34725.c:199: rgbc->c = TCS34725_GetChannelData(TCS34725_CDATAL);	
      0003FE 75 82 14         [24] 1497 	mov	dpl,#0x14
      000401 12r03r6D         [24] 1498 	lcall	_TCS34725_GetChannelData
      000404 AB 82            [24] 1499 	mov	r3,dpl
      000406 AC 83            [24] 1500 	mov	r4,dph
      000408 A8*00            [24] 1501 	mov	r0,_bp
      00040A 08               [12] 1502 	inc	r0
      00040B 86 82            [24] 1503 	mov	dpl,@r0
      00040D 08               [12] 1504 	inc	r0
      00040E 86 83            [24] 1505 	mov	dph,@r0
      000410 08               [12] 1506 	inc	r0
      000411 86 F0            [24] 1507 	mov	b,@r0
      000413 EB               [12] 1508 	mov	a,r3
      000414 12r00r00         [24] 1509 	lcall	__gptrput
      000417 A3               [24] 1510 	inc	dptr
      000418 EC               [12] 1511 	mov	a,r4
      000419 12r00r00         [24] 1512 	lcall	__gptrput
                                   1513 ;	source/CH549_TCS34725.c:200: rgbc->r = TCS34725_GetChannelData(TCS34725_RDATAL);	
      00041C A8*00            [24] 1514 	mov	r0,_bp
      00041E 08               [12] 1515 	inc	r0
      00041F 74 02            [12] 1516 	mov	a,#0x02
      000421 26               [12] 1517 	add	a,@r0
      000422 FA               [12] 1518 	mov	r2,a
      000423 E4               [12] 1519 	clr	a
      000424 08               [12] 1520 	inc	r0
      000425 36               [12] 1521 	addc	a,@r0
      000426 FB               [12] 1522 	mov	r3,a
      000427 08               [12] 1523 	inc	r0
      000428 86 04            [24] 1524 	mov	ar4,@r0
      00042A 75 82 16         [24] 1525 	mov	dpl,#0x16
      00042D C0 04            [24] 1526 	push	ar4
      00042F C0 03            [24] 1527 	push	ar3
      000431 C0 02            [24] 1528 	push	ar2
      000433 12r03r6D         [24] 1529 	lcall	_TCS34725_GetChannelData
      000436 AE 82            [24] 1530 	mov	r6,dpl
      000438 AF 83            [24] 1531 	mov	r7,dph
      00043A D0 02            [24] 1532 	pop	ar2
      00043C D0 03            [24] 1533 	pop	ar3
      00043E D0 04            [24] 1534 	pop	ar4
      000440 8A 82            [24] 1535 	mov	dpl,r2
      000442 8B 83            [24] 1536 	mov	dph,r3
      000444 8C F0            [24] 1537 	mov	b,r4
      000446 EE               [12] 1538 	mov	a,r6
      000447 12r00r00         [24] 1539 	lcall	__gptrput
      00044A A3               [24] 1540 	inc	dptr
      00044B EF               [12] 1541 	mov	a,r7
      00044C 12r00r00         [24] 1542 	lcall	__gptrput
                                   1543 ;	source/CH549_TCS34725.c:201: rgbc->g = TCS34725_GetChannelData(TCS34725_GDATAL);	
      00044F A8*00            [24] 1544 	mov	r0,_bp
      000451 08               [12] 1545 	inc	r0
      000452 74 04            [12] 1546 	mov	a,#0x04
      000454 26               [12] 1547 	add	a,@r0
      000455 FD               [12] 1548 	mov	r5,a
      000456 E4               [12] 1549 	clr	a
      000457 08               [12] 1550 	inc	r0
      000458 36               [12] 1551 	addc	a,@r0
      000459 FE               [12] 1552 	mov	r6,a
      00045A 08               [12] 1553 	inc	r0
      00045B 86 07            [24] 1554 	mov	ar7,@r0
      00045D 75 82 18         [24] 1555 	mov	dpl,#0x18
      000460 C0 07            [24] 1556 	push	ar7
      000462 C0 06            [24] 1557 	push	ar6
      000464 C0 05            [24] 1558 	push	ar5
      000466 12r03r6D         [24] 1559 	lcall	_TCS34725_GetChannelData
      000469 AB 82            [24] 1560 	mov	r3,dpl
      00046B AC 83            [24] 1561 	mov	r4,dph
      00046D D0 05            [24] 1562 	pop	ar5
      00046F D0 06            [24] 1563 	pop	ar6
      000471 D0 07            [24] 1564 	pop	ar7
      000473 8D 82            [24] 1565 	mov	dpl,r5
      000475 8E 83            [24] 1566 	mov	dph,r6
      000477 8F F0            [24] 1567 	mov	b,r7
      000479 EB               [12] 1568 	mov	a,r3
      00047A 12r00r00         [24] 1569 	lcall	__gptrput
      00047D A3               [24] 1570 	inc	dptr
      00047E EC               [12] 1571 	mov	a,r4
      00047F 12r00r00         [24] 1572 	lcall	__gptrput
                                   1573 ;	source/CH549_TCS34725.c:202: rgbc->b = TCS34725_GetChannelData(TCS34725_BDATAL);
      000482 A8*00            [24] 1574 	mov	r0,_bp
      000484 08               [12] 1575 	inc	r0
      000485 74 06            [12] 1576 	mov	a,#0x06
      000487 26               [12] 1577 	add	a,@r0
      000488 FD               [12] 1578 	mov	r5,a
      000489 E4               [12] 1579 	clr	a
      00048A 08               [12] 1580 	inc	r0
      00048B 36               [12] 1581 	addc	a,@r0
      00048C FE               [12] 1582 	mov	r6,a
      00048D 08               [12] 1583 	inc	r0
      00048E 86 07            [24] 1584 	mov	ar7,@r0
      000490 75 82 1A         [24] 1585 	mov	dpl,#0x1a
      000493 C0 07            [24] 1586 	push	ar7
      000495 C0 06            [24] 1587 	push	ar6
      000497 C0 05            [24] 1588 	push	ar5
      000499 12r03r6D         [24] 1589 	lcall	_TCS34725_GetChannelData
      00049C AB 82            [24] 1590 	mov	r3,dpl
      00049E AC 83            [24] 1591 	mov	r4,dph
      0004A0 D0 05            [24] 1592 	pop	ar5
      0004A2 D0 06            [24] 1593 	pop	ar6
      0004A4 D0 07            [24] 1594 	pop	ar7
      0004A6 8D 82            [24] 1595 	mov	dpl,r5
      0004A8 8E 83            [24] 1596 	mov	dph,r6
      0004AA 8F F0            [24] 1597 	mov	b,r7
      0004AC EB               [12] 1598 	mov	a,r3
      0004AD 12r00r00         [24] 1599 	lcall	__gptrput
      0004B0 A3               [24] 1600 	inc	dptr
      0004B1 EC               [12] 1601 	mov	a,r4
      0004B2 12r00r00         [24] 1602 	lcall	__gptrput
                                   1603 ;	source/CH549_TCS34725.c:203: return 1;
      0004B5 75 82 01         [24] 1604 	mov	dpl,#0x01
      0004B8 80 03            [24] 1605 	sjmp	00103$
      0004BA                       1606 00102$:
                                   1607 ;	source/CH549_TCS34725.c:205: return 0;
      0004BA 75 82 00         [24] 1608 	mov	dpl,#0x00
      0004BD                       1609 00103$:
                                   1610 ;	source/CH549_TCS34725.c:206: }
      0004BD 85*00 81         [24] 1611 	mov	sp,_bp
      0004C0 D0*00            [24] 1612 	pop	_bp
      0004C2 22               [24] 1613 	ret
                                   1614 ;------------------------------------------------------------
                                   1615 ;Allocation info for local variables in function 'RGBtoHSL'
                                   1616 ;------------------------------------------------------------
                                   1617 ;Hsl                       Allocated to stack - _bp -5
                                   1618 ;Rgb                       Allocated to stack - _bp +1
                                   1619 ;maxVal                    Allocated to registers r2 
                                   1620 ;minVal                    Allocated to registers r5 
                                   1621 ;difVal                    Allocated to stack - _bp +14
                                   1622 ;r                         Allocated to stack - _bp +15
                                   1623 ;g                         Allocated to registers r4 
                                   1624 ;b                         Allocated to registers r6 
                                   1625 ;sloc0                     Allocated to stack - _bp +11
                                   1626 ;sloc1                     Allocated to stack - _bp +4
                                   1627 ;sloc2                     Allocated to stack - _bp +6
                                   1628 ;sloc3                     Allocated to stack - _bp +8
                                   1629 ;------------------------------------------------------------
                                   1630 ;	source/CH549_TCS34725.c:209: void RGBtoHSL(COLOR_RGBC *Rgb, COLOR_HSL *Hsl)
                                   1631 ;	-----------------------------------------
                                   1632 ;	 function RGBtoHSL
                                   1633 ;	-----------------------------------------
      0004C3                       1634 _RGBtoHSL:
      0004C3 C0*00            [24] 1635 	push	_bp
      0004C5 85 81*00         [24] 1636 	mov	_bp,sp
      0004C8 C0 82            [24] 1637 	push	dpl
      0004CA C0 83            [24] 1638 	push	dph
      0004CC C0 F0            [24] 1639 	push	b
      0004CE E5 81            [12] 1640 	mov	a,sp
      0004D0 24 0C            [12] 1641 	add	a,#0x0c
      0004D2 F5 81            [12] 1642 	mov	sp,a
                                   1643 ;	source/CH549_TCS34725.c:212: UINT8  r = Rgb->r*100/Rgb->c;   //[0-100]
      0004D4 A8*00            [24] 1644 	mov	r0,_bp
      0004D6 08               [12] 1645 	inc	r0
      0004D7 74 02            [12] 1646 	mov	a,#0x02
      0004D9 26               [12] 1647 	add	a,@r0
      0004DA FA               [12] 1648 	mov	r2,a
      0004DB E4               [12] 1649 	clr	a
      0004DC 08               [12] 1650 	inc	r0
      0004DD 36               [12] 1651 	addc	a,@r0
      0004DE FB               [12] 1652 	mov	r3,a
      0004DF 08               [12] 1653 	inc	r0
      0004E0 86 04            [24] 1654 	mov	ar4,@r0
      0004E2 8A 82            [24] 1655 	mov	dpl,r2
      0004E4 8B 83            [24] 1656 	mov	dph,r3
      0004E6 8C F0            [24] 1657 	mov	b,r4
      0004E8 12r00r00         [24] 1658 	lcall	__gptrget
      0004EB FA               [12] 1659 	mov	r2,a
      0004EC A3               [24] 1660 	inc	dptr
      0004ED 12r00r00         [24] 1661 	lcall	__gptrget
      0004F0 FB               [12] 1662 	mov	r3,a
      0004F1 C0 02            [24] 1663 	push	ar2
      0004F3 C0 03            [24] 1664 	push	ar3
      0004F5 90 00 64         [24] 1665 	mov	dptr,#0x0064
      0004F8 12r00r00         [24] 1666 	lcall	__mulint
      0004FB AB 82            [24] 1667 	mov	r3,dpl
      0004FD AC 83            [24] 1668 	mov	r4,dph
      0004FF 15 81            [12] 1669 	dec	sp
      000501 15 81            [12] 1670 	dec	sp
      000503 A8*00            [24] 1671 	mov	r0,_bp
      000505 08               [12] 1672 	inc	r0
      000506 86 82            [24] 1673 	mov	dpl,@r0
      000508 08               [12] 1674 	inc	r0
      000509 86 83            [24] 1675 	mov	dph,@r0
      00050B 08               [12] 1676 	inc	r0
      00050C 86 F0            [24] 1677 	mov	b,@r0
      00050E 12r00r00         [24] 1678 	lcall	__gptrget
      000511 FA               [12] 1679 	mov	r2,a
      000512 A3               [24] 1680 	inc	dptr
      000513 12r00r00         [24] 1681 	lcall	__gptrget
      000516 FF               [12] 1682 	mov	r7,a
      000517 C0 07            [24] 1683 	push	ar7
      000519 C0 02            [24] 1684 	push	ar2
      00051B C0 02            [24] 1685 	push	ar2
      00051D C0 07            [24] 1686 	push	ar7
      00051F 8B 82            [24] 1687 	mov	dpl,r3
      000521 8C 83            [24] 1688 	mov	dph,r4
      000523 12r00r00         [24] 1689 	lcall	__divuint
      000526 AD 82            [24] 1690 	mov	r5,dpl
      000528 15 81            [12] 1691 	dec	sp
      00052A 15 81            [12] 1692 	dec	sp
      00052C E5*00            [12] 1693 	mov	a,_bp
      00052E 24 0F            [12] 1694 	add	a,#0x0f
      000530 F8               [12] 1695 	mov	r0,a
      000531 A6 05            [24] 1696 	mov	@r0,ar5
                                   1697 ;	source/CH549_TCS34725.c:213: UINT8  g = Rgb->g*100/Rgb->c;
      000533 A8*00            [24] 1698 	mov	r0,_bp
      000535 08               [12] 1699 	inc	r0
      000536 74 04            [12] 1700 	mov	a,#0x04
      000538 26               [12] 1701 	add	a,@r0
      000539 FB               [12] 1702 	mov	r3,a
      00053A E4               [12] 1703 	clr	a
      00053B 08               [12] 1704 	inc	r0
      00053C 36               [12] 1705 	addc	a,@r0
      00053D FC               [12] 1706 	mov	r4,a
      00053E 08               [12] 1707 	inc	r0
      00053F 86 06            [24] 1708 	mov	ar6,@r0
      000541 8B 82            [24] 1709 	mov	dpl,r3
      000543 8C 83            [24] 1710 	mov	dph,r4
      000545 8E F0            [24] 1711 	mov	b,r6
      000547 12r00r00         [24] 1712 	lcall	__gptrget
      00054A FB               [12] 1713 	mov	r3,a
      00054B A3               [24] 1714 	inc	dptr
      00054C 12r00r00         [24] 1715 	lcall	__gptrget
      00054F FC               [12] 1716 	mov	r4,a
      000550 C0 03            [24] 1717 	push	ar3
      000552 C0 04            [24] 1718 	push	ar4
      000554 90 00 64         [24] 1719 	mov	dptr,#0x0064
      000557 12r00r00         [24] 1720 	lcall	__mulint
      00055A AC 82            [24] 1721 	mov	r4,dpl
      00055C AE 83            [24] 1722 	mov	r6,dph
      00055E 15 81            [12] 1723 	dec	sp
      000560 15 81            [12] 1724 	dec	sp
      000562 D0 02            [24] 1725 	pop	ar2
      000564 D0 07            [24] 1726 	pop	ar7
      000566 C0 07            [24] 1727 	push	ar7
      000568 C0 02            [24] 1728 	push	ar2
      00056A C0 02            [24] 1729 	push	ar2
      00056C C0 07            [24] 1730 	push	ar7
      00056E 8C 82            [24] 1731 	mov	dpl,r4
      000570 8E 83            [24] 1732 	mov	dph,r6
      000572 12r00r00         [24] 1733 	lcall	__divuint
      000575 AC 82            [24] 1734 	mov	r4,dpl
      000577 15 81            [12] 1735 	dec	sp
      000579 15 81            [12] 1736 	dec	sp
      00057B D0 02            [24] 1737 	pop	ar2
                                   1738 ;	source/CH549_TCS34725.c:214: UINT8  b = Rgb->b*100/Rgb->c;
      00057D A8*00            [24] 1739 	mov	r0,_bp
      00057F 08               [12] 1740 	inc	r0
      000580 74 06            [12] 1741 	mov	a,#0x06
      000582 26               [12] 1742 	add	a,@r0
      000583 FB               [12] 1743 	mov	r3,a
      000584 E4               [12] 1744 	clr	a
      000585 08               [12] 1745 	inc	r0
      000586 36               [12] 1746 	addc	a,@r0
      000587 FD               [12] 1747 	mov	r5,a
      000588 08               [12] 1748 	inc	r0
      000589 86 06            [24] 1749 	mov	ar6,@r0
      00058B 8B 82            [24] 1750 	mov	dpl,r3
      00058D 8D 83            [24] 1751 	mov	dph,r5
      00058F 8E F0            [24] 1752 	mov	b,r6
      000591 12r00r00         [24] 1753 	lcall	__gptrget
      000594 FB               [12] 1754 	mov	r3,a
      000595 A3               [24] 1755 	inc	dptr
      000596 12r00r00         [24] 1756 	lcall	__gptrget
      000599 FD               [12] 1757 	mov	r5,a
      00059A C0 04            [24] 1758 	push	ar4
      00059C C0 02            [24] 1759 	push	ar2
      00059E C0 03            [24] 1760 	push	ar3
      0005A0 C0 05            [24] 1761 	push	ar5
      0005A2 90 00 64         [24] 1762 	mov	dptr,#0x0064
      0005A5 12r00r00         [24] 1763 	lcall	__mulint
      0005A8 AD 82            [24] 1764 	mov	r5,dpl
      0005AA AE 83            [24] 1765 	mov	r6,dph
      0005AC 15 81            [12] 1766 	dec	sp
      0005AE 15 81            [12] 1767 	dec	sp
      0005B0 D0 02            [24] 1768 	pop	ar2
      0005B2 D0 04            [24] 1769 	pop	ar4
      0005B4 D0 07            [24] 1770 	pop	ar7
      0005B6 C0 04            [24] 1771 	push	ar4
      0005B8 C0 02            [24] 1772 	push	ar2
      0005BA C0 07            [24] 1773 	push	ar7
      0005BC 8D 82            [24] 1774 	mov	dpl,r5
      0005BE 8E 83            [24] 1775 	mov	dph,r6
      0005C0 12r00r00         [24] 1776 	lcall	__divuint
      0005C3 AE 82            [24] 1777 	mov	r6,dpl
      0005C5 15 81            [12] 1778 	dec	sp
      0005C7 15 81            [12] 1779 	dec	sp
      0005C9 D0 04            [24] 1780 	pop	ar4
                                   1781 ;	source/CH549_TCS34725.c:216: maxVal = max3v(r,g,b);
      0005CB E5*00            [12] 1782 	mov	a,_bp
      0005CD 24 0F            [12] 1783 	add	a,#0x0f
      0005CF F8               [12] 1784 	mov	r0,a
      0005D0 C3               [12] 1785 	clr	c
      0005D1 E6               [12] 1786 	mov	a,@r0
      0005D2 9C               [12] 1787 	subb	a,r4
      0005D3 50 0D            [24] 1788 	jnc	00120$
      0005D5 C3               [12] 1789 	clr	c
      0005D6 EC               [12] 1790 	mov	a,r4
      0005D7 9E               [12] 1791 	subb	a,r6
      0005D8 50 04            [24] 1792 	jnc	00122$
      0005DA 8E 07            [24] 1793 	mov	ar7,r6
      0005DC 80 1B            [24] 1794 	sjmp	00121$
      0005DE                       1795 00122$:
      0005DE 8C 07            [24] 1796 	mov	ar7,r4
      0005E0 80 17            [24] 1797 	sjmp	00121$
      0005E2                       1798 00120$:
      0005E2 E5*00            [12] 1799 	mov	a,_bp
      0005E4 24 0F            [12] 1800 	add	a,#0x0f
      0005E6 F8               [12] 1801 	mov	r0,a
      0005E7 C3               [12] 1802 	clr	c
      0005E8 E6               [12] 1803 	mov	a,@r0
      0005E9 9E               [12] 1804 	subb	a,r6
      0005EA 50 04            [24] 1805 	jnc	00124$
      0005EC 8E 05            [24] 1806 	mov	ar5,r6
      0005EE 80 07            [24] 1807 	sjmp	00125$
      0005F0                       1808 00124$:
      0005F0 E5*00            [12] 1809 	mov	a,_bp
      0005F2 24 0F            [12] 1810 	add	a,#0x0f
      0005F4 F8               [12] 1811 	mov	r0,a
      0005F5 86 05            [24] 1812 	mov	ar5,@r0
      0005F7                       1813 00125$:
      0005F7 8D 07            [24] 1814 	mov	ar7,r5
      0005F9                       1815 00121$:
      0005F9 8F 02            [24] 1816 	mov	ar2,r7
                                   1817 ;	source/CH549_TCS34725.c:217: minVal = min3v(r,g,b);
      0005FB E5*00            [12] 1818 	mov	a,_bp
      0005FD 24 0F            [12] 1819 	add	a,#0x0f
      0005FF F8               [12] 1820 	mov	r0,a
      000600 C3               [12] 1821 	clr	c
      000601 EC               [12] 1822 	mov	a,r4
      000602 96               [12] 1823 	subb	a,@r0
      000603 50 0D            [24] 1824 	jnc	00126$
      000605 C3               [12] 1825 	clr	c
      000606 EE               [12] 1826 	mov	a,r6
      000607 9C               [12] 1827 	subb	a,r4
      000608 50 04            [24] 1828 	jnc	00128$
      00060A 8E 05            [24] 1829 	mov	ar5,r6
      00060C 80 1B            [24] 1830 	sjmp	00127$
      00060E                       1831 00128$:
      00060E 8C 05            [24] 1832 	mov	ar5,r4
      000610 80 17            [24] 1833 	sjmp	00127$
      000612                       1834 00126$:
      000612 E5*00            [12] 1835 	mov	a,_bp
      000614 24 0F            [12] 1836 	add	a,#0x0f
      000616 F8               [12] 1837 	mov	r0,a
      000617 C3               [12] 1838 	clr	c
      000618 EE               [12] 1839 	mov	a,r6
      000619 96               [12] 1840 	subb	a,@r0
      00061A 50 04            [24] 1841 	jnc	00130$
      00061C 8E 03            [24] 1842 	mov	ar3,r6
      00061E 80 07            [24] 1843 	sjmp	00131$
      000620                       1844 00130$:
      000620 E5*00            [12] 1845 	mov	a,_bp
      000622 24 0F            [12] 1846 	add	a,#0x0f
      000624 F8               [12] 1847 	mov	r0,a
      000625 86 03            [24] 1848 	mov	ar3,@r0
      000627                       1849 00131$:
      000627 8B 05            [24] 1850 	mov	ar5,r3
      000629                       1851 00127$:
      000629 C0 04            [24] 1852 	push	ar4
                                   1853 ;	source/CH549_TCS34725.c:218: difVal = maxVal-minVal;
      00062B EA               [12] 1854 	mov	a,r2
      00062C C3               [12] 1855 	clr	c
      00062D 9D               [12] 1856 	subb	a,r5
      00062E FB               [12] 1857 	mov	r3,a
      00062F E5*00            [12] 1858 	mov	a,_bp
      000631 24 0E            [12] 1859 	add	a,#0x0e
      000633 F8               [12] 1860 	mov	r0,a
      000634 A6 03            [24] 1861 	mov	@r0,ar3
                                   1862 ;	source/CH549_TCS34725.c:221: Hsl->l = (maxVal+minVal)/2;   //[0-100]
      000636 E5*00            [12] 1863 	mov	a,_bp
      000638 24 FB            [12] 1864 	add	a,#0xfb
      00063A F8               [12] 1865 	mov	r0,a
      00063B E5*00            [12] 1866 	mov	a,_bp
      00063D 24 08            [12] 1867 	add	a,#0x08
      00063F F9               [12] 1868 	mov	r1,a
      000640 E6               [12] 1869 	mov	a,@r0
      000641 F7               [12] 1870 	mov	@r1,a
      000642 08               [12] 1871 	inc	r0
      000643 09               [12] 1872 	inc	r1
      000644 E6               [12] 1873 	mov	a,@r0
      000645 F7               [12] 1874 	mov	@r1,a
      000646 08               [12] 1875 	inc	r0
      000647 09               [12] 1876 	inc	r1
      000648 E6               [12] 1877 	mov	a,@r0
      000649 F7               [12] 1878 	mov	@r1,a
      00064A E5*00            [12] 1879 	mov	a,_bp
      00064C 24 08            [12] 1880 	add	a,#0x08
      00064E F8               [12] 1881 	mov	r0,a
      00064F E5*00            [12] 1882 	mov	a,_bp
      000651 24 0B            [12] 1883 	add	a,#0x0b
      000653 F9               [12] 1884 	mov	r1,a
      000654 74 03            [12] 1885 	mov	a,#0x03
      000656 26               [12] 1886 	add	a,@r0
      000657 F7               [12] 1887 	mov	@r1,a
      000658 E4               [12] 1888 	clr	a
      000659 08               [12] 1889 	inc	r0
      00065A 36               [12] 1890 	addc	a,@r0
      00065B 09               [12] 1891 	inc	r1
      00065C F7               [12] 1892 	mov	@r1,a
      00065D 08               [12] 1893 	inc	r0
      00065E 09               [12] 1894 	inc	r1
      00065F E6               [12] 1895 	mov	a,@r0
      000660 F7               [12] 1896 	mov	@r1,a
      000661 E5*00            [12] 1897 	mov	a,_bp
      000663 24 04            [12] 1898 	add	a,#0x04
      000665 F8               [12] 1899 	mov	r0,a
      000666 A6 02            [24] 1900 	mov	@r0,ar2
      000668 08               [12] 1901 	inc	r0
      000669 76 00            [12] 1902 	mov	@r0,#0x00
      00066B E5*00            [12] 1903 	mov	a,_bp
      00066D 24 06            [12] 1904 	add	a,#0x06
      00066F F8               [12] 1905 	mov	r0,a
      000670 A6 05            [24] 1906 	mov	@r0,ar5
      000672 08               [12] 1907 	inc	r0
      000673 76 00            [12] 1908 	mov	@r0,#0x00
      000675 E5*00            [12] 1909 	mov	a,_bp
      000677 24 04            [12] 1910 	add	a,#0x04
      000679 F8               [12] 1911 	mov	r0,a
      00067A E5*00            [12] 1912 	mov	a,_bp
      00067C 24 06            [12] 1913 	add	a,#0x06
      00067E F9               [12] 1914 	mov	r1,a
      00067F E7               [12] 1915 	mov	a,@r1
      000680 26               [12] 1916 	add	a,@r0
      000681 FC               [12] 1917 	mov	r4,a
      000682 09               [12] 1918 	inc	r1
      000683 E7               [12] 1919 	mov	a,@r1
      000684 08               [12] 1920 	inc	r0
      000685 36               [12] 1921 	addc	a,@r0
      000686 FF               [12] 1922 	mov	r7,a
      000687 C0 06            [24] 1923 	push	ar6
      000689 C0 05            [24] 1924 	push	ar5
      00068B C0 02            [24] 1925 	push	ar2
      00068D 74 02            [12] 1926 	mov	a,#0x02
      00068F C0 E0            [24] 1927 	push	acc
      000691 E4               [12] 1928 	clr	a
      000692 C0 E0            [24] 1929 	push	acc
      000694 8C 82            [24] 1930 	mov	dpl,r4
      000696 8F 83            [24] 1931 	mov	dph,r7
      000698 12r00r00         [24] 1932 	lcall	__divsint
      00069B AC 82            [24] 1933 	mov	r4,dpl
      00069D AF 83            [24] 1934 	mov	r7,dph
      00069F 15 81            [12] 1935 	dec	sp
      0006A1 15 81            [12] 1936 	dec	sp
      0006A3 D0 02            [24] 1937 	pop	ar2
      0006A5 D0 05            [24] 1938 	pop	ar5
      0006A7 D0 06            [24] 1939 	pop	ar6
      0006A9 E5*00            [12] 1940 	mov	a,_bp
      0006AB 24 0B            [12] 1941 	add	a,#0x0b
      0006AD F8               [12] 1942 	mov	r0,a
      0006AE 86 82            [24] 1943 	mov	dpl,@r0
      0006B0 08               [12] 1944 	inc	r0
      0006B1 86 83            [24] 1945 	mov	dph,@r0
      0006B3 08               [12] 1946 	inc	r0
      0006B4 86 F0            [24] 1947 	mov	b,@r0
      0006B6 EC               [12] 1948 	mov	a,r4
      0006B7 12r00r00         [24] 1949 	lcall	__gptrput
                                   1950 ;	source/CH549_TCS34725.c:223: if(maxVal == minVal)//若r=g=b,灰度
      0006BA EA               [12] 1951 	mov	a,r2
      0006BB B5 05 02         [24] 1952 	cjne	a,ar5,00186$
      0006BE 80 04            [24] 1953 	sjmp	00187$
      0006C0                       1954 00186$:
      0006C0 D0 04            [24] 1955 	pop	ar4
      0006C2 80 34            [24] 1956 	sjmp	00116$
      0006C4                       1957 00187$:
      0006C4 D0 04            [24] 1958 	pop	ar4
                                   1959 ;	source/CH549_TCS34725.c:225: Hsl->h = 0; 
      0006C6 E5*00            [12] 1960 	mov	a,_bp
      0006C8 24 08            [12] 1961 	add	a,#0x08
      0006CA F8               [12] 1962 	mov	r0,a
      0006CB 86 82            [24] 1963 	mov	dpl,@r0
      0006CD 08               [12] 1964 	inc	r0
      0006CE 86 83            [24] 1965 	mov	dph,@r0
      0006D0 08               [12] 1966 	inc	r0
      0006D1 86 F0            [24] 1967 	mov	b,@r0
      0006D3 E4               [12] 1968 	clr	a
      0006D4 12r00r00         [24] 1969 	lcall	__gptrput
      0006D7 A3               [24] 1970 	inc	dptr
      0006D8 12r00r00         [24] 1971 	lcall	__gptrput
                                   1972 ;	source/CH549_TCS34725.c:226: Hsl->s = 0;
      0006DB E5*00            [12] 1973 	mov	a,_bp
      0006DD 24 08            [12] 1974 	add	a,#0x08
      0006DF F8               [12] 1975 	mov	r0,a
      0006E0 74 02            [12] 1976 	mov	a,#0x02
      0006E2 26               [12] 1977 	add	a,@r0
      0006E3 FB               [12] 1978 	mov	r3,a
      0006E4 E4               [12] 1979 	clr	a
      0006E5 08               [12] 1980 	inc	r0
      0006E6 36               [12] 1981 	addc	a,@r0
      0006E7 FD               [12] 1982 	mov	r5,a
      0006E8 08               [12] 1983 	inc	r0
      0006E9 86 07            [24] 1984 	mov	ar7,@r0
      0006EB 8B 82            [24] 1985 	mov	dpl,r3
      0006ED 8D 83            [24] 1986 	mov	dph,r5
      0006EF 8F F0            [24] 1987 	mov	b,r7
      0006F1 E4               [12] 1988 	clr	a
      0006F2 12r00r00         [24] 1989 	lcall	__gptrput
      0006F5 02r09r88         [24] 1990 	ljmp	00118$
      0006F8                       1991 00116$:
                                   1992 ;	source/CH549_TCS34725.c:231: if(maxVal==r)
      0006F8 E5*00            [12] 1993 	mov	a,_bp
      0006FA 24 0F            [12] 1994 	add	a,#0x0f
      0006FC F8               [12] 1995 	mov	r0,a
      0006FD E6               [12] 1996 	mov	a,@r0
      0006FE B5 02 02         [24] 1997 	cjne	a,ar2,00188$
      000701 80 03            [24] 1998 	sjmp	00189$
      000703                       1999 00188$:
      000703 02r07rBF         [24] 2000 	ljmp	00110$
      000706                       2001 00189$:
                                   2002 ;	source/CH549_TCS34725.c:233: if(g>=b)
      000706 C3               [12] 2003 	clr	c
      000707 EC               [12] 2004 	mov	a,r4
      000708 9E               [12] 2005 	subb	a,r6
      000709 40 56            [24] 2006 	jc	00102$
                                   2007 ;	source/CH549_TCS34725.c:234: Hsl->h = 60*(g-b)/difVal;
      00070B 8C 05            [24] 2008 	mov	ar5,r4
      00070D 7F 00            [12] 2009 	mov	r7,#0x00
      00070F 8E 02            [24] 2010 	mov	ar2,r6
      000711 7B 00            [12] 2011 	mov	r3,#0x00
      000713 ED               [12] 2012 	mov	a,r5
      000714 C3               [12] 2013 	clr	c
      000715 9A               [12] 2014 	subb	a,r2
      000716 FD               [12] 2015 	mov	r5,a
      000717 EF               [12] 2016 	mov	a,r7
      000718 9B               [12] 2017 	subb	a,r3
      000719 FF               [12] 2018 	mov	r7,a
      00071A C0 05            [24] 2019 	push	ar5
      00071C C0 07            [24] 2020 	push	ar7
      00071E 90 00 3C         [24] 2021 	mov	dptr,#0x003c
      000721 12r00r00         [24] 2022 	lcall	__mulint
      000724 AD 82            [24] 2023 	mov	r5,dpl
      000726 AF 83            [24] 2024 	mov	r7,dph
      000728 15 81            [12] 2025 	dec	sp
      00072A 15 81            [12] 2026 	dec	sp
      00072C E5*00            [12] 2027 	mov	a,_bp
      00072E 24 0E            [12] 2028 	add	a,#0x0e
      000730 F8               [12] 2029 	mov	r0,a
      000731 86 02            [24] 2030 	mov	ar2,@r0
      000733 7B 00            [12] 2031 	mov	r3,#0x00
      000735 C0 02            [24] 2032 	push	ar2
      000737 C0 03            [24] 2033 	push	ar3
      000739 8D 82            [24] 2034 	mov	dpl,r5
      00073B 8F 83            [24] 2035 	mov	dph,r7
      00073D 12r00r00         [24] 2036 	lcall	__divsint
      000740 AD 82            [24] 2037 	mov	r5,dpl
      000742 AF 83            [24] 2038 	mov	r7,dph
      000744 15 81            [12] 2039 	dec	sp
      000746 15 81            [12] 2040 	dec	sp
      000748 E5*00            [12] 2041 	mov	a,_bp
      00074A 24 08            [12] 2042 	add	a,#0x08
      00074C F8               [12] 2043 	mov	r0,a
      00074D 86 82            [24] 2044 	mov	dpl,@r0
      00074F 08               [12] 2045 	inc	r0
      000750 86 83            [24] 2046 	mov	dph,@r0
      000752 08               [12] 2047 	inc	r0
      000753 86 F0            [24] 2048 	mov	b,@r0
      000755 ED               [12] 2049 	mov	a,r5
      000756 12r00r00         [24] 2050 	lcall	__gptrput
      000759 A3               [24] 2051 	inc	dptr
      00075A EF               [12] 2052 	mov	a,r7
      00075B 12r00r00         [24] 2053 	lcall	__gptrput
      00075E 02r08r84         [24] 2054 	ljmp	00111$
      000761                       2055 00102$:
                                   2056 ;	source/CH549_TCS34725.c:236: Hsl->h = 60*(g-b)/difVal+360;
      000761 8C 05            [24] 2057 	mov	ar5,r4
      000763 7F 00            [12] 2058 	mov	r7,#0x00
      000765 8E 02            [24] 2059 	mov	ar2,r6
      000767 7B 00            [12] 2060 	mov	r3,#0x00
      000769 ED               [12] 2061 	mov	a,r5
      00076A C3               [12] 2062 	clr	c
      00076B 9A               [12] 2063 	subb	a,r2
      00076C FD               [12] 2064 	mov	r5,a
      00076D EF               [12] 2065 	mov	a,r7
      00076E 9B               [12] 2066 	subb	a,r3
      00076F FF               [12] 2067 	mov	r7,a
      000770 C0 05            [24] 2068 	push	ar5
      000772 C0 07            [24] 2069 	push	ar7
      000774 90 00 3C         [24] 2070 	mov	dptr,#0x003c
      000777 12r00r00         [24] 2071 	lcall	__mulint
      00077A AD 82            [24] 2072 	mov	r5,dpl
      00077C AF 83            [24] 2073 	mov	r7,dph
      00077E 15 81            [12] 2074 	dec	sp
      000780 15 81            [12] 2075 	dec	sp
      000782 E5*00            [12] 2076 	mov	a,_bp
      000784 24 0E            [12] 2077 	add	a,#0x0e
      000786 F8               [12] 2078 	mov	r0,a
      000787 86 02            [24] 2079 	mov	ar2,@r0
      000789 7B 00            [12] 2080 	mov	r3,#0x00
      00078B C0 02            [24] 2081 	push	ar2
      00078D C0 03            [24] 2082 	push	ar3
      00078F 8D 82            [24] 2083 	mov	dpl,r5
      000791 8F 83            [24] 2084 	mov	dph,r7
      000793 12r00r00         [24] 2085 	lcall	__divsint
      000796 AD 82            [24] 2086 	mov	r5,dpl
      000798 AF 83            [24] 2087 	mov	r7,dph
      00079A 15 81            [12] 2088 	dec	sp
      00079C 15 81            [12] 2089 	dec	sp
      00079E 74 68            [12] 2090 	mov	a,#0x68
      0007A0 2D               [12] 2091 	add	a,r5
      0007A1 FD               [12] 2092 	mov	r5,a
      0007A2 74 01            [12] 2093 	mov	a,#0x01
      0007A4 3F               [12] 2094 	addc	a,r7
      0007A5 FF               [12] 2095 	mov	r7,a
      0007A6 E5*00            [12] 2096 	mov	a,_bp
      0007A8 24 08            [12] 2097 	add	a,#0x08
      0007AA F8               [12] 2098 	mov	r0,a
      0007AB 86 82            [24] 2099 	mov	dpl,@r0
      0007AD 08               [12] 2100 	inc	r0
      0007AE 86 83            [24] 2101 	mov	dph,@r0
      0007B0 08               [12] 2102 	inc	r0
      0007B1 86 F0            [24] 2103 	mov	b,@r0
      0007B3 ED               [12] 2104 	mov	a,r5
      0007B4 12r00r00         [24] 2105 	lcall	__gptrput
      0007B7 A3               [24] 2106 	inc	dptr
      0007B8 EF               [12] 2107 	mov	a,r7
      0007B9 12r00r00         [24] 2108 	lcall	__gptrput
      0007BC 02r08r84         [24] 2109 	ljmp	00111$
      0007BF                       2110 00110$:
                                   2111 ;	source/CH549_TCS34725.c:240: if(maxVal==g)Hsl->h = 60*(b-r)/difVal+120;
      0007BF EA               [12] 2112 	mov	a,r2
      0007C0 B5 04 61         [24] 2113 	cjne	a,ar4,00107$
      0007C3 8E 05            [24] 2114 	mov	ar5,r6
      0007C5 7F 00            [12] 2115 	mov	r7,#0x00
      0007C7 E5*00            [12] 2116 	mov	a,_bp
      0007C9 24 0F            [12] 2117 	add	a,#0x0f
      0007CB F8               [12] 2118 	mov	r0,a
      0007CC 86 02            [24] 2119 	mov	ar2,@r0
      0007CE 7B 00            [12] 2120 	mov	r3,#0x00
      0007D0 ED               [12] 2121 	mov	a,r5
      0007D1 C3               [12] 2122 	clr	c
      0007D2 9A               [12] 2123 	subb	a,r2
      0007D3 FD               [12] 2124 	mov	r5,a
      0007D4 EF               [12] 2125 	mov	a,r7
      0007D5 9B               [12] 2126 	subb	a,r3
      0007D6 FF               [12] 2127 	mov	r7,a
      0007D7 C0 05            [24] 2128 	push	ar5
      0007D9 C0 07            [24] 2129 	push	ar7
      0007DB 90 00 3C         [24] 2130 	mov	dptr,#0x003c
      0007DE 12r00r00         [24] 2131 	lcall	__mulint
      0007E1 AD 82            [24] 2132 	mov	r5,dpl
      0007E3 AF 83            [24] 2133 	mov	r7,dph
      0007E5 15 81            [12] 2134 	dec	sp
      0007E7 15 81            [12] 2135 	dec	sp
      0007E9 E5*00            [12] 2136 	mov	a,_bp
      0007EB 24 0E            [12] 2137 	add	a,#0x0e
      0007ED F8               [12] 2138 	mov	r0,a
      0007EE 86 02            [24] 2139 	mov	ar2,@r0
      0007F0 7B 00            [12] 2140 	mov	r3,#0x00
      0007F2 C0 02            [24] 2141 	push	ar2
      0007F4 C0 03            [24] 2142 	push	ar3
      0007F6 8D 82            [24] 2143 	mov	dpl,r5
      0007F8 8F 83            [24] 2144 	mov	dph,r7
      0007FA 12r00r00         [24] 2145 	lcall	__divsint
      0007FD AD 82            [24] 2146 	mov	r5,dpl
      0007FF AF 83            [24] 2147 	mov	r7,dph
      000801 15 81            [12] 2148 	dec	sp
      000803 15 81            [12] 2149 	dec	sp
      000805 74 78            [12] 2150 	mov	a,#0x78
      000807 2D               [12] 2151 	add	a,r5
      000808 FD               [12] 2152 	mov	r5,a
      000809 E4               [12] 2153 	clr	a
      00080A 3F               [12] 2154 	addc	a,r7
      00080B FF               [12] 2155 	mov	r7,a
      00080C E5*00            [12] 2156 	mov	a,_bp
      00080E 24 08            [12] 2157 	add	a,#0x08
      000810 F8               [12] 2158 	mov	r0,a
      000811 86 82            [24] 2159 	mov	dpl,@r0
      000813 08               [12] 2160 	inc	r0
      000814 86 83            [24] 2161 	mov	dph,@r0
      000816 08               [12] 2162 	inc	r0
      000817 86 F0            [24] 2163 	mov	b,@r0
      000819 ED               [12] 2164 	mov	a,r5
      00081A 12r00r00         [24] 2165 	lcall	__gptrput
      00081D A3               [24] 2166 	inc	dptr
      00081E EF               [12] 2167 	mov	a,r7
      00081F 12r00r00         [24] 2168 	lcall	__gptrput
      000822 80 60            [24] 2169 	sjmp	00111$
      000824                       2170 00107$:
                                   2171 ;	source/CH549_TCS34725.c:242: if(maxVal==b)Hsl->h = 60*(r-g)/difVal+240;
      000824 EA               [12] 2172 	mov	a,r2
      000825 B5 06 5C         [24] 2173 	cjne	a,ar6,00111$
      000828 E5*00            [12] 2174 	mov	a,_bp
      00082A 24 0F            [12] 2175 	add	a,#0x0f
      00082C F8               [12] 2176 	mov	r0,a
      00082D 86 05            [24] 2177 	mov	ar5,@r0
      00082F E4               [12] 2178 	clr	a
      000830 FF               [12] 2179 	mov	r7,a
      000831 FE               [12] 2180 	mov	r6,a
      000832 ED               [12] 2181 	mov	a,r5
      000833 C3               [12] 2182 	clr	c
      000834 9C               [12] 2183 	subb	a,r4
      000835 FD               [12] 2184 	mov	r5,a
      000836 EF               [12] 2185 	mov	a,r7
      000837 9E               [12] 2186 	subb	a,r6
      000838 FF               [12] 2187 	mov	r7,a
      000839 C0 05            [24] 2188 	push	ar5
      00083B C0 07            [24] 2189 	push	ar7
      00083D 90 00 3C         [24] 2190 	mov	dptr,#0x003c
      000840 12r00r00         [24] 2191 	lcall	__mulint
      000843 AE 82            [24] 2192 	mov	r6,dpl
      000845 AF 83            [24] 2193 	mov	r7,dph
      000847 15 81            [12] 2194 	dec	sp
      000849 15 81            [12] 2195 	dec	sp
      00084B E5*00            [12] 2196 	mov	a,_bp
      00084D 24 0E            [12] 2197 	add	a,#0x0e
      00084F F8               [12] 2198 	mov	r0,a
      000850 86 03            [24] 2199 	mov	ar3,@r0
      000852 7D 00            [12] 2200 	mov	r5,#0x00
      000854 C0 03            [24] 2201 	push	ar3
      000856 C0 05            [24] 2202 	push	ar5
      000858 8E 82            [24] 2203 	mov	dpl,r6
      00085A 8F 83            [24] 2204 	mov	dph,r7
      00085C 12r00r00         [24] 2205 	lcall	__divsint
      00085F AE 82            [24] 2206 	mov	r6,dpl
      000861 AF 83            [24] 2207 	mov	r7,dph
      000863 15 81            [12] 2208 	dec	sp
      000865 15 81            [12] 2209 	dec	sp
      000867 74 F0            [12] 2210 	mov	a,#0xf0
      000869 2E               [12] 2211 	add	a,r6
      00086A FE               [12] 2212 	mov	r6,a
      00086B E4               [12] 2213 	clr	a
      00086C 3F               [12] 2214 	addc	a,r7
      00086D FF               [12] 2215 	mov	r7,a
      00086E E5*00            [12] 2216 	mov	a,_bp
      000870 24 08            [12] 2217 	add	a,#0x08
      000872 F8               [12] 2218 	mov	r0,a
      000873 86 82            [24] 2219 	mov	dpl,@r0
      000875 08               [12] 2220 	inc	r0
      000876 86 83            [24] 2221 	mov	dph,@r0
      000878 08               [12] 2222 	inc	r0
      000879 86 F0            [24] 2223 	mov	b,@r0
      00087B EE               [12] 2224 	mov	a,r6
      00087C 12r00r00         [24] 2225 	lcall	__gptrput
      00087F A3               [24] 2226 	inc	dptr
      000880 EF               [12] 2227 	mov	a,r7
      000881 12r00r00         [24] 2228 	lcall	__gptrput
      000884                       2229 00111$:
                                   2230 ;	source/CH549_TCS34725.c:246: if(Hsl->l<=50)Hsl->s=difVal*100/(maxVal+minVal);  //[0-100]
      000884 E5*00            [12] 2231 	mov	a,_bp
      000886 24 0B            [12] 2232 	add	a,#0x0b
      000888 F8               [12] 2233 	mov	r0,a
      000889 86 82            [24] 2234 	mov	dpl,@r0
      00088B 08               [12] 2235 	inc	r0
      00088C 86 83            [24] 2236 	mov	dph,@r0
      00088E 08               [12] 2237 	inc	r0
      00088F 86 F0            [24] 2238 	mov	b,@r0
      000891 12r00r00         [24] 2239 	lcall	__gptrget
      000894 24 CD            [12] 2240 	add	a,#0xff - 0x32
      000896 40 75            [24] 2241 	jc	00113$
      000898 E5*00            [12] 2242 	mov	a,_bp
      00089A 24 08            [12] 2243 	add	a,#0x08
      00089C F8               [12] 2244 	mov	r0,a
      00089D 74 02            [12] 2245 	mov	a,#0x02
      00089F 26               [12] 2246 	add	a,@r0
      0008A0 FD               [12] 2247 	mov	r5,a
      0008A1 E4               [12] 2248 	clr	a
      0008A2 08               [12] 2249 	inc	r0
      0008A3 36               [12] 2250 	addc	a,@r0
      0008A4 FE               [12] 2251 	mov	r6,a
      0008A5 08               [12] 2252 	inc	r0
      0008A6 86 07            [24] 2253 	mov	ar7,@r0
      0008A8 E5*00            [12] 2254 	mov	a,_bp
      0008AA 24 0E            [12] 2255 	add	a,#0x0e
      0008AC F8               [12] 2256 	mov	r0,a
      0008AD 86 03            [24] 2257 	mov	ar3,@r0
      0008AF 7C 00            [12] 2258 	mov	r4,#0x00
      0008B1 C0 07            [24] 2259 	push	ar7
      0008B3 C0 06            [24] 2260 	push	ar6
      0008B5 C0 05            [24] 2261 	push	ar5
      0008B7 C0 03            [24] 2262 	push	ar3
      0008B9 C0 04            [24] 2263 	push	ar4
      0008BB 90 00 64         [24] 2264 	mov	dptr,#0x0064
      0008BE 12r00r00         [24] 2265 	lcall	__mulint
      0008C1 C8               [12] 2266 	xch	a,r0
      0008C2 E5*00            [12] 2267 	mov	a,_bp
      0008C4 24 0B            [12] 2268 	add	a,#0x0b
      0008C6 C8               [12] 2269 	xch	a,r0
      0008C7 A6 82            [24] 2270 	mov	@r0,dpl
      0008C9 08               [12] 2271 	inc	r0
      0008CA A6 83            [24] 2272 	mov	@r0,dph
      0008CC 15 81            [12] 2273 	dec	sp
      0008CE 15 81            [12] 2274 	dec	sp
      0008D0 E5*00            [12] 2275 	mov	a,_bp
      0008D2 24 04            [12] 2276 	add	a,#0x04
      0008D4 F8               [12] 2277 	mov	r0,a
      0008D5 E5*00            [12] 2278 	mov	a,_bp
      0008D7 24 06            [12] 2279 	add	a,#0x06
      0008D9 F9               [12] 2280 	mov	r1,a
      0008DA E7               [12] 2281 	mov	a,@r1
      0008DB 26               [12] 2282 	add	a,@r0
      0008DC FA               [12] 2283 	mov	r2,a
      0008DD 09               [12] 2284 	inc	r1
      0008DE E7               [12] 2285 	mov	a,@r1
      0008DF 08               [12] 2286 	inc	r0
      0008E0 36               [12] 2287 	addc	a,@r0
      0008E1 FC               [12] 2288 	mov	r4,a
      0008E2 C0 02            [24] 2289 	push	ar2
      0008E4 C0 04            [24] 2290 	push	ar4
      0008E6 E5*00            [12] 2291 	mov	a,_bp
      0008E8 24 0B            [12] 2292 	add	a,#0x0b
      0008EA F8               [12] 2293 	mov	r0,a
      0008EB 86 82            [24] 2294 	mov	dpl,@r0
      0008ED 08               [12] 2295 	inc	r0
      0008EE 86 83            [24] 2296 	mov	dph,@r0
      0008F0 12r00r00         [24] 2297 	lcall	__divsint
      0008F3 AB 82            [24] 2298 	mov	r3,dpl
      0008F5 AC 83            [24] 2299 	mov	r4,dph
      0008F7 15 81            [12] 2300 	dec	sp
      0008F9 15 81            [12] 2301 	dec	sp
      0008FB D0 05            [24] 2302 	pop	ar5
      0008FD D0 06            [24] 2303 	pop	ar6
      0008FF D0 07            [24] 2304 	pop	ar7
      000901 8D 82            [24] 2305 	mov	dpl,r5
      000903 8E 83            [24] 2306 	mov	dph,r6
      000905 8F F0            [24] 2307 	mov	b,r7
      000907 EB               [12] 2308 	mov	a,r3
      000908 12r00r00         [24] 2309 	lcall	__gptrput
      00090B 80 7B            [24] 2310 	sjmp	00118$
      00090D                       2311 00113$:
                                   2312 ;	source/CH549_TCS34725.c:248: Hsl->s=difVal*100/(200-(maxVal+minVal));
      00090D E5*00            [12] 2313 	mov	a,_bp
      00090F 24 08            [12] 2314 	add	a,#0x08
      000911 F8               [12] 2315 	mov	r0,a
      000912 74 02            [12] 2316 	mov	a,#0x02
      000914 26               [12] 2317 	add	a,@r0
      000915 FD               [12] 2318 	mov	r5,a
      000916 E4               [12] 2319 	clr	a
      000917 08               [12] 2320 	inc	r0
      000918 36               [12] 2321 	addc	a,@r0
      000919 FE               [12] 2322 	mov	r6,a
      00091A 08               [12] 2323 	inc	r0
      00091B 86 07            [24] 2324 	mov	ar7,@r0
      00091D E5*00            [12] 2325 	mov	a,_bp
      00091F 24 0E            [12] 2326 	add	a,#0x0e
      000921 F8               [12] 2327 	mov	r0,a
      000922 86 03            [24] 2328 	mov	ar3,@r0
      000924 7C 00            [12] 2329 	mov	r4,#0x00
      000926 C0 07            [24] 2330 	push	ar7
      000928 C0 06            [24] 2331 	push	ar6
      00092A C0 05            [24] 2332 	push	ar5
      00092C C0 03            [24] 2333 	push	ar3
      00092E C0 04            [24] 2334 	push	ar4
      000930 90 00 64         [24] 2335 	mov	dptr,#0x0064
      000933 12r00r00         [24] 2336 	lcall	__mulint
      000936 C8               [12] 2337 	xch	a,r0
      000937 E5*00            [12] 2338 	mov	a,_bp
      000939 24 08            [12] 2339 	add	a,#0x08
      00093B C8               [12] 2340 	xch	a,r0
      00093C A6 82            [24] 2341 	mov	@r0,dpl
      00093E 08               [12] 2342 	inc	r0
      00093F A6 83            [24] 2343 	mov	@r0,dph
      000941 15 81            [12] 2344 	dec	sp
      000943 15 81            [12] 2345 	dec	sp
      000945 E5*00            [12] 2346 	mov	a,_bp
      000947 24 04            [12] 2347 	add	a,#0x04
      000949 F8               [12] 2348 	mov	r0,a
      00094A E5*00            [12] 2349 	mov	a,_bp
      00094C 24 06            [12] 2350 	add	a,#0x06
      00094E F9               [12] 2351 	mov	r1,a
      00094F E7               [12] 2352 	mov	a,@r1
      000950 26               [12] 2353 	add	a,@r0
      000951 FA               [12] 2354 	mov	r2,a
      000952 09               [12] 2355 	inc	r1
      000953 E7               [12] 2356 	mov	a,@r1
      000954 08               [12] 2357 	inc	r0
      000955 36               [12] 2358 	addc	a,@r0
      000956 FC               [12] 2359 	mov	r4,a
      000957 74 C8            [12] 2360 	mov	a,#0xc8
      000959 C3               [12] 2361 	clr	c
      00095A 9A               [12] 2362 	subb	a,r2
      00095B FA               [12] 2363 	mov	r2,a
      00095C E4               [12] 2364 	clr	a
      00095D 9C               [12] 2365 	subb	a,r4
      00095E FC               [12] 2366 	mov	r4,a
      00095F C0 02            [24] 2367 	push	ar2
      000961 C0 04            [24] 2368 	push	ar4
      000963 E5*00            [12] 2369 	mov	a,_bp
      000965 24 08            [12] 2370 	add	a,#0x08
      000967 F8               [12] 2371 	mov	r0,a
      000968 86 82            [24] 2372 	mov	dpl,@r0
      00096A 08               [12] 2373 	inc	r0
      00096B 86 83            [24] 2374 	mov	dph,@r0
      00096D 12r00r00         [24] 2375 	lcall	__divsint
      000970 AB 82            [24] 2376 	mov	r3,dpl
      000972 AC 83            [24] 2377 	mov	r4,dph
      000974 15 81            [12] 2378 	dec	sp
      000976 15 81            [12] 2379 	dec	sp
      000978 D0 05            [24] 2380 	pop	ar5
      00097A D0 06            [24] 2381 	pop	ar6
      00097C D0 07            [24] 2382 	pop	ar7
      00097E 8D 82            [24] 2383 	mov	dpl,r5
      000980 8E 83            [24] 2384 	mov	dph,r6
      000982 8F F0            [24] 2385 	mov	b,r7
      000984 EB               [12] 2386 	mov	a,r3
      000985 12r00r00         [24] 2387 	lcall	__gptrput
      000988                       2388 00118$:
                                   2389 ;	source/CH549_TCS34725.c:250: }
      000988 85*00 81         [24] 2390 	mov	sp,_bp
      00098B D0*00            [24] 2391 	pop	_bp
      00098D 22               [24] 2392 	ret
                                   2393 	.area CSEG    (CODE)
                                   2394 	.area CONST   (CODE)
                                   2395 	.area CABS    (ABS,CODE)
