                                      1 ;--------------------------------------------------------
                                      2 ; File Created by SDCC : free open source ANSI-C Compiler
                                      3 ; Version 4.0.0 #11528 (MINGW64)
                                      4 ;--------------------------------------------------------
                                      5 	.module CH549_OLED
                                      6 	.optsdcc -mmcs51 --model-large
                                      7 	
                                      8 ;--------------------------------------------------------
                                      9 ; Public variables in this module
                                     10 ;--------------------------------------------------------
                                     11 	.globl _fontMatrix_8x16
                                     12 	.globl _fontMatrix_6x8
                                     13 	.globl _CH549SPIMasterWrite
                                     14 	.globl _UIF_BUS_RST
                                     15 	.globl _UIF_DETECT
                                     16 	.globl _UIF_TRANSFER
                                     17 	.globl _UIF_SUSPEND
                                     18 	.globl _UIF_HST_SOF
                                     19 	.globl _UIF_FIFO_OV
                                     20 	.globl _U_SIE_FREE
                                     21 	.globl _U_TOG_OK
                                     22 	.globl _U_IS_NAK
                                     23 	.globl _S0_R_FIFO
                                     24 	.globl _S0_T_FIFO
                                     25 	.globl _S0_FREE
                                     26 	.globl _S0_IF_BYTE
                                     27 	.globl _S0_IF_FIRST
                                     28 	.globl _S0_IF_OV
                                     29 	.globl _S0_FST_ACT
                                     30 	.globl _CP_RL2
                                     31 	.globl _C_T2
                                     32 	.globl _TR2
                                     33 	.globl _EXEN2
                                     34 	.globl _TCLK
                                     35 	.globl _RCLK
                                     36 	.globl _EXF2
                                     37 	.globl _CAP1F
                                     38 	.globl _TF2
                                     39 	.globl _RI
                                     40 	.globl _TI
                                     41 	.globl _RB8
                                     42 	.globl _TB8
                                     43 	.globl _REN
                                     44 	.globl _SM2
                                     45 	.globl _SM1
                                     46 	.globl _SM0
                                     47 	.globl _IT0
                                     48 	.globl _IE0
                                     49 	.globl _IT1
                                     50 	.globl _IE1
                                     51 	.globl _TR0
                                     52 	.globl _TF0
                                     53 	.globl _TR1
                                     54 	.globl _TF1
                                     55 	.globl _XI
                                     56 	.globl _XO
                                     57 	.globl _P4_0
                                     58 	.globl _P4_1
                                     59 	.globl _P4_2
                                     60 	.globl _P4_3
                                     61 	.globl _P4_4
                                     62 	.globl _P4_5
                                     63 	.globl _P4_6
                                     64 	.globl _RXD
                                     65 	.globl _TXD
                                     66 	.globl _INT0
                                     67 	.globl _INT1
                                     68 	.globl _T0
                                     69 	.globl _T1
                                     70 	.globl _CAP0
                                     71 	.globl _INT3
                                     72 	.globl _P3_0
                                     73 	.globl _P3_1
                                     74 	.globl _P3_2
                                     75 	.globl _P3_3
                                     76 	.globl _P3_4
                                     77 	.globl _P3_5
                                     78 	.globl _P3_6
                                     79 	.globl _P3_7
                                     80 	.globl _PWM5
                                     81 	.globl _PWM4
                                     82 	.globl _INT0_
                                     83 	.globl _PWM3
                                     84 	.globl _PWM2
                                     85 	.globl _CAP1_
                                     86 	.globl _T2_
                                     87 	.globl _PWM1
                                     88 	.globl _CAP2_
                                     89 	.globl _T2EX_
                                     90 	.globl _PWM0
                                     91 	.globl _RXD1
                                     92 	.globl _PWM6
                                     93 	.globl _TXD1
                                     94 	.globl _PWM7
                                     95 	.globl _P2_0
                                     96 	.globl _P2_1
                                     97 	.globl _P2_2
                                     98 	.globl _P2_3
                                     99 	.globl _P2_4
                                    100 	.globl _P2_5
                                    101 	.globl _P2_6
                                    102 	.globl _P2_7
                                    103 	.globl _AIN0
                                    104 	.globl _CAP1
                                    105 	.globl _T2
                                    106 	.globl _AIN1
                                    107 	.globl _CAP2
                                    108 	.globl _T2EX
                                    109 	.globl _AIN2
                                    110 	.globl _AIN3
                                    111 	.globl _AIN4
                                    112 	.globl _UCC1
                                    113 	.globl _SCS
                                    114 	.globl _AIN5
                                    115 	.globl _UCC2
                                    116 	.globl _PWM0_
                                    117 	.globl _MOSI
                                    118 	.globl _AIN6
                                    119 	.globl _VBUS
                                    120 	.globl _RXD1_
                                    121 	.globl _MISO
                                    122 	.globl _AIN7
                                    123 	.globl _TXD1_
                                    124 	.globl _SCK
                                    125 	.globl _P1_0
                                    126 	.globl _P1_1
                                    127 	.globl _P1_2
                                    128 	.globl _P1_3
                                    129 	.globl _P1_4
                                    130 	.globl _P1_5
                                    131 	.globl _P1_6
                                    132 	.globl _P1_7
                                    133 	.globl _AIN8
                                    134 	.globl _AIN9
                                    135 	.globl _AIN10
                                    136 	.globl _RXD_
                                    137 	.globl _AIN11
                                    138 	.globl _TXD_
                                    139 	.globl _AIN12
                                    140 	.globl _RXD2
                                    141 	.globl _AIN13
                                    142 	.globl _TXD2
                                    143 	.globl _AIN14
                                    144 	.globl _RXD3
                                    145 	.globl _AIN15
                                    146 	.globl _TXD3
                                    147 	.globl _P0_0
                                    148 	.globl _P0_1
                                    149 	.globl _P0_2
                                    150 	.globl _P0_3
                                    151 	.globl _P0_4
                                    152 	.globl _P0_5
                                    153 	.globl _P0_6
                                    154 	.globl _P0_7
                                    155 	.globl _IE_SPI0
                                    156 	.globl _IE_INT3
                                    157 	.globl _IE_USB
                                    158 	.globl _IE_UART2
                                    159 	.globl _IE_ADC
                                    160 	.globl _IE_UART1
                                    161 	.globl _IE_UART3
                                    162 	.globl _IE_PWMX
                                    163 	.globl _IE_GPIO
                                    164 	.globl _IE_WDOG
                                    165 	.globl _PX0
                                    166 	.globl _PT0
                                    167 	.globl _PX1
                                    168 	.globl _PT1
                                    169 	.globl _PS
                                    170 	.globl _PT2
                                    171 	.globl _PL_FLAG
                                    172 	.globl _PH_FLAG
                                    173 	.globl _EX0
                                    174 	.globl _ET0
                                    175 	.globl _EX1
                                    176 	.globl _ET1
                                    177 	.globl _ES
                                    178 	.globl _ET2
                                    179 	.globl _E_DIS
                                    180 	.globl _EA
                                    181 	.globl _P
                                    182 	.globl _F1
                                    183 	.globl _OV
                                    184 	.globl _RS0
                                    185 	.globl _RS1
                                    186 	.globl _F0
                                    187 	.globl _AC
                                    188 	.globl _CY
                                    189 	.globl _UEP1_DMA_H
                                    190 	.globl _UEP1_DMA_L
                                    191 	.globl _UEP1_DMA
                                    192 	.globl _UEP0_DMA_H
                                    193 	.globl _UEP0_DMA_L
                                    194 	.globl _UEP0_DMA
                                    195 	.globl _UEP2_3_MOD
                                    196 	.globl _UEP4_1_MOD
                                    197 	.globl _UEP3_DMA_H
                                    198 	.globl _UEP3_DMA_L
                                    199 	.globl _UEP3_DMA
                                    200 	.globl _UEP2_DMA_H
                                    201 	.globl _UEP2_DMA_L
                                    202 	.globl _UEP2_DMA
                                    203 	.globl _USB_DEV_AD
                                    204 	.globl _USB_CTRL
                                    205 	.globl _USB_INT_EN
                                    206 	.globl _UEP4_T_LEN
                                    207 	.globl _UEP4_CTRL
                                    208 	.globl _UEP0_T_LEN
                                    209 	.globl _UEP0_CTRL
                                    210 	.globl _USB_RX_LEN
                                    211 	.globl _USB_MIS_ST
                                    212 	.globl _USB_INT_ST
                                    213 	.globl _USB_INT_FG
                                    214 	.globl _UEP3_T_LEN
                                    215 	.globl _UEP3_CTRL
                                    216 	.globl _UEP2_T_LEN
                                    217 	.globl _UEP2_CTRL
                                    218 	.globl _UEP1_T_LEN
                                    219 	.globl _UEP1_CTRL
                                    220 	.globl _UDEV_CTRL
                                    221 	.globl _USB_C_CTRL
                                    222 	.globl _ADC_PIN
                                    223 	.globl _ADC_CHAN
                                    224 	.globl _ADC_DAT_H
                                    225 	.globl _ADC_DAT_L
                                    226 	.globl _ADC_DAT
                                    227 	.globl _ADC_CFG
                                    228 	.globl _ADC_CTRL
                                    229 	.globl _TKEY_CTRL
                                    230 	.globl _SIF3
                                    231 	.globl _SBAUD3
                                    232 	.globl _SBUF3
                                    233 	.globl _SCON3
                                    234 	.globl _SIF2
                                    235 	.globl _SBAUD2
                                    236 	.globl _SBUF2
                                    237 	.globl _SCON2
                                    238 	.globl _SIF1
                                    239 	.globl _SBAUD1
                                    240 	.globl _SBUF1
                                    241 	.globl _SCON1
                                    242 	.globl _SPI0_SETUP
                                    243 	.globl _SPI0_CK_SE
                                    244 	.globl _SPI0_CTRL
                                    245 	.globl _SPI0_DATA
                                    246 	.globl _SPI0_STAT
                                    247 	.globl _PWM_DATA7
                                    248 	.globl _PWM_DATA6
                                    249 	.globl _PWM_DATA5
                                    250 	.globl _PWM_DATA4
                                    251 	.globl _PWM_DATA3
                                    252 	.globl _PWM_CTRL2
                                    253 	.globl _PWM_CK_SE
                                    254 	.globl _PWM_CTRL
                                    255 	.globl _PWM_DATA0
                                    256 	.globl _PWM_DATA1
                                    257 	.globl _PWM_DATA2
                                    258 	.globl _T2CAP1H
                                    259 	.globl _T2CAP1L
                                    260 	.globl _T2CAP1
                                    261 	.globl _TH2
                                    262 	.globl _TL2
                                    263 	.globl _T2COUNT
                                    264 	.globl _RCAP2H
                                    265 	.globl _RCAP2L
                                    266 	.globl _RCAP2
                                    267 	.globl _T2MOD
                                    268 	.globl _T2CON
                                    269 	.globl _T2CAP0H
                                    270 	.globl _T2CAP0L
                                    271 	.globl _T2CAP0
                                    272 	.globl _T2CON2
                                    273 	.globl _SBUF
                                    274 	.globl _SCON
                                    275 	.globl _TH1
                                    276 	.globl _TH0
                                    277 	.globl _TL1
                                    278 	.globl _TL0
                                    279 	.globl _TMOD
                                    280 	.globl _TCON
                                    281 	.globl _XBUS_AUX
                                    282 	.globl _PIN_FUNC
                                    283 	.globl _P5
                                    284 	.globl _P4_DIR_PU
                                    285 	.globl _P4_MOD_OC
                                    286 	.globl _P4
                                    287 	.globl _P3_DIR_PU
                                    288 	.globl _P3_MOD_OC
                                    289 	.globl _P3
                                    290 	.globl _P2_DIR_PU
                                    291 	.globl _P2_MOD_OC
                                    292 	.globl _P2
                                    293 	.globl _P1_DIR_PU
                                    294 	.globl _P1_MOD_OC
                                    295 	.globl _P1
                                    296 	.globl _P0_DIR_PU
                                    297 	.globl _P0_MOD_OC
                                    298 	.globl _P0
                                    299 	.globl _ROM_CTRL
                                    300 	.globl _ROM_DATA_HH
                                    301 	.globl _ROM_DATA_HL
                                    302 	.globl _ROM_DATA_HI
                                    303 	.globl _ROM_ADDR_H
                                    304 	.globl _ROM_ADDR_L
                                    305 	.globl _ROM_ADDR
                                    306 	.globl _GPIO_IE
                                    307 	.globl _INTX
                                    308 	.globl _IP_EX
                                    309 	.globl _IE_EX
                                    310 	.globl _IP
                                    311 	.globl _IE
                                    312 	.globl _WDOG_COUNT
                                    313 	.globl _RESET_KEEP
                                    314 	.globl _WAKE_CTRL
                                    315 	.globl _CLOCK_CFG
                                    316 	.globl _POWER_CFG
                                    317 	.globl _PCON
                                    318 	.globl _GLOBAL_CFG
                                    319 	.globl _SAFE_MOD
                                    320 	.globl _DPH
                                    321 	.globl _DPL
                                    322 	.globl _SP
                                    323 	.globl _A_INV
                                    324 	.globl _B
                                    325 	.globl _ACC
                                    326 	.globl _PSW
                                    327 	.globl _fontSize
                                    328 	.globl _setFontSize
                                    329 	.globl _delay_ms
                                    330 	.globl _OLED_WR_Byte
                                    331 	.globl _load_one_command
                                    332 	.globl _load_commandList
                                    333 	.globl _OLED_Init
                                    334 	.globl _OLED_Display_On
                                    335 	.globl _OLED_Display_Off
                                    336 	.globl _OLED_Clear
                                    337 	.globl _OLED_Set_Pos
                                    338 	.globl _OLED_ShowChar
                                    339 	.globl _OLED_ShowString
                                    340 	.globl _OLED_DrawBMP
                                    341 ;--------------------------------------------------------
                                    342 ; special function registers
                                    343 ;--------------------------------------------------------
                                    344 	.area RSEG    (ABS,DATA)
      000000                        345 	.org 0x0000
                           0000D0   346 _PSW	=	0x00d0
                           0000E0   347 _ACC	=	0x00e0
                           0000F0   348 _B	=	0x00f0
                           0000FD   349 _A_INV	=	0x00fd
                           000081   350 _SP	=	0x0081
                           000082   351 _DPL	=	0x0082
                           000083   352 _DPH	=	0x0083
                           0000A1   353 _SAFE_MOD	=	0x00a1
                           0000B1   354 _GLOBAL_CFG	=	0x00b1
                           000087   355 _PCON	=	0x0087
                           0000BA   356 _POWER_CFG	=	0x00ba
                           0000B9   357 _CLOCK_CFG	=	0x00b9
                           0000A9   358 _WAKE_CTRL	=	0x00a9
                           0000FE   359 _RESET_KEEP	=	0x00fe
                           0000FF   360 _WDOG_COUNT	=	0x00ff
                           0000A8   361 _IE	=	0x00a8
                           0000B8   362 _IP	=	0x00b8
                           0000E8   363 _IE_EX	=	0x00e8
                           0000E9   364 _IP_EX	=	0x00e9
                           0000B3   365 _INTX	=	0x00b3
                           0000B2   366 _GPIO_IE	=	0x00b2
                           008584   367 _ROM_ADDR	=	0x8584
                           000084   368 _ROM_ADDR_L	=	0x0084
                           000085   369 _ROM_ADDR_H	=	0x0085
                           008F8E   370 _ROM_DATA_HI	=	0x8f8e
                           00008E   371 _ROM_DATA_HL	=	0x008e
                           00008F   372 _ROM_DATA_HH	=	0x008f
                           000086   373 _ROM_CTRL	=	0x0086
                           000080   374 _P0	=	0x0080
                           0000C4   375 _P0_MOD_OC	=	0x00c4
                           0000C5   376 _P0_DIR_PU	=	0x00c5
                           000090   377 _P1	=	0x0090
                           000092   378 _P1_MOD_OC	=	0x0092
                           000093   379 _P1_DIR_PU	=	0x0093
                           0000A0   380 _P2	=	0x00a0
                           000094   381 _P2_MOD_OC	=	0x0094
                           000095   382 _P2_DIR_PU	=	0x0095
                           0000B0   383 _P3	=	0x00b0
                           000096   384 _P3_MOD_OC	=	0x0096
                           000097   385 _P3_DIR_PU	=	0x0097
                           0000C0   386 _P4	=	0x00c0
                           0000C2   387 _P4_MOD_OC	=	0x00c2
                           0000C3   388 _P4_DIR_PU	=	0x00c3
                           0000AB   389 _P5	=	0x00ab
                           0000AA   390 _PIN_FUNC	=	0x00aa
                           0000A2   391 _XBUS_AUX	=	0x00a2
                           000088   392 _TCON	=	0x0088
                           000089   393 _TMOD	=	0x0089
                           00008A   394 _TL0	=	0x008a
                           00008B   395 _TL1	=	0x008b
                           00008C   396 _TH0	=	0x008c
                           00008D   397 _TH1	=	0x008d
                           000098   398 _SCON	=	0x0098
                           000099   399 _SBUF	=	0x0099
                           0000C1   400 _T2CON2	=	0x00c1
                           00C7C6   401 _T2CAP0	=	0xc7c6
                           0000C6   402 _T2CAP0L	=	0x00c6
                           0000C7   403 _T2CAP0H	=	0x00c7
                           0000C8   404 _T2CON	=	0x00c8
                           0000C9   405 _T2MOD	=	0x00c9
                           00CBCA   406 _RCAP2	=	0xcbca
                           0000CA   407 _RCAP2L	=	0x00ca
                           0000CB   408 _RCAP2H	=	0x00cb
                           00CDCC   409 _T2COUNT	=	0xcdcc
                           0000CC   410 _TL2	=	0x00cc
                           0000CD   411 _TH2	=	0x00cd
                           00CFCE   412 _T2CAP1	=	0xcfce
                           0000CE   413 _T2CAP1L	=	0x00ce
                           0000CF   414 _T2CAP1H	=	0x00cf
                           00009A   415 _PWM_DATA2	=	0x009a
                           00009B   416 _PWM_DATA1	=	0x009b
                           00009C   417 _PWM_DATA0	=	0x009c
                           00009D   418 _PWM_CTRL	=	0x009d
                           00009E   419 _PWM_CK_SE	=	0x009e
                           00009F   420 _PWM_CTRL2	=	0x009f
                           0000A3   421 _PWM_DATA3	=	0x00a3
                           0000A4   422 _PWM_DATA4	=	0x00a4
                           0000A5   423 _PWM_DATA5	=	0x00a5
                           0000A6   424 _PWM_DATA6	=	0x00a6
                           0000A7   425 _PWM_DATA7	=	0x00a7
                           0000F8   426 _SPI0_STAT	=	0x00f8
                           0000F9   427 _SPI0_DATA	=	0x00f9
                           0000FA   428 _SPI0_CTRL	=	0x00fa
                           0000FB   429 _SPI0_CK_SE	=	0x00fb
                           0000FC   430 _SPI0_SETUP	=	0x00fc
                           0000BC   431 _SCON1	=	0x00bc
                           0000BD   432 _SBUF1	=	0x00bd
                           0000BE   433 _SBAUD1	=	0x00be
                           0000BF   434 _SIF1	=	0x00bf
                           0000B4   435 _SCON2	=	0x00b4
                           0000B5   436 _SBUF2	=	0x00b5
                           0000B6   437 _SBAUD2	=	0x00b6
                           0000B7   438 _SIF2	=	0x00b7
                           0000AC   439 _SCON3	=	0x00ac
                           0000AD   440 _SBUF3	=	0x00ad
                           0000AE   441 _SBAUD3	=	0x00ae
                           0000AF   442 _SIF3	=	0x00af
                           0000F1   443 _TKEY_CTRL	=	0x00f1
                           0000F2   444 _ADC_CTRL	=	0x00f2
                           0000F3   445 _ADC_CFG	=	0x00f3
                           00F5F4   446 _ADC_DAT	=	0xf5f4
                           0000F4   447 _ADC_DAT_L	=	0x00f4
                           0000F5   448 _ADC_DAT_H	=	0x00f5
                           0000F6   449 _ADC_CHAN	=	0x00f6
                           0000F7   450 _ADC_PIN	=	0x00f7
                           000091   451 _USB_C_CTRL	=	0x0091
                           0000D1   452 _UDEV_CTRL	=	0x00d1
                           0000D2   453 _UEP1_CTRL	=	0x00d2
                           0000D3   454 _UEP1_T_LEN	=	0x00d3
                           0000D4   455 _UEP2_CTRL	=	0x00d4
                           0000D5   456 _UEP2_T_LEN	=	0x00d5
                           0000D6   457 _UEP3_CTRL	=	0x00d6
                           0000D7   458 _UEP3_T_LEN	=	0x00d7
                           0000D8   459 _USB_INT_FG	=	0x00d8
                           0000D9   460 _USB_INT_ST	=	0x00d9
                           0000DA   461 _USB_MIS_ST	=	0x00da
                           0000DB   462 _USB_RX_LEN	=	0x00db
                           0000DC   463 _UEP0_CTRL	=	0x00dc
                           0000DD   464 _UEP0_T_LEN	=	0x00dd
                           0000DE   465 _UEP4_CTRL	=	0x00de
                           0000DF   466 _UEP4_T_LEN	=	0x00df
                           0000E1   467 _USB_INT_EN	=	0x00e1
                           0000E2   468 _USB_CTRL	=	0x00e2
                           0000E3   469 _USB_DEV_AD	=	0x00e3
                           00E5E4   470 _UEP2_DMA	=	0xe5e4
                           0000E4   471 _UEP2_DMA_L	=	0x00e4
                           0000E5   472 _UEP2_DMA_H	=	0x00e5
                           00E7E6   473 _UEP3_DMA	=	0xe7e6
                           0000E6   474 _UEP3_DMA_L	=	0x00e6
                           0000E7   475 _UEP3_DMA_H	=	0x00e7
                           0000EA   476 _UEP4_1_MOD	=	0x00ea
                           0000EB   477 _UEP2_3_MOD	=	0x00eb
                           00EDEC   478 _UEP0_DMA	=	0xedec
                           0000EC   479 _UEP0_DMA_L	=	0x00ec
                           0000ED   480 _UEP0_DMA_H	=	0x00ed
                           00EFEE   481 _UEP1_DMA	=	0xefee
                           0000EE   482 _UEP1_DMA_L	=	0x00ee
                           0000EF   483 _UEP1_DMA_H	=	0x00ef
                                    484 ;--------------------------------------------------------
                                    485 ; special function bits
                                    486 ;--------------------------------------------------------
                                    487 	.area RSEG    (ABS,DATA)
      000000                        488 	.org 0x0000
                           0000D7   489 _CY	=	0x00d7
                           0000D6   490 _AC	=	0x00d6
                           0000D5   491 _F0	=	0x00d5
                           0000D4   492 _RS1	=	0x00d4
                           0000D3   493 _RS0	=	0x00d3
                           0000D2   494 _OV	=	0x00d2
                           0000D1   495 _F1	=	0x00d1
                           0000D0   496 _P	=	0x00d0
                           0000AF   497 _EA	=	0x00af
                           0000AE   498 _E_DIS	=	0x00ae
                           0000AD   499 _ET2	=	0x00ad
                           0000AC   500 _ES	=	0x00ac
                           0000AB   501 _ET1	=	0x00ab
                           0000AA   502 _EX1	=	0x00aa
                           0000A9   503 _ET0	=	0x00a9
                           0000A8   504 _EX0	=	0x00a8
                           0000BF   505 _PH_FLAG	=	0x00bf
                           0000BE   506 _PL_FLAG	=	0x00be
                           0000BD   507 _PT2	=	0x00bd
                           0000BC   508 _PS	=	0x00bc
                           0000BB   509 _PT1	=	0x00bb
                           0000BA   510 _PX1	=	0x00ba
                           0000B9   511 _PT0	=	0x00b9
                           0000B8   512 _PX0	=	0x00b8
                           0000EF   513 _IE_WDOG	=	0x00ef
                           0000EE   514 _IE_GPIO	=	0x00ee
                           0000ED   515 _IE_PWMX	=	0x00ed
                           0000ED   516 _IE_UART3	=	0x00ed
                           0000EC   517 _IE_UART1	=	0x00ec
                           0000EB   518 _IE_ADC	=	0x00eb
                           0000EB   519 _IE_UART2	=	0x00eb
                           0000EA   520 _IE_USB	=	0x00ea
                           0000E9   521 _IE_INT3	=	0x00e9
                           0000E8   522 _IE_SPI0	=	0x00e8
                           000087   523 _P0_7	=	0x0087
                           000086   524 _P0_6	=	0x0086
                           000085   525 _P0_5	=	0x0085
                           000084   526 _P0_4	=	0x0084
                           000083   527 _P0_3	=	0x0083
                           000082   528 _P0_2	=	0x0082
                           000081   529 _P0_1	=	0x0081
                           000080   530 _P0_0	=	0x0080
                           000087   531 _TXD3	=	0x0087
                           000087   532 _AIN15	=	0x0087
                           000086   533 _RXD3	=	0x0086
                           000086   534 _AIN14	=	0x0086
                           000085   535 _TXD2	=	0x0085
                           000085   536 _AIN13	=	0x0085
                           000084   537 _RXD2	=	0x0084
                           000084   538 _AIN12	=	0x0084
                           000083   539 _TXD_	=	0x0083
                           000083   540 _AIN11	=	0x0083
                           000082   541 _RXD_	=	0x0082
                           000082   542 _AIN10	=	0x0082
                           000081   543 _AIN9	=	0x0081
                           000080   544 _AIN8	=	0x0080
                           000097   545 _P1_7	=	0x0097
                           000096   546 _P1_6	=	0x0096
                           000095   547 _P1_5	=	0x0095
                           000094   548 _P1_4	=	0x0094
                           000093   549 _P1_3	=	0x0093
                           000092   550 _P1_2	=	0x0092
                           000091   551 _P1_1	=	0x0091
                           000090   552 _P1_0	=	0x0090
                           000097   553 _SCK	=	0x0097
                           000097   554 _TXD1_	=	0x0097
                           000097   555 _AIN7	=	0x0097
                           000096   556 _MISO	=	0x0096
                           000096   557 _RXD1_	=	0x0096
                           000096   558 _VBUS	=	0x0096
                           000096   559 _AIN6	=	0x0096
                           000095   560 _MOSI	=	0x0095
                           000095   561 _PWM0_	=	0x0095
                           000095   562 _UCC2	=	0x0095
                           000095   563 _AIN5	=	0x0095
                           000094   564 _SCS	=	0x0094
                           000094   565 _UCC1	=	0x0094
                           000094   566 _AIN4	=	0x0094
                           000093   567 _AIN3	=	0x0093
                           000092   568 _AIN2	=	0x0092
                           000091   569 _T2EX	=	0x0091
                           000091   570 _CAP2	=	0x0091
                           000091   571 _AIN1	=	0x0091
                           000090   572 _T2	=	0x0090
                           000090   573 _CAP1	=	0x0090
                           000090   574 _AIN0	=	0x0090
                           0000A7   575 _P2_7	=	0x00a7
                           0000A6   576 _P2_6	=	0x00a6
                           0000A5   577 _P2_5	=	0x00a5
                           0000A4   578 _P2_4	=	0x00a4
                           0000A3   579 _P2_3	=	0x00a3
                           0000A2   580 _P2_2	=	0x00a2
                           0000A1   581 _P2_1	=	0x00a1
                           0000A0   582 _P2_0	=	0x00a0
                           0000A7   583 _PWM7	=	0x00a7
                           0000A7   584 _TXD1	=	0x00a7
                           0000A6   585 _PWM6	=	0x00a6
                           0000A6   586 _RXD1	=	0x00a6
                           0000A5   587 _PWM0	=	0x00a5
                           0000A5   588 _T2EX_	=	0x00a5
                           0000A5   589 _CAP2_	=	0x00a5
                           0000A4   590 _PWM1	=	0x00a4
                           0000A4   591 _T2_	=	0x00a4
                           0000A4   592 _CAP1_	=	0x00a4
                           0000A3   593 _PWM2	=	0x00a3
                           0000A2   594 _PWM3	=	0x00a2
                           0000A2   595 _INT0_	=	0x00a2
                           0000A1   596 _PWM4	=	0x00a1
                           0000A0   597 _PWM5	=	0x00a0
                           0000B7   598 _P3_7	=	0x00b7
                           0000B6   599 _P3_6	=	0x00b6
                           0000B5   600 _P3_5	=	0x00b5
                           0000B4   601 _P3_4	=	0x00b4
                           0000B3   602 _P3_3	=	0x00b3
                           0000B2   603 _P3_2	=	0x00b2
                           0000B1   604 _P3_1	=	0x00b1
                           0000B0   605 _P3_0	=	0x00b0
                           0000B7   606 _INT3	=	0x00b7
                           0000B6   607 _CAP0	=	0x00b6
                           0000B5   608 _T1	=	0x00b5
                           0000B4   609 _T0	=	0x00b4
                           0000B3   610 _INT1	=	0x00b3
                           0000B2   611 _INT0	=	0x00b2
                           0000B1   612 _TXD	=	0x00b1
                           0000B0   613 _RXD	=	0x00b0
                           0000C6   614 _P4_6	=	0x00c6
                           0000C5   615 _P4_5	=	0x00c5
                           0000C4   616 _P4_4	=	0x00c4
                           0000C3   617 _P4_3	=	0x00c3
                           0000C2   618 _P4_2	=	0x00c2
                           0000C1   619 _P4_1	=	0x00c1
                           0000C0   620 _P4_0	=	0x00c0
                           0000C7   621 _XO	=	0x00c7
                           0000C6   622 _XI	=	0x00c6
                           00008F   623 _TF1	=	0x008f
                           00008E   624 _TR1	=	0x008e
                           00008D   625 _TF0	=	0x008d
                           00008C   626 _TR0	=	0x008c
                           00008B   627 _IE1	=	0x008b
                           00008A   628 _IT1	=	0x008a
                           000089   629 _IE0	=	0x0089
                           000088   630 _IT0	=	0x0088
                           00009F   631 _SM0	=	0x009f
                           00009E   632 _SM1	=	0x009e
                           00009D   633 _SM2	=	0x009d
                           00009C   634 _REN	=	0x009c
                           00009B   635 _TB8	=	0x009b
                           00009A   636 _RB8	=	0x009a
                           000099   637 _TI	=	0x0099
                           000098   638 _RI	=	0x0098
                           0000CF   639 _TF2	=	0x00cf
                           0000CF   640 _CAP1F	=	0x00cf
                           0000CE   641 _EXF2	=	0x00ce
                           0000CD   642 _RCLK	=	0x00cd
                           0000CC   643 _TCLK	=	0x00cc
                           0000CB   644 _EXEN2	=	0x00cb
                           0000CA   645 _TR2	=	0x00ca
                           0000C9   646 _C_T2	=	0x00c9
                           0000C8   647 _CP_RL2	=	0x00c8
                           0000FF   648 _S0_FST_ACT	=	0x00ff
                           0000FE   649 _S0_IF_OV	=	0x00fe
                           0000FD   650 _S0_IF_FIRST	=	0x00fd
                           0000FC   651 _S0_IF_BYTE	=	0x00fc
                           0000FB   652 _S0_FREE	=	0x00fb
                           0000FA   653 _S0_T_FIFO	=	0x00fa
                           0000F8   654 _S0_R_FIFO	=	0x00f8
                           0000DF   655 _U_IS_NAK	=	0x00df
                           0000DE   656 _U_TOG_OK	=	0x00de
                           0000DD   657 _U_SIE_FREE	=	0x00dd
                           0000DC   658 _UIF_FIFO_OV	=	0x00dc
                           0000DB   659 _UIF_HST_SOF	=	0x00db
                           0000DA   660 _UIF_SUSPEND	=	0x00da
                           0000D9   661 _UIF_TRANSFER	=	0x00d9
                           0000D8   662 _UIF_DETECT	=	0x00d8
                           0000D8   663 _UIF_BUS_RST	=	0x00d8
                                    664 ;--------------------------------------------------------
                                    665 ; overlayable register banks
                                    666 ;--------------------------------------------------------
                                    667 	.area REG_BANK_0	(REL,OVR,DATA)
      000000                        668 	.ds 8
                                    669 ;--------------------------------------------------------
                                    670 ; internal ram data
                                    671 ;--------------------------------------------------------
                                    672 	.area DSEG    (DATA)
                                    673 ;--------------------------------------------------------
                                    674 ; overlayable items in internal ram 
                                    675 ;--------------------------------------------------------
                                    676 ;--------------------------------------------------------
                                    677 ; indirectly addressable internal ram data
                                    678 ;--------------------------------------------------------
                                    679 	.area ISEG    (DATA)
                                    680 ;--------------------------------------------------------
                                    681 ; absolute internal ram data
                                    682 ;--------------------------------------------------------
                                    683 	.area IABS    (ABS,DATA)
                                    684 	.area IABS    (ABS,DATA)
                                    685 ;--------------------------------------------------------
                                    686 ; bit data
                                    687 ;--------------------------------------------------------
                                    688 	.area BSEG    (BIT)
                                    689 ;--------------------------------------------------------
                                    690 ; paged external ram data
                                    691 ;--------------------------------------------------------
                                    692 	.area PSEG    (PAG,XDATA)
                                    693 ;--------------------------------------------------------
                                    694 ; external ram data
                                    695 ;--------------------------------------------------------
                                    696 	.area XSEG    (XDATA)
      000029                        697 _fontSize::
      000029                        698 	.ds 1
                                    699 ;--------------------------------------------------------
                                    700 ; absolute external ram data
                                    701 ;--------------------------------------------------------
                                    702 	.area XABS    (ABS,XDATA)
                                    703 ;--------------------------------------------------------
                                    704 ; external initialized ram data
                                    705 ;--------------------------------------------------------
                                    706 	.area HOME    (CODE)
                                    707 	.area GSINIT0 (CODE)
                                    708 	.area GSINIT1 (CODE)
                                    709 	.area GSINIT2 (CODE)
                                    710 	.area GSINIT3 (CODE)
                                    711 	.area GSINIT4 (CODE)
                                    712 	.area GSINIT5 (CODE)
                                    713 	.area GSINIT  (CODE)
                                    714 	.area GSFINAL (CODE)
                                    715 	.area CSEG    (CODE)
                                    716 ;--------------------------------------------------------
                                    717 ; global & static initialisations
                                    718 ;--------------------------------------------------------
                                    719 	.area HOME    (CODE)
                                    720 	.area GSINIT  (CODE)
                                    721 	.area GSFINAL (CODE)
                                    722 	.area GSINIT  (CODE)
                                    723 ;--------------------------------------------------------
                                    724 ; Home
                                    725 ;--------------------------------------------------------
                                    726 	.area HOME    (CODE)
                                    727 	.area HOME    (CODE)
                                    728 ;--------------------------------------------------------
                                    729 ; code
                                    730 ;--------------------------------------------------------
                                    731 	.area CSEG    (CODE)
                                    732 ;------------------------------------------------------------
                                    733 ;Allocation info for local variables in function 'setFontSize'
                                    734 ;------------------------------------------------------------
                                    735 ;size                      Allocated to registers 
                                    736 ;------------------------------------------------------------
                                    737 ;	source/CH549_OLED.c:16: void setFontSize(u8 size){
                                    738 ;	-----------------------------------------
                                    739 ;	 function setFontSize
                                    740 ;	-----------------------------------------
      000FBB                        741 _setFontSize:
                           000007   742 	ar7 = 0x07
                           000006   743 	ar6 = 0x06
                           000005   744 	ar5 = 0x05
                           000004   745 	ar4 = 0x04
                           000003   746 	ar3 = 0x03
                           000002   747 	ar2 = 0x02
                           000001   748 	ar1 = 0x01
                           000000   749 	ar0 = 0x00
      000FBB E5 82            [12]  750 	mov	a,dpl
      000FBD 90 00 29         [24]  751 	mov	dptr,#_fontSize
      000FC0 F0               [24]  752 	movx	@dptr,a
                                    753 ;	source/CH549_OLED.c:17: fontSize = size;
                                    754 ;	source/CH549_OLED.c:18: }
      000FC1 22               [24]  755 	ret
                                    756 ;------------------------------------------------------------
                                    757 ;Allocation info for local variables in function 'delay_ms'
                                    758 ;------------------------------------------------------------
                                    759 ;ms                        Allocated to registers 
                                    760 ;a                         Allocated to registers r4 r5 
                                    761 ;------------------------------------------------------------
                                    762 ;	source/CH549_OLED.c:21: void delay_ms(unsigned int ms)
                                    763 ;	-----------------------------------------
                                    764 ;	 function delay_ms
                                    765 ;	-----------------------------------------
      000FC2                        766 _delay_ms:
      000FC2 AE 82            [24]  767 	mov	r6,dpl
      000FC4 AF 83            [24]  768 	mov	r7,dph
                                    769 ;	source/CH549_OLED.c:24: while(ms)
      000FC6                        770 00104$:
      000FC6 EE               [12]  771 	mov	a,r6
      000FC7 4F               [12]  772 	orl	a,r7
      000FC8 60 18            [24]  773 	jz	00106$
                                    774 ;	source/CH549_OLED.c:27: while(a--);
      000FCA 7C 08            [12]  775 	mov	r4,#0x08
      000FCC 7D 07            [12]  776 	mov	r5,#0x07
      000FCE                        777 00101$:
      000FCE 8C 02            [24]  778 	mov	ar2,r4
      000FD0 8D 03            [24]  779 	mov	ar3,r5
      000FD2 1C               [12]  780 	dec	r4
      000FD3 BC FF 01         [24]  781 	cjne	r4,#0xff,00128$
      000FD6 1D               [12]  782 	dec	r5
      000FD7                        783 00128$:
      000FD7 EA               [12]  784 	mov	a,r2
      000FD8 4B               [12]  785 	orl	a,r3
      000FD9 70 F3            [24]  786 	jnz	00101$
                                    787 ;	source/CH549_OLED.c:28: ms--;
      000FDB 1E               [12]  788 	dec	r6
      000FDC BE FF 01         [24]  789 	cjne	r6,#0xff,00130$
      000FDF 1F               [12]  790 	dec	r7
      000FE0                        791 00130$:
      000FE0 80 E4            [24]  792 	sjmp	00104$
      000FE2                        793 00106$:
                                    794 ;	source/CH549_OLED.c:30: return;
                                    795 ;	source/CH549_OLED.c:31: }
      000FE2 22               [24]  796 	ret
                                    797 ;------------------------------------------------------------
                                    798 ;Allocation info for local variables in function 'OLED_WR_Byte'
                                    799 ;------------------------------------------------------------
                                    800 ;cmd                       Allocated to stack - _bp -3
                                    801 ;dat                       Allocated to registers r7 
                                    802 ;------------------------------------------------------------
                                    803 ;	source/CH549_OLED.c:37: void OLED_WR_Byte(u8 dat,u8 cmd)
                                    804 ;	-----------------------------------------
                                    805 ;	 function OLED_WR_Byte
                                    806 ;	-----------------------------------------
      000FE3                        807 _OLED_WR_Byte:
      000FE3 C0 16            [24]  808 	push	_bp
      000FE5 85 81 16         [24]  809 	mov	_bp,sp
      000FE8 AF 82            [24]  810 	mov	r7,dpl
                                    811 ;	source/CH549_OLED.c:40: if(cmd)	OLED_MODE_DATA(); 	//命令模式
      000FEA E5 16            [12]  812 	mov	a,_bp
      000FEC 24 FD            [12]  813 	add	a,#0xfd
      000FEE F8               [12]  814 	mov	r0,a
      000FEF E6               [12]  815 	mov	a,@r0
      000FF0 60 04            [24]  816 	jz	00102$
                                    817 ;	assignBit
      000FF2 D2 B3            [12]  818 	setb	_P3_3
      000FF4 80 02            [24]  819 	sjmp	00103$
      000FF6                        820 00102$:
                                    821 ;	source/CH549_OLED.c:41: else 	OLED_MODE_COMMAND(); 	//数据模式
                                    822 ;	assignBit
      000FF6 C2 B3            [12]  823 	clr	_P3_3
      000FF8                        824 00103$:
                                    825 ;	source/CH549_OLED.c:42: OLED_SELECT();			    //片选设置为0,设备选择
                                    826 ;	assignBit
      000FF8 C2 B0            [12]  827 	clr	_P3_0
                                    828 ;	source/CH549_OLED.c:43: CH549SPIMasterWrite(dat);       //使用CH549的官方函数写入8位数据
      000FFA 8F 82            [24]  829 	mov	dpl,r7
      000FFC 12 0F 86         [24]  830 	lcall	_CH549SPIMasterWrite
                                    831 ;	source/CH549_OLED.c:44: OLED_DESELECT();			    //片选设置为1,取消设备选择
                                    832 ;	assignBit
      000FFF D2 B0            [12]  833 	setb	_P3_0
                                    834 ;	source/CH549_OLED.c:45: OLED_MODE_DATA();   	  	    //转为数据模式
                                    835 ;	assignBit
      001001 D2 B3            [12]  836 	setb	_P3_3
                                    837 ;	source/CH549_OLED.c:47: } 
      001003 D0 16            [24]  838 	pop	_bp
      001005 22               [24]  839 	ret
                                    840 ;------------------------------------------------------------
                                    841 ;Allocation info for local variables in function 'load_one_command'
                                    842 ;------------------------------------------------------------
                                    843 ;c                         Allocated to registers r7 
                                    844 ;------------------------------------------------------------
                                    845 ;	source/CH549_OLED.c:49: void load_one_command(u8 c){
                                    846 ;	-----------------------------------------
                                    847 ;	 function load_one_command
                                    848 ;	-----------------------------------------
      001006                        849 _load_one_command:
      001006 AF 82            [24]  850 	mov	r7,dpl
                                    851 ;	source/CH549_OLED.c:50: OLED_WR_Byte(c,OLED_CMD);
      001008 E4               [12]  852 	clr	a
      001009 C0 E0            [24]  853 	push	acc
      00100B 8F 82            [24]  854 	mov	dpl,r7
      00100D 12 0F E3         [24]  855 	lcall	_OLED_WR_Byte
      001010 15 81            [12]  856 	dec	sp
                                    857 ;	source/CH549_OLED.c:51: }
      001012 22               [24]  858 	ret
                                    859 ;------------------------------------------------------------
                                    860 ;Allocation info for local variables in function 'load_commandList'
                                    861 ;------------------------------------------------------------
                                    862 ;n                         Allocated to stack - _bp -3
                                    863 ;c                         Allocated to registers 
                                    864 ;------------------------------------------------------------
                                    865 ;	source/CH549_OLED.c:53: void load_commandList(const u8 *c, u8 n){
                                    866 ;	-----------------------------------------
                                    867 ;	 function load_commandList
                                    868 ;	-----------------------------------------
      001013                        869 _load_commandList:
      001013 C0 16            [24]  870 	push	_bp
      001015 85 81 16         [24]  871 	mov	_bp,sp
      001018 AD 82            [24]  872 	mov	r5,dpl
      00101A AE 83            [24]  873 	mov	r6,dph
      00101C AF F0            [24]  874 	mov	r7,b
                                    875 ;	source/CH549_OLED.c:54: while (n--) 
      00101E E5 16            [12]  876 	mov	a,_bp
      001020 24 FD            [12]  877 	add	a,#0xfd
      001022 F8               [12]  878 	mov	r0,a
      001023 86 04            [24]  879 	mov	ar4,@r0
      001025                        880 00101$:
      001025 8C 03            [24]  881 	mov	ar3,r4
      001027 1C               [12]  882 	dec	r4
      001028 EB               [12]  883 	mov	a,r3
      001029 60 2B            [24]  884 	jz	00104$
                                    885 ;	source/CH549_OLED.c:55: OLED_WR_Byte(pgm_read_byte(c++),OLED_CMD);
      00102B 8D 82            [24]  886 	mov	dpl,r5
      00102D 8E 83            [24]  887 	mov	dph,r6
      00102F 8F F0            [24]  888 	mov	b,r7
      001031 12 1F A0         [24]  889 	lcall	__gptrget
      001034 FB               [12]  890 	mov	r3,a
      001035 A3               [24]  891 	inc	dptr
      001036 AD 82            [24]  892 	mov	r5,dpl
      001038 AE 83            [24]  893 	mov	r6,dph
      00103A C0 07            [24]  894 	push	ar7
      00103C C0 06            [24]  895 	push	ar6
      00103E C0 05            [24]  896 	push	ar5
      001040 C0 04            [24]  897 	push	ar4
      001042 E4               [12]  898 	clr	a
      001043 C0 E0            [24]  899 	push	acc
      001045 8B 82            [24]  900 	mov	dpl,r3
      001047 12 0F E3         [24]  901 	lcall	_OLED_WR_Byte
      00104A 15 81            [12]  902 	dec	sp
      00104C D0 04            [24]  903 	pop	ar4
      00104E D0 05            [24]  904 	pop	ar5
      001050 D0 06            [24]  905 	pop	ar6
      001052 D0 07            [24]  906 	pop	ar7
      001054 80 CF            [24]  907 	sjmp	00101$
      001056                        908 00104$:
                                    909 ;	source/CH549_OLED.c:57: }
      001056 D0 16            [24]  910 	pop	_bp
      001058 22               [24]  911 	ret
                                    912 ;------------------------------------------------------------
                                    913 ;Allocation info for local variables in function 'OLED_Init'
                                    914 ;------------------------------------------------------------
                                    915 ;	source/CH549_OLED.c:60: void OLED_Init(void)
                                    916 ;	-----------------------------------------
                                    917 ;	 function OLED_Init
                                    918 ;	-----------------------------------------
      001059                        919 _OLED_Init:
                                    920 ;	source/CH549_OLED.c:63: OLED_RST_Set();
                                    921 ;	assignBit
      001059 D2 B1            [12]  922 	setb	_P3_1
                                    923 ;	source/CH549_OLED.c:64: delay_ms(100);
      00105B 90 00 64         [24]  924 	mov	dptr,#0x0064
      00105E 12 0F C2         [24]  925 	lcall	_delay_ms
                                    926 ;	source/CH549_OLED.c:65: OLED_RST_Clr();
                                    927 ;	assignBit
      001061 C2 B1            [12]  928 	clr	_P3_1
                                    929 ;	source/CH549_OLED.c:66: delay_ms(100);
      001063 90 00 64         [24]  930 	mov	dptr,#0x0064
      001066 12 0F C2         [24]  931 	lcall	_delay_ms
                                    932 ;	source/CH549_OLED.c:67: OLED_RST_Set(); 
                                    933 ;	assignBit
      001069 D2 B1            [12]  934 	setb	_P3_1
                                    935 ;	source/CH549_OLED.c:103: load_commandList(init_commandList, sizeof(init_commandList));
      00106B 74 19            [12]  936 	mov	a,#0x19
      00106D C0 E0            [24]  937 	push	acc
      00106F 90 3D 02         [24]  938 	mov	dptr,#_OLED_Init_init_commandList_65537_73
      001072 75 F0 80         [24]  939 	mov	b,#0x80
      001075 12 10 13         [24]  940 	lcall	_load_commandList
      001078 15 81            [12]  941 	dec	sp
                                    942 ;	source/CH549_OLED.c:105: OLED_Clear();
      00107A 12 10 AD         [24]  943 	lcall	_OLED_Clear
                                    944 ;	source/CH549_OLED.c:106: OLED_Set_Pos(0,0); 	
      00107D E4               [12]  945 	clr	a
      00107E C0 E0            [24]  946 	push	acc
      001080 75 82 00         [24]  947 	mov	dpl,#0x00
      001083 12 10 EC         [24]  948 	lcall	_OLED_Set_Pos
      001086 15 81            [12]  949 	dec	sp
                                    950 ;	source/CH549_OLED.c:107: }
      001088 22               [24]  951 	ret
                                    952 ;------------------------------------------------------------
                                    953 ;Allocation info for local variables in function 'OLED_Display_On'
                                    954 ;------------------------------------------------------------
                                    955 ;	source/CH549_OLED.c:110: void OLED_Display_On(void)
                                    956 ;	-----------------------------------------
                                    957 ;	 function OLED_Display_On
                                    958 ;	-----------------------------------------
      001089                        959 _OLED_Display_On:
                                    960 ;	source/CH549_OLED.c:112: load_one_command(SSD1306_CHARGEPUMP);	//SET DCDC命令
      001089 75 82 8D         [24]  961 	mov	dpl,#0x8d
      00108C 12 10 06         [24]  962 	lcall	_load_one_command
                                    963 ;	source/CH549_OLED.c:113: load_one_command(SSD1306_0x10DISABLE);	//DCDC ON
      00108F 75 82 14         [24]  964 	mov	dpl,#0x14
      001092 12 10 06         [24]  965 	lcall	_load_one_command
                                    966 ;	source/CH549_OLED.c:114: load_one_command(SSD1306_DISPLAYON);	//DISPLAY ON
      001095 75 82 AF         [24]  967 	mov	dpl,#0xaf
                                    968 ;	source/CH549_OLED.c:115: }
      001098 02 10 06         [24]  969 	ljmp	_load_one_command
                                    970 ;------------------------------------------------------------
                                    971 ;Allocation info for local variables in function 'OLED_Display_Off'
                                    972 ;------------------------------------------------------------
                                    973 ;	source/CH549_OLED.c:118: void OLED_Display_Off(void)
                                    974 ;	-----------------------------------------
                                    975 ;	 function OLED_Display_Off
                                    976 ;	-----------------------------------------
      00109B                        977 _OLED_Display_Off:
                                    978 ;	source/CH549_OLED.c:120: load_one_command(SSD1306_CHARGEPUMP);	//SET DCDC命令
      00109B 75 82 8D         [24]  979 	mov	dpl,#0x8d
      00109E 12 10 06         [24]  980 	lcall	_load_one_command
                                    981 ;	source/CH549_OLED.c:121: load_one_command(SSD1306_SETHIGHCOLUMN);	//DCDC OFF
      0010A1 75 82 10         [24]  982 	mov	dpl,#0x10
      0010A4 12 10 06         [24]  983 	lcall	_load_one_command
                                    984 ;	source/CH549_OLED.c:122: load_one_command(0XAE);	//DISPLAY OFF
      0010A7 75 82 AE         [24]  985 	mov	dpl,#0xae
                                    986 ;	source/CH549_OLED.c:123: }	
      0010AA 02 10 06         [24]  987 	ljmp	_load_one_command
                                    988 ;------------------------------------------------------------
                                    989 ;Allocation info for local variables in function 'OLED_Clear'
                                    990 ;------------------------------------------------------------
                                    991 ;i                         Allocated to registers r7 
                                    992 ;n                         Allocated to registers r6 
                                    993 ;------------------------------------------------------------
                                    994 ;	source/CH549_OLED.c:126: void OLED_Clear(void)
                                    995 ;	-----------------------------------------
                                    996 ;	 function OLED_Clear
                                    997 ;	-----------------------------------------
      0010AD                        998 _OLED_Clear:
                                    999 ;	source/CH549_OLED.c:129: for(i=0;i<8;i++)  
      0010AD 7F 00            [12] 1000 	mov	r7,#0x00
      0010AF                       1001 00105$:
                                   1002 ;	source/CH549_OLED.c:131: load_one_command(0xb0+i);	//设置页地址（0~7）
      0010AF 8F 06            [24] 1003 	mov	ar6,r7
      0010B1 74 B0            [12] 1004 	mov	a,#0xb0
      0010B3 2E               [12] 1005 	add	a,r6
      0010B4 F5 82            [12] 1006 	mov	dpl,a
      0010B6 C0 07            [24] 1007 	push	ar7
      0010B8 12 10 06         [24] 1008 	lcall	_load_one_command
                                   1009 ;	source/CH549_OLED.c:132: load_one_command(SSD1306_SETLOWCOLUMN);		//设置显示位置—列低地址
      0010BB 75 82 00         [24] 1010 	mov	dpl,#0x00
      0010BE 12 10 06         [24] 1011 	lcall	_load_one_command
                                   1012 ;	source/CH549_OLED.c:133: load_one_command(SSD1306_SETHIGHCOLUMN);		//设置显示位置—列高地址 
      0010C1 75 82 10         [24] 1013 	mov	dpl,#0x10
      0010C4 12 10 06         [24] 1014 	lcall	_load_one_command
      0010C7 D0 07            [24] 1015 	pop	ar7
                                   1016 ;	source/CH549_OLED.c:135: for(n=0;n<128;n++)OLED_WR_Byte(0,OLED_DATA); 
      0010C9 7E 00            [12] 1017 	mov	r6,#0x00
      0010CB                       1018 00103$:
      0010CB C0 07            [24] 1019 	push	ar7
      0010CD C0 06            [24] 1020 	push	ar6
      0010CF 74 01            [12] 1021 	mov	a,#0x01
      0010D1 C0 E0            [24] 1022 	push	acc
      0010D3 75 82 00         [24] 1023 	mov	dpl,#0x00
      0010D6 12 0F E3         [24] 1024 	lcall	_OLED_WR_Byte
      0010D9 15 81            [12] 1025 	dec	sp
      0010DB D0 06            [24] 1026 	pop	ar6
      0010DD D0 07            [24] 1027 	pop	ar7
      0010DF 0E               [12] 1028 	inc	r6
      0010E0 BE 80 00         [24] 1029 	cjne	r6,#0x80,00123$
      0010E3                       1030 00123$:
      0010E3 40 E6            [24] 1031 	jc	00103$
                                   1032 ;	source/CH549_OLED.c:129: for(i=0;i<8;i++)  
      0010E5 0F               [12] 1033 	inc	r7
      0010E6 BF 08 00         [24] 1034 	cjne	r7,#0x08,00125$
      0010E9                       1035 00125$:
      0010E9 40 C4            [24] 1036 	jc	00105$
                                   1037 ;	source/CH549_OLED.c:137: }
      0010EB 22               [24] 1038 	ret
                                   1039 ;------------------------------------------------------------
                                   1040 ;Allocation info for local variables in function 'OLED_Set_Pos'
                                   1041 ;------------------------------------------------------------
                                   1042 ;row_index                 Allocated to stack - _bp -3
                                   1043 ;col_index                 Allocated to registers r7 
                                   1044 ;------------------------------------------------------------
                                   1045 ;	source/CH549_OLED.c:144: void OLED_Set_Pos(unsigned char col_index, unsigned char row_index) 
                                   1046 ;	-----------------------------------------
                                   1047 ;	 function OLED_Set_Pos
                                   1048 ;	-----------------------------------------
      0010EC                       1049 _OLED_Set_Pos:
      0010EC C0 16            [24] 1050 	push	_bp
      0010EE 85 81 16         [24] 1051 	mov	_bp,sp
      0010F1 AF 82            [24] 1052 	mov	r7,dpl
                                   1053 ;	source/CH549_OLED.c:146: load_one_command(0xb0+row_index);
      0010F3 E5 16            [12] 1054 	mov	a,_bp
      0010F5 24 FD            [12] 1055 	add	a,#0xfd
      0010F7 F8               [12] 1056 	mov	r0,a
      0010F8 86 06            [24] 1057 	mov	ar6,@r0
      0010FA 74 B0            [12] 1058 	mov	a,#0xb0
      0010FC 2E               [12] 1059 	add	a,r6
      0010FD F5 82            [12] 1060 	mov	dpl,a
      0010FF C0 07            [24] 1061 	push	ar7
      001101 12 10 06         [24] 1062 	lcall	_load_one_command
      001104 D0 07            [24] 1063 	pop	ar7
                                   1064 ;	source/CH549_OLED.c:147: load_one_command(((col_index&0xf0)>>4)|SSD1306_SETHIGHCOLUMN);
      001106 8F 05            [24] 1065 	mov	ar5,r7
      001108 53 05 F0         [24] 1066 	anl	ar5,#0xf0
      00110B E4               [12] 1067 	clr	a
      00110C C4               [12] 1068 	swap	a
      00110D CD               [12] 1069 	xch	a,r5
      00110E C4               [12] 1070 	swap	a
      00110F 54 0F            [12] 1071 	anl	a,#0x0f
      001111 6D               [12] 1072 	xrl	a,r5
      001112 CD               [12] 1073 	xch	a,r5
      001113 54 0F            [12] 1074 	anl	a,#0x0f
      001115 CD               [12] 1075 	xch	a,r5
      001116 6D               [12] 1076 	xrl	a,r5
      001117 CD               [12] 1077 	xch	a,r5
      001118 30 E3 02         [24] 1078 	jnb	acc.3,00103$
      00111B 44 F0            [12] 1079 	orl	a,#0xf0
      00111D                       1080 00103$:
      00111D 43 05 10         [24] 1081 	orl	ar5,#0x10
      001120 8D 82            [24] 1082 	mov	dpl,r5
      001122 C0 07            [24] 1083 	push	ar7
      001124 12 10 06         [24] 1084 	lcall	_load_one_command
      001127 D0 07            [24] 1085 	pop	ar7
                                   1086 ;	source/CH549_OLED.c:148: load_one_command((col_index&0x0f));
      001129 53 07 0F         [24] 1087 	anl	ar7,#0x0f
      00112C 8F 82            [24] 1088 	mov	dpl,r7
      00112E 12 10 06         [24] 1089 	lcall	_load_one_command
                                   1090 ;	source/CH549_OLED.c:149: }  
      001131 D0 16            [24] 1091 	pop	_bp
      001133 22               [24] 1092 	ret
                                   1093 ;------------------------------------------------------------
                                   1094 ;Allocation info for local variables in function 'OLED_ShowChar'
                                   1095 ;------------------------------------------------------------
                                   1096 ;row_index                 Allocated to stack - _bp -3
                                   1097 ;chr                       Allocated to stack - _bp -4
                                   1098 ;col_index                 Allocated to registers r7 
                                   1099 ;char_index                Allocated to registers r6 
                                   1100 ;i                         Allocated to registers r5 
                                   1101 ;------------------------------------------------------------
                                   1102 ;	source/CH549_OLED.c:154: void OLED_ShowChar(u8 col_index, u8 row_index, u8 chr)
                                   1103 ;	-----------------------------------------
                                   1104 ;	 function OLED_ShowChar
                                   1105 ;	-----------------------------------------
      001134                       1106 _OLED_ShowChar:
      001134 C0 16            [24] 1107 	push	_bp
      001136 85 81 16         [24] 1108 	mov	_bp,sp
      001139 AF 82            [24] 1109 	mov	r7,dpl
                                   1110 ;	source/CH549_OLED.c:157: char_index = chr - ' ';	//将希望输入的字符的ascii码减去空格的ascii码，得到偏移后的值	因为在ascii码中space之前的字符并不能显示出来，字库里面不会有他们，减去一个空格相当于从空格往后开始数		
      00113B E5 16            [12] 1111 	mov	a,_bp
      00113D 24 FC            [12] 1112 	add	a,#0xfc
      00113F F8               [12] 1113 	mov	r0,a
      001140 E6               [12] 1114 	mov	a,@r0
      001141 24 E0            [12] 1115 	add	a,#0xe0
      001143 FE               [12] 1116 	mov	r6,a
                                   1117 ;	source/CH549_OLED.c:159: if (col_index > Max_Column - 1) {
      001144 EF               [12] 1118 	mov	a,r7
      001145 24 80            [12] 1119 	add	a,#0xff - 0x7f
      001147 50 12            [24] 1120 	jnc	00102$
                                   1121 ;	source/CH549_OLED.c:160: col_index = 0;
      001149 7F 00            [12] 1122 	mov	r7,#0x00
                                   1123 ;	source/CH549_OLED.c:161: row_index = row_index + 2;
      00114B E5 16            [12] 1124 	mov	a,_bp
      00114D 24 FD            [12] 1125 	add	a,#0xfd
      00114F F8               [12] 1126 	mov	r0,a
      001150 86 05            [24] 1127 	mov	ar5,@r0
      001152 E5 16            [12] 1128 	mov	a,_bp
      001154 24 FD            [12] 1129 	add	a,#0xfd
      001156 F8               [12] 1130 	mov	r0,a
      001157 74 02            [12] 1131 	mov	a,#0x02
      001159 2D               [12] 1132 	add	a,r5
      00115A F6               [12] 1133 	mov	@r0,a
      00115B                       1134 00102$:
                                   1135 ;	source/CH549_OLED.c:164: if (fontSize == 16) {
      00115B 90 00 29         [24] 1136 	mov	dptr,#_fontSize
      00115E E0               [24] 1137 	movx	a,@dptr
      00115F FD               [12] 1138 	mov	r5,a
      001160 BD 10 02         [24] 1139 	cjne	r5,#0x10,00149$
      001163 80 03            [24] 1140 	sjmp	00150$
      001165                       1141 00149$:
      001165 02 12 29         [24] 1142 	ljmp	00107$
      001168                       1143 00150$:
                                   1144 ;	source/CH549_OLED.c:165: OLED_Set_Pos(col_index, row_index);	
      001168 C0 07            [24] 1145 	push	ar7
      00116A C0 06            [24] 1146 	push	ar6
      00116C E5 16            [12] 1147 	mov	a,_bp
      00116E 24 FD            [12] 1148 	add	a,#0xfd
      001170 F8               [12] 1149 	mov	r0,a
      001171 E6               [12] 1150 	mov	a,@r0
      001172 C0 E0            [24] 1151 	push	acc
      001174 8F 82            [24] 1152 	mov	dpl,r7
      001176 12 10 EC         [24] 1153 	lcall	_OLED_Set_Pos
      001179 15 81            [12] 1154 	dec	sp
      00117B D0 06            [24] 1155 	pop	ar6
      00117D D0 07            [24] 1156 	pop	ar7
                                   1157 ;	source/CH549_OLED.c:166: for (i = 0; i < 8; i++)
      00117F 7D 00            [12] 1158 	mov	r5,#0x00
      001181                       1159 00109$:
                                   1160 ;	source/CH549_OLED.c:167: OLED_WR_Byte(fontMatrix_8x16[char_index * 16 + i], OLED_DATA); //通过DATA模式写入矩阵数据就是在点亮特定的像素点
      001181 C0 07            [24] 1161 	push	ar7
      001183 8E 03            [24] 1162 	mov	ar3,r6
      001185 E4               [12] 1163 	clr	a
      001186 C4               [12] 1164 	swap	a
      001187 54 F0            [12] 1165 	anl	a,#0xf0
      001189 CB               [12] 1166 	xch	a,r3
      00118A C4               [12] 1167 	swap	a
      00118B CB               [12] 1168 	xch	a,r3
      00118C 6B               [12] 1169 	xrl	a,r3
      00118D CB               [12] 1170 	xch	a,r3
      00118E 54 F0            [12] 1171 	anl	a,#0xf0
      001190 CB               [12] 1172 	xch	a,r3
      001191 6B               [12] 1173 	xrl	a,r3
      001192 FC               [12] 1174 	mov	r4,a
      001193 8D 02            [24] 1175 	mov	ar2,r5
      001195 7F 00            [12] 1176 	mov	r7,#0x00
      001197 EA               [12] 1177 	mov	a,r2
      001198 2B               [12] 1178 	add	a,r3
      001199 FA               [12] 1179 	mov	r2,a
      00119A EF               [12] 1180 	mov	a,r7
      00119B 3C               [12] 1181 	addc	a,r4
      00119C FF               [12] 1182 	mov	r7,a
      00119D EA               [12] 1183 	mov	a,r2
      00119E 24 12            [12] 1184 	add	a,#_fontMatrix_8x16
      0011A0 F5 82            [12] 1185 	mov	dpl,a
      0011A2 EF               [12] 1186 	mov	a,r7
      0011A3 34 37            [12] 1187 	addc	a,#(_fontMatrix_8x16 >> 8)
      0011A5 F5 83            [12] 1188 	mov	dph,a
      0011A7 E4               [12] 1189 	clr	a
      0011A8 93               [24] 1190 	movc	a,@a+dptr
      0011A9 FF               [12] 1191 	mov	r7,a
      0011AA C0 07            [24] 1192 	push	ar7
      0011AC C0 06            [24] 1193 	push	ar6
      0011AE C0 05            [24] 1194 	push	ar5
      0011B0 C0 04            [24] 1195 	push	ar4
      0011B2 C0 03            [24] 1196 	push	ar3
      0011B4 74 01            [12] 1197 	mov	a,#0x01
      0011B6 C0 E0            [24] 1198 	push	acc
      0011B8 8F 82            [24] 1199 	mov	dpl,r7
      0011BA 12 0F E3         [24] 1200 	lcall	_OLED_WR_Byte
      0011BD 15 81            [12] 1201 	dec	sp
      0011BF D0 03            [24] 1202 	pop	ar3
      0011C1 D0 04            [24] 1203 	pop	ar4
      0011C3 D0 05            [24] 1204 	pop	ar5
      0011C5 D0 06            [24] 1205 	pop	ar6
      0011C7 D0 07            [24] 1206 	pop	ar7
                                   1207 ;	source/CH549_OLED.c:166: for (i = 0; i < 8; i++)
      0011C9 0D               [12] 1208 	inc	r5
      0011CA BD 08 00         [24] 1209 	cjne	r5,#0x08,00151$
      0011CD                       1210 00151$:
      0011CD D0 07            [24] 1211 	pop	ar7
      0011CF 40 B0            [24] 1212 	jc	00109$
                                   1213 ;	source/CH549_OLED.c:168: OLED_Set_Pos(col_index, row_index + 1);
      0011D1 E5 16            [12] 1214 	mov	a,_bp
      0011D3 24 FD            [12] 1215 	add	a,#0xfd
      0011D5 F8               [12] 1216 	mov	r0,a
      0011D6 86 05            [24] 1217 	mov	ar5,@r0
      0011D8 0D               [12] 1218 	inc	r5
      0011D9 C0 04            [24] 1219 	push	ar4
      0011DB C0 03            [24] 1220 	push	ar3
      0011DD C0 05            [24] 1221 	push	ar5
      0011DF 8F 82            [24] 1222 	mov	dpl,r7
      0011E1 12 10 EC         [24] 1223 	lcall	_OLED_Set_Pos
      0011E4 15 81            [12] 1224 	dec	sp
      0011E6 D0 03            [24] 1225 	pop	ar3
      0011E8 D0 04            [24] 1226 	pop	ar4
                                   1227 ;	source/CH549_OLED.c:169: for (i = 0; i < 8; i++)
      0011EA 7F 00            [12] 1228 	mov	r7,#0x00
      0011EC                       1229 00111$:
                                   1230 ;	source/CH549_OLED.c:170: OLED_WR_Byte(fontMatrix_8x16[char_index * 16 + i + 8], OLED_DATA);
      0011EC 8F 02            [24] 1231 	mov	ar2,r7
      0011EE 7D 00            [12] 1232 	mov	r5,#0x00
      0011F0 EA               [12] 1233 	mov	a,r2
      0011F1 2B               [12] 1234 	add	a,r3
      0011F2 FA               [12] 1235 	mov	r2,a
      0011F3 ED               [12] 1236 	mov	a,r5
      0011F4 3C               [12] 1237 	addc	a,r4
      0011F5 FD               [12] 1238 	mov	r5,a
      0011F6 74 08            [12] 1239 	mov	a,#0x08
      0011F8 2A               [12] 1240 	add	a,r2
      0011F9 FA               [12] 1241 	mov	r2,a
      0011FA E4               [12] 1242 	clr	a
      0011FB 3D               [12] 1243 	addc	a,r5
      0011FC FD               [12] 1244 	mov	r5,a
      0011FD EA               [12] 1245 	mov	a,r2
      0011FE 24 12            [12] 1246 	add	a,#_fontMatrix_8x16
      001200 F5 82            [12] 1247 	mov	dpl,a
      001202 ED               [12] 1248 	mov	a,r5
      001203 34 37            [12] 1249 	addc	a,#(_fontMatrix_8x16 >> 8)
      001205 F5 83            [12] 1250 	mov	dph,a
      001207 E4               [12] 1251 	clr	a
      001208 93               [24] 1252 	movc	a,@a+dptr
      001209 FD               [12] 1253 	mov	r5,a
      00120A C0 07            [24] 1254 	push	ar7
      00120C C0 04            [24] 1255 	push	ar4
      00120E C0 03            [24] 1256 	push	ar3
      001210 74 01            [12] 1257 	mov	a,#0x01
      001212 C0 E0            [24] 1258 	push	acc
      001214 8D 82            [24] 1259 	mov	dpl,r5
      001216 12 0F E3         [24] 1260 	lcall	_OLED_WR_Byte
      001219 15 81            [12] 1261 	dec	sp
      00121B D0 03            [24] 1262 	pop	ar3
      00121D D0 04            [24] 1263 	pop	ar4
      00121F D0 07            [24] 1264 	pop	ar7
                                   1265 ;	source/CH549_OLED.c:169: for (i = 0; i < 8; i++)
      001221 0F               [12] 1266 	inc	r7
      001222 BF 08 00         [24] 1267 	cjne	r7,#0x08,00153$
      001225                       1268 00153$:
      001225 40 C5            [24] 1269 	jc	00111$
      001227 80 4A            [24] 1270 	sjmp	00115$
      001229                       1271 00107$:
                                   1272 ;	source/CH549_OLED.c:174: OLED_Set_Pos(col_index, row_index);
      001229 C0 06            [24] 1273 	push	ar6
      00122B E5 16            [12] 1274 	mov	a,_bp
      00122D 24 FD            [12] 1275 	add	a,#0xfd
      00122F F8               [12] 1276 	mov	r0,a
      001230 E6               [12] 1277 	mov	a,@r0
      001231 C0 E0            [24] 1278 	push	acc
      001233 8F 82            [24] 1279 	mov	dpl,r7
      001235 12 10 EC         [24] 1280 	lcall	_OLED_Set_Pos
      001238 15 81            [12] 1281 	dec	sp
      00123A D0 06            [24] 1282 	pop	ar6
                                   1283 ;	source/CH549_OLED.c:175: for (i = 0; i < 6; i++)
      00123C EE               [12] 1284 	mov	a,r6
      00123D 75 F0 06         [24] 1285 	mov	b,#0x06
      001240 A4               [48] 1286 	mul	ab
      001241 24 EA            [12] 1287 	add	a,#_fontMatrix_6x8
      001243 FE               [12] 1288 	mov	r6,a
      001244 74 34            [12] 1289 	mov	a,#(_fontMatrix_6x8 >> 8)
      001246 35 F0            [12] 1290 	addc	a,b
      001248 FF               [12] 1291 	mov	r7,a
      001249 7D 00            [12] 1292 	mov	r5,#0x00
      00124B                       1293 00113$:
                                   1294 ;	source/CH549_OLED.c:176: OLED_WR_Byte(fontMatrix_6x8[char_index][i], OLED_DATA);	
      00124B ED               [12] 1295 	mov	a,r5
      00124C 2E               [12] 1296 	add	a,r6
      00124D F5 82            [12] 1297 	mov	dpl,a
      00124F E4               [12] 1298 	clr	a
      001250 3F               [12] 1299 	addc	a,r7
      001251 F5 83            [12] 1300 	mov	dph,a
      001253 E4               [12] 1301 	clr	a
      001254 93               [24] 1302 	movc	a,@a+dptr
      001255 FC               [12] 1303 	mov	r4,a
      001256 C0 07            [24] 1304 	push	ar7
      001258 C0 06            [24] 1305 	push	ar6
      00125A C0 05            [24] 1306 	push	ar5
      00125C 74 01            [12] 1307 	mov	a,#0x01
      00125E C0 E0            [24] 1308 	push	acc
      001260 8C 82            [24] 1309 	mov	dpl,r4
      001262 12 0F E3         [24] 1310 	lcall	_OLED_WR_Byte
      001265 15 81            [12] 1311 	dec	sp
      001267 D0 05            [24] 1312 	pop	ar5
      001269 D0 06            [24] 1313 	pop	ar6
      00126B D0 07            [24] 1314 	pop	ar7
                                   1315 ;	source/CH549_OLED.c:175: for (i = 0; i < 6; i++)
      00126D 0D               [12] 1316 	inc	r5
      00126E BD 06 00         [24] 1317 	cjne	r5,#0x06,00155$
      001271                       1318 00155$:
      001271 40 D8            [24] 1319 	jc	00113$
      001273                       1320 00115$:
                                   1321 ;	source/CH549_OLED.c:178: }
      001273 D0 16            [24] 1322 	pop	_bp
      001275 22               [24] 1323 	ret
                                   1324 ;------------------------------------------------------------
                                   1325 ;Allocation info for local variables in function 'OLED_ShowString'
                                   1326 ;------------------------------------------------------------
                                   1327 ;row_index                 Allocated to stack - _bp -3
                                   1328 ;chr                       Allocated to stack - _bp -6
                                   1329 ;col_index                 Allocated to registers r7 
                                   1330 ;j                         Allocated to registers r6 
                                   1331 ;------------------------------------------------------------
                                   1332 ;	source/CH549_OLED.c:180: void OLED_ShowString(u8 col_index, u8 row_index, u8 *chr)
                                   1333 ;	-----------------------------------------
                                   1334 ;	 function OLED_ShowString
                                   1335 ;	-----------------------------------------
      001276                       1336 _OLED_ShowString:
      001276 C0 16            [24] 1337 	push	_bp
      001278 85 81 16         [24] 1338 	mov	_bp,sp
      00127B AF 82            [24] 1339 	mov	r7,dpl
                                   1340 ;	source/CH549_OLED.c:183: while (chr[j]!='\0')
      00127D 7E 00            [12] 1341 	mov	r6,#0x00
      00127F                       1342 00103$:
      00127F E5 16            [12] 1343 	mov	a,_bp
      001281 24 FA            [12] 1344 	add	a,#0xfa
      001283 F8               [12] 1345 	mov	r0,a
      001284 EE               [12] 1346 	mov	a,r6
      001285 26               [12] 1347 	add	a,@r0
      001286 FB               [12] 1348 	mov	r3,a
      001287 E4               [12] 1349 	clr	a
      001288 08               [12] 1350 	inc	r0
      001289 36               [12] 1351 	addc	a,@r0
      00128A FC               [12] 1352 	mov	r4,a
      00128B 08               [12] 1353 	inc	r0
      00128C 86 05            [24] 1354 	mov	ar5,@r0
      00128E 8B 82            [24] 1355 	mov	dpl,r3
      001290 8C 83            [24] 1356 	mov	dph,r4
      001292 8D F0            [24] 1357 	mov	b,r5
      001294 12 1F A0         [24] 1358 	lcall	__gptrget
      001297 FD               [12] 1359 	mov	r5,a
      001298 60 3A            [24] 1360 	jz	00106$
                                   1361 ;	source/CH549_OLED.c:184: {		OLED_ShowChar(col_index,row_index,chr[j]);
      00129A C0 07            [24] 1362 	push	ar7
      00129C C0 06            [24] 1363 	push	ar6
      00129E C0 05            [24] 1364 	push	ar5
      0012A0 E5 16            [12] 1365 	mov	a,_bp
      0012A2 24 FD            [12] 1366 	add	a,#0xfd
      0012A4 F8               [12] 1367 	mov	r0,a
      0012A5 E6               [12] 1368 	mov	a,@r0
      0012A6 C0 E0            [24] 1369 	push	acc
      0012A8 8F 82            [24] 1370 	mov	dpl,r7
      0012AA 12 11 34         [24] 1371 	lcall	_OLED_ShowChar
      0012AD 15 81            [12] 1372 	dec	sp
      0012AF 15 81            [12] 1373 	dec	sp
      0012B1 D0 06            [24] 1374 	pop	ar6
      0012B3 D0 07            [24] 1375 	pop	ar7
                                   1376 ;	source/CH549_OLED.c:185: col_index+=8;
      0012B5 8F 05            [24] 1377 	mov	ar5,r7
      0012B7 74 08            [12] 1378 	mov	a,#0x08
      0012B9 2D               [12] 1379 	add	a,r5
                                   1380 ;	source/CH549_OLED.c:186: if (col_index>120){col_index=0;row_index+=2;}
      0012BA FF               [12] 1381 	mov  r7,a
      0012BB 24 87            [12] 1382 	add	a,#0xff - 0x78
      0012BD 50 12            [24] 1383 	jnc	00102$
      0012BF 7F 00            [12] 1384 	mov	r7,#0x00
      0012C1 E5 16            [12] 1385 	mov	a,_bp
      0012C3 24 FD            [12] 1386 	add	a,#0xfd
      0012C5 F8               [12] 1387 	mov	r0,a
      0012C6 86 05            [24] 1388 	mov	ar5,@r0
      0012C8 E5 16            [12] 1389 	mov	a,_bp
      0012CA 24 FD            [12] 1390 	add	a,#0xfd
      0012CC F8               [12] 1391 	mov	r0,a
      0012CD 74 02            [12] 1392 	mov	a,#0x02
      0012CF 2D               [12] 1393 	add	a,r5
      0012D0 F6               [12] 1394 	mov	@r0,a
      0012D1                       1395 00102$:
                                   1396 ;	source/CH549_OLED.c:187: j++;
      0012D1 0E               [12] 1397 	inc	r6
      0012D2 80 AB            [24] 1398 	sjmp	00103$
      0012D4                       1399 00106$:
                                   1400 ;	source/CH549_OLED.c:189: }
      0012D4 D0 16            [24] 1401 	pop	_bp
      0012D6 22               [24] 1402 	ret
                                   1403 ;------------------------------------------------------------
                                   1404 ;Allocation info for local variables in function 'OLED_DrawBMP'
                                   1405 ;------------------------------------------------------------
                                   1406 ;y0                        Allocated to stack - _bp -3
                                   1407 ;x1                        Allocated to stack - _bp -4
                                   1408 ;y1                        Allocated to stack - _bp -5
                                   1409 ;BMP                       Allocated to stack - _bp -8
                                   1410 ;x0                        Allocated to registers r2 
                                   1411 ;j                         Allocated to registers r5 r6 
                                   1412 ;x                         Allocated to registers r6 
                                   1413 ;y                         Allocated to registers 
                                   1414 ;sloc0                     Allocated to stack - _bp +1
                                   1415 ;------------------------------------------------------------
                                   1416 ;	source/CH549_OLED.c:195: void OLED_DrawBMP(unsigned char x0, unsigned char y0,unsigned char x1, unsigned char y1,unsigned char BMP[])
                                   1417 ;	-----------------------------------------
                                   1418 ;	 function OLED_DrawBMP
                                   1419 ;	-----------------------------------------
      0012D7                       1420 _OLED_DrawBMP:
      0012D7 C0 16            [24] 1421 	push	_bp
      0012D9 85 81 16         [24] 1422 	mov	_bp,sp
      0012DC 05 81            [12] 1423 	inc	sp
      0012DE 05 81            [12] 1424 	inc	sp
      0012E0 AA 82            [24] 1425 	mov	r2,dpl
                                   1426 ;	source/CH549_OLED.c:198: unsigned int j = 0;
                                   1427 ;	source/CH549_OLED.c:201: for(y = y0; y <= y1; y++)	//这里的y和x是对二维数组行和列的两次for循环，遍历整个二维数组，并把每一位数据传给OLED
      0012E2 E4               [12] 1428 	clr	a
      0012E3 FD               [12] 1429 	mov	r5,a
      0012E4 FE               [12] 1430 	mov	r6,a
      0012E5 E5 16            [12] 1431 	mov	a,_bp
      0012E7 24 FD            [12] 1432 	add	a,#0xfd
      0012E9 F8               [12] 1433 	mov	r0,a
      0012EA 86 04            [24] 1434 	mov	ar4,@r0
      0012EC                       1435 00107$:
      0012EC E5 16            [12] 1436 	mov	a,_bp
      0012EE 24 FB            [12] 1437 	add	a,#0xfb
      0012F0 F8               [12] 1438 	mov	r0,a
      0012F1 C3               [12] 1439 	clr	c
      0012F2 E6               [12] 1440 	mov	a,@r0
      0012F3 9C               [12] 1441 	subb	a,r4
      0012F4 50 03            [24] 1442 	jnc	00129$
      0012F6 02 13 76         [24] 1443 	ljmp	00109$
      0012F9                       1444 00129$:
                                   1445 ;	source/CH549_OLED.c:204: OLED_Set_Pos(x0,y);
      0012F9 C0 06            [24] 1446 	push	ar6
      0012FB C0 05            [24] 1447 	push	ar5
      0012FD C0 04            [24] 1448 	push	ar4
      0012FF C0 02            [24] 1449 	push	ar2
      001301 C0 04            [24] 1450 	push	ar4
      001303 8A 82            [24] 1451 	mov	dpl,r2
      001305 12 10 EC         [24] 1452 	lcall	_OLED_Set_Pos
      001308 15 81            [12] 1453 	dec	sp
      00130A D0 02            [24] 1454 	pop	ar2
      00130C D0 04            [24] 1455 	pop	ar4
      00130E D0 05            [24] 1456 	pop	ar5
      001310 D0 06            [24] 1457 	pop	ar6
                                   1458 ;	source/CH549_OLED.c:205: for(x = x0; x <= x1; x++)
      001312 A8 16            [24] 1459 	mov	r0,_bp
      001314 08               [12] 1460 	inc	r0
      001315 A6 05            [24] 1461 	mov	@r0,ar5
      001317 08               [12] 1462 	inc	r0
      001318 A6 06            [24] 1463 	mov	@r0,ar6
      00131A 8A 06            [24] 1464 	mov	ar6,r2
      00131C                       1465 00104$:
      00131C E5 16            [12] 1466 	mov	a,_bp
      00131E 24 FC            [12] 1467 	add	a,#0xfc
      001320 F8               [12] 1468 	mov	r0,a
      001321 C3               [12] 1469 	clr	c
      001322 E6               [12] 1470 	mov	a,@r0
      001323 9E               [12] 1471 	subb	a,r6
      001324 40 44            [24] 1472 	jc	00115$
                                   1473 ;	source/CH549_OLED.c:207: OLED_WR_Byte(BMP[j++],OLED_DATA);	    	//向OLED输入BMP中 的一位数据，并逐次递增
      001326 C0 04            [24] 1474 	push	ar4
      001328 E5 16            [12] 1475 	mov	a,_bp
      00132A 24 F8            [12] 1476 	add	a,#0xf8
      00132C F8               [12] 1477 	mov	r0,a
      00132D A9 16            [24] 1478 	mov	r1,_bp
      00132F 09               [12] 1479 	inc	r1
      001330 E7               [12] 1480 	mov	a,@r1
      001331 26               [12] 1481 	add	a,@r0
      001332 FB               [12] 1482 	mov	r3,a
      001333 09               [12] 1483 	inc	r1
      001334 E7               [12] 1484 	mov	a,@r1
      001335 08               [12] 1485 	inc	r0
      001336 36               [12] 1486 	addc	a,@r0
      001337 FC               [12] 1487 	mov	r4,a
      001338 08               [12] 1488 	inc	r0
      001339 86 07            [24] 1489 	mov	ar7,@r0
      00133B A8 16            [24] 1490 	mov	r0,_bp
      00133D 08               [12] 1491 	inc	r0
      00133E 06               [12] 1492 	inc	@r0
      00133F B6 00 02         [24] 1493 	cjne	@r0,#0x00,00131$
      001342 08               [12] 1494 	inc	r0
      001343 06               [12] 1495 	inc	@r0
      001344                       1496 00131$:
      001344 8B 82            [24] 1497 	mov	dpl,r3
      001346 8C 83            [24] 1498 	mov	dph,r4
      001348 8F F0            [24] 1499 	mov	b,r7
      00134A 12 1F A0         [24] 1500 	lcall	__gptrget
      00134D FB               [12] 1501 	mov	r3,a
      00134E C0 06            [24] 1502 	push	ar6
      001350 C0 04            [24] 1503 	push	ar4
      001352 C0 02            [24] 1504 	push	ar2
      001354 74 01            [12] 1505 	mov	a,#0x01
      001356 C0 E0            [24] 1506 	push	acc
      001358 8B 82            [24] 1507 	mov	dpl,r3
      00135A 12 0F E3         [24] 1508 	lcall	_OLED_WR_Byte
      00135D 15 81            [12] 1509 	dec	sp
      00135F D0 02            [24] 1510 	pop	ar2
      001361 D0 04            [24] 1511 	pop	ar4
      001363 D0 06            [24] 1512 	pop	ar6
                                   1513 ;	source/CH549_OLED.c:205: for(x = x0; x <= x1; x++)
      001365 0E               [12] 1514 	inc	r6
      001366 D0 04            [24] 1515 	pop	ar4
      001368 80 B2            [24] 1516 	sjmp	00104$
      00136A                       1517 00115$:
      00136A A8 16            [24] 1518 	mov	r0,_bp
      00136C 08               [12] 1519 	inc	r0
      00136D 86 05            [24] 1520 	mov	ar5,@r0
      00136F 08               [12] 1521 	inc	r0
      001370 86 06            [24] 1522 	mov	ar6,@r0
                                   1523 ;	source/CH549_OLED.c:201: for(y = y0; y <= y1; y++)	//这里的y和x是对二维数组行和列的两次for循环，遍历整个二维数组，并把每一位数据传给OLED
      001372 0C               [12] 1524 	inc	r4
      001373 02 12 EC         [24] 1525 	ljmp	00107$
      001376                       1526 00109$:
                                   1527 ;	source/CH549_OLED.c:210: } 
      001376 85 16 81         [24] 1528 	mov	sp,_bp
      001379 D0 16            [24] 1529 	pop	_bp
      00137B 22               [24] 1530 	ret
                                   1531 	.area CSEG    (CODE)
                                   1532 	.area CONST   (CODE)
      0034EA                       1533 _fontMatrix_6x8:
      0034EA 00                    1534 	.db #0x00	; 0
      0034EB 00                    1535 	.db #0x00	; 0
      0034EC 00                    1536 	.db #0x00	; 0
      0034ED 00                    1537 	.db #0x00	; 0
      0034EE 00                    1538 	.db #0x00	; 0
      0034EF 00                    1539 	.db #0x00	; 0
      0034F0 00                    1540 	.db #0x00	; 0
      0034F1 00                    1541 	.db #0x00	; 0
      0034F2 2F                    1542 	.db #0x2f	; 47
      0034F3 00                    1543 	.db #0x00	; 0
      0034F4 00                    1544 	.db #0x00	; 0
      0034F5 00                    1545 	.db #0x00	; 0
      0034F6 00                    1546 	.db #0x00	; 0
      0034F7 00                    1547 	.db #0x00	; 0
      0034F8 07                    1548 	.db #0x07	; 7
      0034F9 00                    1549 	.db #0x00	; 0
      0034FA 07                    1550 	.db #0x07	; 7
      0034FB 00                    1551 	.db #0x00	; 0
      0034FC 00                    1552 	.db #0x00	; 0
      0034FD 14                    1553 	.db #0x14	; 20
      0034FE 7F                    1554 	.db #0x7f	; 127
      0034FF 14                    1555 	.db #0x14	; 20
      003500 7F                    1556 	.db #0x7f	; 127
      003501 14                    1557 	.db #0x14	; 20
      003502 00                    1558 	.db #0x00	; 0
      003503 24                    1559 	.db #0x24	; 36
      003504 2A                    1560 	.db #0x2a	; 42
      003505 7F                    1561 	.db #0x7f	; 127
      003506 2A                    1562 	.db #0x2a	; 42
      003507 12                    1563 	.db #0x12	; 18
      003508 00                    1564 	.db #0x00	; 0
      003509 62                    1565 	.db #0x62	; 98	'b'
      00350A 64                    1566 	.db #0x64	; 100	'd'
      00350B 08                    1567 	.db #0x08	; 8
      00350C 13                    1568 	.db #0x13	; 19
      00350D 23                    1569 	.db #0x23	; 35
      00350E 00                    1570 	.db #0x00	; 0
      00350F 36                    1571 	.db #0x36	; 54	'6'
      003510 49                    1572 	.db #0x49	; 73	'I'
      003511 55                    1573 	.db #0x55	; 85	'U'
      003512 22                    1574 	.db #0x22	; 34
      003513 50                    1575 	.db #0x50	; 80	'P'
      003514 00                    1576 	.db #0x00	; 0
      003515 00                    1577 	.db #0x00	; 0
      003516 05                    1578 	.db #0x05	; 5
      003517 03                    1579 	.db #0x03	; 3
      003518 00                    1580 	.db #0x00	; 0
      003519 00                    1581 	.db #0x00	; 0
      00351A 00                    1582 	.db #0x00	; 0
      00351B 00                    1583 	.db #0x00	; 0
      00351C 1C                    1584 	.db #0x1c	; 28
      00351D 22                    1585 	.db #0x22	; 34
      00351E 41                    1586 	.db #0x41	; 65	'A'
      00351F 00                    1587 	.db #0x00	; 0
      003520 00                    1588 	.db #0x00	; 0
      003521 00                    1589 	.db #0x00	; 0
      003522 41                    1590 	.db #0x41	; 65	'A'
      003523 22                    1591 	.db #0x22	; 34
      003524 1C                    1592 	.db #0x1c	; 28
      003525 00                    1593 	.db #0x00	; 0
      003526 00                    1594 	.db #0x00	; 0
      003527 14                    1595 	.db #0x14	; 20
      003528 08                    1596 	.db #0x08	; 8
      003529 3E                    1597 	.db #0x3e	; 62
      00352A 08                    1598 	.db #0x08	; 8
      00352B 14                    1599 	.db #0x14	; 20
      00352C 00                    1600 	.db #0x00	; 0
      00352D 08                    1601 	.db #0x08	; 8
      00352E 08                    1602 	.db #0x08	; 8
      00352F 3E                    1603 	.db #0x3e	; 62
      003530 08                    1604 	.db #0x08	; 8
      003531 08                    1605 	.db #0x08	; 8
      003532 00                    1606 	.db #0x00	; 0
      003533 00                    1607 	.db #0x00	; 0
      003534 00                    1608 	.db #0x00	; 0
      003535 A0                    1609 	.db #0xa0	; 160
      003536 60                    1610 	.db #0x60	; 96
      003537 00                    1611 	.db #0x00	; 0
      003538 00                    1612 	.db #0x00	; 0
      003539 08                    1613 	.db #0x08	; 8
      00353A 08                    1614 	.db #0x08	; 8
      00353B 08                    1615 	.db #0x08	; 8
      00353C 08                    1616 	.db #0x08	; 8
      00353D 08                    1617 	.db #0x08	; 8
      00353E 00                    1618 	.db #0x00	; 0
      00353F 00                    1619 	.db #0x00	; 0
      003540 60                    1620 	.db #0x60	; 96
      003541 60                    1621 	.db #0x60	; 96
      003542 00                    1622 	.db #0x00	; 0
      003543 00                    1623 	.db #0x00	; 0
      003544 00                    1624 	.db #0x00	; 0
      003545 20                    1625 	.db #0x20	; 32
      003546 10                    1626 	.db #0x10	; 16
      003547 08                    1627 	.db #0x08	; 8
      003548 04                    1628 	.db #0x04	; 4
      003549 02                    1629 	.db #0x02	; 2
      00354A 00                    1630 	.db #0x00	; 0
      00354B 3E                    1631 	.db #0x3e	; 62
      00354C 51                    1632 	.db #0x51	; 81	'Q'
      00354D 49                    1633 	.db #0x49	; 73	'I'
      00354E 45                    1634 	.db #0x45	; 69	'E'
      00354F 3E                    1635 	.db #0x3e	; 62
      003550 00                    1636 	.db #0x00	; 0
      003551 00                    1637 	.db #0x00	; 0
      003552 42                    1638 	.db #0x42	; 66	'B'
      003553 7F                    1639 	.db #0x7f	; 127
      003554 40                    1640 	.db #0x40	; 64
      003555 00                    1641 	.db #0x00	; 0
      003556 00                    1642 	.db #0x00	; 0
      003557 42                    1643 	.db #0x42	; 66	'B'
      003558 61                    1644 	.db #0x61	; 97	'a'
      003559 51                    1645 	.db #0x51	; 81	'Q'
      00355A 49                    1646 	.db #0x49	; 73	'I'
      00355B 46                    1647 	.db #0x46	; 70	'F'
      00355C 00                    1648 	.db #0x00	; 0
      00355D 21                    1649 	.db #0x21	; 33
      00355E 41                    1650 	.db #0x41	; 65	'A'
      00355F 45                    1651 	.db #0x45	; 69	'E'
      003560 4B                    1652 	.db #0x4b	; 75	'K'
      003561 31                    1653 	.db #0x31	; 49	'1'
      003562 00                    1654 	.db #0x00	; 0
      003563 18                    1655 	.db #0x18	; 24
      003564 14                    1656 	.db #0x14	; 20
      003565 12                    1657 	.db #0x12	; 18
      003566 7F                    1658 	.db #0x7f	; 127
      003567 10                    1659 	.db #0x10	; 16
      003568 00                    1660 	.db #0x00	; 0
      003569 27                    1661 	.db #0x27	; 39
      00356A 45                    1662 	.db #0x45	; 69	'E'
      00356B 45                    1663 	.db #0x45	; 69	'E'
      00356C 45                    1664 	.db #0x45	; 69	'E'
      00356D 39                    1665 	.db #0x39	; 57	'9'
      00356E 00                    1666 	.db #0x00	; 0
      00356F 3C                    1667 	.db #0x3c	; 60
      003570 4A                    1668 	.db #0x4a	; 74	'J'
      003571 49                    1669 	.db #0x49	; 73	'I'
      003572 49                    1670 	.db #0x49	; 73	'I'
      003573 30                    1671 	.db #0x30	; 48	'0'
      003574 00                    1672 	.db #0x00	; 0
      003575 01                    1673 	.db #0x01	; 1
      003576 71                    1674 	.db #0x71	; 113	'q'
      003577 09                    1675 	.db #0x09	; 9
      003578 05                    1676 	.db #0x05	; 5
      003579 03                    1677 	.db #0x03	; 3
      00357A 00                    1678 	.db #0x00	; 0
      00357B 36                    1679 	.db #0x36	; 54	'6'
      00357C 49                    1680 	.db #0x49	; 73	'I'
      00357D 49                    1681 	.db #0x49	; 73	'I'
      00357E 49                    1682 	.db #0x49	; 73	'I'
      00357F 36                    1683 	.db #0x36	; 54	'6'
      003580 00                    1684 	.db #0x00	; 0
      003581 06                    1685 	.db #0x06	; 6
      003582 49                    1686 	.db #0x49	; 73	'I'
      003583 49                    1687 	.db #0x49	; 73	'I'
      003584 29                    1688 	.db #0x29	; 41
      003585 1E                    1689 	.db #0x1e	; 30
      003586 00                    1690 	.db #0x00	; 0
      003587 00                    1691 	.db #0x00	; 0
      003588 36                    1692 	.db #0x36	; 54	'6'
      003589 36                    1693 	.db #0x36	; 54	'6'
      00358A 00                    1694 	.db #0x00	; 0
      00358B 00                    1695 	.db #0x00	; 0
      00358C 00                    1696 	.db #0x00	; 0
      00358D 00                    1697 	.db #0x00	; 0
      00358E 56                    1698 	.db #0x56	; 86	'V'
      00358F 36                    1699 	.db #0x36	; 54	'6'
      003590 00                    1700 	.db #0x00	; 0
      003591 00                    1701 	.db #0x00	; 0
      003592 00                    1702 	.db #0x00	; 0
      003593 08                    1703 	.db #0x08	; 8
      003594 14                    1704 	.db #0x14	; 20
      003595 22                    1705 	.db #0x22	; 34
      003596 41                    1706 	.db #0x41	; 65	'A'
      003597 00                    1707 	.db #0x00	; 0
      003598 00                    1708 	.db #0x00	; 0
      003599 14                    1709 	.db #0x14	; 20
      00359A 14                    1710 	.db #0x14	; 20
      00359B 14                    1711 	.db #0x14	; 20
      00359C 14                    1712 	.db #0x14	; 20
      00359D 14                    1713 	.db #0x14	; 20
      00359E 00                    1714 	.db #0x00	; 0
      00359F 00                    1715 	.db #0x00	; 0
      0035A0 41                    1716 	.db #0x41	; 65	'A'
      0035A1 22                    1717 	.db #0x22	; 34
      0035A2 14                    1718 	.db #0x14	; 20
      0035A3 08                    1719 	.db #0x08	; 8
      0035A4 00                    1720 	.db #0x00	; 0
      0035A5 02                    1721 	.db #0x02	; 2
      0035A6 01                    1722 	.db #0x01	; 1
      0035A7 51                    1723 	.db #0x51	; 81	'Q'
      0035A8 09                    1724 	.db #0x09	; 9
      0035A9 06                    1725 	.db #0x06	; 6
      0035AA 00                    1726 	.db #0x00	; 0
      0035AB 32                    1727 	.db #0x32	; 50	'2'
      0035AC 49                    1728 	.db #0x49	; 73	'I'
      0035AD 59                    1729 	.db #0x59	; 89	'Y'
      0035AE 51                    1730 	.db #0x51	; 81	'Q'
      0035AF 3E                    1731 	.db #0x3e	; 62
      0035B0 00                    1732 	.db #0x00	; 0
      0035B1 7C                    1733 	.db #0x7c	; 124
      0035B2 12                    1734 	.db #0x12	; 18
      0035B3 11                    1735 	.db #0x11	; 17
      0035B4 12                    1736 	.db #0x12	; 18
      0035B5 7C                    1737 	.db #0x7c	; 124
      0035B6 00                    1738 	.db #0x00	; 0
      0035B7 7F                    1739 	.db #0x7f	; 127
      0035B8 49                    1740 	.db #0x49	; 73	'I'
      0035B9 49                    1741 	.db #0x49	; 73	'I'
      0035BA 49                    1742 	.db #0x49	; 73	'I'
      0035BB 36                    1743 	.db #0x36	; 54	'6'
      0035BC 00                    1744 	.db #0x00	; 0
      0035BD 3E                    1745 	.db #0x3e	; 62
      0035BE 41                    1746 	.db #0x41	; 65	'A'
      0035BF 41                    1747 	.db #0x41	; 65	'A'
      0035C0 41                    1748 	.db #0x41	; 65	'A'
      0035C1 22                    1749 	.db #0x22	; 34
      0035C2 00                    1750 	.db #0x00	; 0
      0035C3 7F                    1751 	.db #0x7f	; 127
      0035C4 41                    1752 	.db #0x41	; 65	'A'
      0035C5 41                    1753 	.db #0x41	; 65	'A'
      0035C6 22                    1754 	.db #0x22	; 34
      0035C7 1C                    1755 	.db #0x1c	; 28
      0035C8 00                    1756 	.db #0x00	; 0
      0035C9 7F                    1757 	.db #0x7f	; 127
      0035CA 49                    1758 	.db #0x49	; 73	'I'
      0035CB 49                    1759 	.db #0x49	; 73	'I'
      0035CC 49                    1760 	.db #0x49	; 73	'I'
      0035CD 41                    1761 	.db #0x41	; 65	'A'
      0035CE 00                    1762 	.db #0x00	; 0
      0035CF 7F                    1763 	.db #0x7f	; 127
      0035D0 09                    1764 	.db #0x09	; 9
      0035D1 09                    1765 	.db #0x09	; 9
      0035D2 09                    1766 	.db #0x09	; 9
      0035D3 01                    1767 	.db #0x01	; 1
      0035D4 00                    1768 	.db #0x00	; 0
      0035D5 3E                    1769 	.db #0x3e	; 62
      0035D6 41                    1770 	.db #0x41	; 65	'A'
      0035D7 49                    1771 	.db #0x49	; 73	'I'
      0035D8 49                    1772 	.db #0x49	; 73	'I'
      0035D9 7A                    1773 	.db #0x7a	; 122	'z'
      0035DA 00                    1774 	.db #0x00	; 0
      0035DB 7F                    1775 	.db #0x7f	; 127
      0035DC 08                    1776 	.db #0x08	; 8
      0035DD 08                    1777 	.db #0x08	; 8
      0035DE 08                    1778 	.db #0x08	; 8
      0035DF 7F                    1779 	.db #0x7f	; 127
      0035E0 00                    1780 	.db #0x00	; 0
      0035E1 00                    1781 	.db #0x00	; 0
      0035E2 41                    1782 	.db #0x41	; 65	'A'
      0035E3 7F                    1783 	.db #0x7f	; 127
      0035E4 41                    1784 	.db #0x41	; 65	'A'
      0035E5 00                    1785 	.db #0x00	; 0
      0035E6 00                    1786 	.db #0x00	; 0
      0035E7 20                    1787 	.db #0x20	; 32
      0035E8 40                    1788 	.db #0x40	; 64
      0035E9 41                    1789 	.db #0x41	; 65	'A'
      0035EA 3F                    1790 	.db #0x3f	; 63
      0035EB 01                    1791 	.db #0x01	; 1
      0035EC 00                    1792 	.db #0x00	; 0
      0035ED 7F                    1793 	.db #0x7f	; 127
      0035EE 08                    1794 	.db #0x08	; 8
      0035EF 14                    1795 	.db #0x14	; 20
      0035F0 22                    1796 	.db #0x22	; 34
      0035F1 41                    1797 	.db #0x41	; 65	'A'
      0035F2 00                    1798 	.db #0x00	; 0
      0035F3 7F                    1799 	.db #0x7f	; 127
      0035F4 40                    1800 	.db #0x40	; 64
      0035F5 40                    1801 	.db #0x40	; 64
      0035F6 40                    1802 	.db #0x40	; 64
      0035F7 40                    1803 	.db #0x40	; 64
      0035F8 00                    1804 	.db #0x00	; 0
      0035F9 7F                    1805 	.db #0x7f	; 127
      0035FA 02                    1806 	.db #0x02	; 2
      0035FB 0C                    1807 	.db #0x0c	; 12
      0035FC 02                    1808 	.db #0x02	; 2
      0035FD 7F                    1809 	.db #0x7f	; 127
      0035FE 00                    1810 	.db #0x00	; 0
      0035FF 7F                    1811 	.db #0x7f	; 127
      003600 04                    1812 	.db #0x04	; 4
      003601 08                    1813 	.db #0x08	; 8
      003602 10                    1814 	.db #0x10	; 16
      003603 7F                    1815 	.db #0x7f	; 127
      003604 00                    1816 	.db #0x00	; 0
      003605 3E                    1817 	.db #0x3e	; 62
      003606 41                    1818 	.db #0x41	; 65	'A'
      003607 41                    1819 	.db #0x41	; 65	'A'
      003608 41                    1820 	.db #0x41	; 65	'A'
      003609 3E                    1821 	.db #0x3e	; 62
      00360A 00                    1822 	.db #0x00	; 0
      00360B 7F                    1823 	.db #0x7f	; 127
      00360C 09                    1824 	.db #0x09	; 9
      00360D 09                    1825 	.db #0x09	; 9
      00360E 09                    1826 	.db #0x09	; 9
      00360F 06                    1827 	.db #0x06	; 6
      003610 00                    1828 	.db #0x00	; 0
      003611 3E                    1829 	.db #0x3e	; 62
      003612 41                    1830 	.db #0x41	; 65	'A'
      003613 51                    1831 	.db #0x51	; 81	'Q'
      003614 21                    1832 	.db #0x21	; 33
      003615 5E                    1833 	.db #0x5e	; 94
      003616 00                    1834 	.db #0x00	; 0
      003617 7F                    1835 	.db #0x7f	; 127
      003618 09                    1836 	.db #0x09	; 9
      003619 19                    1837 	.db #0x19	; 25
      00361A 29                    1838 	.db #0x29	; 41
      00361B 46                    1839 	.db #0x46	; 70	'F'
      00361C 00                    1840 	.db #0x00	; 0
      00361D 46                    1841 	.db #0x46	; 70	'F'
      00361E 49                    1842 	.db #0x49	; 73	'I'
      00361F 49                    1843 	.db #0x49	; 73	'I'
      003620 49                    1844 	.db #0x49	; 73	'I'
      003621 31                    1845 	.db #0x31	; 49	'1'
      003622 00                    1846 	.db #0x00	; 0
      003623 01                    1847 	.db #0x01	; 1
      003624 01                    1848 	.db #0x01	; 1
      003625 7F                    1849 	.db #0x7f	; 127
      003626 01                    1850 	.db #0x01	; 1
      003627 01                    1851 	.db #0x01	; 1
      003628 00                    1852 	.db #0x00	; 0
      003629 3F                    1853 	.db #0x3f	; 63
      00362A 40                    1854 	.db #0x40	; 64
      00362B 40                    1855 	.db #0x40	; 64
      00362C 40                    1856 	.db #0x40	; 64
      00362D 3F                    1857 	.db #0x3f	; 63
      00362E 00                    1858 	.db #0x00	; 0
      00362F 1F                    1859 	.db #0x1f	; 31
      003630 20                    1860 	.db #0x20	; 32
      003631 40                    1861 	.db #0x40	; 64
      003632 20                    1862 	.db #0x20	; 32
      003633 1F                    1863 	.db #0x1f	; 31
      003634 00                    1864 	.db #0x00	; 0
      003635 3F                    1865 	.db #0x3f	; 63
      003636 40                    1866 	.db #0x40	; 64
      003637 38                    1867 	.db #0x38	; 56	'8'
      003638 40                    1868 	.db #0x40	; 64
      003639 3F                    1869 	.db #0x3f	; 63
      00363A 00                    1870 	.db #0x00	; 0
      00363B 63                    1871 	.db #0x63	; 99	'c'
      00363C 14                    1872 	.db #0x14	; 20
      00363D 08                    1873 	.db #0x08	; 8
      00363E 14                    1874 	.db #0x14	; 20
      00363F 63                    1875 	.db #0x63	; 99	'c'
      003640 00                    1876 	.db #0x00	; 0
      003641 07                    1877 	.db #0x07	; 7
      003642 08                    1878 	.db #0x08	; 8
      003643 70                    1879 	.db #0x70	; 112	'p'
      003644 08                    1880 	.db #0x08	; 8
      003645 07                    1881 	.db #0x07	; 7
      003646 00                    1882 	.db #0x00	; 0
      003647 61                    1883 	.db #0x61	; 97	'a'
      003648 51                    1884 	.db #0x51	; 81	'Q'
      003649 49                    1885 	.db #0x49	; 73	'I'
      00364A 45                    1886 	.db #0x45	; 69	'E'
      00364B 43                    1887 	.db #0x43	; 67	'C'
      00364C 00                    1888 	.db #0x00	; 0
      00364D 00                    1889 	.db #0x00	; 0
      00364E 7F                    1890 	.db #0x7f	; 127
      00364F 41                    1891 	.db #0x41	; 65	'A'
      003650 41                    1892 	.db #0x41	; 65	'A'
      003651 00                    1893 	.db #0x00	; 0
      003652 00                    1894 	.db #0x00	; 0
      003653 55                    1895 	.db #0x55	; 85	'U'
      003654 2A                    1896 	.db #0x2a	; 42
      003655 55                    1897 	.db #0x55	; 85	'U'
      003656 2A                    1898 	.db #0x2a	; 42
      003657 55                    1899 	.db #0x55	; 85	'U'
      003658 00                    1900 	.db #0x00	; 0
      003659 00                    1901 	.db #0x00	; 0
      00365A 41                    1902 	.db #0x41	; 65	'A'
      00365B 41                    1903 	.db #0x41	; 65	'A'
      00365C 7F                    1904 	.db #0x7f	; 127
      00365D 00                    1905 	.db #0x00	; 0
      00365E 00                    1906 	.db #0x00	; 0
      00365F 04                    1907 	.db #0x04	; 4
      003660 02                    1908 	.db #0x02	; 2
      003661 01                    1909 	.db #0x01	; 1
      003662 02                    1910 	.db #0x02	; 2
      003663 04                    1911 	.db #0x04	; 4
      003664 00                    1912 	.db #0x00	; 0
      003665 40                    1913 	.db #0x40	; 64
      003666 40                    1914 	.db #0x40	; 64
      003667 40                    1915 	.db #0x40	; 64
      003668 40                    1916 	.db #0x40	; 64
      003669 40                    1917 	.db #0x40	; 64
      00366A 00                    1918 	.db #0x00	; 0
      00366B 00                    1919 	.db #0x00	; 0
      00366C 01                    1920 	.db #0x01	; 1
      00366D 02                    1921 	.db #0x02	; 2
      00366E 04                    1922 	.db #0x04	; 4
      00366F 00                    1923 	.db #0x00	; 0
      003670 00                    1924 	.db #0x00	; 0
      003671 20                    1925 	.db #0x20	; 32
      003672 54                    1926 	.db #0x54	; 84	'T'
      003673 54                    1927 	.db #0x54	; 84	'T'
      003674 54                    1928 	.db #0x54	; 84	'T'
      003675 78                    1929 	.db #0x78	; 120	'x'
      003676 00                    1930 	.db #0x00	; 0
      003677 7F                    1931 	.db #0x7f	; 127
      003678 48                    1932 	.db #0x48	; 72	'H'
      003679 44                    1933 	.db #0x44	; 68	'D'
      00367A 44                    1934 	.db #0x44	; 68	'D'
      00367B 38                    1935 	.db #0x38	; 56	'8'
      00367C 00                    1936 	.db #0x00	; 0
      00367D 38                    1937 	.db #0x38	; 56	'8'
      00367E 44                    1938 	.db #0x44	; 68	'D'
      00367F 44                    1939 	.db #0x44	; 68	'D'
      003680 44                    1940 	.db #0x44	; 68	'D'
      003681 20                    1941 	.db #0x20	; 32
      003682 00                    1942 	.db #0x00	; 0
      003683 38                    1943 	.db #0x38	; 56	'8'
      003684 44                    1944 	.db #0x44	; 68	'D'
      003685 44                    1945 	.db #0x44	; 68	'D'
      003686 48                    1946 	.db #0x48	; 72	'H'
      003687 7F                    1947 	.db #0x7f	; 127
      003688 00                    1948 	.db #0x00	; 0
      003689 38                    1949 	.db #0x38	; 56	'8'
      00368A 54                    1950 	.db #0x54	; 84	'T'
      00368B 54                    1951 	.db #0x54	; 84	'T'
      00368C 54                    1952 	.db #0x54	; 84	'T'
      00368D 18                    1953 	.db #0x18	; 24
      00368E 00                    1954 	.db #0x00	; 0
      00368F 08                    1955 	.db #0x08	; 8
      003690 7E                    1956 	.db #0x7e	; 126
      003691 09                    1957 	.db #0x09	; 9
      003692 01                    1958 	.db #0x01	; 1
      003693 02                    1959 	.db #0x02	; 2
      003694 00                    1960 	.db #0x00	; 0
      003695 18                    1961 	.db #0x18	; 24
      003696 A4                    1962 	.db #0xa4	; 164
      003697 A4                    1963 	.db #0xa4	; 164
      003698 A4                    1964 	.db #0xa4	; 164
      003699 7C                    1965 	.db #0x7c	; 124
      00369A 00                    1966 	.db #0x00	; 0
      00369B 7F                    1967 	.db #0x7f	; 127
      00369C 08                    1968 	.db #0x08	; 8
      00369D 04                    1969 	.db #0x04	; 4
      00369E 04                    1970 	.db #0x04	; 4
      00369F 78                    1971 	.db #0x78	; 120	'x'
      0036A0 00                    1972 	.db #0x00	; 0
      0036A1 00                    1973 	.db #0x00	; 0
      0036A2 44                    1974 	.db #0x44	; 68	'D'
      0036A3 7D                    1975 	.db #0x7d	; 125
      0036A4 40                    1976 	.db #0x40	; 64
      0036A5 00                    1977 	.db #0x00	; 0
      0036A6 00                    1978 	.db #0x00	; 0
      0036A7 40                    1979 	.db #0x40	; 64
      0036A8 80                    1980 	.db #0x80	; 128
      0036A9 84                    1981 	.db #0x84	; 132
      0036AA 7D                    1982 	.db #0x7d	; 125
      0036AB 00                    1983 	.db #0x00	; 0
      0036AC 00                    1984 	.db #0x00	; 0
      0036AD 7F                    1985 	.db #0x7f	; 127
      0036AE 10                    1986 	.db #0x10	; 16
      0036AF 28                    1987 	.db #0x28	; 40
      0036B0 44                    1988 	.db #0x44	; 68	'D'
      0036B1 00                    1989 	.db #0x00	; 0
      0036B2 00                    1990 	.db #0x00	; 0
      0036B3 00                    1991 	.db #0x00	; 0
      0036B4 41                    1992 	.db #0x41	; 65	'A'
      0036B5 7F                    1993 	.db #0x7f	; 127
      0036B6 40                    1994 	.db #0x40	; 64
      0036B7 00                    1995 	.db #0x00	; 0
      0036B8 00                    1996 	.db #0x00	; 0
      0036B9 7C                    1997 	.db #0x7c	; 124
      0036BA 04                    1998 	.db #0x04	; 4
      0036BB 18                    1999 	.db #0x18	; 24
      0036BC 04                    2000 	.db #0x04	; 4
      0036BD 78                    2001 	.db #0x78	; 120	'x'
      0036BE 00                    2002 	.db #0x00	; 0
      0036BF 7C                    2003 	.db #0x7c	; 124
      0036C0 08                    2004 	.db #0x08	; 8
      0036C1 04                    2005 	.db #0x04	; 4
      0036C2 04                    2006 	.db #0x04	; 4
      0036C3 78                    2007 	.db #0x78	; 120	'x'
      0036C4 00                    2008 	.db #0x00	; 0
      0036C5 38                    2009 	.db #0x38	; 56	'8'
      0036C6 44                    2010 	.db #0x44	; 68	'D'
      0036C7 44                    2011 	.db #0x44	; 68	'D'
      0036C8 44                    2012 	.db #0x44	; 68	'D'
      0036C9 38                    2013 	.db #0x38	; 56	'8'
      0036CA 00                    2014 	.db #0x00	; 0
      0036CB FC                    2015 	.db #0xfc	; 252
      0036CC 24                    2016 	.db #0x24	; 36
      0036CD 24                    2017 	.db #0x24	; 36
      0036CE 24                    2018 	.db #0x24	; 36
      0036CF 18                    2019 	.db #0x18	; 24
      0036D0 00                    2020 	.db #0x00	; 0
      0036D1 18                    2021 	.db #0x18	; 24
      0036D2 24                    2022 	.db #0x24	; 36
      0036D3 24                    2023 	.db #0x24	; 36
      0036D4 18                    2024 	.db #0x18	; 24
      0036D5 FC                    2025 	.db #0xfc	; 252
      0036D6 00                    2026 	.db #0x00	; 0
      0036D7 7C                    2027 	.db #0x7c	; 124
      0036D8 08                    2028 	.db #0x08	; 8
      0036D9 04                    2029 	.db #0x04	; 4
      0036DA 04                    2030 	.db #0x04	; 4
      0036DB 08                    2031 	.db #0x08	; 8
      0036DC 00                    2032 	.db #0x00	; 0
      0036DD 48                    2033 	.db #0x48	; 72	'H'
      0036DE 54                    2034 	.db #0x54	; 84	'T'
      0036DF 54                    2035 	.db #0x54	; 84	'T'
      0036E0 54                    2036 	.db #0x54	; 84	'T'
      0036E1 20                    2037 	.db #0x20	; 32
      0036E2 00                    2038 	.db #0x00	; 0
      0036E3 04                    2039 	.db #0x04	; 4
      0036E4 3F                    2040 	.db #0x3f	; 63
      0036E5 44                    2041 	.db #0x44	; 68	'D'
      0036E6 40                    2042 	.db #0x40	; 64
      0036E7 20                    2043 	.db #0x20	; 32
      0036E8 00                    2044 	.db #0x00	; 0
      0036E9 3C                    2045 	.db #0x3c	; 60
      0036EA 40                    2046 	.db #0x40	; 64
      0036EB 40                    2047 	.db #0x40	; 64
      0036EC 20                    2048 	.db #0x20	; 32
      0036ED 7C                    2049 	.db #0x7c	; 124
      0036EE 00                    2050 	.db #0x00	; 0
      0036EF 1C                    2051 	.db #0x1c	; 28
      0036F0 20                    2052 	.db #0x20	; 32
      0036F1 40                    2053 	.db #0x40	; 64
      0036F2 20                    2054 	.db #0x20	; 32
      0036F3 1C                    2055 	.db #0x1c	; 28
      0036F4 00                    2056 	.db #0x00	; 0
      0036F5 3C                    2057 	.db #0x3c	; 60
      0036F6 40                    2058 	.db #0x40	; 64
      0036F7 30                    2059 	.db #0x30	; 48	'0'
      0036F8 40                    2060 	.db #0x40	; 64
      0036F9 3C                    2061 	.db #0x3c	; 60
      0036FA 00                    2062 	.db #0x00	; 0
      0036FB 44                    2063 	.db #0x44	; 68	'D'
      0036FC 28                    2064 	.db #0x28	; 40
      0036FD 10                    2065 	.db #0x10	; 16
      0036FE 28                    2066 	.db #0x28	; 40
      0036FF 44                    2067 	.db #0x44	; 68	'D'
      003700 00                    2068 	.db #0x00	; 0
      003701 1C                    2069 	.db #0x1c	; 28
      003702 A0                    2070 	.db #0xa0	; 160
      003703 A0                    2071 	.db #0xa0	; 160
      003704 A0                    2072 	.db #0xa0	; 160
      003705 7C                    2073 	.db #0x7c	; 124
      003706 00                    2074 	.db #0x00	; 0
      003707 44                    2075 	.db #0x44	; 68	'D'
      003708 64                    2076 	.db #0x64	; 100	'd'
      003709 54                    2077 	.db #0x54	; 84	'T'
      00370A 4C                    2078 	.db #0x4c	; 76	'L'
      00370B 44                    2079 	.db #0x44	; 68	'D'
      00370C 14                    2080 	.db #0x14	; 20
      00370D 14                    2081 	.db #0x14	; 20
      00370E 14                    2082 	.db #0x14	; 20
      00370F 14                    2083 	.db #0x14	; 20
      003710 14                    2084 	.db #0x14	; 20
      003711 14                    2085 	.db #0x14	; 20
      003712                       2086 _fontMatrix_8x16:
      003712 00                    2087 	.db #0x00	; 0
      003713 00                    2088 	.db #0x00	; 0
      003714 00                    2089 	.db #0x00	; 0
      003715 00                    2090 	.db #0x00	; 0
      003716 00                    2091 	.db #0x00	; 0
      003717 00                    2092 	.db #0x00	; 0
      003718 00                    2093 	.db #0x00	; 0
      003719 00                    2094 	.db #0x00	; 0
      00371A 00                    2095 	.db #0x00	; 0
      00371B 00                    2096 	.db #0x00	; 0
      00371C 00                    2097 	.db #0x00	; 0
      00371D 00                    2098 	.db #0x00	; 0
      00371E 00                    2099 	.db #0x00	; 0
      00371F 00                    2100 	.db #0x00	; 0
      003720 00                    2101 	.db #0x00	; 0
      003721 00                    2102 	.db #0x00	; 0
      003722 00                    2103 	.db #0x00	; 0
      003723 00                    2104 	.db #0x00	; 0
      003724 00                    2105 	.db #0x00	; 0
      003725 F8                    2106 	.db #0xf8	; 248
      003726 00                    2107 	.db #0x00	; 0
      003727 00                    2108 	.db #0x00	; 0
      003728 00                    2109 	.db #0x00	; 0
      003729 00                    2110 	.db #0x00	; 0
      00372A 00                    2111 	.db #0x00	; 0
      00372B 00                    2112 	.db #0x00	; 0
      00372C 00                    2113 	.db #0x00	; 0
      00372D 30                    2114 	.db #0x30	; 48	'0'
      00372E 00                    2115 	.db #0x00	; 0
      00372F 00                    2116 	.db #0x00	; 0
      003730 00                    2117 	.db #0x00	; 0
      003731 00                    2118 	.db #0x00	; 0
      003732 00                    2119 	.db #0x00	; 0
      003733 10                    2120 	.db #0x10	; 16
      003734 0C                    2121 	.db #0x0c	; 12
      003735 06                    2122 	.db #0x06	; 6
      003736 10                    2123 	.db #0x10	; 16
      003737 0C                    2124 	.db #0x0c	; 12
      003738 06                    2125 	.db #0x06	; 6
      003739 00                    2126 	.db #0x00	; 0
      00373A 00                    2127 	.db #0x00	; 0
      00373B 00                    2128 	.db #0x00	; 0
      00373C 00                    2129 	.db #0x00	; 0
      00373D 00                    2130 	.db #0x00	; 0
      00373E 00                    2131 	.db #0x00	; 0
      00373F 00                    2132 	.db #0x00	; 0
      003740 00                    2133 	.db #0x00	; 0
      003741 00                    2134 	.db #0x00	; 0
      003742 40                    2135 	.db #0x40	; 64
      003743 C0                    2136 	.db #0xc0	; 192
      003744 78                    2137 	.db #0x78	; 120	'x'
      003745 40                    2138 	.db #0x40	; 64
      003746 C0                    2139 	.db #0xc0	; 192
      003747 78                    2140 	.db #0x78	; 120	'x'
      003748 40                    2141 	.db #0x40	; 64
      003749 00                    2142 	.db #0x00	; 0
      00374A 04                    2143 	.db #0x04	; 4
      00374B 3F                    2144 	.db #0x3f	; 63
      00374C 04                    2145 	.db #0x04	; 4
      00374D 04                    2146 	.db #0x04	; 4
      00374E 3F                    2147 	.db #0x3f	; 63
      00374F 04                    2148 	.db #0x04	; 4
      003750 04                    2149 	.db #0x04	; 4
      003751 00                    2150 	.db #0x00	; 0
      003752 00                    2151 	.db #0x00	; 0
      003753 70                    2152 	.db #0x70	; 112	'p'
      003754 88                    2153 	.db #0x88	; 136
      003755 FC                    2154 	.db #0xfc	; 252
      003756 08                    2155 	.db #0x08	; 8
      003757 30                    2156 	.db #0x30	; 48	'0'
      003758 00                    2157 	.db #0x00	; 0
      003759 00                    2158 	.db #0x00	; 0
      00375A 00                    2159 	.db #0x00	; 0
      00375B 18                    2160 	.db #0x18	; 24
      00375C 20                    2161 	.db #0x20	; 32
      00375D FF                    2162 	.db #0xff	; 255
      00375E 21                    2163 	.db #0x21	; 33
      00375F 1E                    2164 	.db #0x1e	; 30
      003760 00                    2165 	.db #0x00	; 0
      003761 00                    2166 	.db #0x00	; 0
      003762 F0                    2167 	.db #0xf0	; 240
      003763 08                    2168 	.db #0x08	; 8
      003764 F0                    2169 	.db #0xf0	; 240
      003765 00                    2170 	.db #0x00	; 0
      003766 E0                    2171 	.db #0xe0	; 224
      003767 18                    2172 	.db #0x18	; 24
      003768 00                    2173 	.db #0x00	; 0
      003769 00                    2174 	.db #0x00	; 0
      00376A 00                    2175 	.db #0x00	; 0
      00376B 21                    2176 	.db #0x21	; 33
      00376C 1C                    2177 	.db #0x1c	; 28
      00376D 03                    2178 	.db #0x03	; 3
      00376E 1E                    2179 	.db #0x1e	; 30
      00376F 21                    2180 	.db #0x21	; 33
      003770 1E                    2181 	.db #0x1e	; 30
      003771 00                    2182 	.db #0x00	; 0
      003772 00                    2183 	.db #0x00	; 0
      003773 F0                    2184 	.db #0xf0	; 240
      003774 08                    2185 	.db #0x08	; 8
      003775 88                    2186 	.db #0x88	; 136
      003776 70                    2187 	.db #0x70	; 112	'p'
      003777 00                    2188 	.db #0x00	; 0
      003778 00                    2189 	.db #0x00	; 0
      003779 00                    2190 	.db #0x00	; 0
      00377A 1E                    2191 	.db #0x1e	; 30
      00377B 21                    2192 	.db #0x21	; 33
      00377C 23                    2193 	.db #0x23	; 35
      00377D 24                    2194 	.db #0x24	; 36
      00377E 19                    2195 	.db #0x19	; 25
      00377F 27                    2196 	.db #0x27	; 39
      003780 21                    2197 	.db #0x21	; 33
      003781 10                    2198 	.db #0x10	; 16
      003782 10                    2199 	.db #0x10	; 16
      003783 16                    2200 	.db #0x16	; 22
      003784 0E                    2201 	.db #0x0e	; 14
      003785 00                    2202 	.db #0x00	; 0
      003786 00                    2203 	.db #0x00	; 0
      003787 00                    2204 	.db #0x00	; 0
      003788 00                    2205 	.db #0x00	; 0
      003789 00                    2206 	.db #0x00	; 0
      00378A 00                    2207 	.db #0x00	; 0
      00378B 00                    2208 	.db #0x00	; 0
      00378C 00                    2209 	.db #0x00	; 0
      00378D 00                    2210 	.db #0x00	; 0
      00378E 00                    2211 	.db #0x00	; 0
      00378F 00                    2212 	.db #0x00	; 0
      003790 00                    2213 	.db #0x00	; 0
      003791 00                    2214 	.db #0x00	; 0
      003792 00                    2215 	.db #0x00	; 0
      003793 00                    2216 	.db #0x00	; 0
      003794 00                    2217 	.db #0x00	; 0
      003795 E0                    2218 	.db #0xe0	; 224
      003796 18                    2219 	.db #0x18	; 24
      003797 04                    2220 	.db #0x04	; 4
      003798 02                    2221 	.db #0x02	; 2
      003799 00                    2222 	.db #0x00	; 0
      00379A 00                    2223 	.db #0x00	; 0
      00379B 00                    2224 	.db #0x00	; 0
      00379C 00                    2225 	.db #0x00	; 0
      00379D 07                    2226 	.db #0x07	; 7
      00379E 18                    2227 	.db #0x18	; 24
      00379F 20                    2228 	.db #0x20	; 32
      0037A0 40                    2229 	.db #0x40	; 64
      0037A1 00                    2230 	.db #0x00	; 0
      0037A2 00                    2231 	.db #0x00	; 0
      0037A3 02                    2232 	.db #0x02	; 2
      0037A4 04                    2233 	.db #0x04	; 4
      0037A5 18                    2234 	.db #0x18	; 24
      0037A6 E0                    2235 	.db #0xe0	; 224
      0037A7 00                    2236 	.db #0x00	; 0
      0037A8 00                    2237 	.db #0x00	; 0
      0037A9 00                    2238 	.db #0x00	; 0
      0037AA 00                    2239 	.db #0x00	; 0
      0037AB 40                    2240 	.db #0x40	; 64
      0037AC 20                    2241 	.db #0x20	; 32
      0037AD 18                    2242 	.db #0x18	; 24
      0037AE 07                    2243 	.db #0x07	; 7
      0037AF 00                    2244 	.db #0x00	; 0
      0037B0 00                    2245 	.db #0x00	; 0
      0037B1 00                    2246 	.db #0x00	; 0
      0037B2 40                    2247 	.db #0x40	; 64
      0037B3 40                    2248 	.db #0x40	; 64
      0037B4 80                    2249 	.db #0x80	; 128
      0037B5 F0                    2250 	.db #0xf0	; 240
      0037B6 80                    2251 	.db #0x80	; 128
      0037B7 40                    2252 	.db #0x40	; 64
      0037B8 40                    2253 	.db #0x40	; 64
      0037B9 00                    2254 	.db #0x00	; 0
      0037BA 02                    2255 	.db #0x02	; 2
      0037BB 02                    2256 	.db #0x02	; 2
      0037BC 01                    2257 	.db #0x01	; 1
      0037BD 0F                    2258 	.db #0x0f	; 15
      0037BE 01                    2259 	.db #0x01	; 1
      0037BF 02                    2260 	.db #0x02	; 2
      0037C0 02                    2261 	.db #0x02	; 2
      0037C1 00                    2262 	.db #0x00	; 0
      0037C2 00                    2263 	.db #0x00	; 0
      0037C3 00                    2264 	.db #0x00	; 0
      0037C4 00                    2265 	.db #0x00	; 0
      0037C5 F0                    2266 	.db #0xf0	; 240
      0037C6 00                    2267 	.db #0x00	; 0
      0037C7 00                    2268 	.db #0x00	; 0
      0037C8 00                    2269 	.db #0x00	; 0
      0037C9 00                    2270 	.db #0x00	; 0
      0037CA 01                    2271 	.db #0x01	; 1
      0037CB 01                    2272 	.db #0x01	; 1
      0037CC 01                    2273 	.db #0x01	; 1
      0037CD 1F                    2274 	.db #0x1f	; 31
      0037CE 01                    2275 	.db #0x01	; 1
      0037CF 01                    2276 	.db #0x01	; 1
      0037D0 01                    2277 	.db #0x01	; 1
      0037D1 00                    2278 	.db #0x00	; 0
      0037D2 00                    2279 	.db #0x00	; 0
      0037D3 00                    2280 	.db #0x00	; 0
      0037D4 00                    2281 	.db #0x00	; 0
      0037D5 00                    2282 	.db #0x00	; 0
      0037D6 00                    2283 	.db #0x00	; 0
      0037D7 00                    2284 	.db #0x00	; 0
      0037D8 00                    2285 	.db #0x00	; 0
      0037D9 00                    2286 	.db #0x00	; 0
      0037DA 80                    2287 	.db #0x80	; 128
      0037DB B0                    2288 	.db #0xb0	; 176
      0037DC 70                    2289 	.db #0x70	; 112	'p'
      0037DD 00                    2290 	.db #0x00	; 0
      0037DE 00                    2291 	.db #0x00	; 0
      0037DF 00                    2292 	.db #0x00	; 0
      0037E0 00                    2293 	.db #0x00	; 0
      0037E1 00                    2294 	.db #0x00	; 0
      0037E2 00                    2295 	.db #0x00	; 0
      0037E3 00                    2296 	.db #0x00	; 0
      0037E4 00                    2297 	.db #0x00	; 0
      0037E5 00                    2298 	.db #0x00	; 0
      0037E6 00                    2299 	.db #0x00	; 0
      0037E7 00                    2300 	.db #0x00	; 0
      0037E8 00                    2301 	.db #0x00	; 0
      0037E9 00                    2302 	.db #0x00	; 0
      0037EA 00                    2303 	.db #0x00	; 0
      0037EB 01                    2304 	.db #0x01	; 1
      0037EC 01                    2305 	.db #0x01	; 1
      0037ED 01                    2306 	.db #0x01	; 1
      0037EE 01                    2307 	.db #0x01	; 1
      0037EF 01                    2308 	.db #0x01	; 1
      0037F0 01                    2309 	.db #0x01	; 1
      0037F1 01                    2310 	.db #0x01	; 1
      0037F2 00                    2311 	.db #0x00	; 0
      0037F3 00                    2312 	.db #0x00	; 0
      0037F4 00                    2313 	.db #0x00	; 0
      0037F5 00                    2314 	.db #0x00	; 0
      0037F6 00                    2315 	.db #0x00	; 0
      0037F7 00                    2316 	.db #0x00	; 0
      0037F8 00                    2317 	.db #0x00	; 0
      0037F9 00                    2318 	.db #0x00	; 0
      0037FA 00                    2319 	.db #0x00	; 0
      0037FB 30                    2320 	.db #0x30	; 48	'0'
      0037FC 30                    2321 	.db #0x30	; 48	'0'
      0037FD 00                    2322 	.db #0x00	; 0
      0037FE 00                    2323 	.db #0x00	; 0
      0037FF 00                    2324 	.db #0x00	; 0
      003800 00                    2325 	.db #0x00	; 0
      003801 00                    2326 	.db #0x00	; 0
      003802 00                    2327 	.db #0x00	; 0
      003803 00                    2328 	.db #0x00	; 0
      003804 00                    2329 	.db #0x00	; 0
      003805 00                    2330 	.db #0x00	; 0
      003806 80                    2331 	.db #0x80	; 128
      003807 60                    2332 	.db #0x60	; 96
      003808 18                    2333 	.db #0x18	; 24
      003809 04                    2334 	.db #0x04	; 4
      00380A 00                    2335 	.db #0x00	; 0
      00380B 60                    2336 	.db #0x60	; 96
      00380C 18                    2337 	.db #0x18	; 24
      00380D 06                    2338 	.db #0x06	; 6
      00380E 01                    2339 	.db #0x01	; 1
      00380F 00                    2340 	.db #0x00	; 0
      003810 00                    2341 	.db #0x00	; 0
      003811 00                    2342 	.db #0x00	; 0
      003812 00                    2343 	.db #0x00	; 0
      003813 E0                    2344 	.db #0xe0	; 224
      003814 10                    2345 	.db #0x10	; 16
      003815 08                    2346 	.db #0x08	; 8
      003816 08                    2347 	.db #0x08	; 8
      003817 10                    2348 	.db #0x10	; 16
      003818 E0                    2349 	.db #0xe0	; 224
      003819 00                    2350 	.db #0x00	; 0
      00381A 00                    2351 	.db #0x00	; 0
      00381B 0F                    2352 	.db #0x0f	; 15
      00381C 10                    2353 	.db #0x10	; 16
      00381D 20                    2354 	.db #0x20	; 32
      00381E 20                    2355 	.db #0x20	; 32
      00381F 10                    2356 	.db #0x10	; 16
      003820 0F                    2357 	.db #0x0f	; 15
      003821 00                    2358 	.db #0x00	; 0
      003822 00                    2359 	.db #0x00	; 0
      003823 10                    2360 	.db #0x10	; 16
      003824 10                    2361 	.db #0x10	; 16
      003825 F8                    2362 	.db #0xf8	; 248
      003826 00                    2363 	.db #0x00	; 0
      003827 00                    2364 	.db #0x00	; 0
      003828 00                    2365 	.db #0x00	; 0
      003829 00                    2366 	.db #0x00	; 0
      00382A 00                    2367 	.db #0x00	; 0
      00382B 20                    2368 	.db #0x20	; 32
      00382C 20                    2369 	.db #0x20	; 32
      00382D 3F                    2370 	.db #0x3f	; 63
      00382E 20                    2371 	.db #0x20	; 32
      00382F 20                    2372 	.db #0x20	; 32
      003830 00                    2373 	.db #0x00	; 0
      003831 00                    2374 	.db #0x00	; 0
      003832 00                    2375 	.db #0x00	; 0
      003833 70                    2376 	.db #0x70	; 112	'p'
      003834 08                    2377 	.db #0x08	; 8
      003835 08                    2378 	.db #0x08	; 8
      003836 08                    2379 	.db #0x08	; 8
      003837 88                    2380 	.db #0x88	; 136
      003838 70                    2381 	.db #0x70	; 112	'p'
      003839 00                    2382 	.db #0x00	; 0
      00383A 00                    2383 	.db #0x00	; 0
      00383B 30                    2384 	.db #0x30	; 48	'0'
      00383C 28                    2385 	.db #0x28	; 40
      00383D 24                    2386 	.db #0x24	; 36
      00383E 22                    2387 	.db #0x22	; 34
      00383F 21                    2388 	.db #0x21	; 33
      003840 30                    2389 	.db #0x30	; 48	'0'
      003841 00                    2390 	.db #0x00	; 0
      003842 00                    2391 	.db #0x00	; 0
      003843 30                    2392 	.db #0x30	; 48	'0'
      003844 08                    2393 	.db #0x08	; 8
      003845 88                    2394 	.db #0x88	; 136
      003846 88                    2395 	.db #0x88	; 136
      003847 48                    2396 	.db #0x48	; 72	'H'
      003848 30                    2397 	.db #0x30	; 48	'0'
      003849 00                    2398 	.db #0x00	; 0
      00384A 00                    2399 	.db #0x00	; 0
      00384B 18                    2400 	.db #0x18	; 24
      00384C 20                    2401 	.db #0x20	; 32
      00384D 20                    2402 	.db #0x20	; 32
      00384E 20                    2403 	.db #0x20	; 32
      00384F 11                    2404 	.db #0x11	; 17
      003850 0E                    2405 	.db #0x0e	; 14
      003851 00                    2406 	.db #0x00	; 0
      003852 00                    2407 	.db #0x00	; 0
      003853 00                    2408 	.db #0x00	; 0
      003854 C0                    2409 	.db #0xc0	; 192
      003855 20                    2410 	.db #0x20	; 32
      003856 10                    2411 	.db #0x10	; 16
      003857 F8                    2412 	.db #0xf8	; 248
      003858 00                    2413 	.db #0x00	; 0
      003859 00                    2414 	.db #0x00	; 0
      00385A 00                    2415 	.db #0x00	; 0
      00385B 07                    2416 	.db #0x07	; 7
      00385C 04                    2417 	.db #0x04	; 4
      00385D 24                    2418 	.db #0x24	; 36
      00385E 24                    2419 	.db #0x24	; 36
      00385F 3F                    2420 	.db #0x3f	; 63
      003860 24                    2421 	.db #0x24	; 36
      003861 00                    2422 	.db #0x00	; 0
      003862 00                    2423 	.db #0x00	; 0
      003863 F8                    2424 	.db #0xf8	; 248
      003864 08                    2425 	.db #0x08	; 8
      003865 88                    2426 	.db #0x88	; 136
      003866 88                    2427 	.db #0x88	; 136
      003867 08                    2428 	.db #0x08	; 8
      003868 08                    2429 	.db #0x08	; 8
      003869 00                    2430 	.db #0x00	; 0
      00386A 00                    2431 	.db #0x00	; 0
      00386B 19                    2432 	.db #0x19	; 25
      00386C 21                    2433 	.db #0x21	; 33
      00386D 20                    2434 	.db #0x20	; 32
      00386E 20                    2435 	.db #0x20	; 32
      00386F 11                    2436 	.db #0x11	; 17
      003870 0E                    2437 	.db #0x0e	; 14
      003871 00                    2438 	.db #0x00	; 0
      003872 00                    2439 	.db #0x00	; 0
      003873 E0                    2440 	.db #0xe0	; 224
      003874 10                    2441 	.db #0x10	; 16
      003875 88                    2442 	.db #0x88	; 136
      003876 88                    2443 	.db #0x88	; 136
      003877 18                    2444 	.db #0x18	; 24
      003878 00                    2445 	.db #0x00	; 0
      003879 00                    2446 	.db #0x00	; 0
      00387A 00                    2447 	.db #0x00	; 0
      00387B 0F                    2448 	.db #0x0f	; 15
      00387C 11                    2449 	.db #0x11	; 17
      00387D 20                    2450 	.db #0x20	; 32
      00387E 20                    2451 	.db #0x20	; 32
      00387F 11                    2452 	.db #0x11	; 17
      003880 0E                    2453 	.db #0x0e	; 14
      003881 00                    2454 	.db #0x00	; 0
      003882 00                    2455 	.db #0x00	; 0
      003883 38                    2456 	.db #0x38	; 56	'8'
      003884 08                    2457 	.db #0x08	; 8
      003885 08                    2458 	.db #0x08	; 8
      003886 C8                    2459 	.db #0xc8	; 200
      003887 38                    2460 	.db #0x38	; 56	'8'
      003888 08                    2461 	.db #0x08	; 8
      003889 00                    2462 	.db #0x00	; 0
      00388A 00                    2463 	.db #0x00	; 0
      00388B 00                    2464 	.db #0x00	; 0
      00388C 00                    2465 	.db #0x00	; 0
      00388D 3F                    2466 	.db #0x3f	; 63
      00388E 00                    2467 	.db #0x00	; 0
      00388F 00                    2468 	.db #0x00	; 0
      003890 00                    2469 	.db #0x00	; 0
      003891 00                    2470 	.db #0x00	; 0
      003892 00                    2471 	.db #0x00	; 0
      003893 70                    2472 	.db #0x70	; 112	'p'
      003894 88                    2473 	.db #0x88	; 136
      003895 08                    2474 	.db #0x08	; 8
      003896 08                    2475 	.db #0x08	; 8
      003897 88                    2476 	.db #0x88	; 136
      003898 70                    2477 	.db #0x70	; 112	'p'
      003899 00                    2478 	.db #0x00	; 0
      00389A 00                    2479 	.db #0x00	; 0
      00389B 1C                    2480 	.db #0x1c	; 28
      00389C 22                    2481 	.db #0x22	; 34
      00389D 21                    2482 	.db #0x21	; 33
      00389E 21                    2483 	.db #0x21	; 33
      00389F 22                    2484 	.db #0x22	; 34
      0038A0 1C                    2485 	.db #0x1c	; 28
      0038A1 00                    2486 	.db #0x00	; 0
      0038A2 00                    2487 	.db #0x00	; 0
      0038A3 E0                    2488 	.db #0xe0	; 224
      0038A4 10                    2489 	.db #0x10	; 16
      0038A5 08                    2490 	.db #0x08	; 8
      0038A6 08                    2491 	.db #0x08	; 8
      0038A7 10                    2492 	.db #0x10	; 16
      0038A8 E0                    2493 	.db #0xe0	; 224
      0038A9 00                    2494 	.db #0x00	; 0
      0038AA 00                    2495 	.db #0x00	; 0
      0038AB 00                    2496 	.db #0x00	; 0
      0038AC 31                    2497 	.db #0x31	; 49	'1'
      0038AD 22                    2498 	.db #0x22	; 34
      0038AE 22                    2499 	.db #0x22	; 34
      0038AF 11                    2500 	.db #0x11	; 17
      0038B0 0F                    2501 	.db #0x0f	; 15
      0038B1 00                    2502 	.db #0x00	; 0
      0038B2 00                    2503 	.db #0x00	; 0
      0038B3 00                    2504 	.db #0x00	; 0
      0038B4 00                    2505 	.db #0x00	; 0
      0038B5 C0                    2506 	.db #0xc0	; 192
      0038B6 C0                    2507 	.db #0xc0	; 192
      0038B7 00                    2508 	.db #0x00	; 0
      0038B8 00                    2509 	.db #0x00	; 0
      0038B9 00                    2510 	.db #0x00	; 0
      0038BA 00                    2511 	.db #0x00	; 0
      0038BB 00                    2512 	.db #0x00	; 0
      0038BC 00                    2513 	.db #0x00	; 0
      0038BD 30                    2514 	.db #0x30	; 48	'0'
      0038BE 30                    2515 	.db #0x30	; 48	'0'
      0038BF 00                    2516 	.db #0x00	; 0
      0038C0 00                    2517 	.db #0x00	; 0
      0038C1 00                    2518 	.db #0x00	; 0
      0038C2 00                    2519 	.db #0x00	; 0
      0038C3 00                    2520 	.db #0x00	; 0
      0038C4 00                    2521 	.db #0x00	; 0
      0038C5 80                    2522 	.db #0x80	; 128
      0038C6 00                    2523 	.db #0x00	; 0
      0038C7 00                    2524 	.db #0x00	; 0
      0038C8 00                    2525 	.db #0x00	; 0
      0038C9 00                    2526 	.db #0x00	; 0
      0038CA 00                    2527 	.db #0x00	; 0
      0038CB 00                    2528 	.db #0x00	; 0
      0038CC 80                    2529 	.db #0x80	; 128
      0038CD 60                    2530 	.db #0x60	; 96
      0038CE 00                    2531 	.db #0x00	; 0
      0038CF 00                    2532 	.db #0x00	; 0
      0038D0 00                    2533 	.db #0x00	; 0
      0038D1 00                    2534 	.db #0x00	; 0
      0038D2 00                    2535 	.db #0x00	; 0
      0038D3 00                    2536 	.db #0x00	; 0
      0038D4 80                    2537 	.db #0x80	; 128
      0038D5 40                    2538 	.db #0x40	; 64
      0038D6 20                    2539 	.db #0x20	; 32
      0038D7 10                    2540 	.db #0x10	; 16
      0038D8 08                    2541 	.db #0x08	; 8
      0038D9 00                    2542 	.db #0x00	; 0
      0038DA 00                    2543 	.db #0x00	; 0
      0038DB 01                    2544 	.db #0x01	; 1
      0038DC 02                    2545 	.db #0x02	; 2
      0038DD 04                    2546 	.db #0x04	; 4
      0038DE 08                    2547 	.db #0x08	; 8
      0038DF 10                    2548 	.db #0x10	; 16
      0038E0 20                    2549 	.db #0x20	; 32
      0038E1 00                    2550 	.db #0x00	; 0
      0038E2 40                    2551 	.db #0x40	; 64
      0038E3 40                    2552 	.db #0x40	; 64
      0038E4 40                    2553 	.db #0x40	; 64
      0038E5 40                    2554 	.db #0x40	; 64
      0038E6 40                    2555 	.db #0x40	; 64
      0038E7 40                    2556 	.db #0x40	; 64
      0038E8 40                    2557 	.db #0x40	; 64
      0038E9 00                    2558 	.db #0x00	; 0
      0038EA 04                    2559 	.db #0x04	; 4
      0038EB 04                    2560 	.db #0x04	; 4
      0038EC 04                    2561 	.db #0x04	; 4
      0038ED 04                    2562 	.db #0x04	; 4
      0038EE 04                    2563 	.db #0x04	; 4
      0038EF 04                    2564 	.db #0x04	; 4
      0038F0 04                    2565 	.db #0x04	; 4
      0038F1 00                    2566 	.db #0x00	; 0
      0038F2 00                    2567 	.db #0x00	; 0
      0038F3 08                    2568 	.db #0x08	; 8
      0038F4 10                    2569 	.db #0x10	; 16
      0038F5 20                    2570 	.db #0x20	; 32
      0038F6 40                    2571 	.db #0x40	; 64
      0038F7 80                    2572 	.db #0x80	; 128
      0038F8 00                    2573 	.db #0x00	; 0
      0038F9 00                    2574 	.db #0x00	; 0
      0038FA 00                    2575 	.db #0x00	; 0
      0038FB 20                    2576 	.db #0x20	; 32
      0038FC 10                    2577 	.db #0x10	; 16
      0038FD 08                    2578 	.db #0x08	; 8
      0038FE 04                    2579 	.db #0x04	; 4
      0038FF 02                    2580 	.db #0x02	; 2
      003900 01                    2581 	.db #0x01	; 1
      003901 00                    2582 	.db #0x00	; 0
      003902 00                    2583 	.db #0x00	; 0
      003903 70                    2584 	.db #0x70	; 112	'p'
      003904 48                    2585 	.db #0x48	; 72	'H'
      003905 08                    2586 	.db #0x08	; 8
      003906 08                    2587 	.db #0x08	; 8
      003907 08                    2588 	.db #0x08	; 8
      003908 F0                    2589 	.db #0xf0	; 240
      003909 00                    2590 	.db #0x00	; 0
      00390A 00                    2591 	.db #0x00	; 0
      00390B 00                    2592 	.db #0x00	; 0
      00390C 00                    2593 	.db #0x00	; 0
      00390D 30                    2594 	.db #0x30	; 48	'0'
      00390E 36                    2595 	.db #0x36	; 54	'6'
      00390F 01                    2596 	.db #0x01	; 1
      003910 00                    2597 	.db #0x00	; 0
      003911 00                    2598 	.db #0x00	; 0
      003912 C0                    2599 	.db #0xc0	; 192
      003913 30                    2600 	.db #0x30	; 48	'0'
      003914 C8                    2601 	.db #0xc8	; 200
      003915 28                    2602 	.db #0x28	; 40
      003916 E8                    2603 	.db #0xe8	; 232
      003917 10                    2604 	.db #0x10	; 16
      003918 E0                    2605 	.db #0xe0	; 224
      003919 00                    2606 	.db #0x00	; 0
      00391A 07                    2607 	.db #0x07	; 7
      00391B 18                    2608 	.db #0x18	; 24
      00391C 27                    2609 	.db #0x27	; 39
      00391D 24                    2610 	.db #0x24	; 36
      00391E 23                    2611 	.db #0x23	; 35
      00391F 14                    2612 	.db #0x14	; 20
      003920 0B                    2613 	.db #0x0b	; 11
      003921 00                    2614 	.db #0x00	; 0
      003922 00                    2615 	.db #0x00	; 0
      003923 00                    2616 	.db #0x00	; 0
      003924 C0                    2617 	.db #0xc0	; 192
      003925 38                    2618 	.db #0x38	; 56	'8'
      003926 E0                    2619 	.db #0xe0	; 224
      003927 00                    2620 	.db #0x00	; 0
      003928 00                    2621 	.db #0x00	; 0
      003929 00                    2622 	.db #0x00	; 0
      00392A 20                    2623 	.db #0x20	; 32
      00392B 3C                    2624 	.db #0x3c	; 60
      00392C 23                    2625 	.db #0x23	; 35
      00392D 02                    2626 	.db #0x02	; 2
      00392E 02                    2627 	.db #0x02	; 2
      00392F 27                    2628 	.db #0x27	; 39
      003930 38                    2629 	.db #0x38	; 56	'8'
      003931 20                    2630 	.db #0x20	; 32
      003932 08                    2631 	.db #0x08	; 8
      003933 F8                    2632 	.db #0xf8	; 248
      003934 88                    2633 	.db #0x88	; 136
      003935 88                    2634 	.db #0x88	; 136
      003936 88                    2635 	.db #0x88	; 136
      003937 70                    2636 	.db #0x70	; 112	'p'
      003938 00                    2637 	.db #0x00	; 0
      003939 00                    2638 	.db #0x00	; 0
      00393A 20                    2639 	.db #0x20	; 32
      00393B 3F                    2640 	.db #0x3f	; 63
      00393C 20                    2641 	.db #0x20	; 32
      00393D 20                    2642 	.db #0x20	; 32
      00393E 20                    2643 	.db #0x20	; 32
      00393F 11                    2644 	.db #0x11	; 17
      003940 0E                    2645 	.db #0x0e	; 14
      003941 00                    2646 	.db #0x00	; 0
      003942 C0                    2647 	.db #0xc0	; 192
      003943 30                    2648 	.db #0x30	; 48	'0'
      003944 08                    2649 	.db #0x08	; 8
      003945 08                    2650 	.db #0x08	; 8
      003946 08                    2651 	.db #0x08	; 8
      003947 08                    2652 	.db #0x08	; 8
      003948 38                    2653 	.db #0x38	; 56	'8'
      003949 00                    2654 	.db #0x00	; 0
      00394A 07                    2655 	.db #0x07	; 7
      00394B 18                    2656 	.db #0x18	; 24
      00394C 20                    2657 	.db #0x20	; 32
      00394D 20                    2658 	.db #0x20	; 32
      00394E 20                    2659 	.db #0x20	; 32
      00394F 10                    2660 	.db #0x10	; 16
      003950 08                    2661 	.db #0x08	; 8
      003951 00                    2662 	.db #0x00	; 0
      003952 08                    2663 	.db #0x08	; 8
      003953 F8                    2664 	.db #0xf8	; 248
      003954 08                    2665 	.db #0x08	; 8
      003955 08                    2666 	.db #0x08	; 8
      003956 08                    2667 	.db #0x08	; 8
      003957 10                    2668 	.db #0x10	; 16
      003958 E0                    2669 	.db #0xe0	; 224
      003959 00                    2670 	.db #0x00	; 0
      00395A 20                    2671 	.db #0x20	; 32
      00395B 3F                    2672 	.db #0x3f	; 63
      00395C 20                    2673 	.db #0x20	; 32
      00395D 20                    2674 	.db #0x20	; 32
      00395E 20                    2675 	.db #0x20	; 32
      00395F 10                    2676 	.db #0x10	; 16
      003960 0F                    2677 	.db #0x0f	; 15
      003961 00                    2678 	.db #0x00	; 0
      003962 08                    2679 	.db #0x08	; 8
      003963 F8                    2680 	.db #0xf8	; 248
      003964 88                    2681 	.db #0x88	; 136
      003965 88                    2682 	.db #0x88	; 136
      003966 E8                    2683 	.db #0xe8	; 232
      003967 08                    2684 	.db #0x08	; 8
      003968 10                    2685 	.db #0x10	; 16
      003969 00                    2686 	.db #0x00	; 0
      00396A 20                    2687 	.db #0x20	; 32
      00396B 3F                    2688 	.db #0x3f	; 63
      00396C 20                    2689 	.db #0x20	; 32
      00396D 20                    2690 	.db #0x20	; 32
      00396E 23                    2691 	.db #0x23	; 35
      00396F 20                    2692 	.db #0x20	; 32
      003970 18                    2693 	.db #0x18	; 24
      003971 00                    2694 	.db #0x00	; 0
      003972 08                    2695 	.db #0x08	; 8
      003973 F8                    2696 	.db #0xf8	; 248
      003974 88                    2697 	.db #0x88	; 136
      003975 88                    2698 	.db #0x88	; 136
      003976 E8                    2699 	.db #0xe8	; 232
      003977 08                    2700 	.db #0x08	; 8
      003978 10                    2701 	.db #0x10	; 16
      003979 00                    2702 	.db #0x00	; 0
      00397A 20                    2703 	.db #0x20	; 32
      00397B 3F                    2704 	.db #0x3f	; 63
      00397C 20                    2705 	.db #0x20	; 32
      00397D 00                    2706 	.db #0x00	; 0
      00397E 03                    2707 	.db #0x03	; 3
      00397F 00                    2708 	.db #0x00	; 0
      003980 00                    2709 	.db #0x00	; 0
      003981 00                    2710 	.db #0x00	; 0
      003982 C0                    2711 	.db #0xc0	; 192
      003983 30                    2712 	.db #0x30	; 48	'0'
      003984 08                    2713 	.db #0x08	; 8
      003985 08                    2714 	.db #0x08	; 8
      003986 08                    2715 	.db #0x08	; 8
      003987 38                    2716 	.db #0x38	; 56	'8'
      003988 00                    2717 	.db #0x00	; 0
      003989 00                    2718 	.db #0x00	; 0
      00398A 07                    2719 	.db #0x07	; 7
      00398B 18                    2720 	.db #0x18	; 24
      00398C 20                    2721 	.db #0x20	; 32
      00398D 20                    2722 	.db #0x20	; 32
      00398E 22                    2723 	.db #0x22	; 34
      00398F 1E                    2724 	.db #0x1e	; 30
      003990 02                    2725 	.db #0x02	; 2
      003991 00                    2726 	.db #0x00	; 0
      003992 08                    2727 	.db #0x08	; 8
      003993 F8                    2728 	.db #0xf8	; 248
      003994 08                    2729 	.db #0x08	; 8
      003995 00                    2730 	.db #0x00	; 0
      003996 00                    2731 	.db #0x00	; 0
      003997 08                    2732 	.db #0x08	; 8
      003998 F8                    2733 	.db #0xf8	; 248
      003999 08                    2734 	.db #0x08	; 8
      00399A 20                    2735 	.db #0x20	; 32
      00399B 3F                    2736 	.db #0x3f	; 63
      00399C 21                    2737 	.db #0x21	; 33
      00399D 01                    2738 	.db #0x01	; 1
      00399E 01                    2739 	.db #0x01	; 1
      00399F 21                    2740 	.db #0x21	; 33
      0039A0 3F                    2741 	.db #0x3f	; 63
      0039A1 20                    2742 	.db #0x20	; 32
      0039A2 00                    2743 	.db #0x00	; 0
      0039A3 08                    2744 	.db #0x08	; 8
      0039A4 08                    2745 	.db #0x08	; 8
      0039A5 F8                    2746 	.db #0xf8	; 248
      0039A6 08                    2747 	.db #0x08	; 8
      0039A7 08                    2748 	.db #0x08	; 8
      0039A8 00                    2749 	.db #0x00	; 0
      0039A9 00                    2750 	.db #0x00	; 0
      0039AA 00                    2751 	.db #0x00	; 0
      0039AB 20                    2752 	.db #0x20	; 32
      0039AC 20                    2753 	.db #0x20	; 32
      0039AD 3F                    2754 	.db #0x3f	; 63
      0039AE 20                    2755 	.db #0x20	; 32
      0039AF 20                    2756 	.db #0x20	; 32
      0039B0 00                    2757 	.db #0x00	; 0
      0039B1 00                    2758 	.db #0x00	; 0
      0039B2 00                    2759 	.db #0x00	; 0
      0039B3 00                    2760 	.db #0x00	; 0
      0039B4 08                    2761 	.db #0x08	; 8
      0039B5 08                    2762 	.db #0x08	; 8
      0039B6 F8                    2763 	.db #0xf8	; 248
      0039B7 08                    2764 	.db #0x08	; 8
      0039B8 08                    2765 	.db #0x08	; 8
      0039B9 00                    2766 	.db #0x00	; 0
      0039BA C0                    2767 	.db #0xc0	; 192
      0039BB 80                    2768 	.db #0x80	; 128
      0039BC 80                    2769 	.db #0x80	; 128
      0039BD 80                    2770 	.db #0x80	; 128
      0039BE 7F                    2771 	.db #0x7f	; 127
      0039BF 00                    2772 	.db #0x00	; 0
      0039C0 00                    2773 	.db #0x00	; 0
      0039C1 00                    2774 	.db #0x00	; 0
      0039C2 08                    2775 	.db #0x08	; 8
      0039C3 F8                    2776 	.db #0xf8	; 248
      0039C4 88                    2777 	.db #0x88	; 136
      0039C5 C0                    2778 	.db #0xc0	; 192
      0039C6 28                    2779 	.db #0x28	; 40
      0039C7 18                    2780 	.db #0x18	; 24
      0039C8 08                    2781 	.db #0x08	; 8
      0039C9 00                    2782 	.db #0x00	; 0
      0039CA 20                    2783 	.db #0x20	; 32
      0039CB 3F                    2784 	.db #0x3f	; 63
      0039CC 20                    2785 	.db #0x20	; 32
      0039CD 01                    2786 	.db #0x01	; 1
      0039CE 26                    2787 	.db #0x26	; 38
      0039CF 38                    2788 	.db #0x38	; 56	'8'
      0039D0 20                    2789 	.db #0x20	; 32
      0039D1 00                    2790 	.db #0x00	; 0
      0039D2 08                    2791 	.db #0x08	; 8
      0039D3 F8                    2792 	.db #0xf8	; 248
      0039D4 08                    2793 	.db #0x08	; 8
      0039D5 00                    2794 	.db #0x00	; 0
      0039D6 00                    2795 	.db #0x00	; 0
      0039D7 00                    2796 	.db #0x00	; 0
      0039D8 00                    2797 	.db #0x00	; 0
      0039D9 00                    2798 	.db #0x00	; 0
      0039DA 20                    2799 	.db #0x20	; 32
      0039DB 3F                    2800 	.db #0x3f	; 63
      0039DC 20                    2801 	.db #0x20	; 32
      0039DD 20                    2802 	.db #0x20	; 32
      0039DE 20                    2803 	.db #0x20	; 32
      0039DF 20                    2804 	.db #0x20	; 32
      0039E0 30                    2805 	.db #0x30	; 48	'0'
      0039E1 00                    2806 	.db #0x00	; 0
      0039E2 08                    2807 	.db #0x08	; 8
      0039E3 F8                    2808 	.db #0xf8	; 248
      0039E4 F8                    2809 	.db #0xf8	; 248
      0039E5 00                    2810 	.db #0x00	; 0
      0039E6 F8                    2811 	.db #0xf8	; 248
      0039E7 F8                    2812 	.db #0xf8	; 248
      0039E8 08                    2813 	.db #0x08	; 8
      0039E9 00                    2814 	.db #0x00	; 0
      0039EA 20                    2815 	.db #0x20	; 32
      0039EB 3F                    2816 	.db #0x3f	; 63
      0039EC 00                    2817 	.db #0x00	; 0
      0039ED 3F                    2818 	.db #0x3f	; 63
      0039EE 00                    2819 	.db #0x00	; 0
      0039EF 3F                    2820 	.db #0x3f	; 63
      0039F0 20                    2821 	.db #0x20	; 32
      0039F1 00                    2822 	.db #0x00	; 0
      0039F2 08                    2823 	.db #0x08	; 8
      0039F3 F8                    2824 	.db #0xf8	; 248
      0039F4 30                    2825 	.db #0x30	; 48	'0'
      0039F5 C0                    2826 	.db #0xc0	; 192
      0039F6 00                    2827 	.db #0x00	; 0
      0039F7 08                    2828 	.db #0x08	; 8
      0039F8 F8                    2829 	.db #0xf8	; 248
      0039F9 08                    2830 	.db #0x08	; 8
      0039FA 20                    2831 	.db #0x20	; 32
      0039FB 3F                    2832 	.db #0x3f	; 63
      0039FC 20                    2833 	.db #0x20	; 32
      0039FD 00                    2834 	.db #0x00	; 0
      0039FE 07                    2835 	.db #0x07	; 7
      0039FF 18                    2836 	.db #0x18	; 24
      003A00 3F                    2837 	.db #0x3f	; 63
      003A01 00                    2838 	.db #0x00	; 0
      003A02 E0                    2839 	.db #0xe0	; 224
      003A03 10                    2840 	.db #0x10	; 16
      003A04 08                    2841 	.db #0x08	; 8
      003A05 08                    2842 	.db #0x08	; 8
      003A06 08                    2843 	.db #0x08	; 8
      003A07 10                    2844 	.db #0x10	; 16
      003A08 E0                    2845 	.db #0xe0	; 224
      003A09 00                    2846 	.db #0x00	; 0
      003A0A 0F                    2847 	.db #0x0f	; 15
      003A0B 10                    2848 	.db #0x10	; 16
      003A0C 20                    2849 	.db #0x20	; 32
      003A0D 20                    2850 	.db #0x20	; 32
      003A0E 20                    2851 	.db #0x20	; 32
      003A0F 10                    2852 	.db #0x10	; 16
      003A10 0F                    2853 	.db #0x0f	; 15
      003A11 00                    2854 	.db #0x00	; 0
      003A12 08                    2855 	.db #0x08	; 8
      003A13 F8                    2856 	.db #0xf8	; 248
      003A14 08                    2857 	.db #0x08	; 8
      003A15 08                    2858 	.db #0x08	; 8
      003A16 08                    2859 	.db #0x08	; 8
      003A17 08                    2860 	.db #0x08	; 8
      003A18 F0                    2861 	.db #0xf0	; 240
      003A19 00                    2862 	.db #0x00	; 0
      003A1A 20                    2863 	.db #0x20	; 32
      003A1B 3F                    2864 	.db #0x3f	; 63
      003A1C 21                    2865 	.db #0x21	; 33
      003A1D 01                    2866 	.db #0x01	; 1
      003A1E 01                    2867 	.db #0x01	; 1
      003A1F 01                    2868 	.db #0x01	; 1
      003A20 00                    2869 	.db #0x00	; 0
      003A21 00                    2870 	.db #0x00	; 0
      003A22 E0                    2871 	.db #0xe0	; 224
      003A23 10                    2872 	.db #0x10	; 16
      003A24 08                    2873 	.db #0x08	; 8
      003A25 08                    2874 	.db #0x08	; 8
      003A26 08                    2875 	.db #0x08	; 8
      003A27 10                    2876 	.db #0x10	; 16
      003A28 E0                    2877 	.db #0xe0	; 224
      003A29 00                    2878 	.db #0x00	; 0
      003A2A 0F                    2879 	.db #0x0f	; 15
      003A2B 18                    2880 	.db #0x18	; 24
      003A2C 24                    2881 	.db #0x24	; 36
      003A2D 24                    2882 	.db #0x24	; 36
      003A2E 38                    2883 	.db #0x38	; 56	'8'
      003A2F 50                    2884 	.db #0x50	; 80	'P'
      003A30 4F                    2885 	.db #0x4f	; 79	'O'
      003A31 00                    2886 	.db #0x00	; 0
      003A32 08                    2887 	.db #0x08	; 8
      003A33 F8                    2888 	.db #0xf8	; 248
      003A34 88                    2889 	.db #0x88	; 136
      003A35 88                    2890 	.db #0x88	; 136
      003A36 88                    2891 	.db #0x88	; 136
      003A37 88                    2892 	.db #0x88	; 136
      003A38 70                    2893 	.db #0x70	; 112	'p'
      003A39 00                    2894 	.db #0x00	; 0
      003A3A 20                    2895 	.db #0x20	; 32
      003A3B 3F                    2896 	.db #0x3f	; 63
      003A3C 20                    2897 	.db #0x20	; 32
      003A3D 00                    2898 	.db #0x00	; 0
      003A3E 03                    2899 	.db #0x03	; 3
      003A3F 0C                    2900 	.db #0x0c	; 12
      003A40 30                    2901 	.db #0x30	; 48	'0'
      003A41 20                    2902 	.db #0x20	; 32
      003A42 00                    2903 	.db #0x00	; 0
      003A43 70                    2904 	.db #0x70	; 112	'p'
      003A44 88                    2905 	.db #0x88	; 136
      003A45 08                    2906 	.db #0x08	; 8
      003A46 08                    2907 	.db #0x08	; 8
      003A47 08                    2908 	.db #0x08	; 8
      003A48 38                    2909 	.db #0x38	; 56	'8'
      003A49 00                    2910 	.db #0x00	; 0
      003A4A 00                    2911 	.db #0x00	; 0
      003A4B 38                    2912 	.db #0x38	; 56	'8'
      003A4C 20                    2913 	.db #0x20	; 32
      003A4D 21                    2914 	.db #0x21	; 33
      003A4E 21                    2915 	.db #0x21	; 33
      003A4F 22                    2916 	.db #0x22	; 34
      003A50 1C                    2917 	.db #0x1c	; 28
      003A51 00                    2918 	.db #0x00	; 0
      003A52 18                    2919 	.db #0x18	; 24
      003A53 08                    2920 	.db #0x08	; 8
      003A54 08                    2921 	.db #0x08	; 8
      003A55 F8                    2922 	.db #0xf8	; 248
      003A56 08                    2923 	.db #0x08	; 8
      003A57 08                    2924 	.db #0x08	; 8
      003A58 18                    2925 	.db #0x18	; 24
      003A59 00                    2926 	.db #0x00	; 0
      003A5A 00                    2927 	.db #0x00	; 0
      003A5B 00                    2928 	.db #0x00	; 0
      003A5C 20                    2929 	.db #0x20	; 32
      003A5D 3F                    2930 	.db #0x3f	; 63
      003A5E 20                    2931 	.db #0x20	; 32
      003A5F 00                    2932 	.db #0x00	; 0
      003A60 00                    2933 	.db #0x00	; 0
      003A61 00                    2934 	.db #0x00	; 0
      003A62 08                    2935 	.db #0x08	; 8
      003A63 F8                    2936 	.db #0xf8	; 248
      003A64 08                    2937 	.db #0x08	; 8
      003A65 00                    2938 	.db #0x00	; 0
      003A66 00                    2939 	.db #0x00	; 0
      003A67 08                    2940 	.db #0x08	; 8
      003A68 F8                    2941 	.db #0xf8	; 248
      003A69 08                    2942 	.db #0x08	; 8
      003A6A 00                    2943 	.db #0x00	; 0
      003A6B 1F                    2944 	.db #0x1f	; 31
      003A6C 20                    2945 	.db #0x20	; 32
      003A6D 20                    2946 	.db #0x20	; 32
      003A6E 20                    2947 	.db #0x20	; 32
      003A6F 20                    2948 	.db #0x20	; 32
      003A70 1F                    2949 	.db #0x1f	; 31
      003A71 00                    2950 	.db #0x00	; 0
      003A72 08                    2951 	.db #0x08	; 8
      003A73 78                    2952 	.db #0x78	; 120	'x'
      003A74 88                    2953 	.db #0x88	; 136
      003A75 00                    2954 	.db #0x00	; 0
      003A76 00                    2955 	.db #0x00	; 0
      003A77 C8                    2956 	.db #0xc8	; 200
      003A78 38                    2957 	.db #0x38	; 56	'8'
      003A79 08                    2958 	.db #0x08	; 8
      003A7A 00                    2959 	.db #0x00	; 0
      003A7B 00                    2960 	.db #0x00	; 0
      003A7C 07                    2961 	.db #0x07	; 7
      003A7D 38                    2962 	.db #0x38	; 56	'8'
      003A7E 0E                    2963 	.db #0x0e	; 14
      003A7F 01                    2964 	.db #0x01	; 1
      003A80 00                    2965 	.db #0x00	; 0
      003A81 00                    2966 	.db #0x00	; 0
      003A82 F8                    2967 	.db #0xf8	; 248
      003A83 08                    2968 	.db #0x08	; 8
      003A84 00                    2969 	.db #0x00	; 0
      003A85 F8                    2970 	.db #0xf8	; 248
      003A86 00                    2971 	.db #0x00	; 0
      003A87 08                    2972 	.db #0x08	; 8
      003A88 F8                    2973 	.db #0xf8	; 248
      003A89 00                    2974 	.db #0x00	; 0
      003A8A 03                    2975 	.db #0x03	; 3
      003A8B 3C                    2976 	.db #0x3c	; 60
      003A8C 07                    2977 	.db #0x07	; 7
      003A8D 00                    2978 	.db #0x00	; 0
      003A8E 07                    2979 	.db #0x07	; 7
      003A8F 3C                    2980 	.db #0x3c	; 60
      003A90 03                    2981 	.db #0x03	; 3
      003A91 00                    2982 	.db #0x00	; 0
      003A92 08                    2983 	.db #0x08	; 8
      003A93 18                    2984 	.db #0x18	; 24
      003A94 68                    2985 	.db #0x68	; 104	'h'
      003A95 80                    2986 	.db #0x80	; 128
      003A96 80                    2987 	.db #0x80	; 128
      003A97 68                    2988 	.db #0x68	; 104	'h'
      003A98 18                    2989 	.db #0x18	; 24
      003A99 08                    2990 	.db #0x08	; 8
      003A9A 20                    2991 	.db #0x20	; 32
      003A9B 30                    2992 	.db #0x30	; 48	'0'
      003A9C 2C                    2993 	.db #0x2c	; 44
      003A9D 03                    2994 	.db #0x03	; 3
      003A9E 03                    2995 	.db #0x03	; 3
      003A9F 2C                    2996 	.db #0x2c	; 44
      003AA0 30                    2997 	.db #0x30	; 48	'0'
      003AA1 20                    2998 	.db #0x20	; 32
      003AA2 08                    2999 	.db #0x08	; 8
      003AA3 38                    3000 	.db #0x38	; 56	'8'
      003AA4 C8                    3001 	.db #0xc8	; 200
      003AA5 00                    3002 	.db #0x00	; 0
      003AA6 C8                    3003 	.db #0xc8	; 200
      003AA7 38                    3004 	.db #0x38	; 56	'8'
      003AA8 08                    3005 	.db #0x08	; 8
      003AA9 00                    3006 	.db #0x00	; 0
      003AAA 00                    3007 	.db #0x00	; 0
      003AAB 00                    3008 	.db #0x00	; 0
      003AAC 20                    3009 	.db #0x20	; 32
      003AAD 3F                    3010 	.db #0x3f	; 63
      003AAE 20                    3011 	.db #0x20	; 32
      003AAF 00                    3012 	.db #0x00	; 0
      003AB0 00                    3013 	.db #0x00	; 0
      003AB1 00                    3014 	.db #0x00	; 0
      003AB2 10                    3015 	.db #0x10	; 16
      003AB3 08                    3016 	.db #0x08	; 8
      003AB4 08                    3017 	.db #0x08	; 8
      003AB5 08                    3018 	.db #0x08	; 8
      003AB6 C8                    3019 	.db #0xc8	; 200
      003AB7 38                    3020 	.db #0x38	; 56	'8'
      003AB8 08                    3021 	.db #0x08	; 8
      003AB9 00                    3022 	.db #0x00	; 0
      003ABA 20                    3023 	.db #0x20	; 32
      003ABB 38                    3024 	.db #0x38	; 56	'8'
      003ABC 26                    3025 	.db #0x26	; 38
      003ABD 21                    3026 	.db #0x21	; 33
      003ABE 20                    3027 	.db #0x20	; 32
      003ABF 20                    3028 	.db #0x20	; 32
      003AC0 18                    3029 	.db #0x18	; 24
      003AC1 00                    3030 	.db #0x00	; 0
      003AC2 00                    3031 	.db #0x00	; 0
      003AC3 00                    3032 	.db #0x00	; 0
      003AC4 00                    3033 	.db #0x00	; 0
      003AC5 FE                    3034 	.db #0xfe	; 254
      003AC6 02                    3035 	.db #0x02	; 2
      003AC7 02                    3036 	.db #0x02	; 2
      003AC8 02                    3037 	.db #0x02	; 2
      003AC9 00                    3038 	.db #0x00	; 0
      003ACA 00                    3039 	.db #0x00	; 0
      003ACB 00                    3040 	.db #0x00	; 0
      003ACC 00                    3041 	.db #0x00	; 0
      003ACD 7F                    3042 	.db #0x7f	; 127
      003ACE 40                    3043 	.db #0x40	; 64
      003ACF 40                    3044 	.db #0x40	; 64
      003AD0 40                    3045 	.db #0x40	; 64
      003AD1 00                    3046 	.db #0x00	; 0
      003AD2 00                    3047 	.db #0x00	; 0
      003AD3 0C                    3048 	.db #0x0c	; 12
      003AD4 30                    3049 	.db #0x30	; 48	'0'
      003AD5 C0                    3050 	.db #0xc0	; 192
      003AD6 00                    3051 	.db #0x00	; 0
      003AD7 00                    3052 	.db #0x00	; 0
      003AD8 00                    3053 	.db #0x00	; 0
      003AD9 00                    3054 	.db #0x00	; 0
      003ADA 00                    3055 	.db #0x00	; 0
      003ADB 00                    3056 	.db #0x00	; 0
      003ADC 00                    3057 	.db #0x00	; 0
      003ADD 01                    3058 	.db #0x01	; 1
      003ADE 06                    3059 	.db #0x06	; 6
      003ADF 38                    3060 	.db #0x38	; 56	'8'
      003AE0 C0                    3061 	.db #0xc0	; 192
      003AE1 00                    3062 	.db #0x00	; 0
      003AE2 00                    3063 	.db #0x00	; 0
      003AE3 02                    3064 	.db #0x02	; 2
      003AE4 02                    3065 	.db #0x02	; 2
      003AE5 02                    3066 	.db #0x02	; 2
      003AE6 FE                    3067 	.db #0xfe	; 254
      003AE7 00                    3068 	.db #0x00	; 0
      003AE8 00                    3069 	.db #0x00	; 0
      003AE9 00                    3070 	.db #0x00	; 0
      003AEA 00                    3071 	.db #0x00	; 0
      003AEB 40                    3072 	.db #0x40	; 64
      003AEC 40                    3073 	.db #0x40	; 64
      003AED 40                    3074 	.db #0x40	; 64
      003AEE 7F                    3075 	.db #0x7f	; 127
      003AEF 00                    3076 	.db #0x00	; 0
      003AF0 00                    3077 	.db #0x00	; 0
      003AF1 00                    3078 	.db #0x00	; 0
      003AF2 00                    3079 	.db #0x00	; 0
      003AF3 00                    3080 	.db #0x00	; 0
      003AF4 04                    3081 	.db #0x04	; 4
      003AF5 02                    3082 	.db #0x02	; 2
      003AF6 02                    3083 	.db #0x02	; 2
      003AF7 02                    3084 	.db #0x02	; 2
      003AF8 04                    3085 	.db #0x04	; 4
      003AF9 00                    3086 	.db #0x00	; 0
      003AFA 00                    3087 	.db #0x00	; 0
      003AFB 00                    3088 	.db #0x00	; 0
      003AFC 00                    3089 	.db #0x00	; 0
      003AFD 00                    3090 	.db #0x00	; 0
      003AFE 00                    3091 	.db #0x00	; 0
      003AFF 00                    3092 	.db #0x00	; 0
      003B00 00                    3093 	.db #0x00	; 0
      003B01 00                    3094 	.db #0x00	; 0
      003B02 00                    3095 	.db #0x00	; 0
      003B03 00                    3096 	.db #0x00	; 0
      003B04 00                    3097 	.db #0x00	; 0
      003B05 00                    3098 	.db #0x00	; 0
      003B06 00                    3099 	.db #0x00	; 0
      003B07 00                    3100 	.db #0x00	; 0
      003B08 00                    3101 	.db #0x00	; 0
      003B09 00                    3102 	.db #0x00	; 0
      003B0A 80                    3103 	.db #0x80	; 128
      003B0B 80                    3104 	.db #0x80	; 128
      003B0C 80                    3105 	.db #0x80	; 128
      003B0D 80                    3106 	.db #0x80	; 128
      003B0E 80                    3107 	.db #0x80	; 128
      003B0F 80                    3108 	.db #0x80	; 128
      003B10 80                    3109 	.db #0x80	; 128
      003B11 80                    3110 	.db #0x80	; 128
      003B12 00                    3111 	.db #0x00	; 0
      003B13 02                    3112 	.db #0x02	; 2
      003B14 02                    3113 	.db #0x02	; 2
      003B15 04                    3114 	.db #0x04	; 4
      003B16 00                    3115 	.db #0x00	; 0
      003B17 00                    3116 	.db #0x00	; 0
      003B18 00                    3117 	.db #0x00	; 0
      003B19 00                    3118 	.db #0x00	; 0
      003B1A 00                    3119 	.db #0x00	; 0
      003B1B 00                    3120 	.db #0x00	; 0
      003B1C 00                    3121 	.db #0x00	; 0
      003B1D 00                    3122 	.db #0x00	; 0
      003B1E 00                    3123 	.db #0x00	; 0
      003B1F 00                    3124 	.db #0x00	; 0
      003B20 00                    3125 	.db #0x00	; 0
      003B21 00                    3126 	.db #0x00	; 0
      003B22 00                    3127 	.db #0x00	; 0
      003B23 00                    3128 	.db #0x00	; 0
      003B24 80                    3129 	.db #0x80	; 128
      003B25 80                    3130 	.db #0x80	; 128
      003B26 80                    3131 	.db #0x80	; 128
      003B27 80                    3132 	.db #0x80	; 128
      003B28 00                    3133 	.db #0x00	; 0
      003B29 00                    3134 	.db #0x00	; 0
      003B2A 00                    3135 	.db #0x00	; 0
      003B2B 19                    3136 	.db #0x19	; 25
      003B2C 24                    3137 	.db #0x24	; 36
      003B2D 22                    3138 	.db #0x22	; 34
      003B2E 22                    3139 	.db #0x22	; 34
      003B2F 22                    3140 	.db #0x22	; 34
      003B30 3F                    3141 	.db #0x3f	; 63
      003B31 20                    3142 	.db #0x20	; 32
      003B32 08                    3143 	.db #0x08	; 8
      003B33 F8                    3144 	.db #0xf8	; 248
      003B34 00                    3145 	.db #0x00	; 0
      003B35 80                    3146 	.db #0x80	; 128
      003B36 80                    3147 	.db #0x80	; 128
      003B37 00                    3148 	.db #0x00	; 0
      003B38 00                    3149 	.db #0x00	; 0
      003B39 00                    3150 	.db #0x00	; 0
      003B3A 00                    3151 	.db #0x00	; 0
      003B3B 3F                    3152 	.db #0x3f	; 63
      003B3C 11                    3153 	.db #0x11	; 17
      003B3D 20                    3154 	.db #0x20	; 32
      003B3E 20                    3155 	.db #0x20	; 32
      003B3F 11                    3156 	.db #0x11	; 17
      003B40 0E                    3157 	.db #0x0e	; 14
      003B41 00                    3158 	.db #0x00	; 0
      003B42 00                    3159 	.db #0x00	; 0
      003B43 00                    3160 	.db #0x00	; 0
      003B44 00                    3161 	.db #0x00	; 0
      003B45 80                    3162 	.db #0x80	; 128
      003B46 80                    3163 	.db #0x80	; 128
      003B47 80                    3164 	.db #0x80	; 128
      003B48 00                    3165 	.db #0x00	; 0
      003B49 00                    3166 	.db #0x00	; 0
      003B4A 00                    3167 	.db #0x00	; 0
      003B4B 0E                    3168 	.db #0x0e	; 14
      003B4C 11                    3169 	.db #0x11	; 17
      003B4D 20                    3170 	.db #0x20	; 32
      003B4E 20                    3171 	.db #0x20	; 32
      003B4F 20                    3172 	.db #0x20	; 32
      003B50 11                    3173 	.db #0x11	; 17
      003B51 00                    3174 	.db #0x00	; 0
      003B52 00                    3175 	.db #0x00	; 0
      003B53 00                    3176 	.db #0x00	; 0
      003B54 00                    3177 	.db #0x00	; 0
      003B55 80                    3178 	.db #0x80	; 128
      003B56 80                    3179 	.db #0x80	; 128
      003B57 88                    3180 	.db #0x88	; 136
      003B58 F8                    3181 	.db #0xf8	; 248
      003B59 00                    3182 	.db #0x00	; 0
      003B5A 00                    3183 	.db #0x00	; 0
      003B5B 0E                    3184 	.db #0x0e	; 14
      003B5C 11                    3185 	.db #0x11	; 17
      003B5D 20                    3186 	.db #0x20	; 32
      003B5E 20                    3187 	.db #0x20	; 32
      003B5F 10                    3188 	.db #0x10	; 16
      003B60 3F                    3189 	.db #0x3f	; 63
      003B61 20                    3190 	.db #0x20	; 32
      003B62 00                    3191 	.db #0x00	; 0
      003B63 00                    3192 	.db #0x00	; 0
      003B64 80                    3193 	.db #0x80	; 128
      003B65 80                    3194 	.db #0x80	; 128
      003B66 80                    3195 	.db #0x80	; 128
      003B67 80                    3196 	.db #0x80	; 128
      003B68 00                    3197 	.db #0x00	; 0
      003B69 00                    3198 	.db #0x00	; 0
      003B6A 00                    3199 	.db #0x00	; 0
      003B6B 1F                    3200 	.db #0x1f	; 31
      003B6C 22                    3201 	.db #0x22	; 34
      003B6D 22                    3202 	.db #0x22	; 34
      003B6E 22                    3203 	.db #0x22	; 34
      003B6F 22                    3204 	.db #0x22	; 34
      003B70 13                    3205 	.db #0x13	; 19
      003B71 00                    3206 	.db #0x00	; 0
      003B72 00                    3207 	.db #0x00	; 0
      003B73 80                    3208 	.db #0x80	; 128
      003B74 80                    3209 	.db #0x80	; 128
      003B75 F0                    3210 	.db #0xf0	; 240
      003B76 88                    3211 	.db #0x88	; 136
      003B77 88                    3212 	.db #0x88	; 136
      003B78 88                    3213 	.db #0x88	; 136
      003B79 18                    3214 	.db #0x18	; 24
      003B7A 00                    3215 	.db #0x00	; 0
      003B7B 20                    3216 	.db #0x20	; 32
      003B7C 20                    3217 	.db #0x20	; 32
      003B7D 3F                    3218 	.db #0x3f	; 63
      003B7E 20                    3219 	.db #0x20	; 32
      003B7F 20                    3220 	.db #0x20	; 32
      003B80 00                    3221 	.db #0x00	; 0
      003B81 00                    3222 	.db #0x00	; 0
      003B82 00                    3223 	.db #0x00	; 0
      003B83 00                    3224 	.db #0x00	; 0
      003B84 80                    3225 	.db #0x80	; 128
      003B85 80                    3226 	.db #0x80	; 128
      003B86 80                    3227 	.db #0x80	; 128
      003B87 80                    3228 	.db #0x80	; 128
      003B88 80                    3229 	.db #0x80	; 128
      003B89 00                    3230 	.db #0x00	; 0
      003B8A 00                    3231 	.db #0x00	; 0
      003B8B 6B                    3232 	.db #0x6b	; 107	'k'
      003B8C 94                    3233 	.db #0x94	; 148
      003B8D 94                    3234 	.db #0x94	; 148
      003B8E 94                    3235 	.db #0x94	; 148
      003B8F 93                    3236 	.db #0x93	; 147
      003B90 60                    3237 	.db #0x60	; 96
      003B91 00                    3238 	.db #0x00	; 0
      003B92 08                    3239 	.db #0x08	; 8
      003B93 F8                    3240 	.db #0xf8	; 248
      003B94 00                    3241 	.db #0x00	; 0
      003B95 80                    3242 	.db #0x80	; 128
      003B96 80                    3243 	.db #0x80	; 128
      003B97 80                    3244 	.db #0x80	; 128
      003B98 00                    3245 	.db #0x00	; 0
      003B99 00                    3246 	.db #0x00	; 0
      003B9A 20                    3247 	.db #0x20	; 32
      003B9B 3F                    3248 	.db #0x3f	; 63
      003B9C 21                    3249 	.db #0x21	; 33
      003B9D 00                    3250 	.db #0x00	; 0
      003B9E 00                    3251 	.db #0x00	; 0
      003B9F 20                    3252 	.db #0x20	; 32
      003BA0 3F                    3253 	.db #0x3f	; 63
      003BA1 20                    3254 	.db #0x20	; 32
      003BA2 00                    3255 	.db #0x00	; 0
      003BA3 80                    3256 	.db #0x80	; 128
      003BA4 98                    3257 	.db #0x98	; 152
      003BA5 98                    3258 	.db #0x98	; 152
      003BA6 00                    3259 	.db #0x00	; 0
      003BA7 00                    3260 	.db #0x00	; 0
      003BA8 00                    3261 	.db #0x00	; 0
      003BA9 00                    3262 	.db #0x00	; 0
      003BAA 00                    3263 	.db #0x00	; 0
      003BAB 20                    3264 	.db #0x20	; 32
      003BAC 20                    3265 	.db #0x20	; 32
      003BAD 3F                    3266 	.db #0x3f	; 63
      003BAE 20                    3267 	.db #0x20	; 32
      003BAF 20                    3268 	.db #0x20	; 32
      003BB0 00                    3269 	.db #0x00	; 0
      003BB1 00                    3270 	.db #0x00	; 0
      003BB2 00                    3271 	.db #0x00	; 0
      003BB3 00                    3272 	.db #0x00	; 0
      003BB4 00                    3273 	.db #0x00	; 0
      003BB5 80                    3274 	.db #0x80	; 128
      003BB6 98                    3275 	.db #0x98	; 152
      003BB7 98                    3276 	.db #0x98	; 152
      003BB8 00                    3277 	.db #0x00	; 0
      003BB9 00                    3278 	.db #0x00	; 0
      003BBA 00                    3279 	.db #0x00	; 0
      003BBB C0                    3280 	.db #0xc0	; 192
      003BBC 80                    3281 	.db #0x80	; 128
      003BBD 80                    3282 	.db #0x80	; 128
      003BBE 80                    3283 	.db #0x80	; 128
      003BBF 7F                    3284 	.db #0x7f	; 127
      003BC0 00                    3285 	.db #0x00	; 0
      003BC1 00                    3286 	.db #0x00	; 0
      003BC2 08                    3287 	.db #0x08	; 8
      003BC3 F8                    3288 	.db #0xf8	; 248
      003BC4 00                    3289 	.db #0x00	; 0
      003BC5 00                    3290 	.db #0x00	; 0
      003BC6 80                    3291 	.db #0x80	; 128
      003BC7 80                    3292 	.db #0x80	; 128
      003BC8 80                    3293 	.db #0x80	; 128
      003BC9 00                    3294 	.db #0x00	; 0
      003BCA 20                    3295 	.db #0x20	; 32
      003BCB 3F                    3296 	.db #0x3f	; 63
      003BCC 24                    3297 	.db #0x24	; 36
      003BCD 02                    3298 	.db #0x02	; 2
      003BCE 2D                    3299 	.db #0x2d	; 45
      003BCF 30                    3300 	.db #0x30	; 48	'0'
      003BD0 20                    3301 	.db #0x20	; 32
      003BD1 00                    3302 	.db #0x00	; 0
      003BD2 00                    3303 	.db #0x00	; 0
      003BD3 08                    3304 	.db #0x08	; 8
      003BD4 08                    3305 	.db #0x08	; 8
      003BD5 F8                    3306 	.db #0xf8	; 248
      003BD6 00                    3307 	.db #0x00	; 0
      003BD7 00                    3308 	.db #0x00	; 0
      003BD8 00                    3309 	.db #0x00	; 0
      003BD9 00                    3310 	.db #0x00	; 0
      003BDA 00                    3311 	.db #0x00	; 0
      003BDB 20                    3312 	.db #0x20	; 32
      003BDC 20                    3313 	.db #0x20	; 32
      003BDD 3F                    3314 	.db #0x3f	; 63
      003BDE 20                    3315 	.db #0x20	; 32
      003BDF 20                    3316 	.db #0x20	; 32
      003BE0 00                    3317 	.db #0x00	; 0
      003BE1 00                    3318 	.db #0x00	; 0
      003BE2 80                    3319 	.db #0x80	; 128
      003BE3 80                    3320 	.db #0x80	; 128
      003BE4 80                    3321 	.db #0x80	; 128
      003BE5 80                    3322 	.db #0x80	; 128
      003BE6 80                    3323 	.db #0x80	; 128
      003BE7 80                    3324 	.db #0x80	; 128
      003BE8 80                    3325 	.db #0x80	; 128
      003BE9 00                    3326 	.db #0x00	; 0
      003BEA 20                    3327 	.db #0x20	; 32
      003BEB 3F                    3328 	.db #0x3f	; 63
      003BEC 20                    3329 	.db #0x20	; 32
      003BED 00                    3330 	.db #0x00	; 0
      003BEE 3F                    3331 	.db #0x3f	; 63
      003BEF 20                    3332 	.db #0x20	; 32
      003BF0 00                    3333 	.db #0x00	; 0
      003BF1 3F                    3334 	.db #0x3f	; 63
      003BF2 80                    3335 	.db #0x80	; 128
      003BF3 80                    3336 	.db #0x80	; 128
      003BF4 00                    3337 	.db #0x00	; 0
      003BF5 80                    3338 	.db #0x80	; 128
      003BF6 80                    3339 	.db #0x80	; 128
      003BF7 80                    3340 	.db #0x80	; 128
      003BF8 00                    3341 	.db #0x00	; 0
      003BF9 00                    3342 	.db #0x00	; 0
      003BFA 20                    3343 	.db #0x20	; 32
      003BFB 3F                    3344 	.db #0x3f	; 63
      003BFC 21                    3345 	.db #0x21	; 33
      003BFD 00                    3346 	.db #0x00	; 0
      003BFE 00                    3347 	.db #0x00	; 0
      003BFF 20                    3348 	.db #0x20	; 32
      003C00 3F                    3349 	.db #0x3f	; 63
      003C01 20                    3350 	.db #0x20	; 32
      003C02 00                    3351 	.db #0x00	; 0
      003C03 00                    3352 	.db #0x00	; 0
      003C04 80                    3353 	.db #0x80	; 128
      003C05 80                    3354 	.db #0x80	; 128
      003C06 80                    3355 	.db #0x80	; 128
      003C07 80                    3356 	.db #0x80	; 128
      003C08 00                    3357 	.db #0x00	; 0
      003C09 00                    3358 	.db #0x00	; 0
      003C0A 00                    3359 	.db #0x00	; 0
      003C0B 1F                    3360 	.db #0x1f	; 31
      003C0C 20                    3361 	.db #0x20	; 32
      003C0D 20                    3362 	.db #0x20	; 32
      003C0E 20                    3363 	.db #0x20	; 32
      003C0F 20                    3364 	.db #0x20	; 32
      003C10 1F                    3365 	.db #0x1f	; 31
      003C11 00                    3366 	.db #0x00	; 0
      003C12 80                    3367 	.db #0x80	; 128
      003C13 80                    3368 	.db #0x80	; 128
      003C14 00                    3369 	.db #0x00	; 0
      003C15 80                    3370 	.db #0x80	; 128
      003C16 80                    3371 	.db #0x80	; 128
      003C17 00                    3372 	.db #0x00	; 0
      003C18 00                    3373 	.db #0x00	; 0
      003C19 00                    3374 	.db #0x00	; 0
      003C1A 80                    3375 	.db #0x80	; 128
      003C1B FF                    3376 	.db #0xff	; 255
      003C1C A1                    3377 	.db #0xa1	; 161
      003C1D 20                    3378 	.db #0x20	; 32
      003C1E 20                    3379 	.db #0x20	; 32
      003C1F 11                    3380 	.db #0x11	; 17
      003C20 0E                    3381 	.db #0x0e	; 14
      003C21 00                    3382 	.db #0x00	; 0
      003C22 00                    3383 	.db #0x00	; 0
      003C23 00                    3384 	.db #0x00	; 0
      003C24 00                    3385 	.db #0x00	; 0
      003C25 80                    3386 	.db #0x80	; 128
      003C26 80                    3387 	.db #0x80	; 128
      003C27 80                    3388 	.db #0x80	; 128
      003C28 80                    3389 	.db #0x80	; 128
      003C29 00                    3390 	.db #0x00	; 0
      003C2A 00                    3391 	.db #0x00	; 0
      003C2B 0E                    3392 	.db #0x0e	; 14
      003C2C 11                    3393 	.db #0x11	; 17
      003C2D 20                    3394 	.db #0x20	; 32
      003C2E 20                    3395 	.db #0x20	; 32
      003C2F A0                    3396 	.db #0xa0	; 160
      003C30 FF                    3397 	.db #0xff	; 255
      003C31 80                    3398 	.db #0x80	; 128
      003C32 80                    3399 	.db #0x80	; 128
      003C33 80                    3400 	.db #0x80	; 128
      003C34 80                    3401 	.db #0x80	; 128
      003C35 00                    3402 	.db #0x00	; 0
      003C36 80                    3403 	.db #0x80	; 128
      003C37 80                    3404 	.db #0x80	; 128
      003C38 80                    3405 	.db #0x80	; 128
      003C39 00                    3406 	.db #0x00	; 0
      003C3A 20                    3407 	.db #0x20	; 32
      003C3B 20                    3408 	.db #0x20	; 32
      003C3C 3F                    3409 	.db #0x3f	; 63
      003C3D 21                    3410 	.db #0x21	; 33
      003C3E 20                    3411 	.db #0x20	; 32
      003C3F 00                    3412 	.db #0x00	; 0
      003C40 01                    3413 	.db #0x01	; 1
      003C41 00                    3414 	.db #0x00	; 0
      003C42 00                    3415 	.db #0x00	; 0
      003C43 00                    3416 	.db #0x00	; 0
      003C44 80                    3417 	.db #0x80	; 128
      003C45 80                    3418 	.db #0x80	; 128
      003C46 80                    3419 	.db #0x80	; 128
      003C47 80                    3420 	.db #0x80	; 128
      003C48 80                    3421 	.db #0x80	; 128
      003C49 00                    3422 	.db #0x00	; 0
      003C4A 00                    3423 	.db #0x00	; 0
      003C4B 33                    3424 	.db #0x33	; 51	'3'
      003C4C 24                    3425 	.db #0x24	; 36
      003C4D 24                    3426 	.db #0x24	; 36
      003C4E 24                    3427 	.db #0x24	; 36
      003C4F 24                    3428 	.db #0x24	; 36
      003C50 19                    3429 	.db #0x19	; 25
