                                      1 ;--------------------------------------------------------
                                      2 ; File Created by SDCC : free open source ANSI-C Compiler
                                      3 ; Version 4.0.0 #11528 (MINGW64)
                                      4 ;--------------------------------------------------------
                                      5 	.module main
                                      6 	.optsdcc -mmcs51 --model-large
                                      7 	
                                      8 ;--------------------------------------------------------
                                      9 ; Public variables in this module
                                     10 ;--------------------------------------------------------
                                     11 	.globl _main
                                     12 	.globl _FaceTrack
                                     13 	.globl _LightTurn
                                     14 	.globl _decode_XenP201S
                                     15 	.globl _UART1Init
                                     16 	.globl _GPIO_Init
                                     17 	.globl _SPIMasterModeSet
                                     18 	.globl _CH549UART1RcvByte
                                     19 	.globl _mDelaymS
                                     20 	.globl _mDelayuS
                                     21 	.globl _CfgFsys
                                     22 	.globl _printf_fast_f
                                     23 	.globl _setFontSize
                                     24 	.globl _OLED_Clear
                                     25 	.globl _OLED_Init
                                     26 	.globl _OLED_ShowChar
                                     27 	.globl _UIF_BUS_RST
                                     28 	.globl _UIF_DETECT
                                     29 	.globl _UIF_TRANSFER
                                     30 	.globl _UIF_SUSPEND
                                     31 	.globl _UIF_HST_SOF
                                     32 	.globl _UIF_FIFO_OV
                                     33 	.globl _U_SIE_FREE
                                     34 	.globl _U_TOG_OK
                                     35 	.globl _U_IS_NAK
                                     36 	.globl _S0_R_FIFO
                                     37 	.globl _S0_T_FIFO
                                     38 	.globl _S0_FREE
                                     39 	.globl _S0_IF_BYTE
                                     40 	.globl _S0_IF_FIRST
                                     41 	.globl _S0_IF_OV
                                     42 	.globl _S0_FST_ACT
                                     43 	.globl _CP_RL2
                                     44 	.globl _C_T2
                                     45 	.globl _TR2
                                     46 	.globl _EXEN2
                                     47 	.globl _TCLK
                                     48 	.globl _RCLK
                                     49 	.globl _EXF2
                                     50 	.globl _CAP1F
                                     51 	.globl _TF2
                                     52 	.globl _RI
                                     53 	.globl _TI
                                     54 	.globl _RB8
                                     55 	.globl _TB8
                                     56 	.globl _REN
                                     57 	.globl _SM2
                                     58 	.globl _SM1
                                     59 	.globl _SM0
                                     60 	.globl _IT0
                                     61 	.globl _IE0
                                     62 	.globl _IT1
                                     63 	.globl _IE1
                                     64 	.globl _TR0
                                     65 	.globl _TF0
                                     66 	.globl _TR1
                                     67 	.globl _TF1
                                     68 	.globl _XI
                                     69 	.globl _XO
                                     70 	.globl _P4_0
                                     71 	.globl _P4_1
                                     72 	.globl _P4_2
                                     73 	.globl _P4_3
                                     74 	.globl _P4_4
                                     75 	.globl _P4_5
                                     76 	.globl _P4_6
                                     77 	.globl _RXD
                                     78 	.globl _TXD
                                     79 	.globl _INT0
                                     80 	.globl _INT1
                                     81 	.globl _T0
                                     82 	.globl _T1
                                     83 	.globl _CAP0
                                     84 	.globl _INT3
                                     85 	.globl _P3_0
                                     86 	.globl _P3_1
                                     87 	.globl _P3_2
                                     88 	.globl _P3_3
                                     89 	.globl _P3_4
                                     90 	.globl _P3_5
                                     91 	.globl _P3_6
                                     92 	.globl _P3_7
                                     93 	.globl _PWM5
                                     94 	.globl _PWM4
                                     95 	.globl _INT0_
                                     96 	.globl _PWM3
                                     97 	.globl _PWM2
                                     98 	.globl _CAP1_
                                     99 	.globl _T2_
                                    100 	.globl _PWM1
                                    101 	.globl _CAP2_
                                    102 	.globl _T2EX_
                                    103 	.globl _PWM0
                                    104 	.globl _RXD1
                                    105 	.globl _PWM6
                                    106 	.globl _TXD1
                                    107 	.globl _PWM7
                                    108 	.globl _P2_0
                                    109 	.globl _P2_1
                                    110 	.globl _P2_2
                                    111 	.globl _P2_3
                                    112 	.globl _P2_4
                                    113 	.globl _P2_5
                                    114 	.globl _P2_6
                                    115 	.globl _P2_7
                                    116 	.globl _AIN0
                                    117 	.globl _CAP1
                                    118 	.globl _T2
                                    119 	.globl _AIN1
                                    120 	.globl _CAP2
                                    121 	.globl _T2EX
                                    122 	.globl _AIN2
                                    123 	.globl _AIN3
                                    124 	.globl _AIN4
                                    125 	.globl _UCC1
                                    126 	.globl _SCS
                                    127 	.globl _AIN5
                                    128 	.globl _UCC2
                                    129 	.globl _PWM0_
                                    130 	.globl _MOSI
                                    131 	.globl _AIN6
                                    132 	.globl _VBUS
                                    133 	.globl _RXD1_
                                    134 	.globl _MISO
                                    135 	.globl _AIN7
                                    136 	.globl _TXD1_
                                    137 	.globl _SCK
                                    138 	.globl _P1_0
                                    139 	.globl _P1_1
                                    140 	.globl _P1_2
                                    141 	.globl _P1_3
                                    142 	.globl _P1_4
                                    143 	.globl _P1_5
                                    144 	.globl _P1_6
                                    145 	.globl _P1_7
                                    146 	.globl _AIN8
                                    147 	.globl _AIN9
                                    148 	.globl _AIN10
                                    149 	.globl _RXD_
                                    150 	.globl _AIN11
                                    151 	.globl _TXD_
                                    152 	.globl _AIN12
                                    153 	.globl _RXD2
                                    154 	.globl _AIN13
                                    155 	.globl _TXD2
                                    156 	.globl _AIN14
                                    157 	.globl _RXD3
                                    158 	.globl _AIN15
                                    159 	.globl _TXD3
                                    160 	.globl _P0_0
                                    161 	.globl _P0_1
                                    162 	.globl _P0_2
                                    163 	.globl _P0_3
                                    164 	.globl _P0_4
                                    165 	.globl _P0_5
                                    166 	.globl _P0_6
                                    167 	.globl _P0_7
                                    168 	.globl _IE_SPI0
                                    169 	.globl _IE_INT3
                                    170 	.globl _IE_USB
                                    171 	.globl _IE_UART2
                                    172 	.globl _IE_ADC
                                    173 	.globl _IE_UART1
                                    174 	.globl _IE_UART3
                                    175 	.globl _IE_PWMX
                                    176 	.globl _IE_GPIO
                                    177 	.globl _IE_WDOG
                                    178 	.globl _PX0
                                    179 	.globl _PT0
                                    180 	.globl _PX1
                                    181 	.globl _PT1
                                    182 	.globl _PS
                                    183 	.globl _PT2
                                    184 	.globl _PL_FLAG
                                    185 	.globl _PH_FLAG
                                    186 	.globl _EX0
                                    187 	.globl _ET0
                                    188 	.globl _EX1
                                    189 	.globl _ET1
                                    190 	.globl _ES
                                    191 	.globl _ET2
                                    192 	.globl _E_DIS
                                    193 	.globl _EA
                                    194 	.globl _P
                                    195 	.globl _F1
                                    196 	.globl _OV
                                    197 	.globl _RS0
                                    198 	.globl _RS1
                                    199 	.globl _F0
                                    200 	.globl _AC
                                    201 	.globl _CY
                                    202 	.globl _UEP1_DMA_H
                                    203 	.globl _UEP1_DMA_L
                                    204 	.globl _UEP1_DMA
                                    205 	.globl _UEP0_DMA_H
                                    206 	.globl _UEP0_DMA_L
                                    207 	.globl _UEP0_DMA
                                    208 	.globl _UEP2_3_MOD
                                    209 	.globl _UEP4_1_MOD
                                    210 	.globl _UEP3_DMA_H
                                    211 	.globl _UEP3_DMA_L
                                    212 	.globl _UEP3_DMA
                                    213 	.globl _UEP2_DMA_H
                                    214 	.globl _UEP2_DMA_L
                                    215 	.globl _UEP2_DMA
                                    216 	.globl _USB_DEV_AD
                                    217 	.globl _USB_CTRL
                                    218 	.globl _USB_INT_EN
                                    219 	.globl _UEP4_T_LEN
                                    220 	.globl _UEP4_CTRL
                                    221 	.globl _UEP0_T_LEN
                                    222 	.globl _UEP0_CTRL
                                    223 	.globl _USB_RX_LEN
                                    224 	.globl _USB_MIS_ST
                                    225 	.globl _USB_INT_ST
                                    226 	.globl _USB_INT_FG
                                    227 	.globl _UEP3_T_LEN
                                    228 	.globl _UEP3_CTRL
                                    229 	.globl _UEP2_T_LEN
                                    230 	.globl _UEP2_CTRL
                                    231 	.globl _UEP1_T_LEN
                                    232 	.globl _UEP1_CTRL
                                    233 	.globl _UDEV_CTRL
                                    234 	.globl _USB_C_CTRL
                                    235 	.globl _ADC_PIN
                                    236 	.globl _ADC_CHAN
                                    237 	.globl _ADC_DAT_H
                                    238 	.globl _ADC_DAT_L
                                    239 	.globl _ADC_DAT
                                    240 	.globl _ADC_CFG
                                    241 	.globl _ADC_CTRL
                                    242 	.globl _TKEY_CTRL
                                    243 	.globl _SIF3
                                    244 	.globl _SBAUD3
                                    245 	.globl _SBUF3
                                    246 	.globl _SCON3
                                    247 	.globl _SIF2
                                    248 	.globl _SBAUD2
                                    249 	.globl _SBUF2
                                    250 	.globl _SCON2
                                    251 	.globl _SIF1
                                    252 	.globl _SBAUD1
                                    253 	.globl _SBUF1
                                    254 	.globl _SCON1
                                    255 	.globl _SPI0_SETUP
                                    256 	.globl _SPI0_CK_SE
                                    257 	.globl _SPI0_CTRL
                                    258 	.globl _SPI0_DATA
                                    259 	.globl _SPI0_STAT
                                    260 	.globl _PWM_DATA7
                                    261 	.globl _PWM_DATA6
                                    262 	.globl _PWM_DATA5
                                    263 	.globl _PWM_DATA4
                                    264 	.globl _PWM_DATA3
                                    265 	.globl _PWM_CTRL2
                                    266 	.globl _PWM_CK_SE
                                    267 	.globl _PWM_CTRL
                                    268 	.globl _PWM_DATA0
                                    269 	.globl _PWM_DATA1
                                    270 	.globl _PWM_DATA2
                                    271 	.globl _T2CAP1H
                                    272 	.globl _T2CAP1L
                                    273 	.globl _T2CAP1
                                    274 	.globl _TH2
                                    275 	.globl _TL2
                                    276 	.globl _T2COUNT
                                    277 	.globl _RCAP2H
                                    278 	.globl _RCAP2L
                                    279 	.globl _RCAP2
                                    280 	.globl _T2MOD
                                    281 	.globl _T2CON
                                    282 	.globl _T2CAP0H
                                    283 	.globl _T2CAP0L
                                    284 	.globl _T2CAP0
                                    285 	.globl _T2CON2
                                    286 	.globl _SBUF
                                    287 	.globl _SCON
                                    288 	.globl _TH1
                                    289 	.globl _TH0
                                    290 	.globl _TL1
                                    291 	.globl _TL0
                                    292 	.globl _TMOD
                                    293 	.globl _TCON
                                    294 	.globl _XBUS_AUX
                                    295 	.globl _PIN_FUNC
                                    296 	.globl _P5
                                    297 	.globl _P4_DIR_PU
                                    298 	.globl _P4_MOD_OC
                                    299 	.globl _P4
                                    300 	.globl _P3_DIR_PU
                                    301 	.globl _P3_MOD_OC
                                    302 	.globl _P3
                                    303 	.globl _P2_DIR_PU
                                    304 	.globl _P2_MOD_OC
                                    305 	.globl _P2
                                    306 	.globl _P1_DIR_PU
                                    307 	.globl _P1_MOD_OC
                                    308 	.globl _P1
                                    309 	.globl _P0_DIR_PU
                                    310 	.globl _P0_MOD_OC
                                    311 	.globl _P0
                                    312 	.globl _ROM_CTRL
                                    313 	.globl _ROM_DATA_HH
                                    314 	.globl _ROM_DATA_HL
                                    315 	.globl _ROM_DATA_HI
                                    316 	.globl _ROM_ADDR_H
                                    317 	.globl _ROM_ADDR_L
                                    318 	.globl _ROM_ADDR
                                    319 	.globl _GPIO_IE
                                    320 	.globl _INTX
                                    321 	.globl _IP_EX
                                    322 	.globl _IE_EX
                                    323 	.globl _IP
                                    324 	.globl _IE
                                    325 	.globl _WDOG_COUNT
                                    326 	.globl _RESET_KEEP
                                    327 	.globl _WAKE_CTRL
                                    328 	.globl _CLOCK_CFG
                                    329 	.globl _POWER_CFG
                                    330 	.globl _PCON
                                    331 	.globl _GLOBAL_CFG
                                    332 	.globl _SAFE_MOD
                                    333 	.globl _DPH
                                    334 	.globl _DPL
                                    335 	.globl _SP
                                    336 	.globl _A_INV
                                    337 	.globl _B
                                    338 	.globl _ACC
                                    339 	.globl _PSW
                                    340 	.globl _yPos
                                    341 	.globl _xPos
                                    342 	.globl _fRecv
                                    343 	.globl _pBuf
                                    344 	.globl _recvBuf
                                    345 	.globl _oled_row
                                    346 	.globl _oled_colum
                                    347 	.globl _putchar
                                    348 	.globl _setCursor
                                    349 	.globl _UART1Interrupt
                                    350 ;--------------------------------------------------------
                                    351 ; special function registers
                                    352 ;--------------------------------------------------------
                                    353 	.area RSEG    (ABS,DATA)
      000000                        354 	.org 0x0000
                           0000D0   355 _PSW	=	0x00d0
                           0000E0   356 _ACC	=	0x00e0
                           0000F0   357 _B	=	0x00f0
                           0000FD   358 _A_INV	=	0x00fd
                           000081   359 _SP	=	0x0081
                           000082   360 _DPL	=	0x0082
                           000083   361 _DPH	=	0x0083
                           0000A1   362 _SAFE_MOD	=	0x00a1
                           0000B1   363 _GLOBAL_CFG	=	0x00b1
                           000087   364 _PCON	=	0x0087
                           0000BA   365 _POWER_CFG	=	0x00ba
                           0000B9   366 _CLOCK_CFG	=	0x00b9
                           0000A9   367 _WAKE_CTRL	=	0x00a9
                           0000FE   368 _RESET_KEEP	=	0x00fe
                           0000FF   369 _WDOG_COUNT	=	0x00ff
                           0000A8   370 _IE	=	0x00a8
                           0000B8   371 _IP	=	0x00b8
                           0000E8   372 _IE_EX	=	0x00e8
                           0000E9   373 _IP_EX	=	0x00e9
                           0000B3   374 _INTX	=	0x00b3
                           0000B2   375 _GPIO_IE	=	0x00b2
                           008584   376 _ROM_ADDR	=	0x8584
                           000084   377 _ROM_ADDR_L	=	0x0084
                           000085   378 _ROM_ADDR_H	=	0x0085
                           008F8E   379 _ROM_DATA_HI	=	0x8f8e
                           00008E   380 _ROM_DATA_HL	=	0x008e
                           00008F   381 _ROM_DATA_HH	=	0x008f
                           000086   382 _ROM_CTRL	=	0x0086
                           000080   383 _P0	=	0x0080
                           0000C4   384 _P0_MOD_OC	=	0x00c4
                           0000C5   385 _P0_DIR_PU	=	0x00c5
                           000090   386 _P1	=	0x0090
                           000092   387 _P1_MOD_OC	=	0x0092
                           000093   388 _P1_DIR_PU	=	0x0093
                           0000A0   389 _P2	=	0x00a0
                           000094   390 _P2_MOD_OC	=	0x0094
                           000095   391 _P2_DIR_PU	=	0x0095
                           0000B0   392 _P3	=	0x00b0
                           000096   393 _P3_MOD_OC	=	0x0096
                           000097   394 _P3_DIR_PU	=	0x0097
                           0000C0   395 _P4	=	0x00c0
                           0000C2   396 _P4_MOD_OC	=	0x00c2
                           0000C3   397 _P4_DIR_PU	=	0x00c3
                           0000AB   398 _P5	=	0x00ab
                           0000AA   399 _PIN_FUNC	=	0x00aa
                           0000A2   400 _XBUS_AUX	=	0x00a2
                           000088   401 _TCON	=	0x0088
                           000089   402 _TMOD	=	0x0089
                           00008A   403 _TL0	=	0x008a
                           00008B   404 _TL1	=	0x008b
                           00008C   405 _TH0	=	0x008c
                           00008D   406 _TH1	=	0x008d
                           000098   407 _SCON	=	0x0098
                           000099   408 _SBUF	=	0x0099
                           0000C1   409 _T2CON2	=	0x00c1
                           00C7C6   410 _T2CAP0	=	0xc7c6
                           0000C6   411 _T2CAP0L	=	0x00c6
                           0000C7   412 _T2CAP0H	=	0x00c7
                           0000C8   413 _T2CON	=	0x00c8
                           0000C9   414 _T2MOD	=	0x00c9
                           00CBCA   415 _RCAP2	=	0xcbca
                           0000CA   416 _RCAP2L	=	0x00ca
                           0000CB   417 _RCAP2H	=	0x00cb
                           00CDCC   418 _T2COUNT	=	0xcdcc
                           0000CC   419 _TL2	=	0x00cc
                           0000CD   420 _TH2	=	0x00cd
                           00CFCE   421 _T2CAP1	=	0xcfce
                           0000CE   422 _T2CAP1L	=	0x00ce
                           0000CF   423 _T2CAP1H	=	0x00cf
                           00009A   424 _PWM_DATA2	=	0x009a
                           00009B   425 _PWM_DATA1	=	0x009b
                           00009C   426 _PWM_DATA0	=	0x009c
                           00009D   427 _PWM_CTRL	=	0x009d
                           00009E   428 _PWM_CK_SE	=	0x009e
                           00009F   429 _PWM_CTRL2	=	0x009f
                           0000A3   430 _PWM_DATA3	=	0x00a3
                           0000A4   431 _PWM_DATA4	=	0x00a4
                           0000A5   432 _PWM_DATA5	=	0x00a5
                           0000A6   433 _PWM_DATA6	=	0x00a6
                           0000A7   434 _PWM_DATA7	=	0x00a7
                           0000F8   435 _SPI0_STAT	=	0x00f8
                           0000F9   436 _SPI0_DATA	=	0x00f9
                           0000FA   437 _SPI0_CTRL	=	0x00fa
                           0000FB   438 _SPI0_CK_SE	=	0x00fb
                           0000FC   439 _SPI0_SETUP	=	0x00fc
                           0000BC   440 _SCON1	=	0x00bc
                           0000BD   441 _SBUF1	=	0x00bd
                           0000BE   442 _SBAUD1	=	0x00be
                           0000BF   443 _SIF1	=	0x00bf
                           0000B4   444 _SCON2	=	0x00b4
                           0000B5   445 _SBUF2	=	0x00b5
                           0000B6   446 _SBAUD2	=	0x00b6
                           0000B7   447 _SIF2	=	0x00b7
                           0000AC   448 _SCON3	=	0x00ac
                           0000AD   449 _SBUF3	=	0x00ad
                           0000AE   450 _SBAUD3	=	0x00ae
                           0000AF   451 _SIF3	=	0x00af
                           0000F1   452 _TKEY_CTRL	=	0x00f1
                           0000F2   453 _ADC_CTRL	=	0x00f2
                           0000F3   454 _ADC_CFG	=	0x00f3
                           00F5F4   455 _ADC_DAT	=	0xf5f4
                           0000F4   456 _ADC_DAT_L	=	0x00f4
                           0000F5   457 _ADC_DAT_H	=	0x00f5
                           0000F6   458 _ADC_CHAN	=	0x00f6
                           0000F7   459 _ADC_PIN	=	0x00f7
                           000091   460 _USB_C_CTRL	=	0x0091
                           0000D1   461 _UDEV_CTRL	=	0x00d1
                           0000D2   462 _UEP1_CTRL	=	0x00d2
                           0000D3   463 _UEP1_T_LEN	=	0x00d3
                           0000D4   464 _UEP2_CTRL	=	0x00d4
                           0000D5   465 _UEP2_T_LEN	=	0x00d5
                           0000D6   466 _UEP3_CTRL	=	0x00d6
                           0000D7   467 _UEP3_T_LEN	=	0x00d7
                           0000D8   468 _USB_INT_FG	=	0x00d8
                           0000D9   469 _USB_INT_ST	=	0x00d9
                           0000DA   470 _USB_MIS_ST	=	0x00da
                           0000DB   471 _USB_RX_LEN	=	0x00db
                           0000DC   472 _UEP0_CTRL	=	0x00dc
                           0000DD   473 _UEP0_T_LEN	=	0x00dd
                           0000DE   474 _UEP4_CTRL	=	0x00de
                           0000DF   475 _UEP4_T_LEN	=	0x00df
                           0000E1   476 _USB_INT_EN	=	0x00e1
                           0000E2   477 _USB_CTRL	=	0x00e2
                           0000E3   478 _USB_DEV_AD	=	0x00e3
                           00E5E4   479 _UEP2_DMA	=	0xe5e4
                           0000E4   480 _UEP2_DMA_L	=	0x00e4
                           0000E5   481 _UEP2_DMA_H	=	0x00e5
                           00E7E6   482 _UEP3_DMA	=	0xe7e6
                           0000E6   483 _UEP3_DMA_L	=	0x00e6
                           0000E7   484 _UEP3_DMA_H	=	0x00e7
                           0000EA   485 _UEP4_1_MOD	=	0x00ea
                           0000EB   486 _UEP2_3_MOD	=	0x00eb
                           00EDEC   487 _UEP0_DMA	=	0xedec
                           0000EC   488 _UEP0_DMA_L	=	0x00ec
                           0000ED   489 _UEP0_DMA_H	=	0x00ed
                           00EFEE   490 _UEP1_DMA	=	0xefee
                           0000EE   491 _UEP1_DMA_L	=	0x00ee
                           0000EF   492 _UEP1_DMA_H	=	0x00ef
                                    493 ;--------------------------------------------------------
                                    494 ; special function bits
                                    495 ;--------------------------------------------------------
                                    496 	.area RSEG    (ABS,DATA)
      000000                        497 	.org 0x0000
                           0000D7   498 _CY	=	0x00d7
                           0000D6   499 _AC	=	0x00d6
                           0000D5   500 _F0	=	0x00d5
                           0000D4   501 _RS1	=	0x00d4
                           0000D3   502 _RS0	=	0x00d3
                           0000D2   503 _OV	=	0x00d2
                           0000D1   504 _F1	=	0x00d1
                           0000D0   505 _P	=	0x00d0
                           0000AF   506 _EA	=	0x00af
                           0000AE   507 _E_DIS	=	0x00ae
                           0000AD   508 _ET2	=	0x00ad
                           0000AC   509 _ES	=	0x00ac
                           0000AB   510 _ET1	=	0x00ab
                           0000AA   511 _EX1	=	0x00aa
                           0000A9   512 _ET0	=	0x00a9
                           0000A8   513 _EX0	=	0x00a8
                           0000BF   514 _PH_FLAG	=	0x00bf
                           0000BE   515 _PL_FLAG	=	0x00be
                           0000BD   516 _PT2	=	0x00bd
                           0000BC   517 _PS	=	0x00bc
                           0000BB   518 _PT1	=	0x00bb
                           0000BA   519 _PX1	=	0x00ba
                           0000B9   520 _PT0	=	0x00b9
                           0000B8   521 _PX0	=	0x00b8
                           0000EF   522 _IE_WDOG	=	0x00ef
                           0000EE   523 _IE_GPIO	=	0x00ee
                           0000ED   524 _IE_PWMX	=	0x00ed
                           0000ED   525 _IE_UART3	=	0x00ed
                           0000EC   526 _IE_UART1	=	0x00ec
                           0000EB   527 _IE_ADC	=	0x00eb
                           0000EB   528 _IE_UART2	=	0x00eb
                           0000EA   529 _IE_USB	=	0x00ea
                           0000E9   530 _IE_INT3	=	0x00e9
                           0000E8   531 _IE_SPI0	=	0x00e8
                           000087   532 _P0_7	=	0x0087
                           000086   533 _P0_6	=	0x0086
                           000085   534 _P0_5	=	0x0085
                           000084   535 _P0_4	=	0x0084
                           000083   536 _P0_3	=	0x0083
                           000082   537 _P0_2	=	0x0082
                           000081   538 _P0_1	=	0x0081
                           000080   539 _P0_0	=	0x0080
                           000087   540 _TXD3	=	0x0087
                           000087   541 _AIN15	=	0x0087
                           000086   542 _RXD3	=	0x0086
                           000086   543 _AIN14	=	0x0086
                           000085   544 _TXD2	=	0x0085
                           000085   545 _AIN13	=	0x0085
                           000084   546 _RXD2	=	0x0084
                           000084   547 _AIN12	=	0x0084
                           000083   548 _TXD_	=	0x0083
                           000083   549 _AIN11	=	0x0083
                           000082   550 _RXD_	=	0x0082
                           000082   551 _AIN10	=	0x0082
                           000081   552 _AIN9	=	0x0081
                           000080   553 _AIN8	=	0x0080
                           000097   554 _P1_7	=	0x0097
                           000096   555 _P1_6	=	0x0096
                           000095   556 _P1_5	=	0x0095
                           000094   557 _P1_4	=	0x0094
                           000093   558 _P1_3	=	0x0093
                           000092   559 _P1_2	=	0x0092
                           000091   560 _P1_1	=	0x0091
                           000090   561 _P1_0	=	0x0090
                           000097   562 _SCK	=	0x0097
                           000097   563 _TXD1_	=	0x0097
                           000097   564 _AIN7	=	0x0097
                           000096   565 _MISO	=	0x0096
                           000096   566 _RXD1_	=	0x0096
                           000096   567 _VBUS	=	0x0096
                           000096   568 _AIN6	=	0x0096
                           000095   569 _MOSI	=	0x0095
                           000095   570 _PWM0_	=	0x0095
                           000095   571 _UCC2	=	0x0095
                           000095   572 _AIN5	=	0x0095
                           000094   573 _SCS	=	0x0094
                           000094   574 _UCC1	=	0x0094
                           000094   575 _AIN4	=	0x0094
                           000093   576 _AIN3	=	0x0093
                           000092   577 _AIN2	=	0x0092
                           000091   578 _T2EX	=	0x0091
                           000091   579 _CAP2	=	0x0091
                           000091   580 _AIN1	=	0x0091
                           000090   581 _T2	=	0x0090
                           000090   582 _CAP1	=	0x0090
                           000090   583 _AIN0	=	0x0090
                           0000A7   584 _P2_7	=	0x00a7
                           0000A6   585 _P2_6	=	0x00a6
                           0000A5   586 _P2_5	=	0x00a5
                           0000A4   587 _P2_4	=	0x00a4
                           0000A3   588 _P2_3	=	0x00a3
                           0000A2   589 _P2_2	=	0x00a2
                           0000A1   590 _P2_1	=	0x00a1
                           0000A0   591 _P2_0	=	0x00a0
                           0000A7   592 _PWM7	=	0x00a7
                           0000A7   593 _TXD1	=	0x00a7
                           0000A6   594 _PWM6	=	0x00a6
                           0000A6   595 _RXD1	=	0x00a6
                           0000A5   596 _PWM0	=	0x00a5
                           0000A5   597 _T2EX_	=	0x00a5
                           0000A5   598 _CAP2_	=	0x00a5
                           0000A4   599 _PWM1	=	0x00a4
                           0000A4   600 _T2_	=	0x00a4
                           0000A4   601 _CAP1_	=	0x00a4
                           0000A3   602 _PWM2	=	0x00a3
                           0000A2   603 _PWM3	=	0x00a2
                           0000A2   604 _INT0_	=	0x00a2
                           0000A1   605 _PWM4	=	0x00a1
                           0000A0   606 _PWM5	=	0x00a0
                           0000B7   607 _P3_7	=	0x00b7
                           0000B6   608 _P3_6	=	0x00b6
                           0000B5   609 _P3_5	=	0x00b5
                           0000B4   610 _P3_4	=	0x00b4
                           0000B3   611 _P3_3	=	0x00b3
                           0000B2   612 _P3_2	=	0x00b2
                           0000B1   613 _P3_1	=	0x00b1
                           0000B0   614 _P3_0	=	0x00b0
                           0000B7   615 _INT3	=	0x00b7
                           0000B6   616 _CAP0	=	0x00b6
                           0000B5   617 _T1	=	0x00b5
                           0000B4   618 _T0	=	0x00b4
                           0000B3   619 _INT1	=	0x00b3
                           0000B2   620 _INT0	=	0x00b2
                           0000B1   621 _TXD	=	0x00b1
                           0000B0   622 _RXD	=	0x00b0
                           0000C6   623 _P4_6	=	0x00c6
                           0000C5   624 _P4_5	=	0x00c5
                           0000C4   625 _P4_4	=	0x00c4
                           0000C3   626 _P4_3	=	0x00c3
                           0000C2   627 _P4_2	=	0x00c2
                           0000C1   628 _P4_1	=	0x00c1
                           0000C0   629 _P4_0	=	0x00c0
                           0000C7   630 _XO	=	0x00c7
                           0000C6   631 _XI	=	0x00c6
                           00008F   632 _TF1	=	0x008f
                           00008E   633 _TR1	=	0x008e
                           00008D   634 _TF0	=	0x008d
                           00008C   635 _TR0	=	0x008c
                           00008B   636 _IE1	=	0x008b
                           00008A   637 _IT1	=	0x008a
                           000089   638 _IE0	=	0x0089
                           000088   639 _IT0	=	0x0088
                           00009F   640 _SM0	=	0x009f
                           00009E   641 _SM1	=	0x009e
                           00009D   642 _SM2	=	0x009d
                           00009C   643 _REN	=	0x009c
                           00009B   644 _TB8	=	0x009b
                           00009A   645 _RB8	=	0x009a
                           000099   646 _TI	=	0x0099
                           000098   647 _RI	=	0x0098
                           0000CF   648 _TF2	=	0x00cf
                           0000CF   649 _CAP1F	=	0x00cf
                           0000CE   650 _EXF2	=	0x00ce
                           0000CD   651 _RCLK	=	0x00cd
                           0000CC   652 _TCLK	=	0x00cc
                           0000CB   653 _EXEN2	=	0x00cb
                           0000CA   654 _TR2	=	0x00ca
                           0000C9   655 _C_T2	=	0x00c9
                           0000C8   656 _CP_RL2	=	0x00c8
                           0000FF   657 _S0_FST_ACT	=	0x00ff
                           0000FE   658 _S0_IF_OV	=	0x00fe
                           0000FD   659 _S0_IF_FIRST	=	0x00fd
                           0000FC   660 _S0_IF_BYTE	=	0x00fc
                           0000FB   661 _S0_FREE	=	0x00fb
                           0000FA   662 _S0_T_FIFO	=	0x00fa
                           0000F8   663 _S0_R_FIFO	=	0x00f8
                           0000DF   664 _U_IS_NAK	=	0x00df
                           0000DE   665 _U_TOG_OK	=	0x00de
                           0000DD   666 _U_SIE_FREE	=	0x00dd
                           0000DC   667 _UIF_FIFO_OV	=	0x00dc
                           0000DB   668 _UIF_HST_SOF	=	0x00db
                           0000DA   669 _UIF_SUSPEND	=	0x00da
                           0000D9   670 _UIF_TRANSFER	=	0x00d9
                           0000D8   671 _UIF_DETECT	=	0x00d8
                           0000D8   672 _UIF_BUS_RST	=	0x00d8
                                    673 ;--------------------------------------------------------
                                    674 ; overlayable register banks
                                    675 ;--------------------------------------------------------
                                    676 	.area REG_BANK_0	(REL,OVR,DATA)
      000000                        677 	.ds 8
                                    678 	.area REG_BANK_1	(REL,OVR,DATA)
      000000                        679 	.ds 8
                                    680 ;--------------------------------------------------------
                                    681 ; overlayable bit register bank
                                    682 ;--------------------------------------------------------
                                    683 	.area BIT_BANK	(REL,OVR,DATA)
      000000                        684 bits:
      000000                        685 	.ds 1
                           008000   686 	b0 = bits[0]
                           008100   687 	b1 = bits[1]
                           008200   688 	b2 = bits[2]
                           008300   689 	b3 = bits[3]
                           008400   690 	b4 = bits[4]
                           008500   691 	b5 = bits[5]
                           008600   692 	b6 = bits[6]
                           008700   693 	b7 = bits[7]
                                    694 ;--------------------------------------------------------
                                    695 ; internal ram data
                                    696 ;--------------------------------------------------------
                                    697 	.area DSEG    (DATA)
                                    698 ;--------------------------------------------------------
                                    699 ; overlayable items in internal ram 
                                    700 ;--------------------------------------------------------
                                    701 ;--------------------------------------------------------
                                    702 ; Stack segment in internal ram 
                                    703 ;--------------------------------------------------------
                                    704 	.area	SSEG
      000000                        705 __start__stack:
      000000                        706 	.ds	1
                                    707 
                                    708 ;--------------------------------------------------------
                                    709 ; indirectly addressable internal ram data
                                    710 ;--------------------------------------------------------
                                    711 	.area ISEG    (DATA)
                                    712 ;--------------------------------------------------------
                                    713 ; absolute internal ram data
                                    714 ;--------------------------------------------------------
                                    715 	.area IABS    (ABS,DATA)
                                    716 	.area IABS    (ABS,DATA)
                                    717 ;--------------------------------------------------------
                                    718 ; bit data
                                    719 ;--------------------------------------------------------
                                    720 	.area BSEG    (BIT)
                                    721 ;--------------------------------------------------------
                                    722 ; paged external ram data
                                    723 ;--------------------------------------------------------
                                    724 	.area PSEG    (PAG,XDATA)
                                    725 ;--------------------------------------------------------
                                    726 ; external ram data
                                    727 ;--------------------------------------------------------
                                    728 	.area XSEG    (XDATA)
      000000                        729 _oled_colum::
      000000                        730 	.ds 2
      000002                        731 _oled_row::
      000002                        732 	.ds 2
      000004                        733 _recvBuf::
      000004                        734 	.ds 30
      000022                        735 _pBuf::
      000022                        736 	.ds 1
      000023                        737 _fRecv::
      000023                        738 	.ds 1
      000024                        739 _xPos::
      000024                        740 	.ds 2
      000026                        741 _yPos::
      000026                        742 	.ds 2
                                    743 ;--------------------------------------------------------
                                    744 ; absolute external ram data
                                    745 ;--------------------------------------------------------
                                    746 	.area XABS    (ABS,XDATA)
                                    747 ;--------------------------------------------------------
                                    748 ; external initialized ram data
                                    749 ;--------------------------------------------------------
                                    750 	.area HOME    (CODE)
                                    751 	.area GSINIT0 (CODE)
                                    752 	.area GSINIT1 (CODE)
                                    753 	.area GSINIT2 (CODE)
                                    754 	.area GSINIT3 (CODE)
                                    755 	.area GSINIT4 (CODE)
                                    756 	.area GSINIT5 (CODE)
                                    757 	.area GSINIT  (CODE)
                                    758 	.area GSFINAL (CODE)
                                    759 	.area CSEG    (CODE)
                                    760 ;--------------------------------------------------------
                                    761 ; interrupt vector 
                                    762 ;--------------------------------------------------------
                                    763 	.area HOME    (CODE)
      000000                        764 __interrupt_vect:
      000000 02r00r00         [24]  765 	ljmp	__sdcc_gsinit_startup
      000003 32               [24]  766 	reti
      000004                        767 	.ds	7
      00000B 32               [24]  768 	reti
      00000C                        769 	.ds	7
      000013 32               [24]  770 	reti
      000014                        771 	.ds	7
      00001B 32               [24]  772 	reti
      00001C                        773 	.ds	7
      000023 32               [24]  774 	reti
      000024                        775 	.ds	7
      00002B 32               [24]  776 	reti
      00002C                        777 	.ds	7
      000033 32               [24]  778 	reti
      000034                        779 	.ds	7
      00003B 32               [24]  780 	reti
      00003C                        781 	.ds	7
      000043 32               [24]  782 	reti
      000044                        783 	.ds	7
      00004B 02r00r00         [24]  784 	ljmp	_UART2Interrupt
      00004E                        785 	.ds	5
      000053 02r0BrA4         [24]  786 	ljmp	_UART1Interrupt
      000056                        787 	.ds	5
      00005B 02r00r00         [24]  788 	ljmp	_UART3Interrupt
                                    789 ;--------------------------------------------------------
                                    790 ; global & static initialisations
                                    791 ;--------------------------------------------------------
                                    792 	.area HOME    (CODE)
                                    793 	.area GSINIT  (CODE)
                                    794 	.area GSFINAL (CODE)
                                    795 	.area GSINIT  (CODE)
                                    796 	.globl __sdcc_gsinit_startup
                                    797 	.globl __sdcc_program_startup
                                    798 	.globl __start__stack
                                    799 	.globl __mcs51_genRAMCLEAR
                                    800 ;	usr/main.c:131: volatile UINT8 pBuf = 0;
      000000 90r00r22         [24]  801 	mov	dptr,#_pBuf
      000003 E4               [12]  802 	clr	a
      000004 F0               [24]  803 	movx	@dptr,a
                                    804 ;	usr/main.c:132: volatile UINT8 fRecv = 0;
      000005 90r00r23         [24]  805 	mov	dptr,#_fRecv
      000008 F0               [24]  806 	movx	@dptr,a
                                    807 	.area GSFINAL (CODE)
      000000 02r00r5E         [24]  808 	ljmp	__sdcc_program_startup
                                    809 ;--------------------------------------------------------
                                    810 ; Home
                                    811 ;--------------------------------------------------------
                                    812 	.area HOME    (CODE)
                                    813 	.area HOME    (CODE)
      00005E                        814 __sdcc_program_startup:
      00005E 02r08r92         [24]  815 	ljmp	_main
                                    816 ;	return from main will return to caller
                                    817 ;--------------------------------------------------------
                                    818 ; code
                                    819 ;--------------------------------------------------------
                                    820 	.area CSEG    (CODE)
                                    821 ;------------------------------------------------------------
                                    822 ;Allocation info for local variables in function 'UART1Init'
                                    823 ;------------------------------------------------------------
                                    824 ;interrupt                 Allocated to stack - _bp -3
                                    825 ;baudrate                  Allocated to registers r4 r5 r6 r7 
                                    826 ;------------------------------------------------------------
                                    827 ;	usr/main.c:31: void UART1Init(UINT32 baudrate,UINT8 interrupt)
                                    828 ;	-----------------------------------------
                                    829 ;	 function UART1Init
                                    830 ;	-----------------------------------------
      000000                        831 _UART1Init:
                           000007   832 	ar7 = 0x07
                           000006   833 	ar6 = 0x06
                           000005   834 	ar5 = 0x05
                           000004   835 	ar4 = 0x04
                           000003   836 	ar3 = 0x03
                           000002   837 	ar2 = 0x02
                           000001   838 	ar1 = 0x01
                           000000   839 	ar0 = 0x00
      000000 C0*00            [24]  840 	push	_bp
      000002 85 81*00         [24]  841 	mov	_bp,sp
      000005 AC 82            [24]  842 	mov	r4,dpl
      000007 AD 83            [24]  843 	mov	r5,dph
      000009 AE F0            [24]  844 	mov	r6,b
      00000B FF               [12]  845 	mov	r7,a
                                    846 ;	usr/main.c:33: SCON1 &= ~bU1SM0;                    //选择8位数据通讯
      00000C 53 BC 7F         [24]  847 	anl	_SCON1,#0x7f
                                    848 ;	usr/main.c:34: SCON1 |= bU1SMOD;                    //快速模式
      00000F 43 BC 20         [24]  849 	orl	_SCON1,#0x20
                                    850 ;	usr/main.c:35: SCON1 |= bU1REN;                     //使能接收
      000012 43 BC 10         [24]  851 	orl	_SCON1,#0x10
                                    852 ;	usr/main.c:36: SBAUD1 = 0 - FREQ_SYS/16/baudrate; //波特率配置
      000015 C0 04            [24]  853 	push	ar4
      000017 C0 05            [24]  854 	push	ar5
      000019 C0 06            [24]  855 	push	ar6
      00001B C0 07            [24]  856 	push	ar7
      00001D 90 C6 C0         [24]  857 	mov	dptr,#0xc6c0
      000020 75 F0 2D         [24]  858 	mov	b,#0x2d
      000023 E4               [12]  859 	clr	a
      000024 12r00r00         [24]  860 	lcall	__divulong
      000027 AC 82            [24]  861 	mov	r4,dpl
      000029 E5 81            [12]  862 	mov	a,sp
      00002B 24 FC            [12]  863 	add	a,#0xfc
      00002D F5 81            [12]  864 	mov	sp,a
      00002F C3               [12]  865 	clr	c
      000030 E4               [12]  866 	clr	a
      000031 9C               [12]  867 	subb	a,r4
      000032 F5 BE            [12]  868 	mov	_SBAUD1,a
                                    869 ;	usr/main.c:37: SIF1 = bU1TI;                        //清空发送完成标志
      000034 75 BF 02         [24]  870 	mov	_SIF1,#0x02
                                    871 ;	usr/main.c:38: if(interrupt){                   //开启中断使能
      000037 E5*00            [12]  872 	mov	a,_bp
      000039 24 FD            [12]  873 	add	a,#0xfd
      00003B F8               [12]  874 	mov	r0,a
      00003C E6               [12]  875 	mov	a,@r0
      00003D 60 04            [24]  876 	jz	00103$
                                    877 ;	usr/main.c:39: IE_UART1 = 1;
                                    878 ;	assignBit
      00003F D2 EC            [12]  879 	setb	_IE_UART1
                                    880 ;	usr/main.c:40: EA = 1;
                                    881 ;	assignBit
      000041 D2 AF            [12]  882 	setb	_EA
      000043                        883 00103$:
                                    884 ;	usr/main.c:42: }
      000043 D0*00            [24]  885 	pop	_bp
      000045 22               [24]  886 	ret
                                    887 ;------------------------------------------------------------
                                    888 ;Allocation info for local variables in function 'decode_XenP201S'
                                    889 ;------------------------------------------------------------
                                    890 ;radar                     Allocated to stack - _bp -5
                                    891 ;buf                       Allocated to stack - _bp +1
                                    892 ;sloc0                     Allocated to stack - _bp +4
                                    893 ;sloc1                     Allocated to stack - _bp +6
                                    894 ;sloc2                     Allocated to stack - _bp +12
                                    895 ;sloc3                     Allocated to stack - _bp +9
                                    896 ;------------------------------------------------------------
                                    897 ;	usr/main.c:65: UINT8 decode_XenP201S( char* buf,RadarData* radar){
                                    898 ;	-----------------------------------------
                                    899 ;	 function decode_XenP201S
                                    900 ;	-----------------------------------------
      000046                        901 _decode_XenP201S:
      000046 C0*00            [24]  902 	push	_bp
      000048 85 81*00         [24]  903 	mov	_bp,sp
      00004B C0 82            [24]  904 	push	dpl
      00004D C0 83            [24]  905 	push	dph
      00004F C0 F0            [24]  906 	push	b
      000051 E5 81            [12]  907 	mov	a,sp
      000053 24 0B            [12]  908 	add	a,#0x0b
      000055 F5 81            [12]  909 	mov	sp,a
                                    910 ;	usr/main.c:66: radar->x1Pos = (((int)buf[2]<<8)+buf[1]);
      000057 E5*00            [12]  911 	mov	a,_bp
      000059 24 FB            [12]  912 	add	a,#0xfb
      00005B F8               [12]  913 	mov	r0,a
      00005C E5*00            [12]  914 	mov	a,_bp
      00005E 24 0C            [12]  915 	add	a,#0x0c
      000060 F9               [12]  916 	mov	r1,a
      000061 E6               [12]  917 	mov	a,@r0
      000062 F7               [12]  918 	mov	@r1,a
      000063 08               [12]  919 	inc	r0
      000064 09               [12]  920 	inc	r1
      000065 E6               [12]  921 	mov	a,@r0
      000066 F7               [12]  922 	mov	@r1,a
      000067 08               [12]  923 	inc	r0
      000068 09               [12]  924 	inc	r1
      000069 E6               [12]  925 	mov	a,@r0
      00006A F7               [12]  926 	mov	@r1,a
      00006B A8*00            [24]  927 	mov	r0,_bp
      00006D 08               [12]  928 	inc	r0
      00006E 74 02            [12]  929 	mov	a,#0x02
      000070 26               [12]  930 	add	a,@r0
      000071 FD               [12]  931 	mov	r5,a
      000072 E4               [12]  932 	clr	a
      000073 08               [12]  933 	inc	r0
      000074 36               [12]  934 	addc	a,@r0
      000075 FE               [12]  935 	mov	r6,a
      000076 08               [12]  936 	inc	r0
      000077 86 07            [24]  937 	mov	ar7,@r0
      000079 8D 82            [24]  938 	mov	dpl,r5
      00007B 8E 83            [24]  939 	mov	dph,r6
      00007D 8F F0            [24]  940 	mov	b,r7
      00007F 12r00r00         [24]  941 	lcall	__gptrget
      000082 FB               [12]  942 	mov	r3,a
      000083 7C 00            [12]  943 	mov	r4,#0x00
      000085 A8*00            [24]  944 	mov	r0,_bp
      000087 08               [12]  945 	inc	r0
      000088 74 01            [12]  946 	mov	a,#0x01
      00008A 26               [12]  947 	add	a,@r0
      00008B FD               [12]  948 	mov	r5,a
      00008C E4               [12]  949 	clr	a
      00008D 08               [12]  950 	inc	r0
      00008E 36               [12]  951 	addc	a,@r0
      00008F FE               [12]  952 	mov	r6,a
      000090 08               [12]  953 	inc	r0
      000091 86 07            [24]  954 	mov	ar7,@r0
      000093 8D 82            [24]  955 	mov	dpl,r5
      000095 8E 83            [24]  956 	mov	dph,r6
      000097 8F F0            [24]  957 	mov	b,r7
      000099 12r00r00         [24]  958 	lcall	__gptrget
      00009C 7F 00            [12]  959 	mov	r7,#0x00
      00009E 2C               [12]  960 	add	a,r4
      00009F FD               [12]  961 	mov	r5,a
      0000A0 EF               [12]  962 	mov	a,r7
      0000A1 3B               [12]  963 	addc	a,r3
      0000A2 FF               [12]  964 	mov	r7,a
      0000A3 E5*00            [12]  965 	mov	a,_bp
      0000A5 24 0C            [12]  966 	add	a,#0x0c
      0000A7 F8               [12]  967 	mov	r0,a
      0000A8 86 82            [24]  968 	mov	dpl,@r0
      0000AA 08               [12]  969 	inc	r0
      0000AB 86 83            [24]  970 	mov	dph,@r0
      0000AD 08               [12]  971 	inc	r0
      0000AE 86 F0            [24]  972 	mov	b,@r0
      0000B0 ED               [12]  973 	mov	a,r5
      0000B1 12r00r00         [24]  974 	lcall	__gptrput
      0000B4 A3               [24]  975 	inc	dptr
      0000B5 EF               [12]  976 	mov	a,r7
      0000B6 12r00r00         [24]  977 	lcall	__gptrput
                                    978 ;	usr/main.c:67: radar->y1Pos = (((int)buf[4]<<8)+buf[3]);
      0000B9 E5*00            [12]  979 	mov	a,_bp
      0000BB 24 0C            [12]  980 	add	a,#0x0c
      0000BD F8               [12]  981 	mov	r0,a
      0000BE 74 02            [12]  982 	mov	a,#0x02
      0000C0 26               [12]  983 	add	a,@r0
      0000C1 FC               [12]  984 	mov	r4,a
      0000C2 E4               [12]  985 	clr	a
      0000C3 08               [12]  986 	inc	r0
      0000C4 36               [12]  987 	addc	a,@r0
      0000C5 FB               [12]  988 	mov	r3,a
      0000C6 08               [12]  989 	inc	r0
      0000C7 86 02            [24]  990 	mov	ar2,@r0
      0000C9 A8*00            [24]  991 	mov	r0,_bp
      0000CB 08               [12]  992 	inc	r0
      0000CC 74 04            [12]  993 	mov	a,#0x04
      0000CE 26               [12]  994 	add	a,@r0
      0000CF FD               [12]  995 	mov	r5,a
      0000D0 E4               [12]  996 	clr	a
      0000D1 08               [12]  997 	inc	r0
      0000D2 36               [12]  998 	addc	a,@r0
      0000D3 FE               [12]  999 	mov	r6,a
      0000D4 08               [12] 1000 	inc	r0
      0000D5 86 07            [24] 1001 	mov	ar7,@r0
      0000D7 8D 82            [24] 1002 	mov	dpl,r5
      0000D9 8E 83            [24] 1003 	mov	dph,r6
      0000DB 8F F0            [24] 1004 	mov	b,r7
      0000DD 12r00r00         [24] 1005 	lcall	__gptrget
      0000E0 FD               [12] 1006 	mov	r5,a
      0000E1 E5*00            [12] 1007 	mov	a,_bp
      0000E3 24 04            [12] 1008 	add	a,#0x04
      0000E5 F8               [12] 1009 	mov	r0,a
      0000E6 08               [12] 1010 	inc	r0
      0000E7 A6 05            [24] 1011 	mov	@r0,ar5
      0000E9 18               [12] 1012 	dec	r0
      0000EA 76 00            [12] 1013 	mov	@r0,#0x00
      0000EC A8*00            [24] 1014 	mov	r0,_bp
      0000EE 08               [12] 1015 	inc	r0
      0000EF 74 03            [12] 1016 	mov	a,#0x03
      0000F1 26               [12] 1017 	add	a,@r0
      0000F2 FD               [12] 1018 	mov	r5,a
      0000F3 E4               [12] 1019 	clr	a
      0000F4 08               [12] 1020 	inc	r0
      0000F5 36               [12] 1021 	addc	a,@r0
      0000F6 FE               [12] 1022 	mov	r6,a
      0000F7 08               [12] 1023 	inc	r0
      0000F8 86 07            [24] 1024 	mov	ar7,@r0
      0000FA 8D 82            [24] 1025 	mov	dpl,r5
      0000FC 8E 83            [24] 1026 	mov	dph,r6
      0000FE 8F F0            [24] 1027 	mov	b,r7
      000100 12r00r00         [24] 1028 	lcall	__gptrget
      000103 FD               [12] 1029 	mov	r5,a
      000104 7F 00            [12] 1030 	mov	r7,#0x00
      000106 E5*00            [12] 1031 	mov	a,_bp
      000108 24 04            [12] 1032 	add	a,#0x04
      00010A F8               [12] 1033 	mov	r0,a
      00010B ED               [12] 1034 	mov	a,r5
      00010C 26               [12] 1035 	add	a,@r0
      00010D FD               [12] 1036 	mov	r5,a
      00010E EF               [12] 1037 	mov	a,r7
      00010F 08               [12] 1038 	inc	r0
      000110 36               [12] 1039 	addc	a,@r0
      000111 FF               [12] 1040 	mov	r7,a
      000112 8C 82            [24] 1041 	mov	dpl,r4
      000114 8B 83            [24] 1042 	mov	dph,r3
      000116 8A F0            [24] 1043 	mov	b,r2
      000118 ED               [12] 1044 	mov	a,r5
      000119 12r00r00         [24] 1045 	lcall	__gptrput
      00011C A3               [24] 1046 	inc	dptr
      00011D EF               [12] 1047 	mov	a,r7
      00011E 12r00r00         [24] 1048 	lcall	__gptrput
                                   1049 ;	usr/main.c:68: radar->dist1 = (((int)buf[6]<<8)+buf[5]);
      000121 E5*00            [12] 1050 	mov	a,_bp
      000123 24 0C            [12] 1051 	add	a,#0x0c
      000125 F8               [12] 1052 	mov	r0,a
      000126 74 04            [12] 1053 	mov	a,#0x04
      000128 26               [12] 1054 	add	a,@r0
      000129 FC               [12] 1055 	mov	r4,a
      00012A E4               [12] 1056 	clr	a
      00012B 08               [12] 1057 	inc	r0
      00012C 36               [12] 1058 	addc	a,@r0
      00012D FB               [12] 1059 	mov	r3,a
      00012E 08               [12] 1060 	inc	r0
      00012F 86 02            [24] 1061 	mov	ar2,@r0
      000131 A8*00            [24] 1062 	mov	r0,_bp
      000133 08               [12] 1063 	inc	r0
      000134 74 06            [12] 1064 	mov	a,#0x06
      000136 26               [12] 1065 	add	a,@r0
      000137 FD               [12] 1066 	mov	r5,a
      000138 E4               [12] 1067 	clr	a
      000139 08               [12] 1068 	inc	r0
      00013A 36               [12] 1069 	addc	a,@r0
      00013B FE               [12] 1070 	mov	r6,a
      00013C 08               [12] 1071 	inc	r0
      00013D 86 07            [24] 1072 	mov	ar7,@r0
      00013F 8D 82            [24] 1073 	mov	dpl,r5
      000141 8E 83            [24] 1074 	mov	dph,r6
      000143 8F F0            [24] 1075 	mov	b,r7
      000145 12r00r00         [24] 1076 	lcall	__gptrget
      000148 FD               [12] 1077 	mov	r5,a
      000149 E5*00            [12] 1078 	mov	a,_bp
      00014B 24 04            [12] 1079 	add	a,#0x04
      00014D F8               [12] 1080 	mov	r0,a
      00014E 08               [12] 1081 	inc	r0
      00014F A6 05            [24] 1082 	mov	@r0,ar5
      000151 18               [12] 1083 	dec	r0
      000152 76 00            [12] 1084 	mov	@r0,#0x00
      000154 A8*00            [24] 1085 	mov	r0,_bp
      000156 08               [12] 1086 	inc	r0
      000157 74 05            [12] 1087 	mov	a,#0x05
      000159 26               [12] 1088 	add	a,@r0
      00015A FD               [12] 1089 	mov	r5,a
      00015B E4               [12] 1090 	clr	a
      00015C 08               [12] 1091 	inc	r0
      00015D 36               [12] 1092 	addc	a,@r0
      00015E FE               [12] 1093 	mov	r6,a
      00015F 08               [12] 1094 	inc	r0
      000160 86 07            [24] 1095 	mov	ar7,@r0
      000162 8D 82            [24] 1096 	mov	dpl,r5
      000164 8E 83            [24] 1097 	mov	dph,r6
      000166 8F F0            [24] 1098 	mov	b,r7
      000168 12r00r00         [24] 1099 	lcall	__gptrget
      00016B FD               [12] 1100 	mov	r5,a
      00016C 7F 00            [12] 1101 	mov	r7,#0x00
      00016E E5*00            [12] 1102 	mov	a,_bp
      000170 24 04            [12] 1103 	add	a,#0x04
      000172 F8               [12] 1104 	mov	r0,a
      000173 ED               [12] 1105 	mov	a,r5
      000174 26               [12] 1106 	add	a,@r0
      000175 FD               [12] 1107 	mov	r5,a
      000176 EF               [12] 1108 	mov	a,r7
      000177 08               [12] 1109 	inc	r0
      000178 36               [12] 1110 	addc	a,@r0
      000179 FF               [12] 1111 	mov	r7,a
      00017A 8C 82            [24] 1112 	mov	dpl,r4
      00017C 8B 83            [24] 1113 	mov	dph,r3
      00017E 8A F0            [24] 1114 	mov	b,r2
      000180 ED               [12] 1115 	mov	a,r5
      000181 12r00r00         [24] 1116 	lcall	__gptrput
      000184 A3               [24] 1117 	inc	dptr
      000185 EF               [12] 1118 	mov	a,r7
      000186 12r00r00         [24] 1119 	lcall	__gptrput
                                   1120 ;	usr/main.c:69: radar->ang1 = (((int)buf[8]<<8)+buf[7]);
      000189 E5*00            [12] 1121 	mov	a,_bp
      00018B 24 0C            [12] 1122 	add	a,#0x0c
      00018D F8               [12] 1123 	mov	r0,a
      00018E E5*00            [12] 1124 	mov	a,_bp
      000190 24 06            [12] 1125 	add	a,#0x06
      000192 F9               [12] 1126 	mov	r1,a
      000193 74 06            [12] 1127 	mov	a,#0x06
      000195 26               [12] 1128 	add	a,@r0
      000196 F7               [12] 1129 	mov	@r1,a
      000197 E4               [12] 1130 	clr	a
      000198 08               [12] 1131 	inc	r0
      000199 36               [12] 1132 	addc	a,@r0
      00019A 09               [12] 1133 	inc	r1
      00019B F7               [12] 1134 	mov	@r1,a
      00019C 08               [12] 1135 	inc	r0
      00019D 09               [12] 1136 	inc	r1
      00019E E6               [12] 1137 	mov	a,@r0
      00019F F7               [12] 1138 	mov	@r1,a
      0001A0 A8*00            [24] 1139 	mov	r0,_bp
      0001A2 08               [12] 1140 	inc	r0
      0001A3 74 08            [12] 1141 	mov	a,#0x08
      0001A5 26               [12] 1142 	add	a,@r0
      0001A6 FD               [12] 1143 	mov	r5,a
      0001A7 E4               [12] 1144 	clr	a
      0001A8 08               [12] 1145 	inc	r0
      0001A9 36               [12] 1146 	addc	a,@r0
      0001AA FE               [12] 1147 	mov	r6,a
      0001AB 08               [12] 1148 	inc	r0
      0001AC 86 07            [24] 1149 	mov	ar7,@r0
      0001AE 8D 82            [24] 1150 	mov	dpl,r5
      0001B0 8E 83            [24] 1151 	mov	dph,r6
      0001B2 8F F0            [24] 1152 	mov	b,r7
      0001B4 12r00r00         [24] 1153 	lcall	__gptrget
      0001B7 FB               [12] 1154 	mov	r3,a
      0001B8 7C 00            [12] 1155 	mov	r4,#0x00
      0001BA A8*00            [24] 1156 	mov	r0,_bp
      0001BC 08               [12] 1157 	inc	r0
      0001BD 74 07            [12] 1158 	mov	a,#0x07
      0001BF 26               [12] 1159 	add	a,@r0
      0001C0 FD               [12] 1160 	mov	r5,a
      0001C1 E4               [12] 1161 	clr	a
      0001C2 08               [12] 1162 	inc	r0
      0001C3 36               [12] 1163 	addc	a,@r0
      0001C4 FE               [12] 1164 	mov	r6,a
      0001C5 08               [12] 1165 	inc	r0
      0001C6 86 07            [24] 1166 	mov	ar7,@r0
      0001C8 8D 82            [24] 1167 	mov	dpl,r5
      0001CA 8E 83            [24] 1168 	mov	dph,r6
      0001CC 8F F0            [24] 1169 	mov	b,r7
      0001CE 12r00r00         [24] 1170 	lcall	__gptrget
      0001D1 7F 00            [12] 1171 	mov	r7,#0x00
      0001D3 2C               [12] 1172 	add	a,r4
      0001D4 FD               [12] 1173 	mov	r5,a
      0001D5 EF               [12] 1174 	mov	a,r7
      0001D6 3B               [12] 1175 	addc	a,r3
      0001D7 FF               [12] 1176 	mov	r7,a
      0001D8 E5*00            [12] 1177 	mov	a,_bp
      0001DA 24 06            [12] 1178 	add	a,#0x06
      0001DC F8               [12] 1179 	mov	r0,a
      0001DD 86 82            [24] 1180 	mov	dpl,@r0
      0001DF 08               [12] 1181 	inc	r0
      0001E0 86 83            [24] 1182 	mov	dph,@r0
      0001E2 08               [12] 1183 	inc	r0
      0001E3 86 F0            [24] 1184 	mov	b,@r0
      0001E5 ED               [12] 1185 	mov	a,r5
      0001E6 12r00r00         [24] 1186 	lcall	__gptrput
      0001E9 A3               [24] 1187 	inc	dptr
      0001EA EF               [12] 1188 	mov	a,r7
      0001EB 12r00r00         [24] 1189 	lcall	__gptrput
                                   1190 ;	usr/main.c:74: radar->ang1 = radar->ang1 / 10.0 - 90;
      0001EE 8D 82            [24] 1191 	mov	dpl,r5
      0001F0 8F 83            [24] 1192 	mov	dph,r7
      0001F2 12r00r00         [24] 1193 	lcall	___sint2fs
      0001F5 AC 82            [24] 1194 	mov	r4,dpl
      0001F7 AD 83            [24] 1195 	mov	r5,dph
      0001F9 AE F0            [24] 1196 	mov	r6,b
      0001FB FF               [12] 1197 	mov	r7,a
      0001FC E4               [12] 1198 	clr	a
      0001FD C0 E0            [24] 1199 	push	acc
      0001FF C0 E0            [24] 1200 	push	acc
      000201 74 20            [12] 1201 	mov	a,#0x20
      000203 C0 E0            [24] 1202 	push	acc
      000205 74 41            [12] 1203 	mov	a,#0x41
      000207 C0 E0            [24] 1204 	push	acc
      000209 8C 82            [24] 1205 	mov	dpl,r4
      00020B 8D 83            [24] 1206 	mov	dph,r5
      00020D 8E F0            [24] 1207 	mov	b,r6
      00020F EF               [12] 1208 	mov	a,r7
      000210 12r00r00         [24] 1209 	lcall	___fsdiv
      000213 AC 82            [24] 1210 	mov	r4,dpl
      000215 AD 83            [24] 1211 	mov	r5,dph
      000217 AE F0            [24] 1212 	mov	r6,b
      000219 FF               [12] 1213 	mov	r7,a
      00021A E5 81            [12] 1214 	mov	a,sp
      00021C 24 FC            [12] 1215 	add	a,#0xfc
      00021E F5 81            [12] 1216 	mov	sp,a
      000220 E4               [12] 1217 	clr	a
      000221 C0 E0            [24] 1218 	push	acc
      000223 C0 E0            [24] 1219 	push	acc
      000225 74 B4            [12] 1220 	mov	a,#0xb4
      000227 C0 E0            [24] 1221 	push	acc
      000229 74 42            [12] 1222 	mov	a,#0x42
      00022B C0 E0            [24] 1223 	push	acc
      00022D 8C 82            [24] 1224 	mov	dpl,r4
      00022F 8D 83            [24] 1225 	mov	dph,r5
      000231 8E F0            [24] 1226 	mov	b,r6
      000233 EF               [12] 1227 	mov	a,r7
      000234 12r00r00         [24] 1228 	lcall	___fssub
      000237 AC 82            [24] 1229 	mov	r4,dpl
      000239 AD 83            [24] 1230 	mov	r5,dph
      00023B AE F0            [24] 1231 	mov	r6,b
      00023D FF               [12] 1232 	mov	r7,a
      00023E E5 81            [12] 1233 	mov	a,sp
      000240 24 FC            [12] 1234 	add	a,#0xfc
      000242 F5 81            [12] 1235 	mov	sp,a
      000244 8C 82            [24] 1236 	mov	dpl,r4
      000246 8D 83            [24] 1237 	mov	dph,r5
      000248 8E F0            [24] 1238 	mov	b,r6
      00024A EF               [12] 1239 	mov	a,r7
      00024B 12r00r00         [24] 1240 	lcall	___fs2sint
      00024E AF 82            [24] 1241 	mov	r7,dpl
      000250 AE 83            [24] 1242 	mov	r6,dph
      000252 E5*00            [12] 1243 	mov	a,_bp
      000254 24 06            [12] 1244 	add	a,#0x06
      000256 F8               [12] 1245 	mov	r0,a
      000257 86 82            [24] 1246 	mov	dpl,@r0
      000259 08               [12] 1247 	inc	r0
      00025A 86 83            [24] 1248 	mov	dph,@r0
      00025C 08               [12] 1249 	inc	r0
      00025D 86 F0            [24] 1250 	mov	b,@r0
      00025F EF               [12] 1251 	mov	a,r7
      000260 12r00r00         [24] 1252 	lcall	__gptrput
      000263 A3               [24] 1253 	inc	dptr
      000264 EE               [12] 1254 	mov	a,r6
      000265 12r00r00         [24] 1255 	lcall	__gptrput
                                   1256 ;	usr/main.c:76: radar->x2Pos = (((int)buf[10]<<8)+buf[9]);
      000268 E5*00            [12] 1257 	mov	a,_bp
      00026A 24 0C            [12] 1258 	add	a,#0x0c
      00026C F8               [12] 1259 	mov	r0,a
      00026D 74 08            [12] 1260 	mov	a,#0x08
      00026F 26               [12] 1261 	add	a,@r0
      000270 FD               [12] 1262 	mov	r5,a
      000271 E4               [12] 1263 	clr	a
      000272 08               [12] 1264 	inc	r0
      000273 36               [12] 1265 	addc	a,@r0
      000274 FE               [12] 1266 	mov	r6,a
      000275 08               [12] 1267 	inc	r0
      000276 86 07            [24] 1268 	mov	ar7,@r0
      000278 A8*00            [24] 1269 	mov	r0,_bp
      00027A 08               [12] 1270 	inc	r0
      00027B 74 0A            [12] 1271 	mov	a,#0x0a
      00027D 26               [12] 1272 	add	a,@r0
      00027E FA               [12] 1273 	mov	r2,a
      00027F E4               [12] 1274 	clr	a
      000280 08               [12] 1275 	inc	r0
      000281 36               [12] 1276 	addc	a,@r0
      000282 FB               [12] 1277 	mov	r3,a
      000283 08               [12] 1278 	inc	r0
      000284 86 04            [24] 1279 	mov	ar4,@r0
      000286 8A 82            [24] 1280 	mov	dpl,r2
      000288 8B 83            [24] 1281 	mov	dph,r3
      00028A 8C F0            [24] 1282 	mov	b,r4
      00028C 12r00r00         [24] 1283 	lcall	__gptrget
      00028F FA               [12] 1284 	mov	r2,a
      000290 E5*00            [12] 1285 	mov	a,_bp
      000292 24 06            [12] 1286 	add	a,#0x06
      000294 F8               [12] 1287 	mov	r0,a
      000295 08               [12] 1288 	inc	r0
      000296 A6 02            [24] 1289 	mov	@r0,ar2
      000298 18               [12] 1290 	dec	r0
      000299 76 00            [12] 1291 	mov	@r0,#0x00
      00029B A8*00            [24] 1292 	mov	r0,_bp
      00029D 08               [12] 1293 	inc	r0
      00029E 74 09            [12] 1294 	mov	a,#0x09
      0002A0 26               [12] 1295 	add	a,@r0
      0002A1 FA               [12] 1296 	mov	r2,a
      0002A2 E4               [12] 1297 	clr	a
      0002A3 08               [12] 1298 	inc	r0
      0002A4 36               [12] 1299 	addc	a,@r0
      0002A5 FB               [12] 1300 	mov	r3,a
      0002A6 08               [12] 1301 	inc	r0
      0002A7 86 04            [24] 1302 	mov	ar4,@r0
      0002A9 8A 82            [24] 1303 	mov	dpl,r2
      0002AB 8B 83            [24] 1304 	mov	dph,r3
      0002AD 8C F0            [24] 1305 	mov	b,r4
      0002AF 12r00r00         [24] 1306 	lcall	__gptrget
      0002B2 FA               [12] 1307 	mov	r2,a
      0002B3 7C 00            [12] 1308 	mov	r4,#0x00
      0002B5 E5*00            [12] 1309 	mov	a,_bp
      0002B7 24 06            [12] 1310 	add	a,#0x06
      0002B9 F8               [12] 1311 	mov	r0,a
      0002BA EA               [12] 1312 	mov	a,r2
      0002BB 26               [12] 1313 	add	a,@r0
      0002BC FA               [12] 1314 	mov	r2,a
      0002BD EC               [12] 1315 	mov	a,r4
      0002BE 08               [12] 1316 	inc	r0
      0002BF 36               [12] 1317 	addc	a,@r0
      0002C0 FC               [12] 1318 	mov	r4,a
      0002C1 8D 82            [24] 1319 	mov	dpl,r5
      0002C3 8E 83            [24] 1320 	mov	dph,r6
      0002C5 8F F0            [24] 1321 	mov	b,r7
      0002C7 EA               [12] 1322 	mov	a,r2
      0002C8 12r00r00         [24] 1323 	lcall	__gptrput
      0002CB A3               [24] 1324 	inc	dptr
      0002CC EC               [12] 1325 	mov	a,r4
      0002CD 12r00r00         [24] 1326 	lcall	__gptrput
                                   1327 ;	usr/main.c:77: radar->y2Pos = (((int)buf[12]<<8)+buf[11]);
      0002D0 E5*00            [12] 1328 	mov	a,_bp
      0002D2 24 0C            [12] 1329 	add	a,#0x0c
      0002D4 F8               [12] 1330 	mov	r0,a
      0002D5 74 0A            [12] 1331 	mov	a,#0x0a
      0002D7 26               [12] 1332 	add	a,@r0
      0002D8 FD               [12] 1333 	mov	r5,a
      0002D9 E4               [12] 1334 	clr	a
      0002DA 08               [12] 1335 	inc	r0
      0002DB 36               [12] 1336 	addc	a,@r0
      0002DC FE               [12] 1337 	mov	r6,a
      0002DD 08               [12] 1338 	inc	r0
      0002DE 86 07            [24] 1339 	mov	ar7,@r0
      0002E0 A8*00            [24] 1340 	mov	r0,_bp
      0002E2 08               [12] 1341 	inc	r0
      0002E3 74 0C            [12] 1342 	mov	a,#0x0c
      0002E5 26               [12] 1343 	add	a,@r0
      0002E6 FA               [12] 1344 	mov	r2,a
      0002E7 E4               [12] 1345 	clr	a
      0002E8 08               [12] 1346 	inc	r0
      0002E9 36               [12] 1347 	addc	a,@r0
      0002EA FB               [12] 1348 	mov	r3,a
      0002EB 08               [12] 1349 	inc	r0
      0002EC 86 04            [24] 1350 	mov	ar4,@r0
      0002EE 8A 82            [24] 1351 	mov	dpl,r2
      0002F0 8B 83            [24] 1352 	mov	dph,r3
      0002F2 8C F0            [24] 1353 	mov	b,r4
      0002F4 12r00r00         [24] 1354 	lcall	__gptrget
      0002F7 FA               [12] 1355 	mov	r2,a
      0002F8 E5*00            [12] 1356 	mov	a,_bp
      0002FA 24 06            [12] 1357 	add	a,#0x06
      0002FC F8               [12] 1358 	mov	r0,a
      0002FD 08               [12] 1359 	inc	r0
      0002FE A6 02            [24] 1360 	mov	@r0,ar2
      000300 18               [12] 1361 	dec	r0
      000301 76 00            [12] 1362 	mov	@r0,#0x00
      000303 A8*00            [24] 1363 	mov	r0,_bp
      000305 08               [12] 1364 	inc	r0
      000306 74 0B            [12] 1365 	mov	a,#0x0b
      000308 26               [12] 1366 	add	a,@r0
      000309 FA               [12] 1367 	mov	r2,a
      00030A E4               [12] 1368 	clr	a
      00030B 08               [12] 1369 	inc	r0
      00030C 36               [12] 1370 	addc	a,@r0
      00030D FB               [12] 1371 	mov	r3,a
      00030E 08               [12] 1372 	inc	r0
      00030F 86 04            [24] 1373 	mov	ar4,@r0
      000311 8A 82            [24] 1374 	mov	dpl,r2
      000313 8B 83            [24] 1375 	mov	dph,r3
      000315 8C F0            [24] 1376 	mov	b,r4
      000317 12r00r00         [24] 1377 	lcall	__gptrget
      00031A FA               [12] 1378 	mov	r2,a
      00031B 7C 00            [12] 1379 	mov	r4,#0x00
      00031D E5*00            [12] 1380 	mov	a,_bp
      00031F 24 06            [12] 1381 	add	a,#0x06
      000321 F8               [12] 1382 	mov	r0,a
      000322 EA               [12] 1383 	mov	a,r2
      000323 26               [12] 1384 	add	a,@r0
      000324 FA               [12] 1385 	mov	r2,a
      000325 EC               [12] 1386 	mov	a,r4
      000326 08               [12] 1387 	inc	r0
      000327 36               [12] 1388 	addc	a,@r0
      000328 FC               [12] 1389 	mov	r4,a
      000329 8D 82            [24] 1390 	mov	dpl,r5
      00032B 8E 83            [24] 1391 	mov	dph,r6
      00032D 8F F0            [24] 1392 	mov	b,r7
      00032F EA               [12] 1393 	mov	a,r2
      000330 12r00r00         [24] 1394 	lcall	__gptrput
      000333 A3               [24] 1395 	inc	dptr
      000334 EC               [12] 1396 	mov	a,r4
      000335 12r00r00         [24] 1397 	lcall	__gptrput
                                   1398 ;	usr/main.c:78: radar->dist2 = (((int)buf[14]<<8)+buf[13]);
      000338 E5*00            [12] 1399 	mov	a,_bp
      00033A 24 0C            [12] 1400 	add	a,#0x0c
      00033C F8               [12] 1401 	mov	r0,a
      00033D 74 0C            [12] 1402 	mov	a,#0x0c
      00033F 26               [12] 1403 	add	a,@r0
      000340 FD               [12] 1404 	mov	r5,a
      000341 E4               [12] 1405 	clr	a
      000342 08               [12] 1406 	inc	r0
      000343 36               [12] 1407 	addc	a,@r0
      000344 FE               [12] 1408 	mov	r6,a
      000345 08               [12] 1409 	inc	r0
      000346 86 07            [24] 1410 	mov	ar7,@r0
      000348 A8*00            [24] 1411 	mov	r0,_bp
      00034A 08               [12] 1412 	inc	r0
      00034B 74 0E            [12] 1413 	mov	a,#0x0e
      00034D 26               [12] 1414 	add	a,@r0
      00034E FA               [12] 1415 	mov	r2,a
      00034F E4               [12] 1416 	clr	a
      000350 08               [12] 1417 	inc	r0
      000351 36               [12] 1418 	addc	a,@r0
      000352 FB               [12] 1419 	mov	r3,a
      000353 08               [12] 1420 	inc	r0
      000354 86 04            [24] 1421 	mov	ar4,@r0
      000356 8A 82            [24] 1422 	mov	dpl,r2
      000358 8B 83            [24] 1423 	mov	dph,r3
      00035A 8C F0            [24] 1424 	mov	b,r4
      00035C 12r00r00         [24] 1425 	lcall	__gptrget
      00035F FA               [12] 1426 	mov	r2,a
      000360 E5*00            [12] 1427 	mov	a,_bp
      000362 24 06            [12] 1428 	add	a,#0x06
      000364 F8               [12] 1429 	mov	r0,a
      000365 08               [12] 1430 	inc	r0
      000366 A6 02            [24] 1431 	mov	@r0,ar2
      000368 18               [12] 1432 	dec	r0
      000369 76 00            [12] 1433 	mov	@r0,#0x00
      00036B A8*00            [24] 1434 	mov	r0,_bp
      00036D 08               [12] 1435 	inc	r0
      00036E 74 0D            [12] 1436 	mov	a,#0x0d
      000370 26               [12] 1437 	add	a,@r0
      000371 FA               [12] 1438 	mov	r2,a
      000372 E4               [12] 1439 	clr	a
      000373 08               [12] 1440 	inc	r0
      000374 36               [12] 1441 	addc	a,@r0
      000375 FB               [12] 1442 	mov	r3,a
      000376 08               [12] 1443 	inc	r0
      000377 86 04            [24] 1444 	mov	ar4,@r0
      000379 8A 82            [24] 1445 	mov	dpl,r2
      00037B 8B 83            [24] 1446 	mov	dph,r3
      00037D 8C F0            [24] 1447 	mov	b,r4
      00037F 12r00r00         [24] 1448 	lcall	__gptrget
      000382 FA               [12] 1449 	mov	r2,a
      000383 7C 00            [12] 1450 	mov	r4,#0x00
      000385 E5*00            [12] 1451 	mov	a,_bp
      000387 24 06            [12] 1452 	add	a,#0x06
      000389 F8               [12] 1453 	mov	r0,a
      00038A EA               [12] 1454 	mov	a,r2
      00038B 26               [12] 1455 	add	a,@r0
      00038C FA               [12] 1456 	mov	r2,a
      00038D EC               [12] 1457 	mov	a,r4
      00038E 08               [12] 1458 	inc	r0
      00038F 36               [12] 1459 	addc	a,@r0
      000390 FC               [12] 1460 	mov	r4,a
      000391 8D 82            [24] 1461 	mov	dpl,r5
      000393 8E 83            [24] 1462 	mov	dph,r6
      000395 8F F0            [24] 1463 	mov	b,r7
      000397 EA               [12] 1464 	mov	a,r2
      000398 12r00r00         [24] 1465 	lcall	__gptrput
      00039B A3               [24] 1466 	inc	dptr
      00039C EC               [12] 1467 	mov	a,r4
      00039D 12r00r00         [24] 1468 	lcall	__gptrput
                                   1469 ;	usr/main.c:79: radar->ang2 = (((int)buf[16]<<8)+buf[15]);
      0003A0 E5*00            [12] 1470 	mov	a,_bp
      0003A2 24 0C            [12] 1471 	add	a,#0x0c
      0003A4 F8               [12] 1472 	mov	r0,a
      0003A5 E5*00            [12] 1473 	mov	a,_bp
      0003A7 24 09            [12] 1474 	add	a,#0x09
      0003A9 F9               [12] 1475 	mov	r1,a
      0003AA 74 0E            [12] 1476 	mov	a,#0x0e
      0003AC 26               [12] 1477 	add	a,@r0
      0003AD F7               [12] 1478 	mov	@r1,a
      0003AE E4               [12] 1479 	clr	a
      0003AF 08               [12] 1480 	inc	r0
      0003B0 36               [12] 1481 	addc	a,@r0
      0003B1 09               [12] 1482 	inc	r1
      0003B2 F7               [12] 1483 	mov	@r1,a
      0003B3 08               [12] 1484 	inc	r0
      0003B4 09               [12] 1485 	inc	r1
      0003B5 E6               [12] 1486 	mov	a,@r0
      0003B6 F7               [12] 1487 	mov	@r1,a
      0003B7 A8*00            [24] 1488 	mov	r0,_bp
      0003B9 08               [12] 1489 	inc	r0
      0003BA 74 10            [12] 1490 	mov	a,#0x10
      0003BC 26               [12] 1491 	add	a,@r0
      0003BD FA               [12] 1492 	mov	r2,a
      0003BE E4               [12] 1493 	clr	a
      0003BF 08               [12] 1494 	inc	r0
      0003C0 36               [12] 1495 	addc	a,@r0
      0003C1 FB               [12] 1496 	mov	r3,a
      0003C2 08               [12] 1497 	inc	r0
      0003C3 86 04            [24] 1498 	mov	ar4,@r0
      0003C5 8A 82            [24] 1499 	mov	dpl,r2
      0003C7 8B 83            [24] 1500 	mov	dph,r3
      0003C9 8C F0            [24] 1501 	mov	b,r4
      0003CB 12r00r00         [24] 1502 	lcall	__gptrget
      0003CE FE               [12] 1503 	mov	r6,a
      0003CF 7F 00            [12] 1504 	mov	r7,#0x00
      0003D1 A8*00            [24] 1505 	mov	r0,_bp
      0003D3 08               [12] 1506 	inc	r0
      0003D4 74 0F            [12] 1507 	mov	a,#0x0f
      0003D6 26               [12] 1508 	add	a,@r0
      0003D7 FA               [12] 1509 	mov	r2,a
      0003D8 E4               [12] 1510 	clr	a
      0003D9 08               [12] 1511 	inc	r0
      0003DA 36               [12] 1512 	addc	a,@r0
      0003DB FB               [12] 1513 	mov	r3,a
      0003DC 08               [12] 1514 	inc	r0
      0003DD 86 04            [24] 1515 	mov	ar4,@r0
      0003DF 8A 82            [24] 1516 	mov	dpl,r2
      0003E1 8B 83            [24] 1517 	mov	dph,r3
      0003E3 8C F0            [24] 1518 	mov	b,r4
      0003E5 12r00r00         [24] 1519 	lcall	__gptrget
      0003E8 7C 00            [12] 1520 	mov	r4,#0x00
      0003EA 2F               [12] 1521 	add	a,r7
      0003EB FA               [12] 1522 	mov	r2,a
      0003EC EC               [12] 1523 	mov	a,r4
      0003ED 3E               [12] 1524 	addc	a,r6
      0003EE FC               [12] 1525 	mov	r4,a
      0003EF E5*00            [12] 1526 	mov	a,_bp
      0003F1 24 09            [12] 1527 	add	a,#0x09
      0003F3 F8               [12] 1528 	mov	r0,a
      0003F4 86 82            [24] 1529 	mov	dpl,@r0
      0003F6 08               [12] 1530 	inc	r0
      0003F7 86 83            [24] 1531 	mov	dph,@r0
      0003F9 08               [12] 1532 	inc	r0
      0003FA 86 F0            [24] 1533 	mov	b,@r0
      0003FC EA               [12] 1534 	mov	a,r2
      0003FD 12r00r00         [24] 1535 	lcall	__gptrput
      000400 A3               [24] 1536 	inc	dptr
      000401 EC               [12] 1537 	mov	a,r4
      000402 12r00r00         [24] 1538 	lcall	__gptrput
                                   1539 ;	usr/main.c:84: radar->ang2 = radar->ang2 / 10.0 - 90;
      000405 8A 82            [24] 1540 	mov	dpl,r2
      000407 8C 83            [24] 1541 	mov	dph,r4
      000409 12r00r00         [24] 1542 	lcall	___sint2fs
      00040C AA 82            [24] 1543 	mov	r2,dpl
      00040E AB 83            [24] 1544 	mov	r3,dph
      000410 AC F0            [24] 1545 	mov	r4,b
      000412 FF               [12] 1546 	mov	r7,a
      000413 E4               [12] 1547 	clr	a
      000414 C0 E0            [24] 1548 	push	acc
      000416 C0 E0            [24] 1549 	push	acc
      000418 74 20            [12] 1550 	mov	a,#0x20
      00041A C0 E0            [24] 1551 	push	acc
      00041C 74 41            [12] 1552 	mov	a,#0x41
      00041E C0 E0            [24] 1553 	push	acc
      000420 8A 82            [24] 1554 	mov	dpl,r2
      000422 8B 83            [24] 1555 	mov	dph,r3
      000424 8C F0            [24] 1556 	mov	b,r4
      000426 EF               [12] 1557 	mov	a,r7
      000427 12r00r00         [24] 1558 	lcall	___fsdiv
      00042A AC 82            [24] 1559 	mov	r4,dpl
      00042C AD 83            [24] 1560 	mov	r5,dph
      00042E AE F0            [24] 1561 	mov	r6,b
      000430 FF               [12] 1562 	mov	r7,a
      000431 E5 81            [12] 1563 	mov	a,sp
      000433 24 FC            [12] 1564 	add	a,#0xfc
      000435 F5 81            [12] 1565 	mov	sp,a
      000437 E4               [12] 1566 	clr	a
      000438 C0 E0            [24] 1567 	push	acc
      00043A C0 E0            [24] 1568 	push	acc
      00043C 74 B4            [12] 1569 	mov	a,#0xb4
      00043E C0 E0            [24] 1570 	push	acc
      000440 74 42            [12] 1571 	mov	a,#0x42
      000442 C0 E0            [24] 1572 	push	acc
      000444 8C 82            [24] 1573 	mov	dpl,r4
      000446 8D 83            [24] 1574 	mov	dph,r5
      000448 8E F0            [24] 1575 	mov	b,r6
      00044A EF               [12] 1576 	mov	a,r7
      00044B 12r00r00         [24] 1577 	lcall	___fssub
      00044E AC 82            [24] 1578 	mov	r4,dpl
      000450 AD 83            [24] 1579 	mov	r5,dph
      000452 AE F0            [24] 1580 	mov	r6,b
      000454 FF               [12] 1581 	mov	r7,a
      000455 E5 81            [12] 1582 	mov	a,sp
      000457 24 FC            [12] 1583 	add	a,#0xfc
      000459 F5 81            [12] 1584 	mov	sp,a
      00045B 8C 82            [24] 1585 	mov	dpl,r4
      00045D 8D 83            [24] 1586 	mov	dph,r5
      00045F 8E F0            [24] 1587 	mov	b,r6
      000461 EF               [12] 1588 	mov	a,r7
      000462 12r00r00         [24] 1589 	lcall	___fs2sint
      000465 AF 82            [24] 1590 	mov	r7,dpl
      000467 AE 83            [24] 1591 	mov	r6,dph
      000469 E5*00            [12] 1592 	mov	a,_bp
      00046B 24 09            [12] 1593 	add	a,#0x09
      00046D F8               [12] 1594 	mov	r0,a
      00046E 86 82            [24] 1595 	mov	dpl,@r0
      000470 08               [12] 1596 	inc	r0
      000471 86 83            [24] 1597 	mov	dph,@r0
      000473 08               [12] 1598 	inc	r0
      000474 86 F0            [24] 1599 	mov	b,@r0
      000476 EF               [12] 1600 	mov	a,r7
      000477 12r00r00         [24] 1601 	lcall	__gptrput
      00047A A3               [24] 1602 	inc	dptr
      00047B EE               [12] 1603 	mov	a,r6
      00047C 12r00r00         [24] 1604 	lcall	__gptrput
                                   1605 ;	usr/main.c:86: radar->x3Pos = (((int)buf[18]<<8)+buf[17]);
      00047F E5*00            [12] 1606 	mov	a,_bp
      000481 24 0C            [12] 1607 	add	a,#0x0c
      000483 F8               [12] 1608 	mov	r0,a
      000484 74 10            [12] 1609 	mov	a,#0x10
      000486 26               [12] 1610 	add	a,@r0
      000487 FD               [12] 1611 	mov	r5,a
      000488 E4               [12] 1612 	clr	a
      000489 08               [12] 1613 	inc	r0
      00048A 36               [12] 1614 	addc	a,@r0
      00048B FE               [12] 1615 	mov	r6,a
      00048C 08               [12] 1616 	inc	r0
      00048D 86 07            [24] 1617 	mov	ar7,@r0
      00048F A8*00            [24] 1618 	mov	r0,_bp
      000491 08               [12] 1619 	inc	r0
      000492 74 12            [12] 1620 	mov	a,#0x12
      000494 26               [12] 1621 	add	a,@r0
      000495 FA               [12] 1622 	mov	r2,a
      000496 E4               [12] 1623 	clr	a
      000497 08               [12] 1624 	inc	r0
      000498 36               [12] 1625 	addc	a,@r0
      000499 FB               [12] 1626 	mov	r3,a
      00049A 08               [12] 1627 	inc	r0
      00049B 86 04            [24] 1628 	mov	ar4,@r0
      00049D 8A 82            [24] 1629 	mov	dpl,r2
      00049F 8B 83            [24] 1630 	mov	dph,r3
      0004A1 8C F0            [24] 1631 	mov	b,r4
      0004A3 12r00r00         [24] 1632 	lcall	__gptrget
      0004A6 FA               [12] 1633 	mov	r2,a
      0004A7 E5*00            [12] 1634 	mov	a,_bp
      0004A9 24 09            [12] 1635 	add	a,#0x09
      0004AB F8               [12] 1636 	mov	r0,a
      0004AC 08               [12] 1637 	inc	r0
      0004AD A6 02            [24] 1638 	mov	@r0,ar2
      0004AF 18               [12] 1639 	dec	r0
      0004B0 76 00            [12] 1640 	mov	@r0,#0x00
      0004B2 A8*00            [24] 1641 	mov	r0,_bp
      0004B4 08               [12] 1642 	inc	r0
      0004B5 74 11            [12] 1643 	mov	a,#0x11
      0004B7 26               [12] 1644 	add	a,@r0
      0004B8 FA               [12] 1645 	mov	r2,a
      0004B9 E4               [12] 1646 	clr	a
      0004BA 08               [12] 1647 	inc	r0
      0004BB 36               [12] 1648 	addc	a,@r0
      0004BC FB               [12] 1649 	mov	r3,a
      0004BD 08               [12] 1650 	inc	r0
      0004BE 86 04            [24] 1651 	mov	ar4,@r0
      0004C0 8A 82            [24] 1652 	mov	dpl,r2
      0004C2 8B 83            [24] 1653 	mov	dph,r3
      0004C4 8C F0            [24] 1654 	mov	b,r4
      0004C6 12r00r00         [24] 1655 	lcall	__gptrget
      0004C9 FA               [12] 1656 	mov	r2,a
      0004CA 7C 00            [12] 1657 	mov	r4,#0x00
      0004CC E5*00            [12] 1658 	mov	a,_bp
      0004CE 24 09            [12] 1659 	add	a,#0x09
      0004D0 F8               [12] 1660 	mov	r0,a
      0004D1 EA               [12] 1661 	mov	a,r2
      0004D2 26               [12] 1662 	add	a,@r0
      0004D3 FA               [12] 1663 	mov	r2,a
      0004D4 EC               [12] 1664 	mov	a,r4
      0004D5 08               [12] 1665 	inc	r0
      0004D6 36               [12] 1666 	addc	a,@r0
      0004D7 FC               [12] 1667 	mov	r4,a
      0004D8 8D 82            [24] 1668 	mov	dpl,r5
      0004DA 8E 83            [24] 1669 	mov	dph,r6
      0004DC 8F F0            [24] 1670 	mov	b,r7
      0004DE EA               [12] 1671 	mov	a,r2
      0004DF 12r00r00         [24] 1672 	lcall	__gptrput
      0004E2 A3               [24] 1673 	inc	dptr
      0004E3 EC               [12] 1674 	mov	a,r4
      0004E4 12r00r00         [24] 1675 	lcall	__gptrput
                                   1676 ;	usr/main.c:87: radar->y3Pos = (((int)buf[20]<<8)+buf[19]);
      0004E7 E5*00            [12] 1677 	mov	a,_bp
      0004E9 24 0C            [12] 1678 	add	a,#0x0c
      0004EB F8               [12] 1679 	mov	r0,a
      0004EC 74 12            [12] 1680 	mov	a,#0x12
      0004EE 26               [12] 1681 	add	a,@r0
      0004EF FD               [12] 1682 	mov	r5,a
      0004F0 E4               [12] 1683 	clr	a
      0004F1 08               [12] 1684 	inc	r0
      0004F2 36               [12] 1685 	addc	a,@r0
      0004F3 FE               [12] 1686 	mov	r6,a
      0004F4 08               [12] 1687 	inc	r0
      0004F5 86 07            [24] 1688 	mov	ar7,@r0
      0004F7 A8*00            [24] 1689 	mov	r0,_bp
      0004F9 08               [12] 1690 	inc	r0
      0004FA 74 14            [12] 1691 	mov	a,#0x14
      0004FC 26               [12] 1692 	add	a,@r0
      0004FD FA               [12] 1693 	mov	r2,a
      0004FE E4               [12] 1694 	clr	a
      0004FF 08               [12] 1695 	inc	r0
      000500 36               [12] 1696 	addc	a,@r0
      000501 FB               [12] 1697 	mov	r3,a
      000502 08               [12] 1698 	inc	r0
      000503 86 04            [24] 1699 	mov	ar4,@r0
      000505 8A 82            [24] 1700 	mov	dpl,r2
      000507 8B 83            [24] 1701 	mov	dph,r3
      000509 8C F0            [24] 1702 	mov	b,r4
      00050B 12r00r00         [24] 1703 	lcall	__gptrget
      00050E FA               [12] 1704 	mov	r2,a
      00050F E5*00            [12] 1705 	mov	a,_bp
      000511 24 09            [12] 1706 	add	a,#0x09
      000513 F8               [12] 1707 	mov	r0,a
      000514 08               [12] 1708 	inc	r0
      000515 A6 02            [24] 1709 	mov	@r0,ar2
      000517 18               [12] 1710 	dec	r0
      000518 76 00            [12] 1711 	mov	@r0,#0x00
      00051A A8*00            [24] 1712 	mov	r0,_bp
      00051C 08               [12] 1713 	inc	r0
      00051D 74 13            [12] 1714 	mov	a,#0x13
      00051F 26               [12] 1715 	add	a,@r0
      000520 FA               [12] 1716 	mov	r2,a
      000521 E4               [12] 1717 	clr	a
      000522 08               [12] 1718 	inc	r0
      000523 36               [12] 1719 	addc	a,@r0
      000524 FB               [12] 1720 	mov	r3,a
      000525 08               [12] 1721 	inc	r0
      000526 86 04            [24] 1722 	mov	ar4,@r0
      000528 8A 82            [24] 1723 	mov	dpl,r2
      00052A 8B 83            [24] 1724 	mov	dph,r3
      00052C 8C F0            [24] 1725 	mov	b,r4
      00052E 12r00r00         [24] 1726 	lcall	__gptrget
      000531 FA               [12] 1727 	mov	r2,a
      000532 7C 00            [12] 1728 	mov	r4,#0x00
      000534 E5*00            [12] 1729 	mov	a,_bp
      000536 24 09            [12] 1730 	add	a,#0x09
      000538 F8               [12] 1731 	mov	r0,a
      000539 EA               [12] 1732 	mov	a,r2
      00053A 26               [12] 1733 	add	a,@r0
      00053B FA               [12] 1734 	mov	r2,a
      00053C EC               [12] 1735 	mov	a,r4
      00053D 08               [12] 1736 	inc	r0
      00053E 36               [12] 1737 	addc	a,@r0
      00053F FC               [12] 1738 	mov	r4,a
      000540 8D 82            [24] 1739 	mov	dpl,r5
      000542 8E 83            [24] 1740 	mov	dph,r6
      000544 8F F0            [24] 1741 	mov	b,r7
      000546 EA               [12] 1742 	mov	a,r2
      000547 12r00r00         [24] 1743 	lcall	__gptrput
      00054A A3               [24] 1744 	inc	dptr
      00054B EC               [12] 1745 	mov	a,r4
      00054C 12r00r00         [24] 1746 	lcall	__gptrput
                                   1747 ;	usr/main.c:88: radar->dist3 = (((int)buf[22]<<8)+buf[21]);
      00054F E5*00            [12] 1748 	mov	a,_bp
      000551 24 0C            [12] 1749 	add	a,#0x0c
      000553 F8               [12] 1750 	mov	r0,a
      000554 74 14            [12] 1751 	mov	a,#0x14
      000556 26               [12] 1752 	add	a,@r0
      000557 FD               [12] 1753 	mov	r5,a
      000558 E4               [12] 1754 	clr	a
      000559 08               [12] 1755 	inc	r0
      00055A 36               [12] 1756 	addc	a,@r0
      00055B FE               [12] 1757 	mov	r6,a
      00055C 08               [12] 1758 	inc	r0
      00055D 86 07            [24] 1759 	mov	ar7,@r0
      00055F A8*00            [24] 1760 	mov	r0,_bp
      000561 08               [12] 1761 	inc	r0
      000562 74 16            [12] 1762 	mov	a,#0x16
      000564 26               [12] 1763 	add	a,@r0
      000565 FA               [12] 1764 	mov	r2,a
      000566 E4               [12] 1765 	clr	a
      000567 08               [12] 1766 	inc	r0
      000568 36               [12] 1767 	addc	a,@r0
      000569 FB               [12] 1768 	mov	r3,a
      00056A 08               [12] 1769 	inc	r0
      00056B 86 04            [24] 1770 	mov	ar4,@r0
      00056D 8A 82            [24] 1771 	mov	dpl,r2
      00056F 8B 83            [24] 1772 	mov	dph,r3
      000571 8C F0            [24] 1773 	mov	b,r4
      000573 12r00r00         [24] 1774 	lcall	__gptrget
      000576 FA               [12] 1775 	mov	r2,a
      000577 E5*00            [12] 1776 	mov	a,_bp
      000579 24 09            [12] 1777 	add	a,#0x09
      00057B F8               [12] 1778 	mov	r0,a
      00057C 08               [12] 1779 	inc	r0
      00057D A6 02            [24] 1780 	mov	@r0,ar2
      00057F 18               [12] 1781 	dec	r0
      000580 76 00            [12] 1782 	mov	@r0,#0x00
      000582 A8*00            [24] 1783 	mov	r0,_bp
      000584 08               [12] 1784 	inc	r0
      000585 74 15            [12] 1785 	mov	a,#0x15
      000587 26               [12] 1786 	add	a,@r0
      000588 FA               [12] 1787 	mov	r2,a
      000589 E4               [12] 1788 	clr	a
      00058A 08               [12] 1789 	inc	r0
      00058B 36               [12] 1790 	addc	a,@r0
      00058C FB               [12] 1791 	mov	r3,a
      00058D 08               [12] 1792 	inc	r0
      00058E 86 04            [24] 1793 	mov	ar4,@r0
      000590 8A 82            [24] 1794 	mov	dpl,r2
      000592 8B 83            [24] 1795 	mov	dph,r3
      000594 8C F0            [24] 1796 	mov	b,r4
      000596 12r00r00         [24] 1797 	lcall	__gptrget
      000599 FA               [12] 1798 	mov	r2,a
      00059A 7C 00            [12] 1799 	mov	r4,#0x00
      00059C E5*00            [12] 1800 	mov	a,_bp
      00059E 24 09            [12] 1801 	add	a,#0x09
      0005A0 F8               [12] 1802 	mov	r0,a
      0005A1 EA               [12] 1803 	mov	a,r2
      0005A2 26               [12] 1804 	add	a,@r0
      0005A3 FA               [12] 1805 	mov	r2,a
      0005A4 EC               [12] 1806 	mov	a,r4
      0005A5 08               [12] 1807 	inc	r0
      0005A6 36               [12] 1808 	addc	a,@r0
      0005A7 FC               [12] 1809 	mov	r4,a
      0005A8 8D 82            [24] 1810 	mov	dpl,r5
      0005AA 8E 83            [24] 1811 	mov	dph,r6
      0005AC 8F F0            [24] 1812 	mov	b,r7
      0005AE EA               [12] 1813 	mov	a,r2
      0005AF 12r00r00         [24] 1814 	lcall	__gptrput
      0005B2 A3               [24] 1815 	inc	dptr
      0005B3 EC               [12] 1816 	mov	a,r4
      0005B4 12r00r00         [24] 1817 	lcall	__gptrput
                                   1818 ;	usr/main.c:89: radar->ang3 = (((int)buf[24]<<8)+buf[23]);
      0005B7 E5*00            [12] 1819 	mov	a,_bp
      0005B9 24 0C            [12] 1820 	add	a,#0x0c
      0005BB F8               [12] 1821 	mov	r0,a
      0005BC 74 16            [12] 1822 	mov	a,#0x16
      0005BE 26               [12] 1823 	add	a,@r0
      0005BF F6               [12] 1824 	mov	@r0,a
      0005C0 E4               [12] 1825 	clr	a
      0005C1 08               [12] 1826 	inc	r0
      0005C2 36               [12] 1827 	addc	a,@r0
      0005C3 F6               [12] 1828 	mov	@r0,a
      0005C4 A8*00            [24] 1829 	mov	r0,_bp
      0005C6 08               [12] 1830 	inc	r0
      0005C7 74 18            [12] 1831 	mov	a,#0x18
      0005C9 26               [12] 1832 	add	a,@r0
      0005CA FA               [12] 1833 	mov	r2,a
      0005CB E4               [12] 1834 	clr	a
      0005CC 08               [12] 1835 	inc	r0
      0005CD 36               [12] 1836 	addc	a,@r0
      0005CE FB               [12] 1837 	mov	r3,a
      0005CF 08               [12] 1838 	inc	r0
      0005D0 86 04            [24] 1839 	mov	ar4,@r0
      0005D2 8A 82            [24] 1840 	mov	dpl,r2
      0005D4 8B 83            [24] 1841 	mov	dph,r3
      0005D6 8C F0            [24] 1842 	mov	b,r4
      0005D8 12r00r00         [24] 1843 	lcall	__gptrget
      0005DB FE               [12] 1844 	mov	r6,a
      0005DC 7F 00            [12] 1845 	mov	r7,#0x00
      0005DE A8*00            [24] 1846 	mov	r0,_bp
      0005E0 08               [12] 1847 	inc	r0
      0005E1 74 17            [12] 1848 	mov	a,#0x17
      0005E3 26               [12] 1849 	add	a,@r0
      0005E4 FA               [12] 1850 	mov	r2,a
      0005E5 E4               [12] 1851 	clr	a
      0005E6 08               [12] 1852 	inc	r0
      0005E7 36               [12] 1853 	addc	a,@r0
      0005E8 FB               [12] 1854 	mov	r3,a
      0005E9 08               [12] 1855 	inc	r0
      0005EA 86 04            [24] 1856 	mov	ar4,@r0
      0005EC 8A 82            [24] 1857 	mov	dpl,r2
      0005EE 8B 83            [24] 1858 	mov	dph,r3
      0005F0 8C F0            [24] 1859 	mov	b,r4
      0005F2 12r00r00         [24] 1860 	lcall	__gptrget
      0005F5 7C 00            [12] 1861 	mov	r4,#0x00
      0005F7 2F               [12] 1862 	add	a,r7
      0005F8 FA               [12] 1863 	mov	r2,a
      0005F9 EC               [12] 1864 	mov	a,r4
      0005FA 3E               [12] 1865 	addc	a,r6
      0005FB FC               [12] 1866 	mov	r4,a
      0005FC E5*00            [12] 1867 	mov	a,_bp
      0005FE 24 0C            [12] 1868 	add	a,#0x0c
      000600 F8               [12] 1869 	mov	r0,a
      000601 86 82            [24] 1870 	mov	dpl,@r0
      000603 08               [12] 1871 	inc	r0
      000604 86 83            [24] 1872 	mov	dph,@r0
      000606 08               [12] 1873 	inc	r0
      000607 86 F0            [24] 1874 	mov	b,@r0
      000609 EA               [12] 1875 	mov	a,r2
      00060A 12r00r00         [24] 1876 	lcall	__gptrput
      00060D A3               [24] 1877 	inc	dptr
      00060E EC               [12] 1878 	mov	a,r4
      00060F 12r00r00         [24] 1879 	lcall	__gptrput
                                   1880 ;	usr/main.c:94: radar->ang3 = radar->ang3 / 10.0 - 90;
      000612 8A 82            [24] 1881 	mov	dpl,r2
      000614 8C 83            [24] 1882 	mov	dph,r4
      000616 12r00r00         [24] 1883 	lcall	___sint2fs
      000619 AA 82            [24] 1884 	mov	r2,dpl
      00061B AB 83            [24] 1885 	mov	r3,dph
      00061D AC F0            [24] 1886 	mov	r4,b
      00061F FF               [12] 1887 	mov	r7,a
      000620 E4               [12] 1888 	clr	a
      000621 C0 E0            [24] 1889 	push	acc
      000623 C0 E0            [24] 1890 	push	acc
      000625 74 20            [12] 1891 	mov	a,#0x20
      000627 C0 E0            [24] 1892 	push	acc
      000629 74 41            [12] 1893 	mov	a,#0x41
      00062B C0 E0            [24] 1894 	push	acc
      00062D 8A 82            [24] 1895 	mov	dpl,r2
      00062F 8B 83            [24] 1896 	mov	dph,r3
      000631 8C F0            [24] 1897 	mov	b,r4
      000633 EF               [12] 1898 	mov	a,r7
      000634 12r00r00         [24] 1899 	lcall	___fsdiv
      000637 AC 82            [24] 1900 	mov	r4,dpl
      000639 AD 83            [24] 1901 	mov	r5,dph
      00063B AE F0            [24] 1902 	mov	r6,b
      00063D FF               [12] 1903 	mov	r7,a
      00063E E5 81            [12] 1904 	mov	a,sp
      000640 24 FC            [12] 1905 	add	a,#0xfc
      000642 F5 81            [12] 1906 	mov	sp,a
      000644 E4               [12] 1907 	clr	a
      000645 C0 E0            [24] 1908 	push	acc
      000647 C0 E0            [24] 1909 	push	acc
      000649 74 B4            [12] 1910 	mov	a,#0xb4
      00064B C0 E0            [24] 1911 	push	acc
      00064D 74 42            [12] 1912 	mov	a,#0x42
      00064F C0 E0            [24] 1913 	push	acc
      000651 8C 82            [24] 1914 	mov	dpl,r4
      000653 8D 83            [24] 1915 	mov	dph,r5
      000655 8E F0            [24] 1916 	mov	b,r6
      000657 EF               [12] 1917 	mov	a,r7
      000658 12r00r00         [24] 1918 	lcall	___fssub
      00065B AC 82            [24] 1919 	mov	r4,dpl
      00065D AD 83            [24] 1920 	mov	r5,dph
      00065F AE F0            [24] 1921 	mov	r6,b
      000661 FF               [12] 1922 	mov	r7,a
      000662 E5 81            [12] 1923 	mov	a,sp
      000664 24 FC            [12] 1924 	add	a,#0xfc
      000666 F5 81            [12] 1925 	mov	sp,a
      000668 8C 82            [24] 1926 	mov	dpl,r4
      00066A 8D 83            [24] 1927 	mov	dph,r5
      00066C 8E F0            [24] 1928 	mov	b,r6
      00066E EF               [12] 1929 	mov	a,r7
      00066F 12r00r00         [24] 1930 	lcall	___fs2sint
      000672 AF 82            [24] 1931 	mov	r7,dpl
      000674 AE 83            [24] 1932 	mov	r6,dph
      000676 E5*00            [12] 1933 	mov	a,_bp
      000678 24 0C            [12] 1934 	add	a,#0x0c
      00067A F8               [12] 1935 	mov	r0,a
      00067B 86 82            [24] 1936 	mov	dpl,@r0
      00067D 08               [12] 1937 	inc	r0
      00067E 86 83            [24] 1938 	mov	dph,@r0
      000680 08               [12] 1939 	inc	r0
      000681 86 F0            [24] 1940 	mov	b,@r0
      000683 EF               [12] 1941 	mov	a,r7
      000684 12r00r00         [24] 1942 	lcall	__gptrput
      000687 A3               [24] 1943 	inc	dptr
      000688 EE               [12] 1944 	mov	a,r6
      000689 12r00r00         [24] 1945 	lcall	__gptrput
                                   1946 ;	usr/main.c:96: return 0;
      00068C 75 82 00         [24] 1947 	mov	dpl,#0x00
                                   1948 ;	usr/main.c:97: }
      00068F 85*00 81         [24] 1949 	mov	sp,_bp
      000692 D0*00            [24] 1950 	pop	_bp
      000694 22               [24] 1951 	ret
                                   1952 ;------------------------------------------------------------
                                   1953 ;Allocation info for local variables in function 'LightTurn'
                                   1954 ;------------------------------------------------------------
                                   1955 ;Deg                       Allocated to registers r6 r7 
                                   1956 ;Dir                       Allocated to registers b0 
                                   1957 ;STEP                      Allocated to registers r4 r5 
                                   1958 ;i                         Allocated to stack - _bp +1
                                   1959 ;------------------------------------------------------------
                                   1960 ;	usr/main.c:99: void LightTurn(BOOL Dir, UINT16 Deg)
                                   1961 ;	-----------------------------------------
                                   1962 ;	 function LightTurn
                                   1963 ;	-----------------------------------------
      000695                       1964 _LightTurn:
      000695 C0*00            [24] 1965 	push	_bp
      000697 85 81*00         [24] 1966 	mov	_bp,sp
      00069A 05 81            [12] 1967 	inc	sp
      00069C 05 81            [12] 1968 	inc	sp
      00069E AE 82            [24] 1969 	mov	r6,dpl
      0006A0 AF 83            [24] 1970 	mov	r7,dph
                                   1971 ;	usr/main.c:101: GPIO_Init(PORT0,PIN6,MODE1);
      0006A2 C0 07            [24] 1972 	push	ar7
      0006A4 C0 06            [24] 1973 	push	ar6
      0006A6 C0*00            [24] 1974 	push	bits
      0006A8 74 01            [12] 1975 	mov	a,#0x01
      0006AA C0 E0            [24] 1976 	push	acc
      0006AC 74 40            [12] 1977 	mov	a,#0x40
      0006AE C0 E0            [24] 1978 	push	acc
      0006B0 75 82 00         [24] 1979 	mov	dpl,#0x00
      0006B3 12r00r00         [24] 1980 	lcall	_GPIO_Init
      0006B6 15 81            [12] 1981 	dec	sp
      0006B8 15 81            [12] 1982 	dec	sp
      0006BA D0*00            [24] 1983 	pop	bits
      0006BC D0 06            [24] 1984 	pop	ar6
      0006BE D0 07            [24] 1985 	pop	ar7
                                   1986 ;	usr/main.c:103: STEP = Deg * 5 * 8 / 1.8;
      0006C0 C0 07            [24] 1987 	push	ar7
      0006C2 C0 06            [24] 1988 	push	ar6
      0006C4 C0*00            [24] 1989 	push	bits
      0006C6 C0 06            [24] 1990 	push	ar6
      0006C8 C0 07            [24] 1991 	push	ar7
      0006CA 90 00 28         [24] 1992 	mov	dptr,#0x0028
      0006CD 12r00r00         [24] 1993 	lcall	__mulint
      0006D0 AC 82            [24] 1994 	mov	r4,dpl
      0006D2 AD 83            [24] 1995 	mov	r5,dph
      0006D4 15 81            [12] 1996 	dec	sp
      0006D6 15 81            [12] 1997 	dec	sp
      0006D8 D0*00            [24] 1998 	pop	bits
      0006DA 8C 82            [24] 1999 	mov	dpl,r4
      0006DC 8D 83            [24] 2000 	mov	dph,r5
      0006DE C0*00            [24] 2001 	push	bits
      0006E0 12r00r00         [24] 2002 	lcall	___uint2fs
      0006E3 AA 82            [24] 2003 	mov	r2,dpl
      0006E5 AB 83            [24] 2004 	mov	r3,dph
      0006E7 AC F0            [24] 2005 	mov	r4,b
      0006E9 FD               [12] 2006 	mov	r5,a
      0006EA D0*00            [24] 2007 	pop	bits
      0006EC C0*00            [24] 2008 	push	bits
      0006EE 74 66            [12] 2009 	mov	a,#0x66
      0006F0 C0 E0            [24] 2010 	push	acc
      0006F2 C0 E0            [24] 2011 	push	acc
      0006F4 74 E6            [12] 2012 	mov	a,#0xe6
      0006F6 C0 E0            [24] 2013 	push	acc
      0006F8 74 3F            [12] 2014 	mov	a,#0x3f
      0006FA C0 E0            [24] 2015 	push	acc
      0006FC 8A 82            [24] 2016 	mov	dpl,r2
      0006FE 8B 83            [24] 2017 	mov	dph,r3
      000700 8C F0            [24] 2018 	mov	b,r4
      000702 ED               [12] 2019 	mov	a,r5
      000703 12r00r00         [24] 2020 	lcall	___fsdiv
      000706 AA 82            [24] 2021 	mov	r2,dpl
      000708 AB 83            [24] 2022 	mov	r3,dph
      00070A AC F0            [24] 2023 	mov	r4,b
      00070C FD               [12] 2024 	mov	r5,a
      00070D E5 81            [12] 2025 	mov	a,sp
      00070F 24 FC            [12] 2026 	add	a,#0xfc
      000711 F5 81            [12] 2027 	mov	sp,a
      000713 D0*00            [24] 2028 	pop	bits
      000715 8A 82            [24] 2029 	mov	dpl,r2
      000717 8B 83            [24] 2030 	mov	dph,r3
      000719 8C F0            [24] 2031 	mov	b,r4
      00071B ED               [12] 2032 	mov	a,r5
      00071C C0*00            [24] 2033 	push	bits
      00071E 12r00r00         [24] 2034 	lcall	___fs2uint
      000721 AC 82            [24] 2035 	mov	r4,dpl
      000723 AD 83            [24] 2036 	mov	r5,dph
      000725 D0*00            [24] 2037 	pop	bits
                                   2038 ;	usr/main.c:104: Direction = Dir;
                                   2039 ;	assignBit
      000727 A2*00            [12] 2040 	mov	c,b0
      000729 92 86            [24] 2041 	mov	_P0_6,c
                                   2042 ;	usr/main.c:105: setCursor(0,4);
      00072B C0 05            [24] 2043 	push	ar5
      00072D C0 04            [24] 2044 	push	ar4
      00072F C0*00            [24] 2045 	push	bits
      000731 74 04            [12] 2046 	mov	a,#0x04
      000733 C0 E0            [24] 2047 	push	acc
      000735 E4               [12] 2048 	clr	a
      000736 C0 E0            [24] 2049 	push	acc
      000738 90 00 00         [24] 2050 	mov	dptr,#0x0000
      00073B 12r0Br83         [24] 2051 	lcall	_setCursor
      00073E 15 81            [12] 2052 	dec	sp
      000740 15 81            [12] 2053 	dec	sp
      000742 D0*00            [24] 2054 	pop	bits
      000744 D0 04            [24] 2055 	pop	ar4
      000746 D0 05            [24] 2056 	pop	ar5
      000748 D0 06            [24] 2057 	pop	ar6
      00074A D0 07            [24] 2058 	pop	ar7
                                   2059 ;	usr/main.c:106: printf_fast_f("D:%d S:%3d G:%2d",Dir,STEP,Deg);
      00074C A2*00            [12] 2060 	mov	c,b0
      00074E E4               [12] 2061 	clr	a
      00074F 33               [12] 2062 	rlc	a
      000750 FA               [12] 2063 	mov	r2,a
      000751 7B 00            [12] 2064 	mov	r3,#0x00
      000753 C0 05            [24] 2065 	push	ar5
      000755 C0 04            [24] 2066 	push	ar4
      000757 C0 06            [24] 2067 	push	ar6
      000759 C0 07            [24] 2068 	push	ar7
      00075B C0 04            [24] 2069 	push	ar4
      00075D C0 05            [24] 2070 	push	ar5
      00075F C0 02            [24] 2071 	push	ar2
      000761 C0 03            [24] 2072 	push	ar3
      000763 74r00            [12] 2073 	mov	a,#___str_0
      000765 C0 E0            [24] 2074 	push	acc
      000767 74s00            [12] 2075 	mov	a,#(___str_0 >> 8)
      000769 C0 E0            [24] 2076 	push	acc
      00076B 12r00r00         [24] 2077 	lcall	_printf_fast_f
      00076E E5 81            [12] 2078 	mov	a,sp
      000770 24 F8            [12] 2079 	add	a,#0xf8
      000772 F5 81            [12] 2080 	mov	sp,a
      000774 D0 04            [24] 2081 	pop	ar4
      000776 D0 05            [24] 2082 	pop	ar5
                                   2083 ;	usr/main.c:107: for (UINT16 i = 0; i < STEP; i++)
      000778 A8*00            [24] 2084 	mov	r0,_bp
      00077A 08               [12] 2085 	inc	r0
      00077B E4               [12] 2086 	clr	a
      00077C F6               [12] 2087 	mov	@r0,a
      00077D 08               [12] 2088 	inc	r0
      00077E F6               [12] 2089 	mov	@r0,a
      00077F                       2090 00103$:
      00077F A8*00            [24] 2091 	mov	r0,_bp
      000781 08               [12] 2092 	inc	r0
      000782 C3               [12] 2093 	clr	c
      000783 E6               [12] 2094 	mov	a,@r0
      000784 9C               [12] 2095 	subb	a,r4
      000785 08               [12] 2096 	inc	r0
      000786 E6               [12] 2097 	mov	a,@r0
      000787 9D               [12] 2098 	subb	a,r5
      000788 50 51            [24] 2099 	jnc	00105$
                                   2100 ;	usr/main.c:109: Steps = 1;
                                   2101 ;	assignBit
      00078A D2 87            [12] 2102 	setb	_P0_7
                                   2103 ;	usr/main.c:110: mDelayuS(1000000/STEP);
      00078C 8C 02            [24] 2104 	mov	ar2,r4
      00078E 8D 03            [24] 2105 	mov	ar3,r5
      000790 7E 00            [12] 2106 	mov	r6,#0x00
      000792 7F 00            [12] 2107 	mov	r7,#0x00
      000794 C0 05            [24] 2108 	push	ar5
      000796 C0 04            [24] 2109 	push	ar4
      000798 C0 02            [24] 2110 	push	ar2
      00079A C0 03            [24] 2111 	push	ar3
      00079C C0 06            [24] 2112 	push	ar6
      00079E C0 07            [24] 2113 	push	ar7
      0007A0 90 42 40         [24] 2114 	mov	dptr,#0x4240
      0007A3 75 F0 0F         [24] 2115 	mov	b,#0x0f
      0007A6 E4               [12] 2116 	clr	a
      0007A7 12r00r00         [24] 2117 	lcall	__divslong
      0007AA AA 82            [24] 2118 	mov	r2,dpl
      0007AC AB 83            [24] 2119 	mov	r3,dph
      0007AE E5 81            [12] 2120 	mov	a,sp
      0007B0 24 FC            [12] 2121 	add	a,#0xfc
      0007B2 F5 81            [12] 2122 	mov	sp,a
      0007B4 8A 82            [24] 2123 	mov	dpl,r2
      0007B6 8B 83            [24] 2124 	mov	dph,r3
      0007B8 C0 03            [24] 2125 	push	ar3
      0007BA C0 02            [24] 2126 	push	ar2
      0007BC 12r00r00         [24] 2127 	lcall	_mDelayuS
      0007BF D0 02            [24] 2128 	pop	ar2
      0007C1 D0 03            [24] 2129 	pop	ar3
                                   2130 ;	usr/main.c:111: Steps = 0;
                                   2131 ;	assignBit
      0007C3 C2 87            [12] 2132 	clr	_P0_7
                                   2133 ;	usr/main.c:112: mDelayuS(1000000/STEP);
      0007C5 8A 82            [24] 2134 	mov	dpl,r2
      0007C7 8B 83            [24] 2135 	mov	dph,r3
      0007C9 12r00r00         [24] 2136 	lcall	_mDelayuS
      0007CC D0 04            [24] 2137 	pop	ar4
      0007CE D0 05            [24] 2138 	pop	ar5
                                   2139 ;	usr/main.c:107: for (UINT16 i = 0; i < STEP; i++)
      0007D0 A8*00            [24] 2140 	mov	r0,_bp
      0007D2 08               [12] 2141 	inc	r0
      0007D3 06               [12] 2142 	inc	@r0
      0007D4 B6 00 02         [24] 2143 	cjne	@r0,#0x00,00117$
      0007D7 08               [12] 2144 	inc	r0
      0007D8 06               [12] 2145 	inc	@r0
      0007D9                       2146 00117$:
      0007D9 80 A4            [24] 2147 	sjmp	00103$
      0007DB                       2148 00105$:
                                   2149 ;	usr/main.c:115: }
      0007DB 85*00 81         [24] 2150 	mov	sp,_bp
      0007DE D0*00            [24] 2151 	pop	_bp
      0007E0 22               [24] 2152 	ret
                                   2153 ;------------------------------------------------------------
                                   2154 ;Allocation info for local variables in function 'FaceTrack'
                                   2155 ;------------------------------------------------------------
                                   2156 ;A                         Allocated to registers r6 r7 
                                   2157 ;------------------------------------------------------------
                                   2158 ;	usr/main.c:117: void FaceTrack( int A)
                                   2159 ;	-----------------------------------------
                                   2160 ;	 function FaceTrack
                                   2161 ;	-----------------------------------------
      0007E1                       2162 _FaceTrack:
      0007E1 AE 82            [24] 2163 	mov	r6,dpl
      0007E3 AF 83            [24] 2164 	mov	r7,dph
                                   2165 ;	usr/main.c:119: if ( A < 85)
      0007E5 C3               [12] 2166 	clr	c
      0007E6 EE               [12] 2167 	mov	a,r6
      0007E7 94 55            [12] 2168 	subb	a,#0x55
      0007E9 EF               [12] 2169 	mov	a,r7
      0007EA 64 80            [12] 2170 	xrl	a,#0x80
      0007EC 94 80            [12] 2171 	subb	a,#0x80
      0007EE 50 51            [24] 2172 	jnc	00102$
                                   2173 ;	usr/main.c:121: LightTurn(Counterclockwise, 1+(90-A)*5/9);
      0007F0 74 5A            [12] 2174 	mov	a,#0x5a
      0007F2 C3               [12] 2175 	clr	c
      0007F3 9E               [12] 2176 	subb	a,r6
      0007F4 FC               [12] 2177 	mov	r4,a
      0007F5 E4               [12] 2178 	clr	a
      0007F6 9F               [12] 2179 	subb	a,r7
      0007F7 FD               [12] 2180 	mov	r5,a
      0007F8 C0 07            [24] 2181 	push	ar7
      0007FA C0 06            [24] 2182 	push	ar6
      0007FC C0 04            [24] 2183 	push	ar4
      0007FE C0 05            [24] 2184 	push	ar5
      000800 90 00 05         [24] 2185 	mov	dptr,#0x0005
      000803 12r00r00         [24] 2186 	lcall	__mulint
      000806 AC 82            [24] 2187 	mov	r4,dpl
      000808 AD 83            [24] 2188 	mov	r5,dph
      00080A 15 81            [12] 2189 	dec	sp
      00080C 15 81            [12] 2190 	dec	sp
      00080E 74 09            [12] 2191 	mov	a,#0x09
      000810 C0 E0            [24] 2192 	push	acc
      000812 E4               [12] 2193 	clr	a
      000813 C0 E0            [24] 2194 	push	acc
      000815 8C 82            [24] 2195 	mov	dpl,r4
      000817 8D 83            [24] 2196 	mov	dph,r5
      000819 12r00r00         [24] 2197 	lcall	__divsint
      00081C AC 82            [24] 2198 	mov	r4,dpl
      00081E AD 83            [24] 2199 	mov	r5,dph
      000820 15 81            [12] 2200 	dec	sp
      000822 15 81            [12] 2201 	dec	sp
      000824 D0 06            [24] 2202 	pop	ar6
      000826 D0 07            [24] 2203 	pop	ar7
      000828 0C               [12] 2204 	inc	r4
      000829 BC 00 01         [24] 2205 	cjne	r4,#0x00,00116$
      00082C 0D               [12] 2206 	inc	r5
      00082D                       2207 00116$:
      00082D C2 F0            [12] 2208 	clr	b[0]
      00082F C0 07            [24] 2209 	push	ar7
      000831 C0 06            [24] 2210 	push	ar6
      000833 85 F0*00         [24] 2211 	mov	bits,b
      000836 8C 82            [24] 2212 	mov	dpl,r4
      000838 8D 83            [24] 2213 	mov	dph,r5
      00083A 12r06r95         [24] 2214 	lcall	_LightTurn
      00083D D0 06            [24] 2215 	pop	ar6
      00083F D0 07            [24] 2216 	pop	ar7
      000841                       2217 00102$:
                                   2218 ;	usr/main.c:123: if ( A > 95)
      000841 C3               [12] 2219 	clr	c
      000842 74 5F            [12] 2220 	mov	a,#0x5f
      000844 9E               [12] 2221 	subb	a,r6
      000845 74 80            [12] 2222 	mov	a,#(0x00 ^ 0x80)
      000847 8F F0            [24] 2223 	mov	b,r7
      000849 63 F0 80         [24] 2224 	xrl	b,#0x80
      00084C 95 F0            [12] 2225 	subb	a,b
      00084E 50 41            [24] 2226 	jnc	00105$
                                   2227 ;	usr/main.c:125: LightTurn(Clockwise, 1+(A-90)*5/9);
      000850 EE               [12] 2228 	mov	a,r6
      000851 24 A6            [12] 2229 	add	a,#0xa6
      000853 FE               [12] 2230 	mov	r6,a
      000854 EF               [12] 2231 	mov	a,r7
      000855 34 FF            [12] 2232 	addc	a,#0xff
      000857 FF               [12] 2233 	mov	r7,a
      000858 C0 06            [24] 2234 	push	ar6
      00085A C0 07            [24] 2235 	push	ar7
      00085C 90 00 05         [24] 2236 	mov	dptr,#0x0005
      00085F 12r00r00         [24] 2237 	lcall	__mulint
      000862 AE 82            [24] 2238 	mov	r6,dpl
      000864 AF 83            [24] 2239 	mov	r7,dph
      000866 15 81            [12] 2240 	dec	sp
      000868 15 81            [12] 2241 	dec	sp
      00086A 74 09            [12] 2242 	mov	a,#0x09
      00086C C0 E0            [24] 2243 	push	acc
      00086E E4               [12] 2244 	clr	a
      00086F C0 E0            [24] 2245 	push	acc
      000871 8E 82            [24] 2246 	mov	dpl,r6
      000873 8F 83            [24] 2247 	mov	dph,r7
      000875 12r00r00         [24] 2248 	lcall	__divsint
      000878 AE 82            [24] 2249 	mov	r6,dpl
      00087A AF 83            [24] 2250 	mov	r7,dph
      00087C 15 81            [12] 2251 	dec	sp
      00087E 15 81            [12] 2252 	dec	sp
      000880 0E               [12] 2253 	inc	r6
      000881 BE 00 01         [24] 2254 	cjne	r6,#0x00,00118$
      000884 0F               [12] 2255 	inc	r7
      000885                       2256 00118$:
      000885 D2 F0            [12] 2257 	setb	b[0]
      000887 85 F0*00         [24] 2258 	mov	bits,b
      00088A 8E 82            [24] 2259 	mov	dpl,r6
      00088C 8F 83            [24] 2260 	mov	dph,r7
                                   2261 ;	usr/main.c:128: }
      00088E 02r06r95         [24] 2262 	ljmp	_LightTurn
      000891                       2263 00105$:
      000891 22               [24] 2264 	ret
                                   2265 ;------------------------------------------------------------
                                   2266 ;Allocation info for local variables in function 'main'
                                   2267 ;------------------------------------------------------------
                                   2268 ;object                    Allocated to stack - _bp +1
                                   2269 ;------------------------------------------------------------
                                   2270 ;	usr/main.c:135: void main()
                                   2271 ;	-----------------------------------------
                                   2272 ;	 function main
                                   2273 ;	-----------------------------------------
      000892                       2274 _main:
      000892 C0*00            [24] 2275 	push	_bp
      000894 E5 81            [12] 2276 	mov	a,sp
      000896 F5*00            [12] 2277 	mov	_bp,a
      000898 24 19            [12] 2278 	add	a,#0x19
      00089A F5 81            [12] 2279 	mov	sp,a
                                   2280 ;	usr/main.c:137: CfgFsys( );           //CH549时钟选择配置
      00089C 12r00r00         [24] 2281 	lcall	_CfgFsys
                                   2282 ;	usr/main.c:138: mDelaymS(20);
      00089F 90 00 14         [24] 2283 	mov	dptr,#0x0014
      0008A2 12r00r00         [24] 2284 	lcall	_mDelaymS
                                   2285 ;	usr/main.c:139: UART1Init(115200,1);
      0008A5 74 01            [12] 2286 	mov	a,#0x01
      0008A7 C0 E0            [24] 2287 	push	acc
      0008A9 90 C2 00         [24] 2288 	mov	dptr,#0xc200
      0008AC 75 F0 01         [24] 2289 	mov	b,#0x01
      0008AF E4               [12] 2290 	clr	a
      0008B0 12r00r00         [24] 2291 	lcall	_UART1Init
      0008B3 15 81            [12] 2292 	dec	sp
                                   2293 ;	usr/main.c:142: SPIMasterModeSet(3);  //SPI主机模式设置，模式3
      0008B5 75 82 03         [24] 2294 	mov	dpl,#0x03
      0008B8 12r00r00         [24] 2295 	lcall	_SPIMasterModeSet
                                   2296 ;	usr/main.c:143: SPI_CK_SET(4);       //设置SPI sclk 时钟信号分频
      0008BB 75 FB 04         [24] 2297 	mov	_SPI0_CK_SE,#0x04
                                   2298 ;	usr/main.c:144: OLED_Init();		  //初始化OLED  
      0008BE 12r00r00         [24] 2299 	lcall	_OLED_Init
                                   2300 ;	usr/main.c:145: OLED_Clear();         //将OLED屏幕上内容清除
      0008C1 12r00r00         [24] 2301 	lcall	_OLED_Clear
                                   2302 ;	usr/main.c:146: setFontSize(8);      //设置文字大小
      0008C4 75 82 08         [24] 2303 	mov	dpl,#0x08
      0008C7 12r00r00         [24] 2304 	lcall	_setFontSize
                                   2305 ;	usr/main.c:148: OLED_Clear();
      0008CA 12r00r00         [24] 2306 	lcall	_OLED_Clear
                                   2307 ;	usr/main.c:149: setCursor(0,0);
      0008CD E4               [12] 2308 	clr	a
      0008CE C0 E0            [24] 2309 	push	acc
      0008D0 C0 E0            [24] 2310 	push	acc
      0008D2 90 00 00         [24] 2311 	mov	dptr,#0x0000
      0008D5 12r0Br83         [24] 2312 	lcall	_setCursor
      0008D8 15 81            [12] 2313 	dec	sp
      0008DA 15 81            [12] 2314 	dec	sp
                                   2315 ;	usr/main.c:150: printf_fast_f("Radar");
      0008DC 74r11            [12] 2316 	mov	a,#___str_1
      0008DE C0 E0            [24] 2317 	push	acc
      0008E0 74s00            [12] 2318 	mov	a,#(___str_1 >> 8)
      0008E2 C0 E0            [24] 2319 	push	acc
      0008E4 12r00r00         [24] 2320 	lcall	_printf_fast_f
      0008E7 15 81            [12] 2321 	dec	sp
      0008E9 15 81            [12] 2322 	dec	sp
                                   2323 ;	usr/main.c:152: while(1){
      0008EB                       2324 00114$:
                                   2325 ;	usr/main.c:153: if(fRecv){
      0008EB 90r00r23         [24] 2326 	mov	dptr,#_fRecv
      0008EE E0               [24] 2327 	movx	a,@dptr
      0008EF 60 FA            [24] 2328 	jz	00114$
                                   2329 ;	usr/main.c:154: fRecv = 0;		
      0008F1 90r00r23         [24] 2330 	mov	dptr,#_fRecv
      0008F4 E4               [12] 2331 	clr	a
      0008F5 F0               [24] 2332 	movx	@dptr,a
                                   2333 ;	usr/main.c:155: if (pBuf == 28){
      0008F6 90r00r22         [24] 2334 	mov	dptr,#_pBuf
      0008F9 E0               [24] 2335 	movx	a,@dptr
      0008FA FF               [12] 2336 	mov	r7,a
      0008FB BF 1C 02         [24] 2337 	cjne	r7,#0x1c,00147$
      0008FE 80 03            [24] 2338 	sjmp	00148$
      000900                       2339 00147$:
      000900 02r0ArF2         [24] 2340 	ljmp	00107$
      000903                       2341 00148$:
                                   2342 ;	usr/main.c:156: pBuf = 0;
      000903 90r00r22         [24] 2343 	mov	dptr,#_pBuf
      000906 E4               [12] 2344 	clr	a
      000907 F0               [24] 2345 	movx	@dptr,a
                                   2346 ;	usr/main.c:157: IE_UART1 = 0;
                                   2347 ;	assignBit
      000908 C2 EC            [12] 2348 	clr	_IE_UART1
                                   2349 ;	usr/main.c:158: setCursor(0,3);
      00090A 74 03            [12] 2350 	mov	a,#0x03
      00090C C0 E0            [24] 2351 	push	acc
      00090E E4               [12] 2352 	clr	a
      00090F C0 E0            [24] 2353 	push	acc
      000911 90 00 00         [24] 2354 	mov	dptr,#0x0000
      000914 12r0Br83         [24] 2355 	lcall	_setCursor
      000917 15 81            [12] 2356 	dec	sp
      000919 15 81            [12] 2357 	dec	sp
                                   2358 ;	usr/main.c:159: if(recvBuf[0]==0XAA && recvBuf[26]==0X55 && recvBuf[27]==0XCC){
      00091B 90r00r04         [24] 2359 	mov	dptr,#_recvBuf
      00091E E0               [24] 2360 	movx	a,@dptr
      00091F FF               [12] 2361 	mov	r7,a
      000920 BF AA 02         [24] 2362 	cjne	r7,#0xaa,00149$
      000923 80 03            [24] 2363 	sjmp	00150$
      000925                       2364 00149$:
      000925 02r0Ar9C         [24] 2365 	ljmp	00102$
      000928                       2366 00150$:
      000928 90r00r1E         [24] 2367 	mov	dptr,#(_recvBuf + 0x001a)
      00092B E0               [24] 2368 	movx	a,@dptr
      00092C FF               [12] 2369 	mov	r7,a
      00092D BF 55 02         [24] 2370 	cjne	r7,#0x55,00151$
      000930 80 03            [24] 2371 	sjmp	00152$
      000932                       2372 00151$:
      000932 02r0Ar9C         [24] 2373 	ljmp	00102$
      000935                       2374 00152$:
      000935 90r00r1F         [24] 2375 	mov	dptr,#(_recvBuf + 0x001b)
      000938 E0               [24] 2376 	movx	a,@dptr
      000939 FF               [12] 2377 	mov	r7,a
      00093A BF CC 02         [24] 2378 	cjne	r7,#0xcc,00153$
      00093D 80 03            [24] 2379 	sjmp	00154$
      00093F                       2380 00153$:
      00093F 02r0Ar9C         [24] 2381 	ljmp	00102$
      000942                       2382 00154$:
                                   2383 ;	usr/main.c:161: decode_XenP201S(recvBuf,&object);										
      000942 A9*00            [24] 2384 	mov	r1,_bp
      000944 09               [12] 2385 	inc	r1
      000945 89 05            [24] 2386 	mov	ar5,r1
      000947 7E 00            [12] 2387 	mov	r6,#0x00
      000949 7F 40            [12] 2388 	mov	r7,#0x40
      00094B C0 01            [24] 2389 	push	ar1
      00094D C0 05            [24] 2390 	push	ar5
      00094F C0 06            [24] 2391 	push	ar6
      000951 C0 07            [24] 2392 	push	ar7
      000953 90r00r04         [24] 2393 	mov	dptr,#_recvBuf
      000956 75 F0 00         [24] 2394 	mov	b,#0x00
      000959 12r00r46         [24] 2395 	lcall	_decode_XenP201S
      00095C 15 81            [12] 2396 	dec	sp
      00095E 15 81            [12] 2397 	dec	sp
      000960 15 81            [12] 2398 	dec	sp
                                   2399 ;	usr/main.c:162: setCursor(0,0);
      000962 E4               [12] 2400 	clr	a
      000963 C0 E0            [24] 2401 	push	acc
      000965 C0 E0            [24] 2402 	push	acc
      000967 90 00 00         [24] 2403 	mov	dptr,#0x0000
      00096A 12r0Br83         [24] 2404 	lcall	_setCursor
      00096D 15 81            [12] 2405 	dec	sp
      00096F 15 81            [12] 2406 	dec	sp
      000971 D0 01            [24] 2407 	pop	ar1
                                   2408 ;	usr/main.c:163: printf_fast_f("X :%5d%5d%5d",object.x1Pos,object.x2Pos,object.x3Pos);
      000973 74 10            [12] 2409 	mov	a,#0x10
      000975 29               [12] 2410 	add	a,r1
      000976 F8               [12] 2411 	mov	r0,a
      000977 86 06            [24] 2412 	mov	ar6,@r0
      000979 08               [12] 2413 	inc	r0
      00097A 86 07            [24] 2414 	mov	ar7,@r0
      00097C 18               [12] 2415 	dec	r0
      00097D 74 08            [12] 2416 	mov	a,#0x08
      00097F 29               [12] 2417 	add	a,r1
      000980 F8               [12] 2418 	mov	r0,a
      000981 86 04            [24] 2419 	mov	ar4,@r0
      000983 08               [12] 2420 	inc	r0
      000984 86 05            [24] 2421 	mov	ar5,@r0
      000986 18               [12] 2422 	dec	r0
      000987 87 02            [24] 2423 	mov	ar2,@r1
      000989 09               [12] 2424 	inc	r1
      00098A 87 03            [24] 2425 	mov	ar3,@r1
      00098C 19               [12] 2426 	dec	r1
      00098D C0 01            [24] 2427 	push	ar1
      00098F C0 06            [24] 2428 	push	ar6
      000991 C0 07            [24] 2429 	push	ar7
      000993 C0 04            [24] 2430 	push	ar4
      000995 C0 05            [24] 2431 	push	ar5
      000997 C0 02            [24] 2432 	push	ar2
      000999 C0 03            [24] 2433 	push	ar3
      00099B 74r17            [12] 2434 	mov	a,#___str_2
      00099D C0 E0            [24] 2435 	push	acc
      00099F 74s00            [12] 2436 	mov	a,#(___str_2 >> 8)
      0009A1 C0 E0            [24] 2437 	push	acc
      0009A3 12r00r00         [24] 2438 	lcall	_printf_fast_f
      0009A6 E5 81            [12] 2439 	mov	a,sp
      0009A8 24 F8            [12] 2440 	add	a,#0xf8
      0009AA F5 81            [12] 2441 	mov	sp,a
                                   2442 ;	usr/main.c:164: setCursor(0,1);
      0009AC 74 01            [12] 2443 	mov	a,#0x01
      0009AE C0 E0            [24] 2444 	push	acc
      0009B0 E4               [12] 2445 	clr	a
      0009B1 C0 E0            [24] 2446 	push	acc
      0009B3 90 00 00         [24] 2447 	mov	dptr,#0x0000
      0009B6 12r0Br83         [24] 2448 	lcall	_setCursor
      0009B9 15 81            [12] 2449 	dec	sp
      0009BB 15 81            [12] 2450 	dec	sp
      0009BD D0 01            [24] 2451 	pop	ar1
                                   2452 ;	usr/main.c:165: printf_fast_f("Y :%5d%5d%5d",object.y1Pos,object.y2Pos,object.y3Pos);
      0009BF 74 12            [12] 2453 	mov	a,#0x12
      0009C1 29               [12] 2454 	add	a,r1
      0009C2 F8               [12] 2455 	mov	r0,a
      0009C3 86 06            [24] 2456 	mov	ar6,@r0
      0009C5 08               [12] 2457 	inc	r0
      0009C6 86 07            [24] 2458 	mov	ar7,@r0
      0009C8 18               [12] 2459 	dec	r0
      0009C9 74 0A            [12] 2460 	mov	a,#0x0a
      0009CB 29               [12] 2461 	add	a,r1
      0009CC F8               [12] 2462 	mov	r0,a
      0009CD 86 04            [24] 2463 	mov	ar4,@r0
      0009CF 08               [12] 2464 	inc	r0
      0009D0 86 05            [24] 2465 	mov	ar5,@r0
      0009D2 18               [12] 2466 	dec	r0
      0009D3 74 02            [12] 2467 	mov	a,#0x02
      0009D5 29               [12] 2468 	add	a,r1
      0009D6 F8               [12] 2469 	mov	r0,a
      0009D7 86 02            [24] 2470 	mov	ar2,@r0
      0009D9 08               [12] 2471 	inc	r0
      0009DA 86 03            [24] 2472 	mov	ar3,@r0
      0009DC 18               [12] 2473 	dec	r0
      0009DD C0 01            [24] 2474 	push	ar1
      0009DF C0 06            [24] 2475 	push	ar6
      0009E1 C0 07            [24] 2476 	push	ar7
      0009E3 C0 04            [24] 2477 	push	ar4
      0009E5 C0 05            [24] 2478 	push	ar5
      0009E7 C0 02            [24] 2479 	push	ar2
      0009E9 C0 03            [24] 2480 	push	ar3
      0009EB 74r24            [12] 2481 	mov	a,#___str_3
      0009ED C0 E0            [24] 2482 	push	acc
      0009EF 74s00            [12] 2483 	mov	a,#(___str_3 >> 8)
      0009F1 C0 E0            [24] 2484 	push	acc
      0009F3 12r00r00         [24] 2485 	lcall	_printf_fast_f
      0009F6 E5 81            [12] 2486 	mov	a,sp
      0009F8 24 F8            [12] 2487 	add	a,#0xf8
      0009FA F5 81            [12] 2488 	mov	sp,a
                                   2489 ;	usr/main.c:166: setCursor(0,2);
      0009FC 74 02            [12] 2490 	mov	a,#0x02
      0009FE C0 E0            [24] 2491 	push	acc
      000A00 E4               [12] 2492 	clr	a
      000A01 C0 E0            [24] 2493 	push	acc
      000A03 90 00 00         [24] 2494 	mov	dptr,#0x0000
      000A06 12r0Br83         [24] 2495 	lcall	_setCursor
      000A09 15 81            [12] 2496 	dec	sp
      000A0B 15 81            [12] 2497 	dec	sp
      000A0D D0 01            [24] 2498 	pop	ar1
                                   2499 ;	usr/main.c:167: printf_fast_f("D :%5d%5d%5d",object.dist1,object.dist2,object.dist3);
      000A0F 74 14            [12] 2500 	mov	a,#0x14
      000A11 29               [12] 2501 	add	a,r1
      000A12 F8               [12] 2502 	mov	r0,a
      000A13 86 06            [24] 2503 	mov	ar6,@r0
      000A15 08               [12] 2504 	inc	r0
      000A16 86 07            [24] 2505 	mov	ar7,@r0
      000A18 18               [12] 2506 	dec	r0
      000A19 74 0C            [12] 2507 	mov	a,#0x0c
      000A1B 29               [12] 2508 	add	a,r1
      000A1C F8               [12] 2509 	mov	r0,a
      000A1D 86 04            [24] 2510 	mov	ar4,@r0
      000A1F 08               [12] 2511 	inc	r0
      000A20 86 05            [24] 2512 	mov	ar5,@r0
      000A22 18               [12] 2513 	dec	r0
      000A23 74 04            [12] 2514 	mov	a,#0x04
      000A25 29               [12] 2515 	add	a,r1
      000A26 F8               [12] 2516 	mov	r0,a
      000A27 86 02            [24] 2517 	mov	ar2,@r0
      000A29 08               [12] 2518 	inc	r0
      000A2A 86 03            [24] 2519 	mov	ar3,@r0
      000A2C 18               [12] 2520 	dec	r0
      000A2D C0 01            [24] 2521 	push	ar1
      000A2F C0 06            [24] 2522 	push	ar6
      000A31 C0 07            [24] 2523 	push	ar7
      000A33 C0 04            [24] 2524 	push	ar4
      000A35 C0 05            [24] 2525 	push	ar5
      000A37 C0 02            [24] 2526 	push	ar2
      000A39 C0 03            [24] 2527 	push	ar3
      000A3B 74r31            [12] 2528 	mov	a,#___str_4
      000A3D C0 E0            [24] 2529 	push	acc
      000A3F 74s00            [12] 2530 	mov	a,#(___str_4 >> 8)
      000A41 C0 E0            [24] 2531 	push	acc
      000A43 12r00r00         [24] 2532 	lcall	_printf_fast_f
      000A46 E5 81            [12] 2533 	mov	a,sp
      000A48 24 F8            [12] 2534 	add	a,#0xf8
      000A4A F5 81            [12] 2535 	mov	sp,a
                                   2536 ;	usr/main.c:168: setCursor(0,3);
      000A4C 74 03            [12] 2537 	mov	a,#0x03
      000A4E C0 E0            [24] 2538 	push	acc
      000A50 E4               [12] 2539 	clr	a
      000A51 C0 E0            [24] 2540 	push	acc
      000A53 90 00 00         [24] 2541 	mov	dptr,#0x0000
      000A56 12r0Br83         [24] 2542 	lcall	_setCursor
      000A59 15 81            [12] 2543 	dec	sp
      000A5B 15 81            [12] 2544 	dec	sp
      000A5D D0 01            [24] 2545 	pop	ar1
                                   2546 ;	usr/main.c:169: printf_fast_f("A :%5d%5d%5d",object.ang1,object.ang2,object.ang3);
      000A5F 74 16            [12] 2547 	mov	a,#0x16
      000A61 29               [12] 2548 	add	a,r1
      000A62 F8               [12] 2549 	mov	r0,a
      000A63 86 06            [24] 2550 	mov	ar6,@r0
      000A65 08               [12] 2551 	inc	r0
      000A66 86 07            [24] 2552 	mov	ar7,@r0
      000A68 18               [12] 2553 	dec	r0
      000A69 74 0E            [12] 2554 	mov	a,#0x0e
      000A6B 29               [12] 2555 	add	a,r1
      000A6C F8               [12] 2556 	mov	r0,a
      000A6D 86 04            [24] 2557 	mov	ar4,@r0
      000A6F 08               [12] 2558 	inc	r0
      000A70 86 05            [24] 2559 	mov	ar5,@r0
      000A72 18               [12] 2560 	dec	r0
      000A73 74 06            [12] 2561 	mov	a,#0x06
      000A75 29               [12] 2562 	add	a,r1
      000A76 F9               [12] 2563 	mov	r1,a
      000A77 87 02            [24] 2564 	mov	ar2,@r1
      000A79 09               [12] 2565 	inc	r1
      000A7A 87 03            [24] 2566 	mov	ar3,@r1
      000A7C 19               [12] 2567 	dec	r1
      000A7D C0 06            [24] 2568 	push	ar6
      000A7F C0 07            [24] 2569 	push	ar7
      000A81 C0 04            [24] 2570 	push	ar4
      000A83 C0 05            [24] 2571 	push	ar5
      000A85 C0 02            [24] 2572 	push	ar2
      000A87 C0 03            [24] 2573 	push	ar3
      000A89 74r3E            [12] 2574 	mov	a,#___str_5
      000A8B C0 E0            [24] 2575 	push	acc
      000A8D 74s00            [12] 2576 	mov	a,#(___str_5 >> 8)
      000A8F C0 E0            [24] 2577 	push	acc
      000A91 12r00r00         [24] 2578 	lcall	_printf_fast_f
      000A94 E5 81            [12] 2579 	mov	a,sp
      000A96 24 F8            [12] 2580 	add	a,#0xf8
      000A98 F5 81            [12] 2581 	mov	sp,a
      000A9A 80 41            [24] 2582 	sjmp	00103$
      000A9C                       2583 00102$:
                                   2584 ;	usr/main.c:173: setCursor(0,0);
      000A9C E4               [12] 2585 	clr	a
      000A9D C0 E0            [24] 2586 	push	acc
      000A9F C0 E0            [24] 2587 	push	acc
      000AA1 90 00 00         [24] 2588 	mov	dptr,#0x0000
      000AA4 12r0Br83         [24] 2589 	lcall	_setCursor
      000AA7 15 81            [12] 2590 	dec	sp
      000AA9 15 81            [12] 2591 	dec	sp
                                   2592 ;	usr/main.c:174: printf_fast_f(" %x %x %x ",recvBuf[0],recvBuf[26],recvBuf[27]);
      000AAB 90r00r1F         [24] 2593 	mov	dptr,#(_recvBuf + 0x001b)
      000AAE E0               [24] 2594 	movx	a,@dptr
      000AAF FF               [12] 2595 	mov	r7,a
      000AB0 7E 00            [12] 2596 	mov	r6,#0x00
      000AB2 90r00r1E         [24] 2597 	mov	dptr,#(_recvBuf + 0x001a)
      000AB5 E0               [24] 2598 	movx	a,@dptr
      000AB6 FD               [12] 2599 	mov	r5,a
      000AB7 7C 00            [12] 2600 	mov	r4,#0x00
      000AB9 90r00r04         [24] 2601 	mov	dptr,#_recvBuf
      000ABC E0               [24] 2602 	movx	a,@dptr
      000ABD FB               [12] 2603 	mov	r3,a
      000ABE 7A 00            [12] 2604 	mov	r2,#0x00
      000AC0 C0 07            [24] 2605 	push	ar7
      000AC2 C0 06            [24] 2606 	push	ar6
      000AC4 C0 05            [24] 2607 	push	ar5
      000AC6 C0 04            [24] 2608 	push	ar4
      000AC8 C0 03            [24] 2609 	push	ar3
      000ACA C0 02            [24] 2610 	push	ar2
      000ACC 74r4B            [12] 2611 	mov	a,#___str_6
      000ACE C0 E0            [24] 2612 	push	acc
      000AD0 74s00            [12] 2613 	mov	a,#(___str_6 >> 8)
      000AD2 C0 E0            [24] 2614 	push	acc
      000AD4 12r00r00         [24] 2615 	lcall	_printf_fast_f
      000AD7 E5 81            [12] 2616 	mov	a,sp
      000AD9 24 F8            [12] 2617 	add	a,#0xf8
      000ADB F5 81            [12] 2618 	mov	sp,a
      000ADD                       2619 00103$:
                                   2620 ;	usr/main.c:176: IE_UART1 = 1;
                                   2621 ;	assignBit
      000ADD D2 EC            [12] 2622 	setb	_IE_UART1
                                   2623 ;	usr/main.c:177: FaceTrack(object.ang1);
      000ADF E5*00            [12] 2624 	mov	a,_bp
      000AE1 04               [12] 2625 	inc	a
      000AE2 24 06            [12] 2626 	add	a,#0x06
      000AE4 F9               [12] 2627 	mov	r1,a
      000AE5 87 06            [24] 2628 	mov	ar6,@r1
      000AE7 09               [12] 2629 	inc	r1
      000AE8 87 07            [24] 2630 	mov	ar7,@r1
      000AEA 19               [12] 2631 	dec	r1
      000AEB 8E 82            [24] 2632 	mov	dpl,r6
      000AED 8F 83            [24] 2633 	mov	dph,r7
      000AEF 12r07rE1         [24] 2634 	lcall	_FaceTrack
      000AF2                       2635 00107$:
                                   2636 ;	usr/main.c:179: if(recvBuf[0]!=0XAA){
      000AF2 90r00r04         [24] 2637 	mov	dptr,#_recvBuf
      000AF5 E0               [24] 2638 	movx	a,@dptr
      000AF6 FF               [12] 2639 	mov	r7,a
      000AF7 BF AA 02         [24] 2640 	cjne	r7,#0xaa,00155$
      000AFA 80 0A            [24] 2641 	sjmp	00109$
      000AFC                       2642 00155$:
                                   2643 ;	usr/main.c:180: P2_2 = 0;
                                   2644 ;	assignBit
      000AFC C2 A2            [12] 2645 	clr	_P2_2
                                   2646 ;	usr/main.c:181: pBuf=0;
      000AFE 90r00r22         [24] 2647 	mov	dptr,#_pBuf
      000B01 E4               [12] 2648 	clr	a
      000B02 F0               [24] 2649 	movx	@dptr,a
      000B03 02r08rEB         [24] 2650 	ljmp	00114$
      000B06                       2651 00109$:
                                   2652 ;	usr/main.c:183: P2_2 =1;
                                   2653 ;	assignBit
      000B06 D2 A2            [12] 2654 	setb	_P2_2
      000B08 02r08rEB         [24] 2655 	ljmp	00114$
                                   2656 ;	usr/main.c:187: }
      000B0B 85*00 81         [24] 2657 	mov	sp,_bp
      000B0E D0*00            [24] 2658 	pop	_bp
      000B10 22               [24] 2659 	ret
                                   2660 ;------------------------------------------------------------
                                   2661 ;Allocation info for local variables in function 'putchar'
                                   2662 ;------------------------------------------------------------
                                   2663 ;a                         Allocated to registers r6 r7 
                                   2664 ;------------------------------------------------------------
                                   2665 ;	usr/main.c:196: int putchar( int a)
                                   2666 ;	-----------------------------------------
                                   2667 ;	 function putchar
                                   2668 ;	-----------------------------------------
      000B11                       2669 _putchar:
      000B11 AE 82            [24] 2670 	mov	r6,dpl
      000B13 AF 83            [24] 2671 	mov	r7,dph
                                   2672 ;	usr/main.c:199: OLED_ShowChar(oled_colum,oled_row,a);
      000B15 8E 05            [24] 2673 	mov	ar5,r6
      000B17 90r00r02         [24] 2674 	mov	dptr,#_oled_row
      000B1A E0               [24] 2675 	movx	a,@dptr
      000B1B FB               [12] 2676 	mov	r3,a
      000B1C A3               [24] 2677 	inc	dptr
      000B1D E0               [24] 2678 	movx	a,@dptr
      000B1E 90r00r00         [24] 2679 	mov	dptr,#_oled_colum
      000B21 E0               [24] 2680 	movx	a,@dptr
      000B22 FA               [12] 2681 	mov	r2,a
      000B23 A3               [24] 2682 	inc	dptr
      000B24 E0               [24] 2683 	movx	a,@dptr
      000B25 C0 07            [24] 2684 	push	ar7
      000B27 C0 06            [24] 2685 	push	ar6
      000B29 C0 05            [24] 2686 	push	ar5
      000B2B C0 03            [24] 2687 	push	ar3
      000B2D 8A 82            [24] 2688 	mov	dpl,r2
      000B2F 12r00r00         [24] 2689 	lcall	_OLED_ShowChar
      000B32 15 81            [12] 2690 	dec	sp
      000B34 15 81            [12] 2691 	dec	sp
      000B36 D0 06            [24] 2692 	pop	ar6
      000B38 D0 07            [24] 2693 	pop	ar7
                                   2694 ;	usr/main.c:201: oled_colum+=6;
      000B3A 90r00r00         [24] 2695 	mov	dptr,#_oled_colum
      000B3D E0               [24] 2696 	movx	a,@dptr
      000B3E FC               [12] 2697 	mov	r4,a
      000B3F A3               [24] 2698 	inc	dptr
      000B40 E0               [24] 2699 	movx	a,@dptr
      000B41 FD               [12] 2700 	mov	r5,a
      000B42 90r00r00         [24] 2701 	mov	dptr,#_oled_colum
      000B45 74 06            [12] 2702 	mov	a,#0x06
      000B47 2C               [12] 2703 	add	a,r4
      000B48 F0               [24] 2704 	movx	@dptr,a
      000B49 E4               [12] 2705 	clr	a
      000B4A 3D               [12] 2706 	addc	a,r5
      000B4B A3               [24] 2707 	inc	dptr
      000B4C F0               [24] 2708 	movx	@dptr,a
                                   2709 ;	usr/main.c:206: if (oled_colum>122){oled_colum=0;oled_row+=1;}
      000B4D 90r00r00         [24] 2710 	mov	dptr,#_oled_colum
      000B50 E0               [24] 2711 	movx	a,@dptr
      000B51 FC               [12] 2712 	mov	r4,a
      000B52 A3               [24] 2713 	inc	dptr
      000B53 E0               [24] 2714 	movx	a,@dptr
      000B54 FD               [12] 2715 	mov	r5,a
      000B55 C3               [12] 2716 	clr	c
      000B56 74 7A            [12] 2717 	mov	a,#0x7a
      000B58 9C               [12] 2718 	subb	a,r4
      000B59 74 80            [12] 2719 	mov	a,#(0x00 ^ 0x80)
      000B5B 8D F0            [24] 2720 	mov	b,r5
      000B5D 63 F0 80         [24] 2721 	xrl	b,#0x80
      000B60 95 F0            [12] 2722 	subb	a,b
      000B62 50 1A            [24] 2723 	jnc	00102$
      000B64 90r00r00         [24] 2724 	mov	dptr,#_oled_colum
      000B67 E4               [12] 2725 	clr	a
      000B68 F0               [24] 2726 	movx	@dptr,a
      000B69 A3               [24] 2727 	inc	dptr
      000B6A F0               [24] 2728 	movx	@dptr,a
      000B6B 90r00r02         [24] 2729 	mov	dptr,#_oled_row
      000B6E E0               [24] 2730 	movx	a,@dptr
      000B6F FC               [12] 2731 	mov	r4,a
      000B70 A3               [24] 2732 	inc	dptr
      000B71 E0               [24] 2733 	movx	a,@dptr
      000B72 FD               [12] 2734 	mov	r5,a
      000B73 90r00r02         [24] 2735 	mov	dptr,#_oled_row
      000B76 74 01            [12] 2736 	mov	a,#0x01
      000B78 2C               [12] 2737 	add	a,r4
      000B79 F0               [24] 2738 	movx	@dptr,a
      000B7A E4               [12] 2739 	clr	a
      000B7B 3D               [12] 2740 	addc	a,r5
      000B7C A3               [24] 2741 	inc	dptr
      000B7D F0               [24] 2742 	movx	@dptr,a
      000B7E                       2743 00102$:
                                   2744 ;	usr/main.c:207: return(a);
      000B7E 8E 82            [24] 2745 	mov	dpl,r6
      000B80 8F 83            [24] 2746 	mov	dph,r7
                                   2747 ;	usr/main.c:208: }
      000B82 22               [24] 2748 	ret
                                   2749 ;------------------------------------------------------------
                                   2750 ;Allocation info for local variables in function 'setCursor'
                                   2751 ;------------------------------------------------------------
                                   2752 ;row                       Allocated to stack - _bp -4
                                   2753 ;column                    Allocated to registers 
                                   2754 ;------------------------------------------------------------
                                   2755 ;	usr/main.c:216: void setCursor(int column,int row)
                                   2756 ;	-----------------------------------------
                                   2757 ;	 function setCursor
                                   2758 ;	-----------------------------------------
      000B83                       2759 _setCursor:
      000B83 C0*00            [24] 2760 	push	_bp
      000B85 85 81*00         [24] 2761 	mov	_bp,sp
      000B88 AF 83            [24] 2762 	mov	r7,dph
      000B8A E5 82            [12] 2763 	mov	a,dpl
      000B8C 90r00r00         [24] 2764 	mov	dptr,#_oled_colum
      000B8F F0               [24] 2765 	movx	@dptr,a
      000B90 EF               [12] 2766 	mov	a,r7
      000B91 A3               [24] 2767 	inc	dptr
      000B92 F0               [24] 2768 	movx	@dptr,a
                                   2769 ;	usr/main.c:219: oled_row = row;
      000B93 E5*00            [12] 2770 	mov	a,_bp
      000B95 24 FC            [12] 2771 	add	a,#0xfc
      000B97 F8               [12] 2772 	mov	r0,a
      000B98 90r00r02         [24] 2773 	mov	dptr,#_oled_row
      000B9B E6               [12] 2774 	mov	a,@r0
      000B9C F0               [24] 2775 	movx	@dptr,a
      000B9D 08               [12] 2776 	inc	r0
      000B9E E6               [12] 2777 	mov	a,@r0
      000B9F A3               [24] 2778 	inc	dptr
      000BA0 F0               [24] 2779 	movx	@dptr,a
                                   2780 ;	usr/main.c:220: }
      000BA1 D0*00            [24] 2781 	pop	_bp
      000BA3 22               [24] 2782 	ret
                                   2783 ;------------------------------------------------------------
                                   2784 ;Allocation info for local variables in function 'UART1Interrupt'
                                   2785 ;------------------------------------------------------------
                                   2786 ;	usr/main.c:222: void UART1Interrupt(void) __interrupt INT_NO_UART1 __using 1 {
                                   2787 ;	-----------------------------------------
                                   2788 ;	 function UART1Interrupt
                                   2789 ;	-----------------------------------------
      000BA4                       2790 _UART1Interrupt:
                           00000F  2791 	ar7 = 0x0f
                           00000E  2792 	ar6 = 0x0e
                           00000D  2793 	ar5 = 0x0d
                           00000C  2794 	ar4 = 0x0c
                           00000B  2795 	ar3 = 0x0b
                           00000A  2796 	ar2 = 0x0a
                           000009  2797 	ar1 = 0x09
                           000008  2798 	ar0 = 0x08
      000BA4 C0*00            [24] 2799 	push	bits
      000BA6 C0 E0            [24] 2800 	push	acc
      000BA8 C0 F0            [24] 2801 	push	b
      000BAA C0 82            [24] 2802 	push	dpl
      000BAC C0 83            [24] 2803 	push	dph
      000BAE C0 07            [24] 2804 	push	(0+7)
      000BB0 C0 06            [24] 2805 	push	(0+6)
      000BB2 C0 05            [24] 2806 	push	(0+5)
      000BB4 C0 04            [24] 2807 	push	(0+4)
      000BB6 C0 03            [24] 2808 	push	(0+3)
      000BB8 C0 02            [24] 2809 	push	(0+2)
      000BBA C0 01            [24] 2810 	push	(0+1)
      000BBC C0 00            [24] 2811 	push	(0+0)
      000BBE C0 D0            [24] 2812 	push	psw
      000BC0 75 D0 08         [24] 2813 	mov	psw,#0x08
                                   2814 ;	usr/main.c:223: pBuf%=28;
      000BC3 90r00r22         [24] 2815 	mov	dptr,#_pBuf
      000BC6 E0               [24] 2816 	movx	a,@dptr
      000BC7 FF               [12] 2817 	mov	r7,a
      000BC8 7E 00            [12] 2818 	mov	r6,#0x00
      000BCA 74 1C            [12] 2819 	mov	a,#0x1c
      000BCC C0 E0            [24] 2820 	push	acc
      000BCE E4               [12] 2821 	clr	a
      000BCF C0 E0            [24] 2822 	push	acc
      000BD1 8F 82            [24] 2823 	mov	dpl,r7
      000BD3 8E 83            [24] 2824 	mov	dph,r6
      000BD5 75 D0 00         [24] 2825 	mov	psw,#0x00
      000BD8 12r00r00         [24] 2826 	lcall	__modsint
      000BDB 75 D0 08         [24] 2827 	mov	psw,#0x08
      000BDE AE 82            [24] 2828 	mov	r6,dpl
      000BE0 15 81            [12] 2829 	dec	sp
      000BE2 15 81            [12] 2830 	dec	sp
      000BE4 90r00r22         [24] 2831 	mov	dptr,#_pBuf
      000BE7 EE               [12] 2832 	mov	a,r6
      000BE8 F0               [24] 2833 	movx	@dptr,a
                                   2834 ;	usr/main.c:224: recvBuf[pBuf] = CH549UART1RcvByte();
      000BE9 E0               [24] 2835 	movx	a,@dptr
      000BEA 24r04            [12] 2836 	add	a,#_recvBuf
      000BEC FF               [12] 2837 	mov	r7,a
      000BED E4               [12] 2838 	clr	a
      000BEE 34s00            [12] 2839 	addc	a,#(_recvBuf >> 8)
      000BF0 FE               [12] 2840 	mov	r6,a
      000BF1 C0 0F            [24] 2841 	push	ar7
      000BF3 C0 0E            [24] 2842 	push	ar6
      000BF5 75 D0 00         [24] 2843 	mov	psw,#0x00
      000BF8 12r00r00         [24] 2844 	lcall	_CH549UART1RcvByte
      000BFB 75 D0 08         [24] 2845 	mov	psw,#0x08
      000BFE AD 82            [24] 2846 	mov	r5,dpl
      000C00 D0 0E            [24] 2847 	pop	ar6
      000C02 D0 0F            [24] 2848 	pop	ar7
      000C04 8F 82            [24] 2849 	mov	dpl,r7
      000C06 8E 83            [24] 2850 	mov	dph,r6
      000C08 ED               [12] 2851 	mov	a,r5
      000C09 F0               [24] 2852 	movx	@dptr,a
                                   2853 ;	usr/main.c:225: pBuf++;
      000C0A 90r00r22         [24] 2854 	mov	dptr,#_pBuf
      000C0D E0               [24] 2855 	movx	a,@dptr
      000C0E 04               [12] 2856 	inc	a
      000C0F F0               [24] 2857 	movx	@dptr,a
                                   2858 ;	usr/main.c:226: fRecv = 1;
      000C10 90r00r23         [24] 2859 	mov	dptr,#_fRecv
      000C13 74 01            [12] 2860 	mov	a,#0x01
      000C15 F0               [24] 2861 	movx	@dptr,a
                                   2862 ;	usr/main.c:227: }
      000C16 D0 D0            [24] 2863 	pop	psw
      000C18 D0 00            [24] 2864 	pop	(0+0)
      000C1A D0 01            [24] 2865 	pop	(0+1)
      000C1C D0 02            [24] 2866 	pop	(0+2)
      000C1E D0 03            [24] 2867 	pop	(0+3)
      000C20 D0 04            [24] 2868 	pop	(0+4)
      000C22 D0 05            [24] 2869 	pop	(0+5)
      000C24 D0 06            [24] 2870 	pop	(0+6)
      000C26 D0 07            [24] 2871 	pop	(0+7)
      000C28 D0 83            [24] 2872 	pop	dph
      000C2A D0 82            [24] 2873 	pop	dpl
      000C2C D0 F0            [24] 2874 	pop	b
      000C2E D0 E0            [24] 2875 	pop	acc
      000C30 D0*00            [24] 2876 	pop	bits
      000C32 32               [24] 2877 	reti
                                   2878 	.area CSEG    (CODE)
                                   2879 	.area CONST   (CODE)
                                   2880 	.area CONST   (CODE)
      000000                       2881 ___str_0:
      000000 44 3A 25 64 20 53 3A  2882 	.ascii "D:%d S:%3d G:%2d"
             25 33 64 20 47 3A 25
             32 64
      000010 00                    2883 	.db 0x00
                                   2884 	.area CSEG    (CODE)
                                   2885 	.area CONST   (CODE)
      000011                       2886 ___str_1:
      000011 52 61 64 61 72        2887 	.ascii "Radar"
      000016 00                    2888 	.db 0x00
                                   2889 	.area CSEG    (CODE)
                                   2890 	.area CONST   (CODE)
      000017                       2891 ___str_2:
      000017 58 20 3A 25 35 64 25  2892 	.ascii "X :%5d%5d%5d"
             35 64 25 35 64
      000023 00                    2893 	.db 0x00
                                   2894 	.area CSEG    (CODE)
                                   2895 	.area CONST   (CODE)
      000024                       2896 ___str_3:
      000024 59 20 3A 25 35 64 25  2897 	.ascii "Y :%5d%5d%5d"
             35 64 25 35 64
      000030 00                    2898 	.db 0x00
                                   2899 	.area CSEG    (CODE)
                                   2900 	.area CONST   (CODE)
      000031                       2901 ___str_4:
      000031 44 20 3A 25 35 64 25  2902 	.ascii "D :%5d%5d%5d"
             35 64 25 35 64
      00003D 00                    2903 	.db 0x00
                                   2904 	.area CSEG    (CODE)
                                   2905 	.area CONST   (CODE)
      00003E                       2906 ___str_5:
      00003E 41 20 3A 25 35 64 25  2907 	.ascii "A :%5d%5d%5d"
             35 64 25 35 64
      00004A 00                    2908 	.db 0x00
                                   2909 	.area CSEG    (CODE)
                                   2910 	.area CONST   (CODE)
      00004B                       2911 ___str_6:
      00004B 20 25 78 20 25 78 20  2912 	.ascii " %x %x %x "
             25 78 20
      000055 00                    2913 	.db 0x00
                                   2914 	.area CSEG    (CODE)
                                   2915 	.area CABS    (ABS,CODE)
